:100000000C946A000C9492000C9492000C94920050
:100010000C9492000C9492000C9492000C94920018
:100020000C9492000C9492000C9492000C94920008
:100030000C9492000C9492000C9492000C949200F8
:100040000C9492000C9492000C9492000C949200E8
:100050000C9492000C9492000C9492000C94E3285F
:100060000C9492000C9492000C9492000C949200C8
:100070000C9492000C9492000C9492000C949200B8
:100080000C942D290C9492000C9492000C949200E4
:100090000C9492000C9492000C9492000C94920098
:1000A0000C9492000C9492000C949200D5F08D1454
:1000B000A1C881CFD9F1AF200001010203040405DA
:1000C0000506060708090A0C0D0E0F10111214156B
:1000D0001600E12F11241FBECFEFDAE0DEBFCDBF47
:1000E00011E0A0E0B1E0EAE8F3E702C005900D926C
:1000F000A430B107D9F729E0A4E0B1E001C01D9216
:10010000A830B207E1F710E0CAE6D0E004C02197BA
:10011000FE010E94BD39C936D107C9F70E948C3053
:100120000C94C3390C940000782FE1EEF6E080E0E7
:10013000042E000C550B022E000C330B90819717E8
:1001400050F0691740F091819417150621F49281BF
:100150009217130629F08F5F3896813379F78FEF66
:100160000895603609F4682FE1EEF6E030E020E013
:1001700090E05081581770F0651760F09F5F9413FE
:1001800009C0C90123E0880F991F2A95E1F78F5113
:10019000994F08952F5F3F4F38962133310549F726
:1001A00081EE96E00895CF93DF93C62FD42F482F8A
:1001B00062E181E10E94B100FC018781CF3F71F0D3
:1001C000C483D683882329F0843080F483E0878336
:1001D0000DC083818930D1F381E0F9CF958194837B
:1001E00096838230C8F383508230B0F3DF91CF9191
:1001F0000895282F85E0820F8531B0F5862F062ED1
:10020000000C990B019636E1389FF001399FF00DF3
:100210001124EA51FA4FE20FF11D27FDFA95878D5F
:100220004F3F29F19091FC05690F9091FB05290F33
:10023000E1EEF6E0022E000C330B062E000C770BDD
:100240009081913009F49681911108C091819217A3
:10025000130621F492819617170641F0389698E01C
:10026000E936F90769F708958FEF0895842F089507
:100270000F93CF93DF93413011F0C1E02C278F37DC
:1002800081F16F3771F1D091FC05D60FC091FB055C
:10029000C80FC20F2D2F4C2F62E181E10E94940004
:1002A0008F3F41F42D2F4C2F6EE18EE10E94940080
:1002B0008F3FB9F028E0829FC00111248A519A4FE4
:1002C000FC01EE5FFE4F2081233030F482509F4FBF
:1002D000FC018081801728F482E0DF91CF910F919B
:1002E000089580E0FACFEF920F93982F862F642F16
:1002F000422F202F0E2D9133ACF49F323CF49F30CF
:100300003CF49C301CF49650933028F481E007C0F4
:100310009952933010F04230A1F40E9438010F91AD
:10032000EF9008959D332CF49B3344F49A3399F75E
:10033000EDCF933491F39E3471F7E8CF81E04230F2
:1003400071F380E0ECCF8633C4F584331CF584313F
:1003500041F034F58B3029F0FCF48F3F11F08130FF
:1003600051F56F37B9F04F37A9F02091FC05240FF4
:100370004091FB05460F61E080E00E9494008F3FB2
:1003800049F098E0899FF0011124EA51F94F81E08A
:100390009081911180E008958151823060F4E1CF25
:1003A0008D31F9F214F48751F8CF8532D1F21CF077
:1003B0008C528330B0F281E00895853491F24CF490
:1003C0008D3324F48B336CF68853E7CF8E3399F753
:1003D000C8CF8C342CF48A3424F6873461F7C1CF2B
:1003E0008F3409F4BECF813531F7BBCF882319F0A4
:1003F0004FEF0C94D3000895E1EEF6E083E0908196
:10040000913021F49781911101C08783389698E04B
:10041000E936F907A1F7089580911C0881110CC0F5
:10042000E3EFF6E02BE937E080818F5F8083389639
:100430002E173F07C9F708958A3091F30895482F82
:10044000209102013091030186B52827C9019695B4
:10045000879520FF02C024EB92279093030180939D
:100460000201641B770B0E949539840F0895E6EE14
:10047000F5E0A2E2B3E060E070E080E00E94C40238
:100480009D01AF0160E00E9456028217930751F46C
:10049000D901FA0160E00E945B0281931197D9F7BC
:1004A00061E0F1CF0E946102862F08950E945B02F5
:1004B000982F0C945B020DB407FEFDCF8EB51EBCC9
:1004C00008950DB407FEFDCF8EB5599A089522E226
:1004D00033E0E6EEF5E0A0E0B0E0BD0180E00E9490
:1004E000C4020E94B302BD011296A20FB31F82176D
:1004F000930799F38F5F9F4F21F4AF5FBF40DB01FC
:1005000078F00E940F0640E05091E4056091E50507
:1005100080E20E94B802599A0E942C05A0E0B0E047
:100520007CEF0E940F064A2F5091E4055B0F60910B
:10053000E505611D82E00E94B802832F71FD822FC4
:1005400070FD81910E94D002759518F421503040C1
:1005500019F01196AA2389F7599A0E942C052115A2
:100560003105F9F608950E945B02982F0C94610200
:1005700059980E94D002862F0E94D002852F0E9497
:10058000D002842F0C94D002462F5091E405570FCF
:100590006091E505681F83E00E94B8021EBC0895C3
:1005A0008EBD00008EB50DB407FEFCCF0895E6EEBB
:1005B000F5E097E09093DD068093DE0680916E086B
:1005C00090916F086CE070E00E94A9398589680FEE
:1005D0006093DB0680917008909171086FE170E084
:1005E0000E94A9398689680F6093DC0608951F93DD
:1005F000CF93DF9380917D0890917E086CE070E04E
:100600000E94A939C62F80917F08909180086FE1E0
:1006100070E00E94A939162F262F4C2F64E084E049
:100620000E949400D82F8F3F59F088E0D89FF001A6
:100630001124E951F94F8081811102C080E2808349
:10064000212F4FEF4C0F64E084E00E9494008F3F15
:1006500059F098E0899FF0011124E951F94F808108
:10066000811102C080E2808341E04C0F212F64E0C1
:1006700084E00E9494008F3F59F098E0899FF00138
:100680001124E951F94F8081811102C080E28083F9
:100690008D2FDF91CF911F9108955E98E4EEF1E0E8
:1006A00081E0A0E0B8E000800EBC8111012C119720
:1006B000A0FDFDCF0192B9F70DB45E9A0895E5E073
:1006C000F0E00E947403319728F068517C4F8F4FFF
:1006D0009F4FF9CFAB01FC010E94740364177507AB
:1006E0008E079F07C8F30895A6EDB1E02FB7F894E1
:1006F0007D918D919C9166B52FBFA89B05C06F3FE2
:1007000018F47F5F8F4F9F4F22E0660F771F881F7F
:10071000991F2A95D1F708956F927F928F92EF9249
:100720000F933B01882E0E94C3030E945602FC01D6
:100730000E945602DC010E94BB03482F9B010E94CD
:100740005B02082F0E946102E82ECF01BD010E94CA
:10075000CF03B301882D675F7F4F8F4FE6FC05C045
:10076000E7FEDFCF6627772788270F91EF908F90DE
:100770007F906F9008950E945602782F0E945B022E
:10078000682F892F0895462F5091DA01570F6091F5
:10079000DB01681F83E00E94B8021EBC08953F92EF
:1007A0004F925F926F927F928F929F92AF92BF9281
:1007B000CF92DF92EF92FF920F931F93CF93DF932D
:1007C0005C016B013901842E302E9E2C842FB901DF
:1007D0000E94C3030E945602482EC82FD92F0E94A0
:1007E000B302FC019E012A0D3B1D121613060CF0EC
:1007F000EBC040E8A416B1040CF0E6C08C0D9D1DC2
:10080000181619060CF0E0C040E4C416D1040CF030
:10081000DBC0B7FE0BC0EE24FF24EA18FB084E181D
:10082000203831055CF050E8452E08C021383105EC
:100830001CF020E8422E4A18F12CE12CD7FED6C03D
:10084000002711270C191D09087FCF01801B910B70
:100850005E2E501A8134910534F08C2D819587706D
:1008600040E4542E580E1595079515950795159546
:100870000795CF01079696958795969587959695B6
:100880008795389E9001399E300D1124200F311F1D
:1008900040E0BE010D2E000C880B0E947F39A82F6E
:1008A000CB018E0D9F1DA11DF7FCAA9594FE05C0DE
:1008B000880F991FAA1FCC0FDD1F24E0620E711C48
:1008C000811C680E791E8A1EC60123E095958795C6
:1008D0002A95E1F7080F31E0C1FC34E0C0FC330F8A
:1008E000C2FC329540E80403D0011124AA0DBB1DBF
:1008F000AE0DBF1DAC51BE4F252D599883E08EBD66
:100900008091DA019091DB01870D981D0DB407FEEF
:10091000FDCF9EBD0DB407FEFDCF8EBD0DB407FE0D
:10092000FDCF6EBC6C0E7D1E811C0DB407FEFDCF8D
:100930001EBC990C073014F4089430FD88949794E9
:1009400062E021FD68E022FD629520FF66956A95D0
:1009500011F028300CF06FEF942D0EB41EBC93FCF8
:100960000626862F90FC802D92FC0024039EA00179
:1009700094FA36F4C895C89511240EB41EBC90FCA8
:10098000082E039E003034F08C9191FE48274021C0
:1009900048274C93A058BF4F97FE06C08C9191FEFC
:1009A0005827512158275C931124AF57B0409A958E
:1009B000A1F6A058BF4FA419B109285003950DB452
:1009C000599A12160CF499CFDF91CF911F910F9184
:1009D000FF90EF90DF90CF90BF90AF909F908F905F
:1009E0007F906F905F904F903F9008955E2E81347E
:1009F00091051CF080E4582E5C1810E000E039CF1F
:100A00006091DF017091E0018091E1010E948C030F
:100A10009B01482FECEDF1E00780802D822B832B8A
:100A2000842B002019F00A9407820AC006800782EE
:100A3000882319F4208131814281238334834583C3
:100A40000895ECEDF1E060837183828363837483A6
:100A50008583468347830895599885E00E94D00294
:100A600080E00E94D00280FDFBCF599A0895FC01DE
:100A70000E945B02819361507040D1F70895409FBE
:100A800009F4142E5527020E151E600D711D851FC9
:100A900011240C94C3030F9303E020E00E943F0550
:100AA0000E945602782F0E946102682F892F0F91B1
:100AB0000895482F6EEA74E880E00E944B050E947A
:100AC000C30368E871E081EE96E00E9437050C945C
:100AD0006102DF92EF92FF920F931F93CF93DF9308
:100AE000D091FB05D111D650EFEFF5E08FEF819358
:100AF00096E0ED36F907D9F7C091FC05C15096E1B3
:100B0000D92E8091FC058C5FC817ACF5C7FD31C0AC
:100B10000091F9054091F1056AE574E880E00E94D2
:100B20004B052D2F4C2F0E943F0510E000E0EC2ECE
:100B30000C2E000CFF08063010F4DD2399F00E9403
:100B40005B029091FC059701291B31092F5F3F4FF4
:100B5000D29EF001D39EF00D1124EA51FA4FE00F1E
:100B6000F11F818F0F5F1F4F0631110521F70E9482
:100B70006102CF5FC6CFEDE6F6E086E0819396E0B6
:100B8000EB3DF907D9F7C091FC05C15086E1D82E9D
:100B90008091FC058C5FC817ACF5C7FD31C0009192
:100BA000F9054091F10560E374E880E00E944B058F
:100BB0002D2F4C2F0E943F0510E000E0EC2E0C2E54
:100BC000000CFF08063010F4DD2399F00E945B0250
:100BD0009091FC059701291B31092F5F3F4FD29E51
:100BE000F001D39EF00D1124E00FF11FE359F94FEE
:100BF00080830F5F1F4F0631110521F70E946102AC
:100C0000CF5FC6CFDF91CF911F910F91FF90EF90F3
:100C1000DF90089559980E94D002599A089586E06D
:100C20000C940A068091CF0108951092CF013E984E
:100C30003F9808953E9A3F9A81E08093CF010895AE
:100C4000ECEBF1E08285082E880FA681A80FB78112
:100C5000B11D8D919C910394A0850A1608F0002483
:100C600002860895E1E7F0E080818D7F8083109215
:100C700091004698479808950F931F93CF93DF9361
:100C80000E942006811520E8920731F4DF91CF9170
:100C90001F910F910C94320697FD05C02091CD0154
:100CA000222309F454C02091CE01211150C021E02B
:100CB0002093CC01EC01DF77209709F04BC081E055
:100CC0008093CB0146980FE91FE0CAEFD0E0E09196
:100CD000BA01F091BB010995811103C081E08093B5
:100CE000CB018091CC01882329F08091CB0188230E
:100CF00009F43FC047980E9420062FEF3FEFA9015B
:100D0000009751F09C01DE010E94703924EF31E020
:100D100040E050E00E944E39109290008AE08093AB
:100D2000910010939900009398002093C70130938D
:100D3000C8014093C9015093CA018091710082603B
:100D400080937100DF91CF911F910F9108951092C0
:100D5000CC01B0CF9E0150E040E060E472E48FE04F
:100D600090E00E942F398901015011091092CB01A6
:100D7000AECF4699BFCF479ABECFECEBF1E02185CD
:100D80003285231791F16381748185810E94C303A9
:100D9000231749F10E945602813060E8960741F41A
:100DA00080819181A28183839483A5831CD0EBCF22
:100DB000A681B781A20FB11DA20FB11D8D939C9387
:100DC00023956085261709F420E02187838194818B
:100DD000A5810296A11D83839483A5833F3FC1F61D
:100DE00030E03287D5CF0C9461020895ECEBF1E04E
:100DF00063837483858360837183828311868FEF1D
:100E000082870E94BD06E1E7F0E080818D7F8083CC
:100E10000C943C06382F262F972F862F6CE070E01D
:100E20000E94A939313021F0323041F08FEF08951E
:100E3000822F94EF699F800D112408958CE0869F86
:100E4000800D1124821B08959CEE980F963020F49B
:100E50002091910021111BC02091690830916A08EE
:100E60002A3A42E0340758F02D3A42E0340728F09D
:100E70002E5333402230310510F4963040F0482F85
:100E800064EC7EE880E00E944B050C94F606089521
:100E9000EF92FF921F93CF93DF93FC018081282F65
:100EA00030E08A3130F08A3250F08E54803108F4CC
:100EB00046C0DF91CF911F91FF90EF90089541813F
:100EC00082ED840F8630A8F7C9014A97EC0197FD9F
:100ED0002396D595C795D595C79564E070E00E9497
:100EE000A939182F81E041330CF480E0CF3F09F39A
:100EF000CC0F895EC80F88E0C89FE0011124CC5157
:100F0000D94F888190E0012E02C0959587950A946B
:100F1000E2F780FDCECF7F0183E10E94240721E02C
:100F200030E001C0220F1A95EAF78881822B88836E
:100F30008CEFF701818385E08093EF06BACF418182
:100F400082ED840F863008F0B4CFC9018E54910928
:100F5000EC0197FD2396D595C795D595C795CC5FA0
:100F6000BCCFFF920F931F93CF93DF93F82EEB012B
:100F70008A01BA0161507109660F771F072E000CB4
:100F8000880B655A7E41884F0E94C3030E945B0212
:100F9000082E000C990B21E0F21631F121E030E02F
:100FA000829FA001839F500D929F500D112417FD29
:100FB0001EC001E010E0409FC001419F900D509F76
:100FC000900D1124998388830E946102282F2003A9
:100FD000C001219F900D11249B838A83DF91CF91C3
:100FE0001F910F91FF9008952FEF3FEFD9CF0FEF93
:100FF0001FEFE1CF0F93880F4091E805480F04E001
:1010000020E06BE879E38AE00E943F050E945602E7
:10101000BC010E94B302AC01BB27A72F962F852FDE
:10102000BC018A2F0F910C942105A4EFB6E0E0E0FB
:101030008C91893009F0EF5F189687E0AC39B807DA
:10104000B9F7F0E0E754FF4F84910895CF92DF9213
:10105000EF920F936B01E82E8091690890916A08D6
:101060008C3A22E0920721F040E08F33934009F45C
:1010700041E08091E60581114E5F20911B01220F16
:1010800004E18E2DB6010E943F050E94B3020F912C
:10109000EF90DF90CF9008950F931F93CF93DF933E
:1010A000DC0121153105B1F0CD91DC91119782E081
:1010B0008EAF0CAD1DAD0E31110561F0C801880F6A
:1010C000991F8C0F9D1FFC0131832083F8013196FD
:1010D000FDAFECAF82E06417750708F1ED91FC916C
:1010E00084AD95AD8E31910571F0DC01AA0FBB1F67
:1010F000AE0FBF1F22273327241B350B2D933C93A4
:10110000019695AF84AF4F5F5F4F6417750740F747
:1011100082E086AFDF91CF911F910F91089546171E
:101120005707C0F3ED91FC91119786AF24AD35AD13
:101130002E31310559F0E901CC0FDD1FCE0FDF1F35
:10114000598348832F5F3F4F35AF24AF415051093A
:10115000E6CFAB011092880830E020E0BC0181E8C6
:1011600098E00C944C08CF93C82F80E00E9424078D
:10117000E0918108F091820815AE14AE6CEA72E03D
:101180008AEA92E0CC2321F06FE373E08EE393E0F0
:101190000E94A9081092790884E18093DF0680916B
:1011A0007008909171088833910551F08735910549
:1011B00039F0499719F480E38093E006CF910895C0
:1011C00081E0FACF1F93CF93DF93C82F142FD22F34
:1011D000262F482F69E189E10E9494008F3F11F189
:1011E0009091FB05C91B4CE0C49F402D11244D5F1D
:1011F000042E000C550B14171506A4F4D41715066D
:1012000089F084F098E0899FF0011124EC51F94FA6
:1012100080818B5F8B3030F481E0DF91CF911F9123
:101220000C94B308DF91CF911F9108959A01109209
:101230008808AB01BC0181E898E00C944C08DC0103
:10124000ED91FC9182E086AF84AD95AD8E31910534
:1012500061F0DC01AA0FBB1FAE0FBF1F6D937C9323
:10126000019695AF84AF81E0089580E008950F93D3
:101270001F93CF93DF938C01EB01FC01608171819F
:1012800080E061507242884F0E94C3030E94610255
:101290008150990BBC01660F771F680F791F072ECD
:1012A000000C880B69557741884FF801948111E053
:1012B000913009F41FEF0E94C3030E945602199F48
:1012C000902D11249883189F802D112489830E94CA
:1012D0006102189F802D11248A838981813811F43D
:1012E0008FE789838981823811F48EE78983DF91C2
:1012F000CF911F910F9108957F928F929F92AF92FD
:10130000BF92CF92DF92EF92FF920F931F93CF93F2
:10131000DF9300D01F92CDB7DEB7782EC0907D0846
:10132000D0907E0880907F0890908008BE016F5F0B
:101330007F4F89E698E00E9437091A81E090FB050B
:10134000C601810F911D17FD9A952CE0A22EB12C9C
:10135000B5010E94A939F62EFE18C4016FE170E0B4
:101360000E94A9398091FC05062F081B43E0602FDD
:101370008F2D0E94F9001F3709F477C0402F6F2D81
:101380000E94A301182F8130A1F18B819601280FB3
:10139000311D87FD3A95C901B5010E94A939162F63
:1013A0001E1943E0602F812F0E94F900402F612F0A
:1013B0000E94A301182F8130E1F07720D1F0E09056
:1013C0006D0860917D0870917E088E2D0E940A073D
:1013D000823079F481E032E0E31280E043E0602F74
:1013E0008F0D0E94F90091E0E916A9F022E0E216C3
:1013F00079F1812F0F900F900F90DF91CF911F9176
:101400000F91FF90EF90DF90CF90BF90AF909F90A3
:101410008F907F900895853231F06CF4843119F00B
:1014200024F48B3031F412E0E4CF8831E1F38D31D4
:10143000D1F310E0DECF8734B1F32CF48C3299F382
:101440008534B9F7F0CF8A3471F38F3491F7EBCF4D
:10145000863149F32CF4823031F3833151F7E3CFF5
:101460008C3109F38C3429F7DECF11E0C2CF6091C3
:10147000CF0182E090E00C941D392F923F924F9261
:101480005F926F927F928F929F92AF92BF92CF9214
:10149000DF92EF92FF920F931F93CF93DF93CDB71D
:1014A000DEB7A5970FB6F894DEBF0FBECDBF709024
:1014B0001101809110018095682E67208091690844
:1014C00090916A088353934010E0089708F44BC04A
:1014D00080917008909171082091FD05AC01421B2C
:1014E0005109473551050CF400C12091FC0530919C
:1014F000F105363099F4263089F4E0918108F091B5
:10150000820815AE14AE67E073E081E898E00E94AF
:101510001F098CE08093FC0510E014C090937308C1
:10152000809372088D55910990937108809370088B
:101530002D5F2093FC050E9469051092FD05109215
:10154000FE0511E080917008909171082091720859
:1015500030917308293331050CF06CC1C9971CF028
:1015600084E08093FE0581E08093860880911701D6
:10157000882319F0815080931701809115018823E9
:1015800079F0815080931501863451F445E060E68E
:1015900082E00E94B1006FEFFC0183810E94F6019E
:1015A0002091FC053091FB058091830881118150C9
:1015B00080938308809184088111815080938408EE
:1015C000E0918108F091820886AD882309F437C143
:1015D000815086AF80916E0890916F08FCE03F9F2C
:1015E000800D911D112490937E0880937D08809139
:1015F0007008909171083FE1239F800D911D112487
:101600009093800880937F08E0918908F0918A0880
:1016100086AD882309F415C1815086AFE0E9F8E072
:1016200088E099E020813181308B278722813381C6
:10163000328B218B78968E179F07A1F78091FE053C
:10164000833009F400C1843059F48091FD058F3155
:1016500038F48F5F8093FD058F3111F41092FE05F1
:1016600041EE56E058A34F8F99E6A92E98E0B92E87
:101670001A0100E026E0822E912C3FE1C32E40E6C5
:10168000D42E5FE1452E512CD1012C918091120175
:1016900090911301AC0143705527EFEFE20FEE314B
:1016A00008F0E4C0F0E0E95AF44F0C94BD393E0D67
:1016B000F30DF30D060E360C360CF30DF30DF30D92
:1016C000360CF30D360C360C360C360CBF0CD10C28
:1016D000D10C360CD30DD30DD30DD30D360C2F0CEE
:1016E000BF0C360C360C360CD10C182F121B17FF02
:1016F00015C09093730880937208835A9F4F9093FC
:101700007108809370088091FC0583508093FC05DC
:101710000E9469058FE18093FD0511CF80916E08CD
:1017200090916F0897FF49C088589F4F90936F081A
:1017300080936E088091FB058A508093FB050E9480
:1017400069058091F1058D3009F0FBCE8091FB0594
:101750008111F7CE8091FC058111F3CE83E0809357
:10176000ED0580E1809307098FE10E94FA079091CF
:10177000E9058091F305981740F098131AC020915D
:10178000EA059091F2052917A0F491E09093E705FE
:101790008093E9058091F2058093EA058091F40534
:1017A00090E09093EC058093EB051092E6050E9483
:1017B000670289E00E942407C4CE893791050CF4A2
:1017C000ABCE8857910990936F0880936E088091F3
:1017D000FB05865F8093FB050E9469058091F105FA
:1017E000883009F0AECE8091FB05883209F0A9CE91
:1017F0008091FC05833009F0A4CE80911501811100
:10180000A0CE809116018F5F80931601833008F47B
:1018100098CE46E062E181E10E94B100DC011396BE
:101820008C9181118ECE60EF8AEA0E941F02809314
:10183000150187CEC9970CF096CE83E092CE82E058
:10184000C8CE82E0EACE8091FD05882309F408CF56
:1018500081508093FD05882309F400CF01CFF10169
:1018600083818F5F873309F486C08383F8E02F0E6E
:10187000311CA214B30409F007CF2091DD0680913A
:10188000120190911301222329F080FD03C0215001
:101890002093DD0683709927892B39F48091DF0628
:1018A000823018F081508093DF060130D9F48091A6
:1018B000690890916A088E5B9240CC9798F080E01E
:1018C0000E94D70280917908882319F08150809373
:1018D000790880917908811102C00E94B30887E1DC
:1018E0000E9424078091ED058730F1F0809112016C
:1018F000909113012091EE053091EF05821B930B1F
:101900006DE270E00E949539892B71F48091F205A7
:10191000815087FF07C08091F305815087FF809336
:10192000F3058BE38093F2058091F60581118150D8
:101930008093F6058091F3059091F205892B79F457
:1019400083E08093ED0582E18093070983E10E94A3
:10195000FA0780E8809301018BE00E9424078091C0
:101960001A0190911901913009F46FC1923009F474
:1019700073C190E078C1EBEF1396EC9377CF80FDC5
:1019800075CF16968C911697833009F06FCF159608
:101990008C9115978B3008F069CF8F5F15968C93DB
:1019A00065CF452B09F062CFF10184819781923098
:1019B000C1F1933009F44AC0913001F590E00896E6
:1019C00026812817190609F0CCF483818930B0F4F8
:1019D000811105C06AE77CE880E00E94F606D1012B
:1019E00013968C9113978F5F13968C93139789306E
:1019F00029F48C91813169F0823179F0D10114960A
:101A00008C911497882309F431CF815014968C93CC
:101A10002DCF22E0F1012783F1CFE5E01796EC937B
:101A2000EDCF8150893050F7223141F313968C91DC
:101A3000893029F46CE37CE880E00E94F606F1012D
:101A400083818350838383E08783D8CF815089301B
:101A5000A8F6223199F213968C911397833020F0D7
:101A6000835013968C93CACF1382213121F02E31EB
:101A700029F626E0CFCF17961C92C0CF452B31F424
:101A8000F1018781882311F081508783D101169657
:101A90008C911697823018F0815016968C93F10134
:101AA0008681813009F0E2CE95819E5F95838381A6
:101AB000981708F4DBCE8E3F11F4D082D7CED10137
:101AC00022812F5F6C2D0E948939280F2283E3E148
:101AD000EC9380917D0890917E086CE070E00E940C
:101AE000A939062E000C770BD10111968C9186171F
:101AF000170671F480917F0890918008B2010E94CE
:101B0000A939062E000C770B2617170609F401E0F9
:101B10008091F1058B30E1F4E1EEF6E080819EEFFB
:101B2000980F923010F0873069F49181D1011196AD
:101B30008C911197981306C0928112968C919813EC
:101B400001C0D0823896B8E0E936FB0739F78ECE6F
:101B5000863009F08BCE81EEE82E86E0F82EF70174
:101B60008081823011F08730A9F4D70111969C91C1
:101B70001197F101818198130DC012968C91928179
:101B8000891B990B0296059728F440E060E083E0FA
:101B90000E94D300F8E0EF0EF11C29E6E21628E0DF
:101BA000F206E9F663CEB4010E949539892B09F05B
:101BB0005DCED10113968C91263141F0273169F029
:101BC00091E0811190E0F101938350CE8F5F8630D8
:101BD00039F0D10113968C9349CE8F5F8730C9F7C6
:101BE000F101138243CE452B09F040CE17968C911C
:101BF0001797823018F0815017968C93F1018781E6
:101C0000813009F033CE1682178230CE452B09F091
:101C10002DCE16968C911697843040F4813008F4BE
:101C200025CE815016968C931697E9CE92EE980F9A
:101C30008150F1018683933008F018CE848183307F
:101C400008F014CE8F5F848311CE8450863509F05E
:101C500090CE109219018DCE8C5F823809F089CE1A
:101C60001092190191E080931A01992371F083E891
:101C700084BD8FEF87BD81EF809380001092880034
:101C800010928A0085E08093ED05E0908908F0903D
:101C90008A08D701DC96AD90BC90C0900409909062
:101CA00003090091FB05802F90E0FC013996FD8F20
:101CB000EC8FD090FC054D2C512CF2E04F0E511CB6
:101CC00080917F08909180086FE170E00E94A939AF
:101CD000262F660F330B3AA329A3EBE9F8E040E087
:101CE0001E8E2FE130E0941611F40C94A825409339
:101CF0000409828181112FC0848195816CE070E09C
:101D00000E94A939868197816017B8F0AC8DBD8D8E
:101D10006A171B0609F08CF4B9010E94A9396D15E8
:101D200060F077274616570644F089A19AA16817F4
:101D30007907A1F08824839401C0812C80818111CE
:101D400007C080910509882319F081508093050907
:101D500081100C9468254F5F7896C5CF91E09E8FD7
:101D6000E9CF858590E0FCE02F9F800D911D112427
:101D700016969C938E931597E0910409E69FF001C7
:101D80001124E557F74F82E00C9408262F32F3E038
:101D90003F0729F02233334011F00C94CD26452B18
:101DA00011F00C94CD2617FF03C011950195110970
:101DB00017FD07C0053111050CF44AC00F3111059C
:101DC000F4F120E04D8164E0CE0101960E94202CC8
:101DD0008823F1F14FE253E06DE273E089E898E087
:101DE0000E94992F0C94CD260B5B1F4F0B381105C9
:101DF00010F00C94CD26452B11F00C94CD261E8DA1
:101E0000112311F40C94CD268091690890916A08F1
:101E10008C3A22E0920711F40C94CD268F33934034
:101E200011F40C94CD2626E233E04CE253E067E255
:101E300073E089E898E00E944C080C94CD268091CC
:101E4000690890916A0886529340489708F0B9CF84
:101E500066E273E089E898E00E941F090C94CD26A1
:101E600010161106E4F56130E9F522E0DC01149664
:101E70002C9380918A088F93809189088F93EDB776
:101E8000FEB778970FB6F894FEBF0FBEEDBFADB7A3
:101E9000BEB7119688E1FE01319601900D928A95A8
:101EA000E1F70E949D2F0FB6F894DEBF0FBECDBFA5
:101EB0008091690890916A0886529340489710F083
:101EC0000C94702580916D08823011F00C94CD2611
:101ED00081E080936D080E94BD2E0C94CD260115E3
:101EE0001105E1F42091690830916A08253363E017
:101EF000360708F04AC0233373E0370708F07BC089
:101F0000B9016A5A72406330710508F04AC022E193
:101F100030E04DEB52E064EB72E08BCF623011F7B2
:101F200021E0FC01248380918A088F9380918908A5
:101F30008F932DB73EB7285131090FB6F8943EBFA5
:101F40000FBE2DBFADB7BEB7119688E1FE01319629
:101F500001900D928A95E1F70E949D2F0FB6F8949B
:101F6000DEBF0FBECDBF8091690890916A0886528E
:101F70009340489710F00C94782580916D0881303B
:101F800011F00C94CD2682E0A4CF2733A3E03A07CA
:101F900008F475C0B9016E5373406230710508F4DE
:101FA000B6CF452B11F00C94CD2617FF03C0119529
:101FB0000195110917FD05CF053111050CF467C016
:101FC000013311050CF0FDCE60E180E00E941F029C
:101FD000882309F4F6CEE091040918E1E19FF001AD
:101FE0001124E557F74F808191818F32934011F092
:101FF0000C94CD262DCF6CE080E00E941F02811151
:1020000015C0E0918108F091820815AE14AE46E249
:1020100053E06DE373E08BE393E00E94160926E240
:1020200033E04DE353E06BE373E003CF6CE080E01B
:102030000E941F0281110C94CD2680918A088F93F3
:10204000809189088F936DB77EB7685171090FB67B
:10205000F8947EBF0FBE6DBFADB7BEB7119688E1D5
:10206000FE01319601900D928A95E1F70E949D2F15
:102070000FB6F894DEBF0FBECDBF0C94CD2668E03E
:1020800080E00E941F0281110C94CD26BACF2E331E
:10209000A3E03A07D0F52B33B3E03B0728F42652F0
:1020A00033402D303105B0F5DC0115962D913C9172
:1020B0008091FB05BCE08B9FC001112428173907D4
:1020C00014F40C94CD2680579F4F8217930714F475
:1020D0000C94CD2660E180E00E941F02882371F0FD
:1020E000E091040918E1E19FF0011124E557F74F51
:1020F000948180916D0898130C94CD2626E233E0EC
:102100004AE353E063E373E094CE2034334010F4A9
:102110000C94CD26DC0115962D913C918091FB0508
:10212000BCE08B9FC00111242817390714F40C94CC
:10213000CD2680579F4F8217930714F40C94CD2619
:10214000DDCF67E073E08AEF92E00E94A9088091FA
:10215000FB0560916E0870916F089CE0899F600D8F
:10216000711D112480916D080E940A07863089F044
:102170008A3049F0823011F00C94282761E372E034
:102180008CE292E00AC061E372E08CE292E00E948D
:10219000A90867E172E081E192E00E94A9080C942D
:1021A00028278E179F0711F00C9472287091E30670
:1021B000E62F062E000CFF0B7E171F0611F00C9465
:1021C00072287091E706733011F00C94722847EE74
:1021D00054E063E370E08FE290E00E941609809182
:1021E0006D08813021F1823011F00C94282767E0CE
:1021F00073E08AEF92E00E94A9088091FB0560914C
:102200006E0870916F08BCE08B9F600D711D1124EA
:1022100080916D080E940A07823019F1863011F012
:102220000C9428276CE272E081E392E0B6CF8091B3
:10223000FB0560916E0870916F08ACE08A9F600D9D
:10224000711D112481E00E940A07863009F496CF9F
:102250008A3011F00C94282767E172E080E192E067
:102260009CCF60E172E087E192E097CF21313105A8
:1022700011F40C9494282231310511F00C94282784
:10228000B090FB05ACE0BA9E60011124E0906E08AE
:10229000F0906F08B6016E0D7F1D852D0E940A0714
:1022A0008C3008F04CC0E82F880FFF0BE65AFE4E2A
:1022B0000C94BD39D21198119F11CE11D2119811E1
:1022C0009F11CE11D21198119F11CE112236F2E03A
:1022D0003F0709F4ABC3D8F42E32310509F4E4C248
:1022E0002031324011F00C942827072109F46FC3E4
:1022F00020E0452D62E089E698E00E94202C8823AA
:1023000009F465C369E070E085E090E046CF2632CD
:1023100073E0370709F41BC42D3483E0380709F450
:10232000C3C22D3A324011F00C9428270C94942803
:10233000BFEFEB1AFB0AF0926F08E0926E08A090D4
:10234000FC05E0906E08F0906F08EC0CFD1CF0921C
:102350007E08E0927D08C0907008D09071082FE14F
:10236000A29EC00CD11C1124D0928008C0927F087C
:10237000072109F45AC020E0452D72FE17C061E024
:1023800089E698E00E94202C882309F447C142E1A5
:1023900050E061E372E08CE292E036C2E1E0EE1AD6
:1023A000F108C9CFF2E0EF0EF11CC5CF60E089E67D
:1023B00098E00E94202C882341F060E172E081E8DF
:1023C00098E00E941F090C94282720E0452D61E029
:1023D00089E698E00E94202C8111D9CF74FE54C167
:1023E000E1E082E05E1281E00E94E72D182F8FEF7E
:1023F000810F823008F415C1852D0E94E72D8130B0
:1024000009F40EC1823009F421C111110AC1809171
:10241000F5058F5F8093F505843011F00C94282723
:1024200063E070E081E090E0B8CE172139F047EE2C
:1024300054E063E370E08FE290E0E6C173FECECF3C
:10244000C7016CE070E00E94A939962E9B18C60166
:102450006FE170E00E94A939062F0A19B701852D96
:102460000E940A07182F31E0FF24FA94531611F046
:10247000FF24F3949F0C28E0452D602F892D0E94A6
:1024800067298BA3EF2CE90C26E0452D602F8E2DBC
:102490000E94672989A3DF2CDE0C24E0452D602FE4
:1024A0008D2D0E946729A82EFD0C22E0452D602F5E
:1024B0008F2D0E9467298CA3CC24C394C00E28E0E2
:1024C000452D6C2D892D0E9467298C8F26E0452D86
:1024D0006C2D8E2D0E946729B82E24E0452D6C2D81
:1024E0008D2D0E946729482E22E0452D6C2D8F2DC1
:1024F0000E946729582E602F892D0E94BF298DA325
:10250000602F8E2D0E94BF29E82E602F8D2D0E94F6
:10251000BF29982E602F8F2D0E94BF29082F6C2D68
:102520008D2D0E94BF294BA1411174C059A1511199
:102530006CC0E1100EC0992061F068E0163009F41B
:1025400058C069E01A3009F454C0123011F465E043
:1025500050C0173014F00C94BD28A1100C94BD2865
:102560006CA161110C94B0287C8D71110C94D4284D
:10257000B1100C94C028411011C0552049F0E11051
:102580000DC091100BC06AE0123099F16BE031C0C0
:10259000E11004C0911002C00111F5CF41101CC020
:1025A000ADA1A11119C0E11017C08823A9F066E000
:1025B00020C0AA2011F40C94DD28EE2041F0163042
:1025C00059F11A3049F1123011F40C94D128FC8DD4
:1025D000F11105C0BB2011F3AA2009F4B8CF1630C1
:1025E00011F40C94D1281A30B9F061E0123009F0DE
:1025F000AECFB0E16B9FB001112480E0655E734CFB
:10260000854F0E94312F0C94282789A18150823058
:1026100008F09DCF60E0EDCF63E0EBCF712CDECE14
:1026200013E040E250E061E472E08FE492E00E9447
:102630001609133069F01430C1F0123089F442E108
:1026400050E06CE272E081E392E008C014E0E9CF70
:1026500047EE54E063E370E08FE290E00E941609D9
:1026600086E9809383080C94282747EE54E063E3BF
:1026700070E08FE290E00E94160942E150E061E3D1
:1026800072E08CE292E0EACF77FC02C00C9428273B
:10269000852D0E94072DE82F813040F0833008F40B
:1026A00052C089EF8E0F833008F44DC0F1E082E014
:1026B0005F1281E00E94072D382FC7016CE070E0A7
:1026C0000E94A939262FC6016FE170E00E94A93946
:1026D000E5E03130C1F12B19B22EA094A60E43E0F3
:1026E0006A2D81E0820F0E94F900182F43E06A2DC5
:1026F0008B2D0E94F900082F43E06A2D8FEF8B0D80
:102700000E94F900B82EB701852D0E940A0721E02A
:10271000521631F032E0531609F44CC0E3E013C016
:102720008A3009F060C01D3141F0A4F51231B1F3D7
:1027300044F5113099F31B3059F5812F0E948E29F1
:10274000E6E0811125C0C7016CE070E00E94A93964
:10275000462FC6016FE170E00E94A9392FEF260FC6
:10276000E250E83008F045C0F0E0E754FC4E0C942D
:10277000BD3941141C14FE1348144F1408142B14B3
:1027800020141431D1F224F088EE810F8330A8F2A6
:10279000E4E0D9CF153489F22CF4153271F21C32F1
:1027A000B9F7CBCF1A3449F21F3409F4C6CF173426
:1027B00079F7C3CF8A30B9F4033171F044F40230B1
:1027C00059F0023109F4AACF013011F7A7CF0C312B
:1027D00019F024F40631E1F68B2DB0CF0634E1F385
:1027E0000C34B1F6F9CF013009F498CF023181F6FB
:1027F00095CF60E270E083E190E0CFCC42E150E021
:1028000065E273E083E193E00E9416090C942827A7
:1028100051E081E0551201C08FEF480F61E080E088
:102820000E9494008F3F41F068E0869FF0011124E0
:10283000E951F94F8CE680830E94AF2E0C94282733
:1028400061E080E00E9494008F3FB1F378E0879FC1
:10285000F0011124EDCF81E0581201C08FEF480F35
:1028600061E080E00E9494008F3F41F098E0899FF2
:10287000F0011124E951F94F8CE680830E94AF2EBC
:1028800086CD60E270E083E190E00E94A90876CCFA
:1028900060E270E083E190E00E94A908C8CD6EE29A
:1028A00070E081E290E079CC74FE21C08091F10566
:1028B000873051F48091FB058A3031F48091FC051A
:1028C000811102C01092F6050E94C429823009F4D9
:1028D00076C0833009F46CC0813011F00C94282745
:1028E00042E150E066E372E082E392E08DCF77FE52
:1028F00059C02091FB059091FC058091F10587302E
:1029000029F42A3019F4992309F44CC0A1E05A168D
:1029100031F0B2E05B16A1F160E040E004C0421B80
:10292000892F8095680F042E000C550B420F511D06
:10293000062E000C770B690F711DE1EEF6E090E0BA
:1029400080E02081213111F02E31E9F4218124171A
:102950001506C9F4228126171706A9F413E0880F7B
:10296000991F1A95E1F7FC01EC51F94F80818930EC
:1029700081F442E150E06FE472E081E492E044CF00
:10298000421B4F5FCDCF0196389681339105C9F632
:10299000F0CF8F3F71F342E150E06BE672E083E6E7
:1029A00092E032CF8091830881110C9428278CCF3C
:1029B00042E150E06BE372E087E392E025CF81E0F3
:1029C0008093850860E472E08CE392E0E6CB42E11C
:1029D00050E067E172E081E192E016CFFF2011F450
:1029E0000C9428270721A9F073FE05C08E8D0E9444
:1029F000452F0C94282720E0452D63E089E698E0D8
:102A00000E94202C882359F061E170E08EE090E074
:102A1000C4CB172121F00E94FC2E0C94282742E100
:102A200050E06CE172E088E192E0EECE272D20715B
:102A30003091840831110C942827211107C042E1FC
:102A400050E06BE572E082E592E0DECEE1E05E12FE
:102A500049C075FC4CC073FC02C00C94282726EEBC
:102A600035E010E000E0652F052E000C770BF90132
:102A7000E550FF4F4081ECEEE40FE43080F4F901C3
:102A8000E450FF4FE081E817190649F4F901E350DB
:102A9000FF4FE081E617170611F40C947D250F5FB8
:102AA0001F4F285F3F4F0133110509F7E1EEF6E0B4
:102AB00010E000E0252F550F330B40814B3151F4CE
:102AC00041814817190631F442814217130611F467
:102AD0000C948A250F5F1F4F38960133110569F753
:102AE0000C942827F2E05F12B6CF76FEB4CF20E038
:102AF000452D69E089E698E00E94202C882311F496
:102B00000C94282762E672E08CE592E046CB86E0E2
:102B10000E942407B3E0000F111FBA95E1F702539A
:102B2000194FD80153968C918451BFE08B9FC001FF
:102B30001124BC0166587D4F42E150E084599D4FFD
:102B40000E94160980E6F801838B0C94282773FEF7
:102B500041C042E150E06DEB72E084EB92E00E94F4
:102B600016098091F1058C3011F00C942827E09122
:102B7000040918E1E19FF0011124E557F74F83891B
:102B8000833011F00C94282780819181863223E0D4
:102B9000920710F40C942827833333E0930730F026
:102BA0008B539340039710F00C94282784E0838B79
:102BB000E0918908F0918A0815AE14AE22E130E068
:102BC0004DEB52E064EB72E089E898E00E944C081B
:102BD0000C94282746E253E06AE373E083E393E032
:102BE00072FC12CE77FE25C0E091040948E1E49F13
:102BF000F0011124E557F74F808191818453934070
:102C0000039780F4E0918908F0918A0815AE14AE1C
:102C100026E233E04DE353E06BE373E089E898E0AC
:102C20000E944C0846E253E06DE373E08BE393E0CF
:102C3000EBCD102B172111F40C94282776FE03C03E
:102C400052E0551629F075FE15C061E0561215C008
:102C500020E0452D61E089E698E00E94202C882341
:102C600011F40C94282746E253E06FE273E08DE202
:102C700093E0CACD71E042E0571241E024E061E008
:102C800089E698E00E94202C882311F40C942827D0
:102C900046E253E062E373E080E393E0B5CD72FE79
:102CA0002BC0E0918108F091820884AD95AD892B0D
:102CB00019F51E8D112379F0E091040928E1E29FB6
:102CC000F0011124E557F74F8089882321F0809186
:102CD0007908811111C080911401853028F48F5F2B
:102CE000809314010C94352787E08093ED0581E0F3
:102CF0008093190110921B01109214010C94352736
:102D000064E27DEE87E00E94260867FC90931B0139
:102D100064FC80931B01862D8C7011F40C94352774
:102D2000E0911B01EA3088F5F0E0E756F94E0C948B
:102D3000BD39BE16BC16AA16A316C216C816CA16E8
:102D4000CF16D216D5169091CF0187E0891B8093BC
:102D50001B011BC081E08093E6058091F4058F5F25
:102D60008093F40580E280938A000E9467021092AB
:102D70008A008FED87BD02C00E94370282E08093F7
:102D8000190103C082E08093ED05612C0C94352776
:102D900088E0DDCF0E941A060E94370AEFCF0E941A
:102DA0001506FACF1092E605DDCF85E0D0CF0C52A4
:102DB00012400630110510F00C9484278091F10523
:102DC000843009F051C000916D08013009F04CC009
:102DD00080917F08909180086FE170E00E94A9398E
:102DE0009B0180917D0890917E086CE070E00E94CC
:102DF000A93968367105C1F5232BB1F5E0910409B5
:102E000058E1E59FF0011124E557F74F128913307F
:102E100059F5128A28EE34E041E150E06AE070E0B2
:102E200089E898E00E944C0841E150E06AE070E0D7
:102E300089E898E00E94992F41E150E06AE070E053
:102E400089E898E00E94992F49E050E064E070E042
:102E500089E898E00E94992F009379088091E7060D
:102E6000833011F01093E7068091690890916A0809
:102E70008C30910521F0409711F00C9484278091BB
:102E8000910081110C94842789E10E9424070C94FD
:102E90008427003582E0180709F404C13CF50A33A1
:102EA000A2E01A0714F40C9484270C33B2E01B0739
:102EB0000CF4F8C00034124011F00C94842781E027
:102EC0000E947C09813009F43FC108F430C182308E
:102ED00011F00C9484276DE473E088E493E00E9481
:102EE000A9088AE5809383080C9484270937F2E0C7
:102EF0001F0709F420C244F40C5512400730110595
:102F000008F45CCF0C9484270838124011F00C941C
:102F1000842780917A088F5F80937A0817C2063ED3
:102F200042E0140731F10CF070C0083C62E0160773
:102F300001F19CF40D3A82E0180709F4EDC0023C5F
:102F400092E01907B1F0063A124011F00C94842770
:102F500081E0809387080C948427043DB2E01B072E
:102F600041F00CF046C00E3CF2E01F0711F00C944B
:102F7000842780917D0890917E086CE070E00E942B
:102F8000A9398091FB05D62ED81A80917F0890919F
:102F900080086FE170E00E94A9398091FC05C62E7F
:102FA000C81A43E06C2D8D2D0E94F9004C2D6D2D1B
:102FB0000E94A301811124C1809185088F5F8093B5
:102FC0008508C80188509340059708F014C11092F5
:102FD0006C0810926B086CEE72E088EE92E00E9432
:102FE000A9086DEE72E081E898E00E941F090C9438
:102FF00084270A3D22E0120709F4BBCF003E32E0ED
:10300000130709F4B6CF0C9484270D3043E014075E
:10301000DCF5083053E015070CF0ABCF023F62E05F
:10302000160709F4A6CF3CF40C3E82E0180709F419
:10303000A0CF0C948427083F92E0190709F499CF98
:103040000730134011F00C94842783E08093ED0542
:1030500087E00E942407E0910709EF3039F587E007
:103060008093070987E10E94FA078091790880938D
:10307000F70580917A088093F8058091F1058F5FBC
:103080008093F1050C9484270733B3E01B0709F400
:1030900076C1073EE4E01E0759F10532134011F0F6
:1030A0000C9484270E94FC010C94842781E08E0FED
:1030B00080930709E650E830C0F6F0E0EE59F74E8D
:1030C0000C94BD3932186A186C186E18701876187E
:1030D0007218741888E1C7CF89E1C5CF8AE1C3CFE0
:1030E0008BE1C1CF8CE1BFCF8DE1BDCF8EE1BBCFF6
:1030F00082E190E090936A088093690880916D085E
:10310000813041F482E080936D0872E1E72EF12C6A
:103110000C94842781E0F7CF80916D08813029F4E9
:1031200082E080936D080C94842781E0FACF80912F
:1031300085088F5F8093850860E472E08CE392E0FD
:103140000E94A9080C9484270E94F7028F3F09F07F
:1031500050C080918508813051F0823091F080918B
:103160008708811137C00E94B3080C94842742E17C
:1031700050E06BE572E080E592E00E9416090C9445
:10318000842742E150E06BE572E080E592E00E9426
:10319000160969EA72E088EA92E00E94A908809123
:1031A0008708811113C087E10E94240780E00E94F4
:1031B000D70280917908882319F08150809379088B
:1031C00080917908811102C00E94B308109287088B
:1031D0000C94842742E150E06BE572E080E592E0D8
:1031E0000E94160969EA72E088EA92E00E94A90842
:1031F000EDCF83E0B8CF10936C0800936B08EBCE53
:103200000E94F7028F3F09F068C0809185088130E5
:1032100049F0823059F18091870881114FC00E9496
:10322000B30808C042E150E06BE572E080E592E04F
:103230000E9416096091690870916A086A3D12E05F
:10324000710769F008F05BC0683C32E0730739F041
:1032500008F045C0623C52E0750709F04AC06F5F54
:103260007F4F81E898E00E941F0943C042E150E08F
:103270006BE572E080E592E00E94160969EA72E06F
:1032800088EA92E00E94A90880918708811113C002
:1032900087E10E94240780E00E94D702809179088C
:1032A000882319F0815080937908809179088111E1
:1032B00002C00E94B30810928708BCCF42E150E0E0
:1032C0006BE572E080E592E00E94160969EA72E01F
:1032D00088EA92E00E94A908EECF83E0A0CF6E3C7E
:1032E00082E0780709F4BBCF643D92E0790709F4E6
:1032F000B6CF10926C0810926B080C9484276C3E29
:10330000A2E07A0741F078F4603EE2E07E0719F02F
:10331000663E724071F760916B0870916C086115A0
:10332000710539F39CCF623F12E07107A1F3683F4A
:103330007240F9F6F0CF8091790890E020917A08F8
:1033400030E00196281739070CF4C90180937908F9
:103350000C9484278091790820917A0830E081507C
:10336000990B281739070CF4C9018093790881114A
:103370000C948427F8CE109285080C948427E09151
:1033800004092E2F30E078E1729FD001739FB00DB9
:103390001124A156B74F4D915C916091FB0514EF3C
:1033A0001603C0011124840F951F8038910510F079
:1033B0000C94842780917D0890917E08841B950B46
:1033C0004496899710F00C9484272F5F3F4F729F8B
:1033D000D001739FB00D1124A757B74F20917F08DC
:1033E000309180088D919C912817390711F00C9429
:1033F0008427882011F40C94842718E1E19FF001C0
:103400001124E557F74F8389833009F054C081E0D8
:103410000E94D70288E10E942407809179088823BE
:1034200019F08150809379088091790881111FC02B
:1034300082E00E94B308E0918908F0918A0815AEF5
:1034400014AE22E130E04DEB52E064EB72E089E82B
:1034500098E00E944C0822E130E04AE353E068E340
:1034600073E089E898E00E944C080C9484278091CE
:10347000040928E1829FC00111248557974FDC0180
:1034800014962C9142E0213009F041E024E061E003
:103490000E94202C882311F40C948427E091810849
:1034A000F091820815AE14AE46E253E062E373E099
:1034B00080E393E062CE85E08093DD0681E0809337
:1034C000DE06858196816CE070E00E94A9396093E8
:1034D000DB06878190856FE170E00E94A9396093D7
:1034E000DC0688E10E942407E0910409E19FF001D5
:1034F0001124E557F74F8089882311F08150808B84
:10350000808981114BC08091F1058C30A9F4E09144
:103510000409B8E1EB9FF0011124E557F74F8389C7
:1035200081110AC08289811107C08091E70683302A
:1035300019F083E08093E70688E00E942407E09179
:103540008908F0918A0815AE14AE4CEA52E06AEA96
:1035500072E089E898E00E94992FE091040918E14F
:10356000E19FF0011124E557F74F108A80E4809322
:103570000509E0918108F091820815AE14AE42E190
:1035800050E06DEB72E084EB92E00E94160942E19C
:1035900050E06AE373E088E393E0EFCDE091040943
:1035A00088E18E9FF0011124E557F74FDE01119657
:1035B000982F01900D929A95E1F790918A089F9328
:1035C000909189089F932DB73EB7285131090FB6C6
:1035D000F8943EBF0FBE2DBFADB7BEB71196FE012A
:1035E000319601900D928A95E1F70E949D2F0FB6BA
:1035F000F894DEBF0FBECDBF0C94842743E0880F44
:10360000991F4A95E1F78A519A4FFC01E450FF4F08
:1036100040812C2DCC0C330B4217130689F43196C4
:1036200040812D2DDD0C330B4217130649F43496DF
:103630002081211105C081509F4FDC018C91808336
:103640008091ED05853009F040C08091790888238C
:10365000E1F180917D0890917E086CE070E00E941D
:10366000A939F62E80917F08909180086FE170E073
:103670000E94A939E62E80916D08823009F4F394F6
:10368000BE016F5F7F4F89E698E00E943709109175
:103690006E080981010F8B81180F002309F40CC2F9
:1036A000112309F40BC2101718F0812F102F082FC7
:1036B000202F412F6E2D8F2D0E94E208202F412FA9
:1036C0006E2D8FEF8F0D0E94E208A0918908B091B6
:1036D0008A08DE968C91DE97811136C2E09104094A
:1036E00018E1E19FF0011124E557F74F828981111C
:1036F0002BC2DC968D919C91DD97009709F424C232
:103700000197DD969C938E93DC97880F991FA80FE5
:10371000B91F0D911C91C80117FF04C08827992774
:10372000801B910B91838083E09104098E2F90E0A0
:1037300038E1F32EEF9DF0011124E557F74F20817A
:103740003181273443E0340709F4DEC2283E54E0D7
:10375000350709F4B5C12733334009F0B3C1F89EEA
:10376000F001F99EF00D1124E156F74F608171814F
:103770002091FB0544EF420390011124260F371FCF
:103780002038310508F09EC140917D0850917E0897
:10379000461B570B0196F89EF001F99EF00D11247F
:1037A000E757F74F60917F08709180088081918181
:1037B000681B790B2091690830916A082B3383E0EC
:1037C000380708F051C2263293E0390708F053C297
:1037D0002A5A32402330310508F474C14D5E5F4FE0
:1037E0004732510508F06EC1672B09F06BC16AC200
:1037F00033E0880F991F3A95E1F7FC01EC51F94F3E
:1038000081E01DCF23E0880F991F2A95E1F78C01F5
:103810000A511A4F7801BEEFEB0EF11C6FEFF70162
:1038200080810E94F601F801E150FF4F6FEF808127
:103830000E94F601F801F3956FEF80810E94F60176
:10384000F801EF5FFE4F81E08083319688E180834D
:103850008091F105863009F0F3CED7018C91843048
:1038600009F0EECE1C9222E130E047E152E060E147
:1038700072E089E898E00E944C0847E453E060E475
:1038800073E089E898E00E94992FDACE6AE023304D
:1038900009F064E17C0183E0EE0CFF1C8A95E1F7FE
:1038A000F701EC51F94F80810E94F601F80193E095
:1038B000EE0FFF1F9A95E1F7EA51FA4F83896AE00C
:1038C000833009F064E1F701EB51F94F80810E94E8
:1038D000F601B3E0000F111FBA95E1F7F801EA51C4
:1038E000FA4F83896AE0833009F064E1F701EA5115
:1038F000FA4F7F01F39580810E94F601F701EF5F97
:10390000FE4F81E08083319688E199CE2091E706D1
:10391000233009F495CE53E0880F991F5A95E1F7AB
:10392000FC01E951F94F81E0808383E08093E70651
:10393000E1EEF6E06CE0C62ED12C7FE1A72EB12C93
:10394000A0E69A2E80818F3041F5E280018180903F
:1039500003092BE838E040E010E0F12C8416E9F090
:10396000D90152968C9152978230E1F415968D913F
:103970009C91B6010E94A9396017710799F4D90189
:1039800017968D919C91B5010E94A9396E157F05FE
:1039900049F4D90152961C92908238962E163F0611
:1039A00089F64ECE4F5F285E3F4FD8CF41E060E6AC
:1039B0008DE10E94B100FC018381882309F440CE8F
:1039C00013821092040983E080939D0885E0809320
:1039D000DD0681E08093DE0681818093DB068281B3
:1039E0008093DC062DCE80917908882309F428CEB7
:1039F0000E94F7028091FB0560916E0870916F083C
:103A0000BCE08B9F600D711D112480916D080E9498
:103A10000A0783300CF414CE8091690890916A08EB
:103A20008339910530F589389105F8F4833691058D
:103A300080F489359105C8F48530910508F400CEED
:103A40008231910590F0875491090C9708F0F8CDD8
:103A50000CC08936910508F4F3CD8337910528F021
:103A6000895791090A9708F0EBCD83E00E94B308CB
:103A7000E7CD853C910568F4893B9105B0F789391C
:103A8000910508F4DDCD833A910578F3895A9109BF
:103A9000E9CF893E910530F48D3D910530F78B5C7F
:103AA0009109D3CF8F5E91098132914008F0C8CD42
:103AB000DCCF10928808C4CD012FFACD102FF8CD9D
:103AC00084E0828BE0910409A8E1EA9FF0011124CF
:103AD000E557F74F40815181BE016F5F7F4F848171
:103AE0000E94B10749819FEF17FF91E0E09104091F
:103AF00088E1E89FF0011124E557F74F499F402DD9
:103B0000112425813681240F311D47FD3A953683D6
:103B100025832B81929F202D112490910409899F48
:103B2000C00111248A519A4FFC01E455FD4F408198
:103B3000518182559D4FDC014D935C93420F511D85
:103B400027FD5A955183408380E00E947C09182FFD
:103B500080918808811125C2BE016F5F7F4F89E681
:103B600098E00E9437098A818E57823008F4E9C0B4
:103B70001111E7C0809185088111E3C00091FB0518
:103B8000F0906D0860916E0870916F08BCE00B9F1B
:103B9000600D711D11248F2D0E940A07182FE091CE
:103BA0008108F091820815AE14AE81E080938508FB
:103BB0008091690890916A0890936C0880936B08D3
:103BC000183008F061C180917D0890917E086CE00A
:103BD00070E00E94A939E1E02FEFFE1221E0601BA6
:103BE000260F85E0820F853108F09DC080917F0807
:103BF000909180086FE170E00E94A9399091FC05D6
:103C0000862F891B8F5F082E000C990B019636E1D9
:103C1000389FF001399FF00D1124EA51FA4FE20F5D
:103C2000F11D27FDFA95E357FF4F808127E0E22E33
:103C300001E021E04FE76FE70E947301882309F458
:103C400023C1EFEFE10FE73008F06FC00E2E000C3C
:103C5000FF0BE35DF14E0C94BD39201F3B1F291F64
:103C6000321F201F3B1F291F2E53334022303105A6
:103C700008F0B4CD27CF4D5E5F4F4732510508F0B5
:103C800021CF672B09F01ECF81E00E94D70288E187
:103C90000E942407809104098F9DF0011124E557AB
:103CA000F74F20916D0884819091790828130EC0F8
:103CB000292F921718F0921B909379088091790818
:103CC000811106C082E00E94B308FCCE21E0F1CF52
:103CD000848142E0813009F041E024E061E0CF01DD
:103CE0000E94202C882309F4EDCEE0918108F09108
:103CF000820815AE14AE46E253E062E373E080E35F
:103D000093E00E941609DECE44E062E181E10E9468
:103D1000B100FC018AE084838FEF868383E0878390
:103D20008EE18083CFCE8FEF81CF68EF72E084EF9A
:103D300092E00E94A90888EF92E090936C0880932B
:103D40006B088091880881112CC1BE016F5F7F4F85
:103D500089E698E00E9437098A818F3709F021C1EE
:103D60008091850881111DC1BE016F5F7F4F89E67B
:103D700098E00E943709298180917D0890917E0802
:103D8000820F911D27FD9A956CE070E00E94A93981
:103D90008091FB05262F281B85E0820F853108F0D6
:103DA000BCC080917F08909180086FE170E00E9414
:103DB000A9399091FC05862F891B082E000C990BC0
:103DC000019636E1389FF001399FF00D1124EA5138
:103DD000FA4FE20FF11D27FDFA95E357FF4F80815F
:103DE00097E0E92E01E021E04FE76FE70E947301C1
:103DF000882309F4D6C0E0918108F091820815AEBD
:103E000014AE81E08093850880916E0890916F08D0
:103E10006CE070E00E94A9398B30910508F0B9C0C0
:103E2000FC01EB5EF04E0C94BD39CC1F8F1FC61FFA
:103E30008F1FCC1F8F1FC61FC91FCC1F8F1FC61FF0
:103E400062EF72E08EEE92E00E94A90882EF92E0AB
:103E500074CF66EE72E082EE92E00E94A90886EED0
:103E600092E06BCF60EE72E08CED92E00E94A908C8
:103E700080EE92E062CF6CEE72E088EE92E00E94FB
:103E8000A9088CEE92E059CF80916E0890916F084E
:103E90006CE070E00E94A9398B30910508F034C0C5
:103EA000FC01EB5AF04E0C94BD39601F691F721F64
:103EB000841F601F691F7B1F841F601F691F721F83
:103EC00062EC72E08EEB92E00E94A90882EC92E034
:103ED00034CF68EC72E084EC92E00E94A90888EC90
:103EE00092E02BCF6EEC72E08AEC92E00E94A9087F
:103EF0008EEC92E022CF6AED72E086ED92E00E94B5
:103F0000A9088AED92E019CF64ED72E080ED92E0AD
:103F10000E94A90884ED92E010CF8FEF61CF6BE093
:103F200073E081E898E00E941F09809170089091E9
:103F3000710849976FE170E00E94A939882389F1DF
:103F40001FE1181B812F110F110F180F1550612F32
:103F500070E080E06F5E7741884F0E94C303E12EDE
:103F6000F12CF4E0EF0EF11C1E151F0409F0BCF457
:103F70000E945B02882341F0682F70E0645F7C4FF1
:103F800081E898E00E941F091F5FEECF6AE073E0AE
:103F9000C8CF69E073E0C5CF68E073E0C2CF0E948C
:103FA00061028091E106803169F58091E606811118
:103FB00029C080917D0890917E086CE070E00E949D
:103FC000A939062E000C770B8091E4068617170698
:103FD00009F0C4F48091E506861717069CF020913D
:103FE000E30680917F08909180086FE170E00E9465
:103FF000A939062E000C770B2617170619F483E053
:104000008093E7068091690890916A088C3A12E0E3
:10401000910719F08F339340C9F463FE17C0809164
:10402000F3058111CDC08091F2058111C9C083E0F3
:104030008093ED0582E1809307098BE00E942407BD
:1040400083E10E94FA0780E8809301018AEE882EBE
:1040500099249A94512C412C8BE090E0AC01465E5F
:1040600055405D8F4C8F15E0B4016A517A4F3B018A
:104070000CE6C02ED12C8C8D9D8D881999099AA3A0
:1040800089A3D301DE960C918091FD055201A81AF7
:10409000B108BEE1AB1AB1080C3709F498C00CF0B6
:1040A00093C0B0E1EB2E22E13EE341E007FFA5C063
:1040B000F301E455FF4F8081A0E1EA2E00E026E9FC
:1040C00033E641E0833341F0843351F4F0E1EF2EE5
:1040D00000E022E434E641E0B501C6010E94CF03CE
:1040E000E1E06E1A7108FCE0CF1AD10824EFC21685
:1040F0002FEFD20631F63FE1430E511C46E1840E0C
:10410000911C52E48516910409F0AECF51EEC52EF4
:1041100056E0D52E1CE06FE1F62E7CE0472E512CA8
:10412000EFE16E2E712CD60111962C91119730E093
:104130008091FB05F901E81BF1091E9F50011F9FAB
:10414000B00C11244091FC0512968C911297841B9F
:10415000990BF89EB001F99E700D11248091FD0518
:10416000681B71094B01FFEF8F1A9F0AEC91E13236
:1041700008F08FC0F0E0E154FF4D0C94BD397C2273
:10418000DF215A226A220D215A2262225A225A2201
:104190006A225A226A22492149214921AA21B721AA
:1041A000C021C021EB21F42101220B221522D521AF
:1041B0002021B7210221DA211F22C021CB21852213
:1041C00086E08093ED0542CF0F3709F071CF209143
:1041D00012013091130189A19AA1860D971D820FBA
:1041E000931F6FE070E00E949539612F0E9489391A
:1041F000E12C082F2AE035E641E0B501C6010E9416
:10420000CF0356CF6B5E7F4F40E1E42E00E02EEBF4
:1042100038E141E0C5010196A7C014960C911497AE
:10422000615F7F4F13968C9130E1E32E24E237E3F8
:1042300041E0813019F020EB3AE341E0C50194C040
:10424000F601838186302CF5082E000C990B97FF20
:1042500003C091958195910920E1E22E082F22EF6C
:104260003BE141E0B401C5010E94CF03F1E0AF1A88
:10427000B1082FE7A216B10460F43FE3831691045E
:1042800040F4D60113968C91843019F486E10E9493
:104290002407F8E0CF0ED11C2C143D0409F043CFC5
:1042A000E091040918E1E19FF0011124E557F74F6F
:1042B0008289811143C16081718180E061507242C5
:1042C000884F0E94C3030E946102882309F436C10B
:1042D000A0910409A19FD0011124A557B74F1596AD
:1042E000ED91FC9116973F972091FB0514EF120377
:1042F00090011124E20FF31F17966D917C9118978E
:104300006F5171092091FC0541EE42039001112487
:10431000620F731F9091FD05691B71096F5F7F4FDD
:1043200053969C915397913009F400C208F4F5C05C
:1043300020E030E040E0953008F0F9C014969C9100
:104340002EE736E844E0913009F4F1C022E63AEE77
:1043500043E0EDC0615F7F4F90E1E92E00E02EED7C
:1043600038E141E0C50105960E94CF0392CF6D5020
:104370007109E12CF601058126E53FE141E04ACFD4
:1043800080E1E82E13960C912EE139E141E0B40171
:10439000C5010597E9CF6D507109E12C01E026E5D3
:1043A0003FE141E0C5010796DFCF6D507109E12C77
:1043B0000CE0E2CF6D507109E12C01E0DDCFF60198
:1043C0006581680D792D711D00E1E02E07812AE2DB
:1043D00038E241E033CF6D5E7F4FB0E1EB2E00E07D
:1043E00022ED37E241E02ACF655F7F4FA0E1EA2E60
:1043F000D60113960C9123EB35E241E0C5010696F8
:10440000B3CF655F7F4FF0E1EF2EF601038127EE1A
:1044100035E241E0F3CF655F7F4FE0E1EE2E13968A
:104420000C912BE136E241E0E9CF655F7F4F50E12F
:10443000E52EF60103812FEA36E241E0DFCF139645
:104440008C91811126CF80917D0890917E08B201D8
:104450000E94A939062E000C770B2617370729F082
:104460002F5F3F4F62177307F1F480917F0890919F
:104470008008B3010E94A939262F660F330BC401AF
:10448000B3010E94A939460F4217130661F4E09167
:104490000409B8E1EB9FF0011124E557F74F01E063
:1044A0008289833009F000E0E12C22E834E341E026
:1044B000B401C4CE40E1E42EF60106812EEC3AE2CE
:1044C00041E0F6CF30E1E32E16960C9122E73DE273
:1044D00041E0EECFF6010681802F90E00E5FB4013F
:1044E000680F791F20E1E22E2EEC3AE241E0D5017F
:1044F000A81BB90BCD0138CFF6018381882309F4BD
:10450000C8CE90E1E92E01E0D9CF64517109E12CC8
:1045100000E02BE537E241E091CE14969C912EE02D
:1045200038E545E0913019F02AE932E245E00FEF35
:10453000080F80E1E82ECF010E94CF036091690847
:1045400070916A0880E061507242884F0E94C303F4
:104550000E946102882309F16091700870917108CE
:104560006F5171099091FD05691B71096F5F7F4F54
:1045700090916D0826E832ED42E0913019F42AEA74
:104580003AEB41E00FEF080F80916E0890916F08B1
:1045900010E1E12E0F970E94CF03F1EEAF2EF6E06F
:1045A000BF2EACE0FA2EBFE19B2ED50111962C91C7
:1045B00011978091FB05281B330BF29EC001F39EDF
:1045C000900D112412962C9112973091FC05231B0B
:1045D000330B929EB001939E700D11242091FD0526
:1045E000621B71092C91243009F4ACC0293109F403
:1045F000BCC0B8E0AB0EB11CCA14DB04B1F68091AC
:10460000F105883009F58091FB058832E9F4809145
:10461000FC058330C9F480911501813508F0BBC0D9
:10462000873408F0C5C0813008F0BCC000E08CEED3
:1046300040E1E42E2AEE37EF40E06EE070E0082E15
:10464000000C990B0E94CF0330ED632E35E0732EE2
:10465000912C812C1CE029E0A22EB12CF501ED5506
:10466000FF4FE60DF71D008107FD1BC08091FD0582
:10467000B401681B71096E517109033391F090E127
:10468000E92E22E13EE341E0043321F400E026EA92
:1046900034E641E01A9DC0011B9D900D11240E943B
:1046A000CF03E1E0AE1AB108C8F626E1620E711C34
:1046B0003FE1830E911C4CE78416910461F61CE0E7
:1046C0008FE1F82EAF8DB8A111962C9111978091A2
:1046D000FB05281B330B129FC001139F900D112463
:1046E00012962C9112973091FC05231B330BF29EEE
:1046F000B001F39E700D11242091FD05621B71091C
:104700006F5F7F4FEC91E250EA3008F05EC0F0E05E
:10471000E457FC4D0C94BD39DB235724E523DB2300
:104720004D24E523DB235724DB23572414969C9147
:1047300026EF32EC45E0913009F4F9CE22E83DE86D
:1047400045E0F5CEF5010481615F7F4F2381E0E113
:10475000EE2E213031F426EE34E341E00E94CF0307
:1047600048CF22E639E341E0F9CF13960C910630A9
:104770000CF03FCF002E000C110B17FF03C011955A
:10478000019511090A5F6F5F7F4F50E1E52E22EF1F
:104790003BE141E0E3CF8E3808F048CF86958E5C50
:1047A00001E046CF869598E7981B892F00E040CF1F
:1047B00002E086E53DCF00E1E02EEF8DF8A1068115
:1047C0002AED30E341E00E94CF032F8D38A1285F0E
:1047D0003F4F38A32F8FC216D30609F073CF009135
:1047E000DD060150043030F58091DC069091FC0527
:1047F000891B990B2FE1289FB001299F700D11246F
:104800008091FD05681B7109635F7F4F2091DB0676
:104810008091FB05281B330B4CE0429FC001439F56
:10482000900D1124E0E1EE2E2EEF3BE341E00397E3
:104830000E94CF03E091040938E1E39FF0011124C5
:10484000E557F74FF0881E8DE12C112319F001E098
:10485000F11001C000E026EF35E041E070E060E0DB
:1048600088E790E00E94CF0310E080917A08181743
:1048700070F501E080917908181708F400E024E051
:10488000129FB0011124E12C26E638E141E08BE7CC
:1048900090E00E94CF031F5FE8CFB0E1EB2EAF8D19
:1048A000B8A116960C912EE733E341E08CCFEF8D43
:1048B000F8A10681E02FF0E00E5F6E0F7F1FA0E1F0
:1048C000EA2E2AED30E341E08E1B9F0B7CCF1E8D3C
:1048D000112311F0F11044C0E12C0091F30526E6FC
:1048E00036E141E06FE270E08BE790E00E94CF0399
:1048F0000091F20526E636E141E069E370E08BE7DE
:1049000090E00E94CF038091860868E2882359F0E6
:1049100000E024E738E141E068E270E08BE790E0F6
:104920000E94CF0361E280918708882351F070E0F4
:10493000E12C00E02DE738E141E08BE790E00E94B8
:10494000CF0380917008909171088833910569F1C7
:104950008735910551F110E0499741F510E326C0E4
:1049600010E048E1B42E5FE0C52ED12CE09104099F
:10497000EB9DF0011124E557F74F8189181708F7CF
:1049800001E01F1508F400E0B601611B7109660F14
:10499000771F660F771FE12C26E638E141E08BE7B1
:1049A00090E00E94CF031F5FE1CF11E08091F605F8
:1049B00081508035C8F4612F70E020E1E22E00E0E4
:1049C0002CEB38EB40E087E190E00E94CF031B5FC7
:1049D000612F70E0E12C0091F3052AEB36E041E015
:1049E0008DE190E00E94CF038091DF06813069F471
:1049F0006091E00670E090E1E92E00E02CE43BEBF2
:104A000040E088E190E00E94CF038091ED0587307F
:104A100009F045C064E77DEE87E00E9426086C013E
:104A200080911A01E12C0D2D2EE53BEF40E070E066
:104A300060E090E00E94CF03B601772780911A01D1
:104A400090E000E022EE35E041E003960E94CF03C3
:104A500080911A01855E0091F1052AE739E041E075
:104A600063E070E090E00E94CF0380911A01895FBB
:104A70000091F3052AE739E041E06DE070E090E055
:104A80000E94CF0380911A01885E0091F2052AE707
:104A900039E041E06DE070E090E00E94CF03A59620
:104AA0000FB6F894DEBF0FBECDBFDF91CF911F913F
:104AB0000F91FF90EF90DF90CF90BF90AF909F90BD
:104AC0008F907F906F905F904F903F902F900895C0
:104AD000AB2809F0F8C2111149C08824839499C009
:104AE000093111050CF059C182E00E94B30855C18B
:104AF000083E1F4F0CF451C1F7CF443140F046310E
:104B000010F40C948715473111F40C94871580E04C
:104B10000C94881586E00E94240783E0000F111F83
:104B20008A95E1F7F801E253F94F80E6838B81E043
:104B300080938608E0918108F091820815AE14AE4A
:104B400042E150E06DEB72E08EEA92E00C940414C6
:104B5000812C112309F4BBC2D701DD961C921E9251
:104B6000DC97812CB8C2F70115AE14AEE0910409B0
:104B70002E2F30E068E1E69FF0011124E557F74F52
:104B80008089882309F445C080917D0890917E0832
:104B9000629FD001639FB00D1124A156B74F2D9194
:104BA0003C911197458156814D935C93D701DD96D9
:104BB0001C921E92DC97A0910409A69FD00111249B
:104BC000A557B74F42E150E04D935C93821B930B86
:104BD0002091FB05A0910409A69FD0011124A5579F
:104BE000B74F97FD02C00C94B10E848590E0ECE0C5
:104BF0002E9F800D911D112416969C938E931597D0
:104C0000E0910409E69FF0011124E557F74F81E098
:104C1000848362FE34C01E8D112389F18091860841
:104C2000882369F18091690890916A08429739F563
:104C3000E0918108F091820884AD95AD892BF9F45B
:104C4000E091040928E1E29FF0011124E557F74FB4
:104C500080898823A1F08389843089F08091F105CF
:104C6000843021F48091FB05843648F446E253E019
:104C70006CE273E087E293E00E941609612CE091F8
:104C80008908F0918A0884AD95AD892B11F51E8DA8
:104C900011111FC0E091040928E1E29FF0011124E5
:104CA000E557F74F808191818F3233E0930739F0D8
:104CB000823343E0940719F08632934051F422E1A5
:104CC00030E04DEB52E064EB72E089E898E00E943E
:104CD0004C088091ED05853009F05FC0E0918908AE
:104CE000F0918A0884AD95AD892B09F056C080916A
:104CF0000409282F30E078E1879FC00111248557EF
:104D0000974FDC0152964C915297411146C0149630
:104D10006C911497662309F440C053964C9142302D
:104D2000E1F14430D1F1729FA001739F500D112425
:104D3000FC0118E1DE01119601900D921A95E1F740
:104D40004156574F00917D0810917E08FA0140812D
:104D50005181041B150B2F5F3F4F729FF001739F12
:104D6000F00D1124E757F74F40917F0850918008CC
:104D700020813181421B530BDC012D913C91263265
:104D8000B3E03B0711F40C94300F10F00C94C60EF6
:104D90002231310511F40C94F40E80911701811128
:104DA00057C08091ED05853009F052C0E09181082F
:104DB000F091820884AD95AD892B09F049C081E05E
:104DC0000E947C09F82E2091690830916A082C3ADB
:104DD00042E03407E9F12F3353E03507C9F1809100
:104DE0007D0890917E086CE070E00E94A939462F02
:104DF00080917F08909180086FE170E00E94A9394E
:104E0000562F842F042E000C990BE091E206F0E05F
:104E1000DF0111978A179B0711F00C94D110709144
:104E2000E306A62F062E000CBB0B7A171B0609F013
:104E300059C17091E706733009F04FC180916D0838
:104E4000813011F40C941712823011F40C94A110DB
:104E500074FE1092F5058091ED05853011F40C94E7
:104E60004F16873011F40C948016E0918108F09170
:104E7000820886AD81110C94201B84AD95AD0097FE
:104E800011F40C94591D019795AF84AF880F991FA9
:104E9000E80FF91FE080F1808701F7FE04C00027CA
:104EA00011270E191F0910936A0800936908073922
:104EB00032E0130711F40C94AA1914F00C948F1714
:104EC000073352E0150714F00C944917053362E0DC
:104ED000160714F00C945218083172E0170714F0FA
:104EE0000C94D7160134110514F00C94DE1604301E
:104EF000110554F00231110514F40C94DE16023140
:104F0000110511F40C94BB194091690850916A087D
:104F1000BE016F5F7F4F80916D080E94B10799813C
:104F20008FEFF7FE81E0989F902D112420916E085D
:104F300030916F08290F311D97FD3A9530936F0816
:104F400020936E089B81899F802D112420917008E9
:104F5000309171083093730820937208280F311D27
:104F600087FD3A953093710820937008BE01675E03
:104F70007F4F89E698E00E9437098A8D8E578230EC
:104F800010F40C94201BBE01675E7F4F89E698E009
:104F90000E9437092A8D80917D0890917E08820FAA
:104FA000911D27FD9A956CE0E62EF12CB7010E9429
:104FB000A939C62E80917F08909180080FE110E0FA
:104FC000B8010E94A939D62E262F4C2D6BE080E027
:104FD0000E949400B82E8091F1058C3009F04AC0EF
:104FE000E09104092E2F30E048E1E49FF001112404
:104FF000E557F74F83898430E9F5828981113AC0FA
:105000008091DD06811136C0C9010196489FD0010B
:10501000499FB00D1124A757B74F8D919C91B801AE
:105020000E94A939862E429FD001439FB00D1124C2
:10503000A156B74F8D919C91B7010E94A939C61214
:1050400019C0D81017C085E08093DD0682E08093F8
:10505000DE0685819681B7010E94A9396093DB063F
:1050600087819085B8010E94A9396093DC0686E0AB
:105070000E9424076FEFB61611F40C94201B8B2DA1
:1050800090E08C01035E1F4FF80153E0EE0FFF1F0D
:105090005A95E1F7EA51FA4F23892C3010F00C941D
:1050A000201BE22FF0E0E95AF74D0C94BD39F81BB4
:1050B000FE1A021C461CF31C861C861C021C201BAC
:1050C000201BD61C461C11114ECD88248394C092FF
:1050D0000409811002CD1E8E9CCD8E179F0711F4FE
:1050E0000C94E11050906D08E2E000E210E45E12D2
:1050F00002C000E410E22032310511F40C94541483
:1051000010F00C9466112D30310511F40C94EE144E
:1051100010F00C9436112330310511F40C9416154F
:105120002930310509F094CEFF2009F491CE0721F2
:1051300011F40C94091573FE02C00C94F61420E0CF
:10514000452D63E089E698E00E94202C882311F425
:105150000C940F156DE070E08AE090E00C94CD1097
:10516000123059F4411009C0511007C0E11005C0B8
:1051700067E0992011F40C94F9129C8D911118C0DC
:10518000BB2011F40C94D912163011F40C940C13AA
:1051900064E01A3011F40C94F912123011F00C94EE
:1051A000D91262E00C94F912123039F70C94A7125C
:1051B000A1100C94DD120C94A712BB2011F40C94D6
:1051C000CE120C94A7120F920FB68F939F93EF936A
:1051D000FF938091D1018D5F8D3708F08D578093BB
:1051E000D101E2EDF1E080818E4F808391819F4F6C
:1051F000918382818F4F828383818F4F8383E6EDFA
:10520000F1E080818F5F808381818F4F81838281F4
:105210008F4F828383818F4F83838FB18F60669995
:105220001C9B88278F3681F48091D001981B963083
:1052300068F0E0E0F8E087E78083818388E180938D
:105240006000F0936000FFCF9093D001FF91EF9149
:105250009F918F910FBE0F9018951F920F920FB6CE
:105260000F9211242F933F934F935F936F937F93EC
:105270008F939F93AF93BF93EF93FF93E7ECF1E08E
:1052800080819181A281B3810197A109B10918F4AC
:105290000E943C060BC080839183A283B3838481E8
:1052A000882321F4369A85818111379AFF91EF91F5
:1052B000BF91AF919F918F917F916F915F914F912E
:1052C0003F912F910F900FBE0F901F901895EF9266
:1052D0000F9395E0980F9531F8F4A62F062E000C49
:1052E000BB0B119696E19A9FF0019B9FF00D112444
:1052F000EA51FA4FE80FF11D87FDFA95E357FF4F8A
:105300009081E22E01E0242F462F682F892F0E94E2
:1053100073010F91EF9008959FEFF3CF8E3161F0FD
:10532000C4F481315CF48F303CF4823064F0863018
:105330001CF08950823038F481E008958631E1F321
:1053400024F48331C9F380E0089589518430D8F77B
:10535000F3CF84333CF482337CF7833269F39CF3DC
:105360008652F4CF863441F32CF48D3329F3843400
:1053700051F7E2CF8C3401F38C3729F7DDCF43E0CE
:105380000E94F9000C948E29CF93DF9380917D08C1
:1053900090917E086CE070E00E94A9398091FB0535
:1053A000C62FC81B80917F08909180086FE170E044
:1053B0000E94A9398091FC05D62FD81B43E06D2FA0
:1053C0008C2F0E94F9000E948E29811123C081E058
:1053D00090916D08913009F480E043E06D2F8C0FBF
:1053E0000E94F900C82F0E948E29CD3139F044F473
:1053F000C43121F0C83111F0CB3041F483E00BC04F
:10540000C734E1F3CF34D1F3C532C1F38111F6CF04
:1054100082E001C081E0DF91CF9108952F923F9209
:105420004F925F926F927F928F929F92AF92BF92B4
:10543000CF92DF92EF92FF920F931F93CF93DF9360
:10544000CDB7DEB728970FB6F894DEBF0FBECDBF3D
:10545000898320917D0830917E08C9016CE070E05D
:105460000E94A9398091FB05C62EC81A80917F0839
:10547000909180086FE170E00E94A9398091FC054D
:10548000681B6E8310916D080FEF113009F001E079
:10549000B901812F0E940A078F83C00E28E0412F97
:1054A0006E818C2D0E9467298A83502E5C0C26E029
:1054B000412F6E81852D0E9467298B83602E650C9C
:1054C00024E0412F6E81862D0E9467298C83702EE7
:1054D000760C22E0412F6E81872D0E9467298D83F3
:1054E000070D20E0412F6E81802F0E946729B82E82
:1054F000EE80E39428E0412F6E2D8C2D0E946729C9
:10550000F82E26E0412F6E2D852D0E946729382E1A
:1055100024E0412F6E2D862D0E946729A82E22E0BF
:10552000412F6E2D872D0E946729882E20E0412F64
:105530006E2D802F0E946729282E6E818C2D0E944F
:10554000BF29482E6E81852D0E94BF29982E6E811D
:10555000862D0E94BF29182F6E81872D0E94BF299A
:10556000D82E6E81802F0E94BF2988876E2D8C2DAA
:105570000E94BF298E836E2D852D0E94BF29582E33
:105580006E2D862D0E94BF29C82E6E2D872D0E945C
:10559000BF29782E6E2D802F0E94BF299A819111EC
:1055A000B5C09B819111B2C09C819111F7C09D81C2
:1055B000911102C1BB2019F09981963099F5911093
:1055C0002BC0111129C0D11027C09885992321F132
:1055D0008F8187FD05C084302CF088300CF498C092
:1055E00085E001C083E028960FB6F894DEBF0FBEB9
:1055F000CDBFDF91CF911F910F91FF90EF90DF9082
:10560000CF90BF90AF909F908F907F906F905F9062
:105610004F903F902F9008959981953009F053C095
:10562000BB20D1F0A11083C081107CC021107FC0AD
:1056300011117DC0D1107BC09885911178C0C11027
:1056400076C0711074C0882309F471C08F818830CE
:1056500008F060C086E0C7CFFF2009F46DC0A1103C
:1056600069C0882009F466C0442089F011110FC078
:10567000DD2069F09F8197FD08C085E194300CF42E
:10568000B2CF86E198300CF4AECF87E1ACCFBB202F
:1056900009F450C03110D0C0A110CEC0882009F448
:1056A0005AC0222009F457C0911055C0111156C09C
:1056B000DD2009F453C08F81823009F04FC089E0AA
:1056C00092CF88E090CF112359F08F8187FD04C0DD
:1056D000843024F0883014F181E185CF8DE083CFD0
:1056E00031105CC0A1105AC0CC2009F457C09F8172
:1056F00097FD08C088E195300CF475CF8FE09830A5
:105700000CF471CF80E16FCF82E16DCF80E06BCF81
:1057100084E069CF87E067CF8CE065CF8EE063CF10
:1057200083E161CFF110A0CFB110B4CF05C0FF204D
:10573000D9F3B0CFF11061C0DD2009F476C0112398
:10574000F1F08F8187FD6DC084300CF4BACF8830C2
:105750000CF4B5CF66C0FF2029F053C0F11054C03F
:10576000BB2051F34110E8CF9110E6CF11115BC07F
:10577000DD2009F45AC08F81823009F4A0CF9F81C7
:1057800097FD4FC094300CF49CCF98300CF497CF19
:1057900048C0BB2089F2E8CF111197CF8F8187FDD8
:1057A00006C084300CF4B0CF88300CF4B9CF84E15B
:1057B0001ACF11118ACF98CF9981953009F083CFF4
:1057C000F11081CF3110E8CFA110E6CF8110F1CFD9
:1057D0004110EFCF9110EDCF111177CF9E81911134
:1057E00083CF511081CFC11082CF7720B9F28F8142
:1057F000883008F091CF8BE0F6CE31109DCFA1100C
:105800009BCF882009F4ACCF442009F4C2CF91107B
:1058100093CF111108C0DD2041F09F81923009F033
:10582000AECF8AE0E0CED1108CCF9F8181E0943062
:1058300008F4D9CE82E0D7CEFF2009F493CF90CFE1
:10584000AF92BF92CF92DF92EF92FF920F931F938E
:10585000CF93DF938C01C62F31E0413009F43FEF45
:10586000F801A488B588320370011124EA0CFB1CEE
:10587000C7016CE070E00E94A9398091FB05D62F2A
:10588000D81B868997896FE170E00E94A9398091C1
:10589000FC05D62ED81A413029F0423009F45CC0FC
:1058A00091E09DC03D0F85E0830FCC24CA948531E3
:1058B000A0F48D2D0D2C000C990B019626E1289F4C
:1058C000F001299FF00D1124EA51FA4FE30FF11D69
:1058D00037FDFA95E357FF4FC080B70181E00E9482
:1058E0000A07CB3010F54C2F50E0FA01E658F34D83
:1058F0000C94BD39A82C972CA82C9A2C852C952C6F
:10590000952C952C852C972CA82CE41AF50AF801D7
:105910008385668570E0FCE08F9F600D711D11240A
:1059200091E0E616F7060CF05AC090E058C08630B9
:1059300008F0B6CF97E0E92E00E021E04D2D6D2F65
:105940008C2D0E94730191E0882309F448C0EDCFAB
:105950008A3008F0A5CFEECF3D0F85E0830FCC2431
:10596000CA948531A0F48D2D0D2C000C990B019655
:1059700026E1289FF001299FF00D1124EA51FA4FEA
:10598000E30FF11D37FDFA95E357FF4FC080B501D6
:1059900082E00E940A07CB3040F64C2F50E0FA011B
:1059A000EC52F34D0C94BD39032DFB2C032DFE2C32
:1059B000DF2C952C952C952CDF2CFB2C032D4E0DDC
:1059C0005F1DF8018385278530E0FCE08F9F200D67
:1059D000311D112491E0241735070CF4A6CF892F2F
:1059E000DF91CF911F910F91FF90EF90DF90CF90BB
:1059F000BF90AF900895863008F052CF87E0E82E30
:105A000000E022E09BCF8A3008F04ACFF7CFDF9248
:105A1000EF92FF920F931F93CF93DF93D82E81E0E5
:105A2000D1E0D81201C0DFEFE0907D08F0907E0851
:105A3000C7016CE070E00E94A9398091FB05062F38
:105A4000081B80917F08909180086FE170E00E94B0
:105A5000A9391091FC051095160F43E0612F802F96
:105A60000E94F900C82F4EEF612F8D2F800F0E94EA
:105A7000F900D82F4EEF612F802F0E94F900182FC8
:105A8000B7018D2D0E940A0791E0D91631F092E0FE
:105A9000D91609F462C083E02FC08730A4F48330A4
:105AA000ECF487FDF8CFC53251F00CF046C0CA3196
:105AB000F4F5C83124F4CB3011F0C431D1F581E0D4
:105AC0001E3FD1F409C08D3034F7113021F312316B
:105AD00011F384E01E3F81F489E00EC0C53249F025
