:100000000C946A000C9492000C9492000C94920050
:100010000C9492000C9492000C9492000C94920018
:100020000C9492000C9492000C9492000C94920008
:100030000C9492000C9492000C9492000C949200F8
:100040000C9492000C9492000C9492000C949200E8
:100050000C9492000C9492000C9492000C94D5296C
:100060000C9492000C9492000C9492000C949200C8
:100070000C9492000C9492000C9492000C949200B8
:100080000C941F2A0C9492000C9492000C949200F1
:100090000C9492000C9492000C9492000C94920098
:1000A0000C9492000C9492000C949200D5F08D1454
:1000B000A1C881CFD9F1AF200001010203040405DA
:1000C0000506060708090A0C0D0E0F10111214156B
:1000D0001600A02E11241FBECFEFDAE0DEBFCDBF89
:1000E00011E0A0E0B1E0E4ECF1E702C005900D9270
:1000F000AA39B107D9F729E0AAE9B1E001C01D92F8
:10010000A336B207E1F710E0CAE6D0E004C02197B9
:10011000FE010E94DA38C936D107C9F70E944B2F79
:100120000C94E0380C940000782FECE3F7E080E0CA
:10013000042E000C550B022E000C330B90819717E8
:1001400050F0691740F091819417150621F49281BF
:100150009217130629F08F5F3896813379F78FEF66
:100160000895603609F4682FECE3F7E030E020E012
:1001700090E05081581770F0651760F09F5F9413FE
:1001800009C0C90123E0880F991F2A95E1F7845C13
:10019000984F08952F5F3F4F38962133310549F727
:1001A0008CE397E00895282F82E0820F8F3078F556
:1001B00080E16802F0011124E557F94FE20FF11DCB
:1001C00027FDFA95848D4F3F29F190919106690F93
:1001D00090919006290FECE3F7E0022E000C330B10
:1001E000062E000C770B9081913009F496819111C5
:1001F00008C091819217130621F492819617170671
:1002000041F0389698E0E43CF90769F708958FEFDC
:100210000895842F08950F93CF9389351CF5863563
:10022000FCF48B33E9F0CCF48732D1F0803311F158
:10023000223009F049C081E008276F3709F444C033
:100240004F3709F441C020919106240F4091900648
:10025000400F460F62E181E126C08055833040F7B0
:1002600081E02FC0833724F3863724F0895782300A
:10027000F8F6F6CF213041F56F3731F14F3721F1E4
:10028000C0919106C40F40919006040F060F2C2FC9
:10029000402F62E181E10E9494008F3F41F42C2FB6
:1002A000402F6EE18EE10E9494008F3F69F098E04C
:1002B000899FF0011124E15CF84F8081883020F49F
:1002C00082E0CF910F91089580E0FBCF8C3399F0BD
:1002D00094F5873254F4853274F48F3F61F01CF04A
:1002E0008152823008F181E00895823321F0F4F4E4
:1002F00088528230C0F76F37B9F04F37A9F020919C
:100300009106240F40919006460F61E080E00E9424
:1003100094008F3F49F098E0899FF0011124EF5B32
:10032000F84F81E09081911180E00895843319F3B2
:100330008733C9F6E0CF833674F48136E4F68D3521
:100340003CF48B35C4F68B34B1F2853561F6D3CFEE
:100350008E3549F6D0CF8F3671F21CF4873619F6F8
:10036000CACF8657833008F0BECFC5CFCF9388233E
:1003700061F0C62F482F62E181E10E94B100FC01CB
:10038000CF3F29F0C4838FEF8683CF910895858175
:100390008483FACFECE3F7E083E09081913021F49D
:1003A0009781911101C08783389698E0E43CF90762
:1003B000A1F708958091770881110CC0EEE4F7E071
:1003C00026EF37E080818F5F808338962E173F07B6
:1003D000C9F708958A3091F30895482F20910201BA
:1003E0003091030186B52827C9019695879520FF8E
:1003F00002C024EB92279093030180930201641BB7
:10040000770B0E94B238840F0895EBE7F6E0A8EE70
:10041000B2E060E070E080E00E9492029D01AF01D6
:1004200060E00E9424028217930751F4D901FA0177
:1004300060E00E94290281931197D9F761E0F1CF22
:100440000E942F02862F08950E942902982F0C9453
:1004500029020DB407FEFDCF8EB51EBC08950DB464
:1004600007FEFDCF8EB5599A089528EE32E0EBE7EE
:10047000F6E0A0E0B0E0BD0180E00E9492020E94A0
:100480008102BD011296A20FB31F8217930799F341
:100490008F5F9F4F21F4AF5FBF40DB0178F00E9478
:1004A000B60540E05091790660917A0680E20E949C
:1004B0008602599A0E94CD04A0E0B0E07CEF0E9431
:1004C000B6054A2F509179065B0F60917A06611D3F
:1004D00082E00E948602832F71FD822F70FD819140
:1004E0000E949E02759510F42150304019F011962B
:1004F000AA2389F7599A0E94CD0421153105F9F6EE
:1005000008950E942902982F0C942F0259980E9456
:100510009E02862F0E949E02852F0E949E02842F9B
:100520000C949E02462F50917906570F60917A06DF
:10053000681F83E00E9486021EBC08958EBD0000E5
:100540008EB50DB407FEFCCF0895EBE7F6E097E01B
:1005500090933607809337078091C9089091CA0815
:100560006CE070E00E94C6388589680F609334079C
:100570008091CB089091CC086FE170E00E94C63862
:100580008689680F6093350708951F93CF93DF9393
:100590008091D8089091D9086CE070E00E94C6382C
:1005A000C62F8091DA089091DB086FE170E00E941D
:1005B000C638162F262F4C2F64E084E00E9494004A
:1005C000D82F8F3F59F088E0D89FF0011124EE5BBF
:1005D000F84F8081811102C080E28083212F4FEF8C
:1005E0004C0F64E084E00E9494008F3F59F098E043
:1005F000899FF0011124EE5BF84F8081811102C0C8
:1006000080E2808341E04C0F212F64E084E00E946F
:1006100094008F3F59F098E0899FF0011124EE5B20
:10062000F84F8081811102C080E280838D2FDF919D
:10063000CF911F9108955E98E9E7F2E081E0A0E094
:10064000B8E000800EBC8111012C1197A0FDFDCFF8
:100650000192B9F70DB45E9A08956F927F928F92CE
:10066000EF920F933B01882E0E9464030E942402A4
:10067000FC010E942402DC010E945C03482F9B01C4
:100680000E942902082F0E942F02E82ECF01BD01EF
:100690000E947003B301882D675F7F4F8F4FE6FC88
:1006A00005C0E7FEDFCF6627772788270F91EF90F9
:1006B0008F907F906F9008950E942402782F0E945F
:1006C0002902682F892F0895462F50916F02570FE6
:1006D00060917002681F83E00E9486021EBC08952C
:1006E0003F924F925F926F927F928F929F92AF92C2
:1006F000BF92CF92DF92EF92FF920F931F93CF930F
:10070000DF935C016B013901842E302E9E2C842FE7
:10071000B9010E9464030E942402482EC82FD92FD9
:100720000E948102FC019E012A0D3B1D1216130638
:100730000CF0EBC040E8A416B1040CF0E6C08C0D40
:100740009D1D181619060CF0E0C040E4C416D10433
:100750000CF0DBC0B7FE0BC0EE24FF24EA18FB0848
:100760004E18203831055CF050E8452E08C021387D
:1007700031051CF020E8422E4A18F12CE12CD7FE5E
:10078000D6C0002711270C191D09087FCF01801B37
:10079000910B5E2E501A8134910534F08C2D819589
:1007A000877040E4542E580E1595079515950795BA
:1007B00015950795CF0107969695879596958795F8
:1007C00096958795389E9001399E300D1124200F03
:1007D000311F40E0BE010D2E000C880B0E949C389A
:1007E000A82FCB018E0D9F1DA11DF7FCAA9594FE8D
:1007F00005C0880F991FAA1FCC0FDD1F24E0620ED1
:10080000711C811C680E791E8A1EC60123E0959515
:1008100087952A95E1F7080F31E0C1FC34E0C0FC70
:10082000330FC2FC329540E80403D0011124AA0D15
:10083000BB1DAE0DBF1DA758BD4F252D599883E098
:100840008EBD80916F0290917002870D981D0DB43E
:1008500007FEFDCF9EBD0DB407FEFDCF8EBD0DB4CE
:1008600007FEFDCF6EBC6C0E7D1E811C0DB407FE15
:10087000FDCF1EBC990C073014F4089430FD889409
:10088000979462E021FD68E022FD629520FF669565
:100890006A9511F028300CF06FEF942D0EB41EBC49
:1008A00093FC0626862F90FC802D92FC0024039E4C
:1008B000A00194FA36F4C895C89511240EB41EBC54
:1008C00090FC082E039E003034F08C9191FE482756
:1008D000402148274C93A058BF4F97FE06C08C91EB
:1008E00091FE5827512158275C931124AF57B040EF
:1008F0009A95A1F6A058BF4FA419B10928500395A5
:100900000DB4599A12160CF499CFDF91CF911F9123
:100910000F91FF90EF90DF90CF90BF90AF909F909E
:100920008F907F906F905F904F903F9008955E2ED4
:10093000813491051CF080E4582E5C1810E000E032
:1009400039CF6091740270917502809176020E9495
:100950002D039B01482FE1E7F2E00780802D822BD9
:10096000832B842B002019F00A9407820AC006808A
:100970000782882319F420813181428123833483C3
:1009800045830895E1E7F2E06083718382836383A6
:1009900074838583468347830895599885E00E9430
:1009A0009E0280E00E949E0280FDFBCF599A08952E
:1009B000FC010E942902819361507040D1F7089593
:1009C000409F09F4142E5527020E151E600D711D4F
:1009D000851F11240C9464030F9303E020E00E9410
:1009E000E0040E942402782F0E942F02682F892F92
:1009F0000F910895CF93C82F482F66ED72EF80E0D6
:100A00000E94EC040E94640368E871E08CE397E0C4
:100A10000E94D8040E942F0281E0C23008F480E0D6
:100A20008093E108CF910895EF92FF920F931F9367
:100A3000CF93DF93D0919006D111D350E4E9F6E043
:100A40008FEF819396E0E43EF907D9F7C0919106C4
:100A5000C150809191068C5FC817B4F5C7FD32C0B4
:100A600000918E064091860666E172EF80E00E945A
:100A7000EC042D2F4C2F0E94E004F12CE12C0C2FC4
:100A80000C2E000C110B82E08E1510F0DD2389F086
:100A90000E94290290919106F801E91BF10924E0D6
:100AA000EE0FFF1F2A95E1F7E557F94FEE0DFF1DF9
:100AB000818F9FEFE91AF90A80E1E816F10419F72E
:100AC0000E942F02CF5FC5CFE4EEF6E080E5819370
:100AD00097E0E433F907D9F7C0919106C1508091AE
:100AE00091068C5FC817B4F5C7FD32C000918E0621
:100AF0004091860666EB71EF80E00E94EC042D2F9A
:100B00004C2F0E94E004F12CE12C0C2F0C2E000C39
:100B1000110B82E08E1510F0DD2389F00E9429026E
:100B200090919106F801E91BF10994E0EE0FFF1F87
:100B30009A95E1F7EE0DFF1DEC50F94F80839FEF82
:100B4000E91AF90A80E1E816F10419F70E942F0268
:100B5000CF5FC5CFDF91CF911F910F91FF90EF90A5
:100B6000089559980E949E02599A089586E00C941F
:100B7000B105FC010E94CD05319728F068517C4FEA
:100B80008F4F9F4FF9CFAB01FC010E94CD05641739
:100B900075078E079F07C8F30895ABE6B2E02FB73D
:100BA000F8947D918D919C9166B52FBFA89B05C04F
:100BB0006F3F18F47F5F8F4F9F4F22E0660F771FC4
:100BC000881F991F2A95D1F7089590E00C94B905D4
:100BD0008FB18095807F669B88601C9B84600895A0
:100BE000809164020895E1E5F2E08285082E880F85
:100BF000A681A80FB781B11D8D919C910394A0850A
:100C00000A1608F0002402860895E1E7F0E08081EA
:100C10008D7F8083109291004698479808950F9396
:100C20001F93CF93DF930E94F305811520E892076D
:100C300031F4DF91CF911F910F910C94050697FD30
:100C400005C020916202222309F454C0209163025E
:100C5000211150C021E020936102EC01DF77209741
:100C600009F04BC081E08093600246980FE91FE0D5
:100C7000CAEFD0E0E0914F02F09150020995811146
:100C800003C081E08093600280916102882329F093
:100C900080916002882309F43FC047980E94F305C1
:100CA0002FEF3FEFA901009751F09C01DE010E9458
:100CB0008D3824EF31E040E050E00E946B38109214
:100CC00090008AE08093910010939900009398001F
:100CD00020935C0230935D0240935E0250935F026A
:100CE00080917100826080937100DF91CF911F919C
:100CF0000F91089510926102B0CF9E0150E040E044
:100D000060E472E48FE090E00E944C388901015069
:100D1000110910926002AECF4699BFCF479ABECF5D
:100D2000E1E5F2E021853285231791F16381748139
:100D300085810E946403231749F10E9424028130B7
:100D400060E8960741F480819181A2818383948336
:100D5000A5831CD0EBCFA681B781A20FB11DA20F36
:100D6000B11D8D939C9323956085261709F420E08F
:100D7000218783819481A5810296A11D8383948319
:100D8000A5833F3FC1F630E03287D5CF0C942F02C8
:100D90000895E1E5F2E06383748385836083718362
:100DA000828311868FEF82870E949006E1E7F0E050
:100DB00080818D7F80830C940F068B35D4F4893528
:100DC00064F4833351F05CF48A3239F024F48F51A7
:100DD000823058F402C0813341F481E008958035B7
:100DE00034F48C34D4F78933C1F380E0089583550B
:100DF000EFCF883691F354F4803679F31CF48D35B7
:100E0000A1F7EBCF8356843080F7E7CF84372CF4FB
:100E100080371CF78D3649F7E0CF8C3731F7DDCFBF
:100E2000CF93DF938091D8089091D9086CE070E05F
:100E30000E94C63880919006C62FC81B8091DA08A0
:100E40009091DB086FE170E00E94C63880919106B6
:100E5000D62FD81B4DE46D2F8C2F0E94D3000E94FB
:100E6000DD06811123C081E09091C808913009F41A
:100E700080E04DE46D2F8C0F0E94D300C82F0E949C
:100E8000DD06CE3539F044F4CC3321F0C53511F010
:100E9000C43341F483E00BC0C736E1F3CF36D1F35E
:100EA000C236C1F38111F6CF82E001C081E0DF914B
:100EB000CF910895382F262F972F862F6CE070E062
:100EC0000E94C638313021F0323041F08FEF089562
:100ED000822F94EF699F800D112408958CE0869FE6
:100EE000800D1124821B0895AF92BF92CF92DF92A2
:100EF000EF92FF920F931F93CF93DF938C01C62F36
:100F000031E0413009F43FEFF801A488B58832039D
:100F100070011124EA0CFB1CC7016CE070E00E9418
:100F2000C63880919006D62FD81B868997896FE1A5
:100F300070E00E94C63880919106D62ED81A4130B2
:100F400029F0423009F450C091E08CC03D0F82E09E
:100F5000830FCC24CA948F3070F48D2D90E18902D8
:100F6000F0011124E557F94FE30FF11D37FDFA9514
:100F7000E459FF4FC080B70181E00E945A07CB308F
:100F800010F52C2F30E0F901E853F84F0C94DA38C3
:100F9000F007E507F007E807D307E307E307E307F0
:100FA000D307E507F007E21AF30AF80183854685BF
:100FB00050E0FCE08F9F400D511D112491E0E4169C
:100FC000F5060CF04FC090E04DC0863008F0BCCF65
:100FD00000E021E04D2D6D2F8C2D0E940B0159C09A
:100FE0008A3008F0B1CFF4CF3D0F82E0830FCC24DC
:100FF000CA948F3070F48D2D90E18902F001112494
:10100000E557F94FE30FF11D37FDFA95E459FF4F0E
:10101000C080B50182E00E945A07B82ECB3098F606
:101020008C2F90E0FC01E95EF74F0C94DA384D0804
:101030003E084D0860082208E307E307E30722089B
:101040003E084D08E80EF91EF8018385278530E03B
:10105000FCE08F9F200D311D112491E02E153F05DE
:101060000CF4B1CF892FDF91CF911F910F91FF9099
:10107000EF90DF90CF90BF90AF90089500E022E016
:101080004D2D6D2F8C2D0E940B0196E09B1508F4C1
:101090005BCF91E0882331F396CF00E022E04D2D25
:1010A0006D2F8C2D0E940B01B7FC4ECFE9E0EB15A4
:1010B00084F7FAE0BF1248CF91E0823099F683CFEF
:1010C00000E022E087CF8C3722E0920729F08F30B2
:1010D000934011F080E0089581E008952091C408C4
:1010E0003091C5082A3792E0390768F02D3792E031
:1010F000390728F02E5033402230310520F494EF88
:10110000980F933040F0482F68E47BEF80E00E9416
:10111000EC040C94C9060895EF92FF921F93CF93AD
:10112000DF93FC018081282F30E08A3130F08A3251
:1011300050F08E54803108F446C0DF91CF911F915A
:10114000FF90EF900895418182ED840F8630A8F7DB
:10115000C9014A97EC0197FD2396D595C795D5957A
:10116000C79564E070E00E94C638182F81E04133D3
:101170000CF480E0CF3F09F3CC0F895EC80F88E004
:10118000C89FE0011124C15CD84F888190E0012EF6
:1011900002C0959587950A94E2F780FDCECF7F0136
:1011A00088E10E946E0821E030E001C0220F1A950C
:1011B000EAF78881822B88838CEFF701818385E0B1
:1011C00080934A07BACF418182ED840F863008F0C0
:1011D000B4CFC9018E549109EC0197FD2396D595A2
:1011E000C795D595C795CC5FBCCFFF920F931F9342
:1011F000CF93DF93F82EEB018A01BA016150710998
:10120000660F771F072E000C880B625C724C834FB1
:101210000E9464030E942902082E000C990B21E011
:10122000F21639F121E030E0829FA001839F500D3A
:10123000929F500D112417FD1FC001E010E0409F48
:10124000C001419F900D509F900D11249983888378
:101250000E942902282F2003C001219F900D1124F4
:101260009B838A83DF91CF911F910F91FF900C9404
:101270002F022FEF3FEFD8CF0FEF1FEFE0CF0F93ED
:10128000880F40917D06480F04E020E063E070E99C
:101290008EE00E94E0040E942402BC010E948102B0
:1012A000AC01BB27A72F962F852FBC018A2F0F914A
:1012B0000C94C204AFE4B7E0E0E08C91893009F00F
:1012C000EF5F189687E0A73FB807B9F7F0E0E7545B
:1012D000FF4F849108950F931F93CF93DF93DC0109
:1012E00021153105B1F0CD91DC91119782E08EAFDF
:1012F0000CAD1DAD0E31110561F0C801880F991FAD
:101300008C0F9D1FFC0131832083F8013196FDAFC6
:10131000ECAF82E06417750708F1ED91FC9184ADA4
:1013200095AD8E31910571F0DC01AA0FBB1FAE0F98
:10133000BF1F22273327241B350B2D933C93019687
:1013400095AF84AF4F5F5F4F6417750740F782E03A
:1013500086AFDF91CF911F910F91089546175707E0
:10136000C0F3ED91FC91119786AF24AD35AD2E31D0
:10137000310559F0E901CC0FDD1FCE0FDF1F598376
:1013800048832F5F3F4F35AF24AF41505109E6CF1F
:10139000AB011092E30830E020E0BC018CED98E056
:1013A0000C946B09CF93C82F80E00E946E08E091E7
:1013B000DC08F091DD0815AE14AE6CE772E08AE748
:1013C00092E0CC2321F06FE073E08EE093E00E9486
:1013D000C8091092D4088091CB089091CC08209134
:1013E000880621111CC020918706211118C021E018
:1013F0002093380727E220933A0724E12093390706
:101400008833910551F08735910539F0499719F4E2
:1014100080E380933B07CF91089581E0FACF10924B
:10142000380728E1E8CF9A011092E308AB01BC012C
:101430008CED98E00C946B09DC01ED91FC9182E05D
:1014400086AF84AD95AD8E31910561F0DC01AA0FB8
:10145000BB1FAE0FBF1F6D937C93019695AF84AFFA
:1014600081E0089580E00895FF920F931F93CF933A
:10147000DF938C01EB01FC016081718180E0605E93
:10148000754C834F0E9464030E942902F82E0E942B
:101490002F022F2D2150330BC901B901660F771F81
:1014A000680F791F072E000C880B625F7B4B834F00
:1014B000F801948111E0913009F41FEF0E94640358
:1014C0000E942902819F802D112488830E94290275
:1014D000189F802D112489830E942902189F802D36
:1014E00011248A830E942F028981813811F48FE7A9
:1014F00089838981823811F48EE78983DF91CF91C6
:101500001F910F91FF9008957F928F929F92AF92BB
:10151000BF92CF92DF92EF92FF920F931F93CF93E0
:10152000DF9300D01F92CDB7DEB7782EC090D808D9
:10153000D090D9088090DA089090DB08BE016F5FE8
:101540007F4F84EC98E00E94340A1A81E090900664
:10155000C601810F911D17FD9A952CE0A22EB12C8A
:10156000B5010E94C638F62EFE18C4016FE170E086
:101570000E94C63880919106062F081B4DE4602F0B
:101580008F2D0E94D3001F3709F477C0402F6F2D95
:101590000E946601182F8130A1F18B819601280FDE
:1015A000311D87FD3A95C901B5010E94C638162F35
:1015B0001E194DE4602F812F0E94D300402F612F10
:1015C0000E946601182F8130E1F07720D1F0E09081
:1015D000C8086091D8087091D9088E2D0E945A07CA
:1015E000823079F481E032E0E31280E04DE4602F54
:1015F0008F0D0E94D30091E0E916A9F022E0E216D7
:1016000079F1812F0F900F900F90DF91CF911F9163
:101610000F91FF90EF90DF90CF90BF90AF909F9091
:101620008F907F900895853531F06CF4843319F0F4
:1016300024F4823331F412E0E4CF8733E1F38C33C6
:10164000D1F310E0DECF8736B1F32CF48E3599F369
:101650008236B9F7F0CF8F3671F3863791F7EBCF3B
:101660008D3549F32CF4893331F38C3451F7E3CFC2
:10167000803609F3863629F7DECF11E0C2CF2F92EC
:101680003F924F925F926F927F928F929F92AF9212
:10169000BF92CF92DF92EF92FF920F931F93CF935F
:1016A000DF93CDB7DEB7A2970FB6F894DEBF0FBEBB
:1016B000CDBFF090A7018091A6018095482E4F20C4
:1016C0008091C4089091C50883509340512C08978D
:1016D00008F44CC08091CB089091CC0820919206E0
:1016E000AC01421B5109473551050CF4FEC0209155
:1016F000910630918606363099F4263089F4E091CF
:10170000DC08F091DD0815AE14AE67ED72E08CEDEB
:1017100098E00E941C0A8CE080939106512C15C021
:101720009093CE088093CD088D5591099093CC0865
:101730008093CB082D5F209391060E941405109290
:10174000920610929306552453948091CB08909161
:10175000CC082091CD083091CE08293331050CF00A
:1017600069C1C9971CF084E0809393068091AC0115
:10177000882319F081508093AC018091AA018823BD
:1017800019F081508093AA018091AA01863451F406
:1017900046E060E682E00E94B1006FEFFC018381C9
:1017A0000E94B60120919106309190068091DE084A
:1017B000882319F081508093DE088091DF08882308
:1017C00019F081508093DF08E091DC08F091DD088A
:1017D00086AD882309F433C1815086AF8091C90852
:1017E0009091CA08FCE03F9F800D911D11249093B9
:1017F000D9088093D8088091CB089091CC083FE11C
:10180000239F800D911D11249093DB088093DA08AB
:10181000E091E408F091E50886AD882309F411C150
:10182000815086AFEBEEF8E083E699E020813181CC
:10183000308B278722813381328B218B78968E17CC
:101840009F07A1F780919306833009F4FCC0843090
:1018500059F4809192068F3138F48F5F809392060D
:101860008F3111F4109293060BE716E01C8E26E0E0
:10187000A22EB12C3CE0232E312C40E6E42ED801E0
:10188000AF53BF4F4C91403609F4F4C08091A8018A
:101890009091A9019C0123703327EFEFE40FEE3103
:1018A00008F0E8C0F0E0E95AF34F0C94DA38710E12
:1018B0003E0F3E0F520F3A0D3A0D3E0F3E0F3E0FB8
:1018C0003A0D3E0F3A0D3A0D3A0D3A0D160E260E10
:1018D000260E3A0D100F100F200F2F0F3A0D2F0D5F
:1018E000160E3A0D3A0D3A0D260E382F321B37FFE1
:1018F00015C09093CE088093CD08835A9F4F909344
:10190000CC088093CB0880919106835080939106F8
:101910000E9414058FE18093920613CF8091C9082D
:101920009091CA0897FF49C088589F4F9093CA0862
:101930008093C908809190068A50809390060E94F7
:101940001405809186068D3009F0FDCE80919006B9
:101950008111F9CE809191068111F5CE83E08093BB
:1019600082068FE0809362098EE10E943F09909188
:101970007E0680918806981740F098131AC020912F
:101980007F06909187062917A0F491E090937C063A
:1019900080937E068091870680937F0680918906DA
:1019A00090E0909381068093800610927B060E94BF
:1019B000350289E00E946E08C6CE893791050CF485
:1019C000ADCE885791099093CA088093C908809139
:1019D0009006865F809390060E941405809186068B
:1019E000883009F0B0CE80919006883209F0ABCEF5
:1019F00080919106833009F0A6CE8091AA018111D1
:101A0000A2CE8091AB018F5F8093AB01833008F44D
:101A10009ACE46E062E181E10E94B100DC011396BA
:101A20008C91811190CE60EF8AEA0E94ED01809343
:101A3000AA0189CEC9970CF099CE83E095CE82E0B9
:101A4000CCCE82E0EECE80919206882309F40CCFB2
:101A5000815080939206882309F404CF05CFF801C2
:101A6000EC53FF4F80818F5F883211F0808302C07A
:101A70004BEF4083085F1F4F23E038E0201731070A
:101A800009F0FDCE209136078091A8019091A9011F
:101A9000222329F080FD03C0215020933607837054
:101AA0009927892B39F480913907823018F08150B9
:101AB000809339073C8D3130D9F48091C4089091DE
:101AC000C5088C5A92404E9798F080E00E94A5027B
:101AD0008091D408882319F081508093D408809194
:101AE000D408811102C00E94D2098FE00E946E08C2
:101AF000809182068730F1F08091A8019091A90130
:101B00002091830630918406821B930B6DE270E076
:101B10000E94B238892B71F4809187068111E8C147
:101B200080918806882331F08150809388068BE36A
:101B30008093870680918B06882319F081508093CB
:101B40008B0680918806811113C0809187068111D0
:101B50000FC083E08093820681E18093620983E174
:101B60000E943F0980E8809301018BE00E946E088B
:101B70008091AE01813009F4BDC1823009F4C5C144
:101B80002091E4083091E508D901DC96CD90DC90F5
:101B900060905F09E0915E09ED8FE09090062E2C39
:101BA000312CF9E02F0E311C70909106872C912C6E
:101BB00042E0840E911C8091DA089091DB086FE17D
:101BC00070E00E94C638A62E660FBB08E6EFF8E06C
:101BD00040E01C8E0CE010E05D8D541709F4B7C195
:101BE00040935F0982818111ACC184819581B801E4
:101BF0000E94C638868197816E1508F494C16215DB
:101C0000130411F00CF08FC16FE170E00E94C63830
:101C1000671508F488C17727861697060CF483C1E8
:101C20006A157B0509F490C181E07EC180FD22CF59
:101C3000F801E953FF4F8081833009F01BCF3197C2
:101C400080818B3008F016CF8F5F10CF232B09F0E7
:101C500011CF680155ECC50ED11CD6018C91282FEF
:101C600030E0285F3F4FF801E953FF4F9081921712
:101C7000130609F0D4F44801B4EC8B0E911CF40166
:101C80008081893058F4811105C064E079EF80E0EB
:101C90000E94C906D4018C918F5F8C93D6018C91E0
:101CA000882309F4E7CE815017C081508930B0F7FE
:101CB0004231A1F36801B4ECCB0ED11CF601808156
:101CC000893029F466EC78EF80E00E94C906D601DD
:101CD0008C91833018F083508C93CCCEF601108217
:101CE000C9CE232B41F4F801E853FF4F80818823AC
:101CF00011F081508083F801E953FF4F80818230D9
:101D000010F0815080838081813009F0B3CEF801DA
:101D1000EA53FF4F90819E5F90833297808198179E
:101D200008F4A8CE8E3F11F4EC92A4CE3801E3EC77
:101D30006E0E711CF30120812F5F6FE10E94A638A7
:101D4000280F2083F3E1FC93480122EC820E911CC2
:101D50008091D8089091D908B1010E94C638062E0A
:101D6000000C770BD4018C918617170691F48091A3
:101D7000DA089091DB086FE170E00E94C638062E09
:101D8000000C770BF30180818617170611F4F1E040
:101D9000FC8F809186068B30B9F4ECE3F7E080810C
:101DA0008250823058F49181D4018C91981306C0EE
:101DB0009281D3018C91981301C0E0823896B8E0EB
:101DC000E43CFB0761F756CE863009F053CE9CE326
:101DD000C92E97E0D92EF60180818230C1F491811D
:101DE000D4018C91981313C08281F3019081891BD7
:101DF000990B0296059758F443E062E181E10E9455
:101E0000B100DC0114961C92149716961C92B8E04F
:101E1000CB0ED11CE4ECCE16E8E0DE06E1F62ACECD
:101E2000B5010E94B238892B09F024CEF801EC5399
:101E3000FF4F81E09081992309F418CE80E016CEFF
:101E4000B5010E94B238892B09F014CEF801EC5389
:101E5000FF4F80818F5F863009F008CE40CFB501FB
:101E60000E94B238892B09F005CEF801EC53FF4FE0
:101E700080818F5F873009F0F9CD31CF232B09F0B6
:101E8000F9CDF801E853FF4F8081823010F0815086
:101E900080838081813009F0EDCDD801A953BF4FF7
:101EA0001C921DCF232B09F0E5CDF801E953FF4F1C
:101EB0008081843070F4813008F4DCCD81508083DF
:101EC000F801EB53FF4F8081882309F4D3CD815073
:101ED000CDCD92EE980F81508083933008F0CACD1B
:101EE000F801EB53FF4F8081833008F0C3CDACCEB7
:101EF00081501ECE8091AF0184508093AF01863512
:101F000009F03ECE1092AE013BCE8091AF018C5FC6
:101F10008093AF01823809F033CE1092AE0185E094
:101F2000809382062DCE80E09081911107C0909120
:101F30006009992319F091509093600981110C94D4
:101F4000E4284F5F789648CE61E06C8F6DCE8C8D23
:101F50001C8E60925F09552009F47AC19C8D9923EB
:101F600009F47BC18C8FA0915F096A2F70E088E132
:101F7000A89FD0011124AA51B74F50969C91509719
:101F8000992309F441C04091D8085091D908869FFF
:101F9000F001879FF00D1124E650F74F60817181A9
:101FA00015960D911C91169711830083F90115AEBA
:101FB00014AEE0915F09E89FF0011124EA51F74F58
:101FC00022E130E031832083461B570B909190062D
:101FD000E0915F09E89FF0011124EA51F74F57FFA4
:101FE00024C11C962C9130E04CE0949F200D311DB3
:101FF000112436832583E0915F09E89FF0011124C5
:10200000EA51F74F81E084833324339442FE2EC09B
:10201000332061F17C8D772349F18091E108882399
:1020200029F18091C4089091C5084297F9F4E09194
:10203000DC08F091DD0884AD95AD892BB9F4E09111
:102040005F0988E1E89FF0011124EA51F74F808988
:10205000882361F08389843049F046EF52E06CEFC9
:1020600072E087EF92E00E94130A412CE091E408AD
:10207000F091E50884AD95AD892B21F5332011F160
:102080009C8D91111FC0E0915F09A8E1EA9FF001CA
:102090001124EA51F74F808191818F3FB2E09B0775
:1020A00039F08230E3E09E0719F0863F924051F408
:1020B00022E130E04DE852E064E872E084EE98E01E
:1020C0000E946B0980918206853009F05AC0E09128
:1020D000E408F091E50884AD95AD892B09F051C075
:1020E00040915F09842F90E068E1469FA001112490
:1020F0004A51574FDA0152962C915297211141C003
:1021000014961C9114971123E1F153962C912230CF
:10211000C1F12430B1F1689F9001699F300D112405
:10212000FA0178E1DE01119601900D927A95E1F7BE
:10213000F901E650F74FC090D808D090D908019027
:10214000F081E02DCE1ADF0A0196689FF001699FA9
:10215000F00D1124EC51F74F6091DA087091DB0813
:1021600080819181681B790BFA0180819181863F82
:10217000F2E09F0709F4E1C008F071C0429709F44A
:102180009DC08091AC014F2D4071942E811145C0AE
:1021900080918206853009F040C0E091DC08F09122
:1021A000DD0884AD95AD892BC1F58091D80890915B
:1021B000D9086CE070E00E94C638262F8091DA08BA
:1021C0009091DB086FE170E00E94C638362F422FF5
:1021D000022E000C550B80913D0790E0FC013197D9
:1021E0004E175F0709F03CC270913E07E62F062E9E
:1021F000000CFF0B7E171F0611F00C943C29709108
:102200004207733011F00C9437298091C80881304F
:1022100009F48AC3823009F4F5C1992009F42DC369
:10222000EFC68C8D71E07C8F94CE1D962C9130E0A2
:102230005CE0959F200D311D112436832583E091AC
:102240005F09E89FF0011124EA51F74F82E0DBCEED
:102250006C8D662311F08C8FD7CE312CD7CE8F3F6B
:1022600032E0930721F08230934009F08ACF672B48
:1022700009F087CFD7FE03C0D194C194D108D7FC11
:102280000AC0E5E1CE16D1040CF450C0FFE1CF1630
:10229000D1040CF442C020E04D8164E0CE010196EF
:1022A0000E947407882309F441C04FEF52E06DEF9C
:1022B00072E084EE98E00E94582E63CF55E4C50E7C
:1022C000D11C8BE8C816D10408F05BCF672B09F04E
:1022D00058CF332009F455CF9C8D992309F451CF61
:1022E0008091C4089091C5088A37A2E09A0750F0FF
:1022F0008D37B2E09B0708F444CF8E50934002978D
:1023000008F43FCF26EF32E04CEF52E067EF72E087
:1023100084EE98E00E946B0934CF8091C4089091BC
:10232000C508865F9240489708F0B5CF66EF72E027
:1023300084EE98E00E941C0A24CF1C141D04D4F5DE
:102340001130D9F582E0DA0114968C938091E5087A
:102350008F938091E4088F93EDB7FEB778970FB60F
:10236000F894FEBF0FBEEDBFADB7BEB7119688E1C2
:10237000FE01319601900D928A95E1F70E945C2E44
:102380000FB6F894DEBF0FBECDBF8091C408909108
:10239000C508865F9240489710F00C94ED28809114
:1023A000C808823009F0EDCE81E08093C8080E9411
:1023B000002EE7CEC114D104E1F48091C4089091BD
:1023C000C508853033E0930708F049C08330A3E0A7
:1023D0009A0708F07AC09C012A5732402330310511
:1023E00008F049C022E130E04DE852E064E872E0D4
:1023F0008FCF123011F781E0FA0184838091E508D4
:102400008F938091E4088F932DB73EB728513109FF
:102410000FB6F8943EBF0FBE2DBFADB7BEB7119635
:1024200088E1FE01319601900D928A95E1F70E94B4
:102430005C2E0FB6F894DEBF0FBECDBF8091C408EE
:102440009091C508865F9240489710F00C94F82848
:102450008091C808813009F094CE82E0A6CF873001
:10246000B3E09B0708F473C09C012E503340223028
:10247000310508F4B7CF672B09F083CED7FE03C030
:10248000D194C194D108D7FC06CFA5E1CA16D104D6
:102490000CF464C0B1E3CB16D1040CF0FCCE60E1C7
:1024A00080E00E94ED01882309F4F5CEE0915F09F8
:1024B00028E1E29FF0011124EA51F74F80819181D8
:1024C0008F3F924009F05DCE31CF6CE080E00E94FA
:1024D000ED01811115C0E091DC08F091DD0815AE29
:1024E00014AE46EF52E06DE073E08BE093E00E94A3
:1024F000130A26EF32E04DE053E06BE073E008CFC3
:102500006CE080E00E94ED0181113BCE8091E508F6
:102510008F938091E4088F936DB77EB768517109EE
:102520000FB6F8947EBF0FBE6DBFADB7BEB71196A4
:1025300088E1FE01319601900D928A95E1F70E94A3
:102540005C2E0FB6F894DEBF0FBECDBF1ACE68E08A
:1025500080E00E94ED01811114CEBDCF8330E3E015
:102560009E07F0F4863FF2E09F07F0F48A5792400E
:10257000039708F406CEDA0115962D913C918091CF
:102580009006BCE08B9FC0011124281739070CF47A
:10259000F8CD80579F4F821793070CF4F2CD2BC0D4
:1025A0008B509340039738F7DA0115962D913C91A3
:1025B00080919006BCE08B9FC00111242817390739
:1025C0000CF4DFCD80579F4F821793070CF4D9CDC1
:1025D00060E180E00E94ED01882369F0E0915F09ED
:1025E00028E1E29FF0011124EA51F74F9481809194
:1025F000C8089813C6CD26EF32E04AE053E063E006
:1026000073E086CE67ED72E08AEC92E00E94C80922
:10261000809190066091C9087091CA085CE0859F1E
:10262000600D711D11248091C8080E945A078630E0
:1026300091F08A3051F0823009F0EFCD61E072E024
:102640008CEF91E00E94C809E8CD61E072E08CEF68
:1026500091E00E94C80967EE71E081EE91E0F2CF4F
:102660004817590711F00C943C2970913E07862FAA
:10267000062E000C990B7817190611F00C943C29C2
:1026800080914207833011F00C943C2947EE54E0CE
:1026900063E370E08FE290E00E94130A8091C80823
:1026A000813011F1823009F0B8CD67ED72E08AEC2B
:1026B00092E00E94C809809190066091C9087091CB
:1026C000CA08ACE08A9F600D711D11248091C80872
:1026D0000E945A07823009F1863009F09ECD6CEFD6
:1026E00071E081E092E0AECF809190066091C908E0
:1026F0007091CA089CE0899F600D711D112481E0D2
:102700000E945A07863009F499CF8A3009F085CDA6
:1027100067EE71E080EE91E095CF60EE71E087EEBC
:1027200091E090CF8131910511F40C946329429787
:1027300009F073CD709090066CE0769E50011124E4
:10274000C090C908D090CA08B5016C0D7D1D802FBE
:102750000E945A078C3008F04AC0E82F880FFF0B00
:10276000EC54FC4E0C94DA382C14F013F7132814A4
:102770002C14F013F71328142C14F013F713281447
:102780008233B2E09B0709F4E8C3D0F48E3291059E
:1027900009F41FC3803E914009F03FCDFE2009F4AB
:1027A000B2C320E0402F62E084EC98E00E947407FE
:1027B000882309F4A8C369E070E085E090E042CF87
:1027C000863F32E0930709F48FC58D3143E09407CB
:1027D00009F4FFC28D37924009F01FCD0C94632994
:1027E0007FEFC71AD70AD092CA08C092C908609072
:1027F0009106C090C908D090CA08CA0CDB1CD092C0
:10280000D908C092D808A090CB08B090CC08AFE10E
:102810006A9EA00CB11C1124B092DB08A092DA08C9
:10282000EF2009F47FC020E0402F9920C9F061E03B
:1028300084EC98E00E947407882309F48EC142E179
:1028400050E061E072E08CEF91E00E94130AE5CC69
:1028500081E0C81AD108C7CF92E0C90ED11CC3CFFE
:1028600060E084EC98E00E947407882349F060EEF1
:1028700071E08CED98E00E941C0A10928A06C0C399
:1028800020E0402F61E084EC98E00E947407811101
:10289000D6CFF7FEF2CF802F0E94FE2BE82F81309B
:1028A00040F0833008F4C1C189EF8E0F833008F403
:1028B000BCC182E0013009F081E00E94FE2B282F8C
:1028C000C6016CE070E00E94C638E62EC5016FE1DB
:1028D00070E00E94C638E5E0213009F4A6C1E7188F
:1028E0006094660E4DE4662D81E08E0D0E94D3004B
:1028F000182F4DE4662D8E2D0E94D300F82E4DE446
:10290000662D8FEF8E0D0E94D300E82EB601802F2A
:102910000E945A07013009F474C1023009F4C3C19E
:10292000E3E083C11F2139F047EE54E063E370E038
:102930008FE290E08ACFF3FE0DC1C6016CE070E03B
:102940000E94C638E62EE718C5016FE170E00E94CC
:10295000C638F62EF618B601802F0E945A07182F97
:10296000DD24DA94013011F0DD24D394ED0C402FF6
:102970006F2D8E2D0E94592A89A36D2C6E0C402F2D
:102980006F2D862D0E94592AC82E7D2C760C402F43
:102990006F2D872D0E94592A8D8FD70C402F6F2DB8
:1029A0008D2D0E94592A8F8FBB24B394BF0C402FCA
:1029B0006B2D8E2D0E94592AA82E402F6B2D862D0F
:1029C0000E94592A282E402F6B2D872D0E94592AAC
:1029D000582E402F6B2D8D2D0E94592A88A36F2DC4
:1029E0008E2D0E94762A8AA36F2D862D0E94762A2C
:1029F000882E6F2D872D0E94762A082F6F2D8D2D02
:102A00000E94762AF82E6B2D8E2D0E94762AD82EC3
:102A10006B2D862D0E94762AE82E6B2D872D0E9425
:102A2000762AB9A1B11182C0C11013C0811011C0A2
:102A3000002379F068E0163011F40C948E2969E0D7
:102A40001A3011F40C948E29123029F465E00C949C
:102A50008E29123019F0163009F03CC0C1101BC08D
:102A6000ED8DE11118C0FF8DF11115C0A11013C03B
:102A7000211011C051100FC028A1222361F0811034
:102A80000AC0011108C06AE0123011F40C948E29BA
:102A90006BE00C948E29123011F01630D9F4C1106D
:102AA00040C03D8D31110C94CB294F8D41110C94B8
:102AB0007C29A1100AC0211008C0511006C0811045
:102AC00004C0011102C0F110DECF123029F4AA2097
:102AD00029F0BCCFC11025C0A1102BC0222061F06D
:102AE0001630A9F164E01A3011F40C948E291230DA
:102AF00001F562E00C948E2951101BC06AA161118E
:102B000018C0811016C0D11014C0E11012C0882363
:102B100081F0163019F01A3009F098CF66E00C9465
:102B20008E298FEF8C0D823008F090CF60E00C94EE
:102B30008E297D8D772309F489CF1630D1F21A3092
:102B400031F0123009F082CF61E00C948E2963E0FD
:102B50000C948E29992009F49CCE82E0013009F072
:102B600081E00E94DD2C182F8FEF810F8230B8F0AA
:102B7000802F0E94DD2C813089F0823029F11111E3
:102B80000EC080918A068F5F80938A06843009F098
:102B900037C263E070E081E090E054CD13E040E2A2
:102BA00050E061E172E08FE192E00E94130A13307D
:102BB00069F01430B9F0123089F442E150E06CEF62
:102BC00071E081E092E008C014E0E9CF47EE54E004
:102BD00063E370E08FE290E00E94130A86E980933D
:102BE000DE081BCB47EE54E063E370E08FE290E039
:102BF0000E94130A42E150E061E072E08CEF91E044
:102C0000EBCF8A3009F047C01C3509F489CEA4F512
:102C1000173329F044F5123311F0143359F5812F8D
:102C20000E94DD06E6E0811125C0C6016CE070E07F
:102C30000E94C638462FC5016FE170E00E94C63879
:102C40002FEF260FE250E83008F059C0F0E0E55DC4
:102C5000F94E0C94DA38CC16A2168616D716E4165E
:102C60008F16B016A5161B3409F45ACE1535B9F2D5
:102C70001C33A9F2E4E0D9CF15362CF412367CF6D9
:102C80001E35C1F7CCCF1F3651F2163709F4C7CF26
:102C9000173681F7C4CFBBE4FB1609F441CEECE54F
:102CA000FE12E8CF3DCE8A3011F5FCE4FF1661F04C
:102CB000FF1564F029E3F21639F03BE4F31609F44A
:102CC0002FCE43E3F412D6CF8E2DAACF5DE5F516B5
:102CD000D9F35F152CF06CE5F61609F421CECACFB6
:102CE00070E6F71689F386E6F812C4CFEDCF9BE4C1
:102CF000F91609F415CEACE5FA12BCCF11CE60E29C
:102D000070E083E190E00E94C809B7CD42E150E055
:102D100065EF72E083EE92E00E94130AAECD61E0AF
:102D2000013009F46FEF460F61E080E00E949400EB
:102D30008F3F41F0B8E08B9FF0011124EE5BF84F1C
:102D40008CE680830E94F22D98CD61E080E00E94A5
:102D500094008F3FB9F328E0829FF0011124EECF59
:102D600061E0013009F46FEF460F61E080E00E94FE
:102D700094008F3F41F038E0839FF0011124EE5B17
:102D8000F84F8CE680830E94F22D42E150E061E032
:102D900072E08CEF91E0C0CF60E270E083E190E000
:102DA0000E94C80961E072E08CEF91E0ACCF60E274
:102DB00070E083E190E00E94C80947EE54E063E3CD
:102DC00070E08FE290E0A8CF6EE270E081E290E0E8
:102DD0009ACF992069F180918606873051F48091CD
:102DE00090068A3031F480919106811102C01092D0
:102DF0008B060E941007823099F0833051F08130A9
:102E000009F00BCA42E150E066E072E082E092E035
:102E10001CCD42E150E06BE072E087E092E015CD1E
:102E200081E08093E00860E172E08CE092E00ACCFF
:102E3000F7FE59C0809190063091910690918606D8
:102E4000973029F48A3019F4332309F44CC0013047
:102E500029F00230A9F160E020E004C0281B932F84
:102E60009095690F90E0820F911D27FD9A95232F71
:102E700030E0260F311D67FD3A95ECE3F7E050E0B6
:102E800040E06081613111F06E31E9F461816817D1
:102E90001906C9F4628162171306A9F4B3E0440F5E
:102EA000551FBA95E1F7FA01E15CF84F808189304E
:102EB00089F442E150E06FE172E081E192E02CCFD1
:102EC000281B2F5FCCCF4F5F5F4F389641335105A2
:102ED000C1F6EFCF8F3F69F342E150E06BE372E060
:102EE00083E392E019CF8091DE088111C6CC0E9465
:102EF0001007823009F494CF833009F48ACF8130EF
:102F000009F0BBCC7FCF42E150E067EE71E081EE8B
:102F100091E09BCCEF20E1F0F3FE05C08C8D832186
:102F20000E947D2D7AC920E0402F63E084EC98E078
:102F30000E947407882329F061E170E08EE090E040
:102F400081CB42E150E06CEE71E088EE91E07DCC07
:102F5000F122B9F30E943F2E60C98091DF088111F0
:102F60005CC9911007C042E150E06BE272E082E27E
:102F700092E0D2CE013009F0A3C1F5FCA6C1F3FE68
:102F80003FC0ECE3F7E0F12CE12C632F032E000CA3
:102F9000770B80818451843050F491819417150609
:102FA00031F492819617170611F40C9400298FEFD3
:102FB000E81AF80A389691E3E916F10451F78BE71D
:102FC00096E0F12CE12C232F330F330BFC01EF5350
:102FD000FF4F60816B3161F4319660816417150693
:102FE00039F4319660816217130611F40C94192993
:102FF000AFEFEA1AFA0A0896B1E3EB16F10431F7DB
:1030000080918206873009F415C2883009F479C2AC
:10301000853091F442FE10C0E091DC08F091DD08AB
:1030200084AD95AD892B41F487E08093820681E0E1
:103030008093AE011092B001E091DC08F091DD08C0
:1030400086AD8111A3C684AD95AD009711F40C94A3
:103050005C20019795AF84AF880F991FE80FF91F87
:10306000C080D1807601D7FE04C0EE24FF24EC1886
:10307000FD08F092C508E092C40866E7E61662E033
:10308000F60609F4D0C40CF0A5C28CE0E81682E084
:10309000F8060CF068C29AE0E91692E0F9060CF026
:1030A0005FC2A0EEEA16A1E0FA060CF050C2B1E44D
:1030B000EB16F1040CF0E9C5E4E0EE16F10454F06F
:1030C000F2E1EF16F1040CF4E0C522E1E216F1049E
:1030D00009F4ADC44091C4085091C508BE016F5FAA
:1030E0007F4F8091C8080E94F50899818FEFD7FE25
:1030F00081E0989F902D11242091C9083091CA0831
:10310000290F311D97FD3A953093CA082093C908BD
:103110009B81899F802D11242091CB083091CC0870
:103120003093CE082093CD08280F311D87FD3A95A6
:103130003093CC082093CB08BE01675E7F4F84ECB0
:1031400098E00E94340A8A8D8E57823008F41EC699
:10315000BE01675E7F4F84EC98E00E94340AC09005
:10316000D808D090D9088A8DD601A80FB11D87FD47
:10317000BA95CD017CE0A72EB12CB5010E94C638CE
:10318000462FE62E8091DA089091DB086FE170E01F
:103190000E94C638F62E062F262F6BE080E00E9494
:1031A0009400182F8F3F91F48B8DF601E80FF11DDD
:1031B00087FDFA95CF01B5010E94C638462FE62E4D
:1031C0002F2D6BE080E00E949400182F80918606DE
:1031D0008C3009F051C0E0915F092E2F30E068E19A
:1031E000B62EEB9DF0011124EA51F74F838984300C
:1031F00009F042C0828981113FC080913607811158
:103200003BC0C9010196B89ED001B99EB00D1124F2
:10321000AC51B74F8D919C915FE1C52ED12CB60179
:103220000E94C638462FB29ED001B39EB00D112425
:10323000A650B74F8D919C912CE030E0B9010E94CF
:10324000C638E61219C0041317C085E0809336070C
:1032500082E08093370785819681B9010E94C63844
:103260006093340787819085B6010E94C6386093C9
:10327000350786E00E946E081F3F09F487C5212F9D
:1032800030E0890143E0000F111F4A95E1F7F80192
:10329000E45CF84F80818C3008F078C5E82FF0E0CE
:1032A000EC5AF64E0C94DA380C1FA01E111F501F5A
:1032B000F61F8A1F8A1FC61EC61EC61ED91F501F94
:1032C000023009F05CCEF6FE5ACE20E0402F69E0D5
:1032D00084EC98E00E947407882309F491CE62E39D
:1032E00072E08CE292E0AEC9F3FE41C042E150E0F0
:1032F0006DE872E084E892E00E94130A80918606ED
:103300008C3011F00C940D11E0915F0928E1E29FDF
:10331000F0011124EA51F74F8389833011F00C94A6
:103320000D1180819181863F32E0930710F40C9457
:103330000D11833043E0940730F08B509340039796
:1033400010F00C940D1184E0838BE091E408F0916F
:10335000E50815AE14AE22E130E04DE852E064E835
:1033600072E084EE98E00E946B090C940D1146EF18
:1033700052E06AE073E083E093E0F2FC66CAF7FE95
:1033800025C0E0915F0958E1E59FF0011124EA5161
:10339000F74F8081918184509340039780F4E091AE
:1033A000E408F091E50815AE14AE26EF32E04DE0EA
:1033B00053E06BE073E084EE98E00E946B0946EF07
:1033C00052E06DE073E08BE093E03FCA1E291F21BD
:1033D00011F40C940D11F6FE02C0023021F0F5FE3E
:1033E00014C00130A9F420E0402F61E084EC98E0A3
:1033F0000E947407882311F40C940D1146EF52E0DB
:103400006FEF72E08DEF92E020CA42E0013009F0E8
:1034100041E024E061E084EC98E00E947407882396
:1034200011F40C940D1146EF52E062E073E080E07D
:1034300093E00BCA47FE07C08091B001882319F0C2
:1034400081508093B00144FE18C01091B00180916A
:103450007B06811106C0123080F41F5F1093B0010B
:103460000CC01330D0F3133041F48091C408909114
:10347000C5080E946308882381F3842D8C7009F4A9
:10348000DBCD8091C4089091C5080E94630810911B
:10349000B001882321F080917B06811113C0123086
:1034A00019F130F41123C1F01130D1F0412CC4CD09
:1034B000133081F01430D1F788E0809382061092A7
:1034C000B001F4CF113061F038F0123019F0133040
:1034D00099F3ECCF0E94050282E08093AE01E6CF23
:1034E00082E080938206E2CF81E080937B06809128
:1034F00089068F5F809389060E9435021093AE0182
:10350000D5CF47FE07C08091B001882319F08150C4
:103510008093B00144FE07C08091B001811103C0C7
:1035200081E08093B001842D8C7009F485CD809169
:10353000B001882339F0813009F07ECD82E080939C
:10354000AE017ACD10927B060E943502F7CF35E0AE
:10355000E31A32E0F30A42E0E416F10408F0BACDCF
:103560000E94CA01B7CD53E3E51652E0F50694F484
:103570006CE2E61662E0F6060CF087C370E1E7162F
:1035800072E0F70609F427C180E2E81682E0F80647
:1035900039F3A0CD98E5E91692E0F90609F42DC2B9
:1035A000A7E6EA16A2E0FA0609F42DC2B9E4EB1682
:1035B000B2E0FB0609F08ECD8091D40890E0209116
:1035C000D50830E00196281739070CF4C90180931B
:1035D000D40880CDECEBEE16E2E0FE0671F10CF0C3
:1035E00078C02EE9E21622E0F20639F1CCF442E985
:1035F000E41642E0F40609F158E9E51652E0F50652
:10360000E1F06DE7E61662E0F60609F063CD809121
:10361000C808813009F0DDC082E08093C8085ACD27
:103620007AEAE71672E0F70641F00CF045C094EA3A
:10363000E91692E0F90609F04DCD8091D8089091F5
:10364000D9086CE070E00E94C63880919006162F71
:10365000181B8091DA089091DB086FE170E00E94FE
:10366000C63880919106062F081B4DE4602F812FEC
:103670000E94D300402F612F0E946601811123C157
:103680008091E0088F5F8093E008C701885D9240D9
:10369000059708F013C11092C7081092C6086CEB8A
:1036A00072E088EB92E00E94C8096DEB72E08CED4D
:1036B00098E00E941C0A0ECDA0EBEA16A2E0FA06E2
:1036C00009F4BBCFB6EBEB16B2E0FB0609F4B5CFBD
:1036D00001CDEDEDEE16E2E0FE06C4F4F8EDEF16D6
:1036E000F2E0FF060CF0A9CF28ECE21622E0F20689
:1036F00009F4A3CF37EDE31632E0F306D1F042EC44
:10370000E41642E0F40609F0E5CC97CF57E0E51661
:1037100053E0F50609F48EC167EEE61664E0F6069E
:1037200009F444C075EFE71672E0F70609F0D2CC51
:1037300017CF83E08093820687E00E946E08E091B5
:103740006209EE30A1F487E08093620987E10E946C
:103750003F098091D40880938C068091D50880938E
:103760008D06809186068F5F80938606B3CC81E0BC
:103770008E0F80936209E650E73058F7F0E0ED5382
:10378000F44E0C94DA38A61BCA1BCC1BCE1BD01BE4
:10379000D21BD41B88E1DBCF89E1D9CF8AE1D7CF17
:1037A0008BE1D5CF8CE1D3CF8DE1D1CF82E190E019
:1037B0009093C5088093C4088091C808813039F47B
:1037C00082E08093C808E2E1CE2ED12C83CC81E048
:1037D000F8CF81E022CF81E00E94840A8130D1F0CD
:1037E00068F0823009F076CC6DE173E088E193E017
:1037F0000E94C8098AE58093DE086CCC8091E008BD
:103800008F5F8093E00860E172E08CE092E00E94BC
:10381000C80960CC0E94C5028F3F09F04DC080915D
:10382000E008813049F0823081F08091E208811116
:1038300034C00E94D2094ECC42E150E06BE272E00B
:1038400080E292E00E94130A45CC42E150E06BE234
:1038500072E080E292E00E94130A69E772E088E772
:1038600092E00E94C8098091E208811113C08FE0A4
:103870000E946E0880E00E94A5028091D4088823EF
:1038800019F081508093D4088091D408811102C02E
:103890000E94D2091092E2081DCC42E150E06BE296
:1038A00072E080E292E00E94130A69E772E088E722
:1038B00092E00E94C809EECF83E0BBCFF092C70828
:1038C000E092C608ECCE0E94C5028F3F09F068C0A6
:1038D0008091E008813049F0823059F18091E2080E
:1038E00081114FC00E94D20908C042E150E06BE252
:1038F00072E080E292E00E94130A6091C408709125
:10390000C5086A3A82E0780769F008F05AC0683959
:10391000A2E07A0739F008F045C06239E2E07E079C
:1039200009F04AC06F5F7F4F8CED98E00E941C0A3F
:1039300043C042E150E06BE272E080E292E00E941C
:10394000130A69E772E088E792E00E94C809809153
:10395000E208811113C08FE00E946E0880E00E948F
:10396000A5028091D408882319F081508093D4084F
:103970008091D408811102C00E94D2091092E208FD
:10398000BCCF42E150E06BE272E080E292E00E9444
:10399000130A69E772E088E792E00E94C809EECF57
:1039A00083E0A0CF6E39F2E07F0709F4BBCF643A21
:1039B00022E0720709F4B6CF1092C7081092C60829
:1039C00089CB6C3B32E0730741F078F4603B52E006
:1039D000750719F0663B724079F76091C6087091DF
:1039E000C7086115710541F39DCF623C92E07907EC
:1039F000A1F3683C724001F7F0CF8091D5088F5F4A
:103A00008093D508E4CD8091D4082091D50830E08A
:103A10008150990B281739070CF4C9018093D408F9
:103A2000811158CB06CF81E08093E20853CB1092EE
:103A3000E00850CBE0915F092E2F30E048E1429F33
:103A4000D001439FB00D1124A650B74F8091D808E4
:103A50009091D9086D917C91861B970B449689971C
:103A600008F038CB2F5F3F4F429FD001439FB00DEE
:103A70001124AC51B74F2091DA083091DB088D91B9
:103A80009C912817390709F025CB332009F422CB64
:103A9000E49FF0011124EA51F74F8389833009F044
:103AA00051C081E00E94A50280E10E946E088091D1
:103AB000D408882319F081508093D4088091D408C9
:103AC00081111EC082E00E94D209E091E408F091C9
:103AD000E50815AE14AE22E130E04DE852E064E8AE
:103AE00072E084EE98E00E946B0922E130E04AE047
:103AF00053E068E073E084EE98E00E946B09EACA44
:103B000080915F09B8E18B9FC00111248A51974FC2
:103B1000FC01248142E0213009F041E024E061E031
:103B20000E947407882309F4D5CAE091DC08F0915B
:103B3000DD0815AE14AE46EF52E062E073E080E0BF
:103B400093E080CE85E08093360781E0809337074D
:103B5000858196816CE070E00E94C63860933407DE
:103B6000878190856FE170E00E94C63860933507C9
:103B700080E10E946E08E0915F0928E1E29FF00178
:103B80001124EA51F74F8089882311F08150808BEE
:103B9000808981114BC0809186068C30A9F4E09118
:103BA0005F0938E1E39FF0011124EA51F74F83895F
:103BB00081110AC08289811107C080914207833038
:103BC00019F083E08093420788E00E946E08E0913C
:103BD000E408F091E50815AE14AE4CE752E06AE750
:103BE00072E084EE98E00E94582EE0915F0948E16F
:103BF000E49FF0011124EA51F74F108A80E480938A
:103C00006009E091DC08F091DD0815AE14AE42E1E8
:103C100050E06DE872E084E892E00E94130A42E10D
:103C200050E06AE073E088E093E00CCEE0915F0939
:103C300088E18E9FF0011124EA51F74FDE011196C1
:103C4000982F01900D929A95E1F79091E5089F9336
:103C50009091E4089F936DB77EB7685171090FB6D4
:103C6000F8947EBF0FBE6DBFADB7BEB71196FE0113
:103C7000319601900D928A95E1F70E945C2E0FB665
:103C8000F894DEBF0FBECDBF25CA80918606843072
:103C900009F020CA0091C808013009F01BCA8091C0
:103CA000DA089091DB086FE170E00E94C6389B0152
:103CB0008091D8089091D9086CE070E00E94C638D5
:103CC0006836710509F006CA232B09F003CAE09192
:103CD0005F0998E1E99FF0011124EA51F74F128939
:103CE000133009F0F7C9128A28EE34E041E150E0C0
:103CF0006AE070E084EE98E00E946B0941E150E0D8
:103D00006AE070E084EE98E00E94582E41E150E0B5
:103D10006AE070E084EE98E00E94582E49E050E09E
:103D200064E070E084EE98E00E94582E0093D4087E
:103D300080914207833009F4CDC910934207CAC964
:103D40000558194FF801EE53FF4F40818E2DEE0CB0
:103D5000990B48171906D1F4F90133E0EE0FFF1F54
:103D60003A95E1F7E55DF84F83892F2DFF0C330B72
:103D70008217130659F4F801E953FF4F808181112E
:103D800005C00B531F4FD8018C9180838091820610
:103D9000853009F0B5C18091D408882309F4B0C1F9
:103DA0000091C4081091C5080D3EE1E01E0758F0CF
:103DB0000C3FF1E01F0708F4A3C1C80181519240F4
:103DC0000F9708F49DC1F090C8088091900660910B
:103DD000C9087091CA082CE0829F600D711D1124E2
:103DE0008F2D0E945A07282F85300CF089C18091B1
:103DF000D8089091D9086CE070E00E94C638063F60
:103E0000124020F0462F23300CF05EC142E0F41641
:103E100009F455C140E057C1F801E15CF84F81E079
:103E2000B4CF0558194F7801B4ECEB0EF11C6FEFCD
:103E3000F70180810E94B601F801EB53FF4F6FEF4D
:103E400080810E94B601F801EA53FF4F6FEF808135
:103E50000E94B601F801E953FF4F81E0808331965B
:103E600088E1808380918606863009F08FCFD70164
:103E70008C91843009F08ACF1C9222E130E047EE29
:103E800051E060EE71E084EE98E00E946B0947E13A
:103E900053E060E173E084EE98E00E94582E76CF04
:103EA0006AE0833009F064E1F801E558F94F7F01D9
:103EB000EC53FF4F80810E94B601F701EF53FF4F93
:103EC00080816AE0833009F064E198012558394F18
:103ED0007901F901EB53FF4F80810E94B601F70190
:103EE000EF53FF4F80816AE0833009F064E10558A9
:103EF000194FF801EA53FF4F80810E94B601F80183
:103F0000E953FF4F81E0808308531F4F88E1D801B8
:103F10008C933CCF80914207833009F437CFF8016E
:103F2000EE5BF84F81E0808383E080934207ECE30F
:103F3000F7E004ECC02E08E0D02E8CE0A82EB12CC7
:103F40009FE1892E912C20E6722E80818F3041F5E1
:103F5000E280018160905E0926EE38E040E010E0EA
:103F6000F12C6416E9F0D90152968C915297823067
:103F7000E1F415968D919C91B5010E94C6386017A9
:103F8000710799F4D90117968D919C91B4010E9403
:103F9000C6386E157F0549F4D90152961C9270827D
:103FA0003896CE16DF0689F6F1CE4F5F285E3F4F7A
:103FB000D8CF41E060E68DE10E94B100FC01838131
:103FC000882309F4E3CE138210925F0983E0809383
:103FD000F80885E08093360781E080933707818178
:103FE00080933407828180933507D0CE8091D408A6
:103FF000882309F4CBCE0E94C5028091900660917F
:10400000C9087091CA08BCE08B9F600D711D112416
:104010008091C8080E945A0783300CF4B7CE809173
:10402000C4089091C5088339910530F58938910508
:10403000F8F48336910580F489359105C8F485300C
:10404000910508F4A3CE8231910590F0875491092F
:104050000C9708F09BCE0CC08936910508F496CEDB
:104060008337910528F0895791090A9708F08ECE79
:1040700083E00E94D2098ACE853C910568F4893B91
:104080009105B0F78939910508F480CE833A9105FE
:1040900078F3895A9109E9CF893E910530F48D3D35
:1040A000910530F78B5C9109D3CF8F5E9109813FE9
:1040B000910508F06BCEDCCF1092E30867CE41E0AB
:1040C000223009F0A7CE460F8091DA089091DB08E4
:1040D0006FE170E00E94C638262F69E189E10E94F5
:1040E00094008F3F69F058E0859FF0011124E15C56
:1040F000F84F80818B5F8B3018F481E00E94D209E9
:10410000E091E408F091E50886AD8111BAC0A09174
:104110005F0968E1A69FD0011124AA51B74F5296BA
:104120008C9152978111ADC084AD95AD009709F483
:10413000A8C0019795AF84AF880F991FE80FF91FAA
:1041400000811181C80117FF04C088279927801BAF
:10415000910B8D939C93E0915F092E2F30E0F8E155
:10416000FF2EEF9DF0011124EA51F74F80819181DC
:10417000873173E0970709F45DC1883EA4E09A0790
:10418000E1F187309340D9F5F29EF001F39EF00DF6
:104190001124E650F74F8091D8089091D9084081BA
:1041A0005181841B950B2F5F3F4FF29EF001F39ED0
:1041B000F00D1124EC51F74F4091DA085091DB08D3
:1041C00020813181421B530B2091C4083091C508D6
:1041D0002B30E3E03E0708F0DDC0263FF2E03F076A
:1041E00008F0DFC02A5732402330310540F04396B3
:1041F000879728F4452B19F4FBC084E0828BE0916B
:104200005F0928E1E29FF0011124EA51F74F408154
:104210005181BE016F5F7F4F84810E94F508498103
:104220009FEF17FF91E0E0915F0988E1E89FF001BF
:104230001124EA51F74F499F402D112425813681E1
:10424000240F311D47FD3A95368325832B81929F9C
:10425000202D112490915F09899FC0011124855858
:10426000994FFC01EE58FD4F408151818C589D4F74
:10427000DC014D935C93420F511D27FD5A955183EC
:10428000408380E00E94840A182F8091E308811106
:1042900014C2BE016F5F7F4F84EC98E00E94340A25
:1042A0008A818E57823008F4E0C01111DEC08091FF
:1042B000E0088111DAC000919006F090C808609182
:1042C000C9087091CA08BCE00B9F600D711D1124D4
:1042D0008F2D0E945A07182FE091DC08F091DD081D
:1042E00015AE14AE81E08093E0088091C4089091EF
:1042F000C5089093C7088093C608183008F050C1CD
:104300008091D8089091D9086CE070E00E94C6387E
:10431000E1E08FEFFE1281E0262F201B280F82E0C4
:10432000820F8F3008F093C08091DA089091DB08FB
:104330006FE170E00E94C63880919106A62FA81BFD
:10434000AF5FF0E1AF02D0011124A557B94FA20F22
:10435000B11D27FDBA95A459BF4F8C9101E021E012
:104360004FE76FE70E940B01882309F419C1EFEFB3
:10437000E10FE73008F06DC00E2E000CFF0BED537F
:10438000FE4D0C94DA38AC22C722B522BE22AC22F4
:10439000C722B5222E5033402230310508F027CFF6
:1043A0002ECF4396879708F02ACF452B09F027CFC9
:1043B00081E00E94A50280E10E946E0880915F0961
:1043C0008F9DC00111248A51974F4091C808DC018C
:1043D00014963C912091D40843130EC0322F23171A
:1043E00018F0231B2093D4082091D408211106C073
:1043F00082E00E94D20903CF31E0F1CFFC01248199
:1044000042E0213009F041E024E061E00E947407BD
:10441000882309F4F4CEE091DC08F091DD0815AEB4
:1044200014AE46EF52E062E073E080E093E00E9459
:10443000130AE5CE44E062E181E10E94B100FC0193
:104440008AE084838FEF86838EE18083D8CE8FEFDE
:1044500085CF68EC72E084EC92E00E94C80988EC99
:1044600092E09093C7088093C6088091E308811179
:1044700024C1BE016F5F7F4F84EC98E00E94340A34
:104480008A818F3709F019C18091E008811115C127
:10449000BE016F5F7F4F84EC98E00E94340A29814F
:1044A0008091D8089091D908820F911D27FD9A9587
:1044B0006CE070E00E94C63880919006262F281B81
:1044C00082E0820F8F3008F0B4C08091DA089091BA
:1044D000DB086FE170E00E94C63880919106E62FFC
:1044E000E81B30E1E302F0011124E557F94FE20F38
:1044F000F11D27FDFA95E459FF4F808101E021E08D
:104500004FE76FE70E940B01882309F4D6C0E091C2
:10451000DC08F091DD0815AE14AE81E08093E00870
:104520008091C9089091CA086CE070E00E94C6387A
:104530008B30910508F0B9C0FC01EF55FD4D0C948E
:10454000DA3858231B2352231B2358231B235223BF
:10455000552358231B23522362EC72E08EEB92E02A
:104560000E94C80982EC92E07CCF66EB72E082EB9D
:1045700092E00E94C80986EB92E073CF60EB72E094
:104580008CEA92E00E94C80980EB92E06ACF6CEB63
:1045900072E088EB92E00E94C8098CEB92E061CF58
:1045A0008091C9089091CA086CE070E00E94C638FA
:1045B0008B30910508F034C0FC01EF51FD4D0C9497
:1045C000DA38EC22F522FE221023EC22F522072312
:1045D0001023EC22F522FE2262E972E08EE892E0DE
:1045E0000E94C80982E992E03CCF68E972E084E960
:1045F00092E00E94C80988E992E033CF6EE972E048
:104600008AE992E00E94C8098EE992E02ACF6AEA1C
:1046100072E086EA92E00E94C8098AEA92E021CF1D
:1046200064EA72E080EA92E00E94C80984EA92E0BB
:1046300018CF8FEF63CF6BED72E08CED98E00E94A6
:104640001C0A8091CB089091CC0849976FE170E0EB
:104650000E94C638882389F11FE1181B812F110F92
:10466000110F180F1550612F70E080E068587C4BD7
:10467000834F0E946403E12EF12C44E0E40EF11C10
:104680001E151F0409F0BCF40E942902882341F082
:10469000682F70E064527D4F8CED98E00E941C0AF8
:1046A0001F5FEECF6AED72E0C8CF69ED72E0C5CF53
:1046B00068ED72E0C2CF0E942F0280913C078031EA
:1046C00069F580914107811129C08091D8089091A6
:1046D000D9086CE070E00E94C638062E000C770BFB
:1046E00080913F078617170609F0C4F480914007B0
:1046F000861717069CF020913E078091DA0890916A
:10470000DB086FE170E00E94C638062E000C770BC4
:104710002617170619F483E0809342078091C40896
:104720009091C5088C3752E0950719F08F3093406F
:10473000C9F443FE17C0809188068111CCC08091D6
:1047400087068111C8C083E08093820681E180934F
:1047500062098BE00E946E0883E10E943F0980E8B5
:104760008093010170EF872E99249A94512C412C4B
:104770008BE090E0DC01AB57B640BE8FAD8F15E00B
:10478000F401E558F94F3F016CE6C62ED12C2D8C73
:104790003E8C28183908D301D596EC918091920669
:1047A0005201A81AB108BEE1AB1AB108EC3709F4FE
:1047B00099C00CF094C0E7FFACC0F301EB57FF4F7A
:1047C000808130E1E32E00E02BE337EC41E08D31D6
:1047D00041F08E3151F420E1E22E00E027EE37EC7B
:1047E00041E0B501C6010E947003E1E06E1A710854
:1047F000FCE0CF1AD10824EFC2162FEFD20659F6EB
:104800003FE1430E511C40E1840E911C50E385169C
:10481000910409F0B5CF1CE3612E17E0712E53010E
:104820000FE1F02E8CE0282E312C9FE1492E512CE7
:1048300018E1D501EC91E03609F4C2C011962C9133
:10484000119730E080919006A901481B5109CA01D7
:104850005CE0589F6001599FD00C11244091910653
:1048600012968C911297841B990BF89EB001F99EB9
:10487000700D112480919206681B71094B018FEF16
:10488000881A980AE13208F09BC0F0E0E65BFB4D25
:104890000C94DA380D267125EA25FB25A424EA2597
:1048A000F225EA25EA25FB25EA25FB25E024E0247C
:1048B000E0243C254925522552257D258625922533
:1048C0009C25A6256725B724492599246C25B02564
:1048D00052255D25162686E08093820643CFEF376A
:1048E00009F06BCF2091A8013091A901C101860D7B
:1048F000971D820F931F6FE070E00E94B238612F06
:104900000E94A63840E1E42E082F2BE438EC41E069
:104910000BC00E2E000CFF0BEC5FFE4F50E1E52E9E
:10492000008127EB31EA41E0B501C6010E94700326
:1049300044CF6B5E7F4FB0E1EB2E00E02FE632E814
:1049400041E0C6010196A2C014960C911497615FD4
:104950007F4F13968C91A0E1EA2E29EC3AE941E0D1
:10496000813019F025E53EE941E0C6018FC0F5012F
:10497000838186302CF5082E000C990B97FF03C01D
:10498000919581959109F0E1EF2E082F23EA35E802
:1049900041E0B401C6010E947003F1E0CF1AD108D2
:1049A0002FE7C216D10460F430E48316910440F47A
:1049B000D50113968C91843019F48EE00E946E0814
:1049C000F8E0AF0EB11C24EC38E02A153B0509F0E5
:1049D00030CFA0915F0918E1A19FD0011124AA5105
:1049E000B74F52968C915297811134C16D917C9141
:1049F00080E0605E754C834F0E9464030E94290230
:104A0000082F0E942F02002309F424C1E0915F09BE
:104A1000E19FF0011124EA51F74F458156814F5033
:104A200051092091900634EF3203C0011124840F04
:104A3000951F678170856F5171092091910641EE34
:104A4000420390011124620F731F20919206621B92
:104A500071096F5F7F4F2389213009F41EC208F46A
:104A6000EDC0253008F020C22481213009F028C291
:104A70002FE338EF45E0E9C0615F7F4FE0E1EE2EC4
:104A800000E02FE832E841E0C60105960E9470037D
:104A900097CF6D507109E12CF501058127E039E8C8
:104AA00041E04FCF60E1E62E13960C912FEC32E8F7
:104AB00041E0B401C6010597E9CF6D507109E12CC1
:104AC00001E027E039E841E0C6010796DFCF6D50ED
:104AD0007109E12C0CE0E2CF6D507109E12C01E08D
:104AE000DDCFF5016581680D792D711D50E1E52E51
:104AF00007812BED31E941E038CF6D5E7F4F40E11A
:104B0000E42E00E023E831E941E02FCF655F7F4FDD
:104B100030E1E32E13960C9124E63FE841E0C60114
:104B20000696B4CF655F7F4F20E1E22EF501038149
:104B300028E93FE841E0F3CF655F7F4F90E1E92E40
:104B400013960C912CEC3FE841E0E9CF655F7F4F75
:104B500080E1E82EF501038120E630E941E0DFCF76
:104B600013968C9181112CCF8091D8089091D908FF
:104B7000B1010E94C638062E000C770B26173707A6
:104B800029F02F5F3F4F62177307E9F48091DA082D
:104B90009091DB08B2010E94C638262F660F330BB6
:104BA000C401B2010E94C638460F4217130659F4D9
:104BB000E0915F09E19FF0011124EA51F74F01E014
:104BC0008289833009F000E0E12C27E238E941E0F6
:104BD000B401CBCE00E1E02EF50106812FE734E9E8
:104BE00041E0F6CFB0E1EB2ED50116960C9123E211
:104BF00037E941E0EDCFF5010681802F90E00E5FAF
:104C0000B401680F791FA0E1EA2E2FE734E941E0F3
:104C1000D601A81BB90BCD0139CFF50183818823BB
:104C200009F4CECEF0E1EF2E01E0D8CF6451710946
:104C3000E12C00E02CE031E941E097CE24812130E5
:104C400009F036C127E131E748E00150E0E1EE2EFE
:104C50000E9470036091C4087091C50880E0605E96
:104C6000754C834F0E9464030E942902082F0E9402
:104C70002F02002301F16091CB087091CC086F5195
:104C8000710980919206681B71096F5F7F4F809157
:104C9000C80827E63FE743E0813019F42BEF32E400
:104CA00042E001508091C9089091CA0850E1E52E78
:104CB0000F970E9470031CE04FE1F42ED3012C915A
:104CC000203611F111964C91119780919006481B56
:104CD000550B149FC001159F900D112412964C91F5
:104CE000129730919106431B550BF49EB001F59E2F
:104CF000700D112430919206631B7109243009F460
:104D0000E3C0293109F4F3C0B8E06B0E711CA6149E
:104D1000B704A1F680918606883009F58091900647
:104D20008832E9F4809191068330C9F48091AA0118
:104D3000813508F0F3C0873408F0FDC0813008F0F9
:104D4000F4C000E08CEE90E1E92E23EA36E641E083
:104D50006EE070E0082E000C990B0E9470038BE649
:104D6000882E86E0982EB12CA12C1CE0D12CC12CD1
:104D7000F601E458FF4FE80DF91DE081E7FD1DC085
:104D800083EE8E0F8230C8F00E2E000CFF0BEC5F0E
:104D9000FE4F80919206B501681B71096E51710931
:104DA00000E1E02E008127EB31EA41E01C9DC001CB
:104DB0001D9D900D11240E947003EFEFCE1ADE0AA4
:104DC000FAE0CF16D104A1F620E1820E911C3FE15A
:104DD000A30EB11C4CE7A416B10441F600913607AE
:104DE0000150043030F58091350790919106891B70
:104DF000990B2FE1289FB001299F700D11248091FC
:104E00009206681B7109635F7F4F20913407809180
:104E10009006281B330B4CE0429FC001439F900D2E
:104E2000112410E1E12E23EA3FE941E003970E94BB
:104E300070035C8DE12C552361F0E0915F0968E11E
:104E4000E69FF0011124EA51F74F808901E08111BA
:104E500001C000E02FEB30E741E070E060E088E760
:104E600090E00E94700310E08091D508181708F0B8
:104E700065C001E08091D408181708F400E084E0D0
:104E8000189FB0011124E12C27E132E841E08BE7C3
:104E900090E00E9470031F5FE7CF2481213061F40E
:104EA0002FEE39EE4AE0D1CE20E030E040E0CDCE2A
:104EB0002BEA34E347E0C9CE23E83DEA49E0C5CE1A
:104EC00023ED3BEB44E0C1CEF3010481615F7F4FF2
:104ED000238130E1E32E213031F42BE838E941E041
:104EE0000E94700311CF27E03DE941E0F9CF13960E
:104EF0002C9126300CF008CF022E000C330B37FF1C
:104F000003C031952195310906E0020F6F5F7F4F95
:104F100020E1E22E23EA35E841E0E2CF8E3808F0C6
:104F200010CF86958E5C01E00ECF869598E7981B92
:104F3000892F00E008CF02E086E505CF9C8D9923FC
:104F400059F0E0915F09A8E1EA9FF0011124EA51CC
:104F5000F74F8089811144C0E12C0091880627E138
:104F600030E841E06FE270E08BE790E00E94700370
:104F70000091870627E130E841E069E370E08BE7C4
:104F800090E00E9470038091E10868E2882359F064
:104F900000E025E232E841E068E270E08BE790E073
:104FA0000E94700361E28091E208882351F070E072
:104FB000E12C00E02EE232E841E08BE790E00E9435
:104FC00070038091CB089091CC088833910571F1E2
:104FD0008735910559F110E0499749F510E327C04D
:104FE00010E0A8E1FA2EBFE0CB2ED12CE0915F09B2
:104FF000EF9DF0011124EA51F74F8189181708F746
:1050000001E08089181708F400E0B601611B7109FE
:10501000660F771F660F771FE12C27E132E841E02A
:105020008BE790E00E9470031F5FE0CF11E080915A
:105030008B0681508035C8F4612F70E0E0E1EE2EE0
:1050400000E02DEA36E241E087E190E00E94700343
:105050001B5F612F70E0E12C0091880623E831E7A7
:1050600041E08DE190E00E9470038091390781302A
:10507000A9F48091380725E03AE241E0813019F443
:105080002DE339E241E060913B0770E080913A07FF
:1050900050E1E52E00E090E00E94700380918206CE
:1050A00099EF980F923008F063C0C090AF01D12CF7
:1050B000883009F476C08091B0011CE002E08430B1
:1050C00028F400917B0681E0082716E18091C4084E
:1050D0009091C5080E946308882331F080917B0677
:1050E00003E0811101C001E0E12C27E13AE641E053
:1050F00070E060E0C6010E9470038091B001612FF2
:1051000070E0BAE08B9F600D711D11248091AF019A
:1051100090E000E02BEA30E741E003960E94700344
:105120008091AF01855EE12C009186062BE233E78A
:1051300041E063E070E090E00E9470038091AF0175
:10514000895F009188062BE233E741E06DE070E073
:1051500090E00E9470038091AF01885E0091870605
:105160002BE233E741E06DE070E090E00E947003D5
:10517000A2960FB6F894DEBF0FBECDBFDF91CF91E0
:105180001F910F91FF90EF90DF90CF90BF90AF9065
:105190009F908F907F906F905F904F903F902F9057
:1051A0000895E12C04E027E13AE641E070E060E098
:1051B000C6010E9470036091B001EAE06E9FB001E9
:1051C0001124685D7F4FA2CFCD2811F00C941111EE
:1051D00051100C94B30F0C940410F9E1CF16D104C4
:1051E00014F00C94C11082E00E94D2090C94C110FA
:1051F00028EEC2162FEFD20614F40C94C110F3CF90
:105200003FE0839FC0011124BC01665B7D4F42E1FA
:1052100050E0845C9D4F0E94130AF70193E0EE0F6B
:10522000FF1F9A95E1F7E45CF84F80E680830C94C9
:105230000D1186E00E946E08F70183E0EE0FFF1F5C
:105240008A95E1F7E45CF84F80E6808381E0809303
:10525000E108E091DC08F091DD0815AE14AE42E102
:1052600050E06DE872E08EE792E00C942514481748
:10527000590711F40C9440130091C80880E4E82EFB
:1052800010E2023019F010E2E12E10E48091C4081F
:105290009091C5088032910511F40C94E91610F034
:1052A0000C94C0138D30910511F40C948A1710F0F2
:1052B0000C9492138330910511F40C94AD17099757
:1052C00011F00C940D11EF2011F40C94A817F3FEBB
:1052D00002C00C948E1720E0402F63E084EC98E02D
:1052E0000E947407882311F40C94A1176DE070E0FC
:1052F0008AE090E00C942213123011F00C946715A0
:1053000051100C94671558A151110C946715811018
:105310000C94671567E001110C94671580E1689F94
:10532000B001112480E0655B7D46814F0E946403DB
:105330000E9424027C010E9424026C010E9424022B
:10534000E114F10429F0AC01B601C7010E94130A6F
:105350000E9424027C010E9424026C010E9424020B
:10536000E114F10429F0AC01B601C7010E94130A4F
:105370000E9424027C010E942402EA94EF2819F47E
:1053800021E02093E308009711F08093DE080E944B
:105390002F020C940D11123011F00C946C15AA20F0
:1053A00011F40C946E150C94A4150F920FB68F93F4
:1053B0009F93EF93FF93809166028D5F8D3708F086
:1053C0008D5780936602E7E6F2E080818E4F8083FE
:1053D00091819F4F918382818F4F828383818F4FF1
:1053E0008383EBE6F2E080818F5F808381818F4F42
:1053F000818382818F4F828383818F4F83838FB19B
:105400008F6066991C9B88278F3681F48091650296
:10541000981B963068F0E0E0F8E087E780838183AE
:1054200088E180936000F0936000FFCF9093650265
:10543000FF91EF919F918F910FBE0F9018951F9242
:105440000F920FB60F9211242F933F934F935F93B8
:105450006F937F938F939F93AF93BF93EF93FF933C
:10546000ECE5F2E080819181A281B3810197A109ED
:10547000B10918F40E940F060BC080839183A283A8
:10548000B3838481882321F4369A85818111379AE8
:10549000FF91EF91BF91AF919F918F917F916F910C
:1054A0005F914F913F912F910F900FBE0F901F90E2
:1054B00018950F93242F92E0980F9F30A8F490E155
:1054C0006902F0011124E557F94FE80FF11D87FD3E
:1054D000FA95E459FF4F908101E0462F682F892FFC
:1054E0000E940B010F9108959FEFF6CF4DE40E94AB
:1054F000D3000C94DD062F923F924F925F926F92F1
:105500007F928F929F92AF92BF92CF92DF92EF9253
:10551000FF920F931F93CF93DF93CDB7DEB72997F9
:105520000FB6F894DEBF0FBECDBF89832091D80897
:105530003091D908C9016CE070E00E94C6388091B2
:105540009006F62EF81A8091DA089091DB086FE148
:1055500070E00E94C63880919106681B6E83B090FF
:10556000C80881E01FEFB81211E0B9018B2D0E942D
:105570005A078F83F10E4B2D6E818F2D0E94592A71
:10558000282EC12ECF0C4B2D6E818C2D0E94592AB6
:10559000382ED12EDC0C4B2D6E818D2D0E94592A78
:1055A0008A83E12EED0C4B2D6E818E2D0E94592A9F
:1055B000782E1E0D4B2D6E81812F0E94592A482E68
:1055C0000E810F5F4B2D602F8F2D0E94592A982E30
:1055D0004B2D602F8C2D0E94592A682E4B2D602F49
:1055E0008D2D0E94592AA82E4B2D602F8E2D0E94A2
:1055F000592A582E4B2D602F812F0E94592A8B83B8
:105600006E818F2D0E94762A8C836E818C2D0E9454
:10561000762A8D836E818D2D0E94762AB82E6E811A
:105620008E2D0E94762A882E6E81812F0E94762AE6
:105630008887602F8F2D0E94762A8E83602F8C2D75
:105640000E94762AC82E602F8D2D0E94762AF82E71
:10565000602F8E2D0E94762AE82E602F812F0E94C7
:10566000762A2110A8C03110A6C09A81911194C049
:105670007110B0C0442019F0E981E63091F5B11005
:1056800029C0811027C0F885FF2321F19F81963022
:1056900009F48BC09A30E1F09230E1F483E029966E
:1056A0000FB6F894DEBF0FBECDBFDF91CF911F9133
:1056B0000F91FF90EF90DF90CF90BF90AF909F90B1
:1056C0008F907F906F905F904F903F902F900895B4
:1056D00085E0E5CFE981E53009F082C0442009F496
:1056E0006CC0A1106AC0511068C0FB81F11165C087
:1056F000B11063C0811063C09885911135C0F1105D
:1057000033C0E11031C0882379F1EF81E63031F008
:1057100087E0EA3009F4C3CFE23031F586E0BFCF4D
:1057200061105EC0A1105CC051105AC08C81811103
:1057300057C09D81911154C0B11052C0EE81E1114A
:1057400020C0C1101EC0F1101CC0EE2029F1FF8145
:10575000F63031F08CE0FA3009F4A1CFF23011F4D8
:105760008BE09DCF711018C08F81863001F18A3097
:10577000F1F08230A9F581E092CF61100DC0A11047
:105780000BC0FF2049F08F81863021F08A3089F0EC
:10579000823011F48FE083CF9F819250993058F47A
:1057A000E92FF0E0E957FE4F27C084E078CF82E090
:1057B00076CF80E174CF80E072CF8820A9F2FF819C
:1057C00088E0F23009F46BCF89E0F63009F467CF56
:1057D0008AE065CF8981853019F4992009F4A0CF3A
:1057E000BB2059F29F8192508EE0993008F057CF3C
:1057F000E92FF0E0E057FE4F808151CFDF92EF922A
:10580000FF920F931F93CF93DF93D82E81E0D1E0C7
:10581000D81201C0DFEFE090D808F090D908C70196
:105820006CE070E00E94C63880919006062F081B3D
:105830008091DA089091DB086FE170E00E94C63831
:10584000109191061095160F4DE4612F802F0E9444
:10585000D300C82F4EEF612F8D2F800F0E94D300F1
:10586000D82F4EEF612F802F0E94D300182FB70141
:105870008D2D0E945A0791E0D91631F092E0D91689
:1058800009F461C083E02DC087309CF48330E4F4D8
:1058900087FDF8CFCE3549F00CF047C0C73329F06B
:1058A000E4F5C23311F0C433E1F581E01E3FC9F4E1
:1058B00009C08D303CF71B3429F31C3519F384E003
:1058C0001E3F79F489E00DC0CE3541F0D4F4C733E2
:1058D00029F07CF4C23311F0C43379F482E01E3F26
:1058E00089F3DF91CF911F910F91FF90EF90DF909F
:1058F0000895CC3399F3C53589F3DE3FE1F688E0AE
:10590000F0CFC73659F324F4C256C230B0F7E6CF11
:10591000CF3621F3C63789F7E1CFCC3331F2C53525
:1059200021F2DE3F41F687E0DCCFC73609F4BDCF78
:1059300024F4C256C230A8F7B8CFCF3609F4B5CF99
:10594000C63779F7B2CF87308CF48330B4F487FD53
:1059500099CFDC3409F4A9CF3CF5D33309F4A5CFB2
:10596000D93309F4A2CFDE3FF1F203C08D300CF041
:1059700089CF1E3F09F086CFA5CFDC3409F4AECF26
:1059800054F4D33309F4AACFD93309F4A7CFDE3FB7
:1059900009F4B5CFEECFD03609F4A0CFD63609F44E
:1059A0009DCFDD3531F79ACFD03609F47ECFD6368C
:1059B00009F47BCFDD35E9F678CF0F931F93CF93B2
:1059C000DF93D82F0091D8081091D9088091DA0878
:1059D0009091DB086FE170E00E94C63880919106DB
:1059E000262F281BC8016CE070E00E94C638809109
:1059F0009006681B862F91E0D23009F090E04DE4CC
:105A0000622F890F0E94D300C82FB8018D2F0E94EA
:105A10005A07D13041F0D23061F180E0DF91CF916F
:105A20001F910F91089587FDF8CF833094F0873050
:105A3000A4F7CC3429F034F4C33311F0C93369F737
:105A400082E0ECCFC036E1F3C636D1F3CD3529F78D
:105A5000F7CFCC3429F034F4C33311F0C933E9F66D
:105A600081E0DCCFC036E1F3C636D1F3CD35A9F6FF
:105A7000F7CF87FDD2CF8330FCF0873074F6C53581
:105A8000F9F25CF4C433E1F21CF4C23331F6D8CF3E
:105A9000C733B1F2CC3309F6D3CFC73689F234F429
:105AA000CE3571F2C23609F0B8CFCACFCF3641F247
:105AB000C63709F0B2CFC4CFC53591F26CF4C43308
:105AC00079F224F4C23309F0A8CFCACFC73341F228
:105AD000CC3309F0A2CFC4CFC73611F23CF4CE3597
