:100000000C94CD030C94F5030C94F5030C94F503B8
:100010000C94F5030C94F5030C94F5030C94F50380
:100020000C94F5030C94F5030C94960E0C94050FA8
:100030000C94F5030C94F5030C94F5030C94F50360
:100040000C94F5030C94F5030C94F5030C94F50350
:100050000C94F5030C94F5030C94F5030C943711F0
:100060000C94F5030C94F5030C94F5030C94F50330
:100070000C94F5030C94F5030C94F5030C94F50320
:100080000C94F5030C94F5030C94F5030C94F50310
:100090000C94F5030C94F5030C94F5030C94F50300
:1000A0000C94F5030C94F5030C94F50303081F0559
:1000B0001F1F151B1F11111F110E1F15111F0501E9
:1000C0001F111D1F041F001F0010101F1F041B1FE6
:1000D00010101F061F1F011F1F111F1F05071F31B3
:1000E0001F1F051B17151D011F011F101F0F100FCC
:1000F0001F0C1F1B041B071C071915130C121E1FB6
:10010000120C1E12120C121F0C1A14041F052E2A98
:100110001E1F021C001D00201D001F041A011F00CD
:100120001E041E1E021E1E121E3E120C0C123E1E2D
:10013000020614120A020F121E101E0E100E1E08C6
:100140001E1A041A2E281E1A12161F111F001F0035
:100150001D151711151F07041F17151D1F151D014C
:10016000011F1F151F17151F0017000010000000AA
:100170000000003E5B4F5B3E3E6B4F6B3E1C3E7C87
:100180003E1C183C7E3C181C577D571C1C5E7F5E35
:100190001C00183C1800FFE7C3E7FF0018241800F4
:1001A000FFE7DBE7FF30483A060E2629792926408B
:1001B0007F050507407F05253F5A3CE73C5A7F3EB7
:1001C0001C1C08081C1C3E7F14227F22145F5F0049
:1001D0005F5F06097F017F006689956A60606060E5
:1001E0006094A2FFA29408047E040810207E2010D0
:1001F00008082A1C08081C2A08081E101010100CD9
:100200001E0C1E0C30383E3830060E3E0E06000026
:1002100000000000005F00000007000700147F14CA
:100220007F14242A7F2A1223130864623649562039
:10023000500008070300001C2241000041221C005E
:100240002A1C7F1C2A08083E08080080703000081D
:1002500008080808000060600020100804023E51F1
:1002600049453E00427F4000724949494621414983
:100270004D331814127F1027454545393C4A4949EA
:100280003141211109073649494936464949291E54
:100290000000140000004034000000081422411443
:1002A00014141414004122140802015909063E4195
:1002B0005D594E7C1211127C7F494949363E4141BD
:1002C00041227F4141413E7F494949417F09090916
:1002D000013E414151737F0808087F00417F410082
:1002E0002040413F017F081422417F404040407F31
:1002F000021C027F7F0408107F3E4141413E7F097E
:100300000909063E4151215E7F09192946264949BE
:10031000493203017F01033F4040403F1F204020FE
:100320001F3F4038403F63140814630304780403FC
:100330006159494D43007F414141020408102000AA
:100340004141417F0402010204404040404000031B
:1003500007080020545478407F28444438384444E7
:100360004428384444287F385454541800087E09DF
:100370000218A4A49C787F0804047800447D4000FF
:100380002040403D007F1028440000417F40007C19
:10039000047804787C080404783844444438FC1811
:1003A00024241818242418FC7C08040408485454F5
:1003B000542404043F44243C4040207C1C20402022
:1003C0001C3C4030403C44281028444C9090907C89
:1003D0004464544C4400083641000000770000009B
:1003E0004136080002010204023C2623263C1EA1DD
:1003F000A161123A4040207A38545455592155553C
:1004000079412154547841215554784020545579EC
:10041000400C1E527212395555555939545454597D
:1004200039555454580000457C410002457D420036
:1004300001457C40F0292429F0F0282528F07C543F
:100440005545002054547C547C0A097F493249495F
:1004500049323248484832324A4848303A414121CC
:100460007A3A42402078009DA0A07D394444443926
:100470003D4040403D3C24FF2424487E4943662BB8
:100480002FFC2F2BFF0929F620C0887E090320545A
:100490005479410000447D413048484A3238404058
:1004A000227A007A0A0A727D0D19317D2629292FB8
:1004B00028262929292630484D40203808080808D0
:1004C00008080808382F10C8ACBA2F102834FA00D2
:1004D000007B000008142A142222142A1408950014
:1004E000220095AA005500AAAA55AA55AA00000004
:1004F000FF00101010FF00141414FF001010FF0074
:10050000FF1010F010F0141414FC001414F700FF86
:100510000000FF00FF1414F404FC141417101F1043
:10052000101F101F1414141F00101010F0000000F2
:10053000001F101010101F10101010F010000000FD
:10054000FF101010101010101010FF10000000FF0E
:10055000140000FF00FF00001F10170000FC04F44F
:1005600014141710171414F404F40000FF00F71407
:10057000141414141414F700F7141414171410108E
:100580001F101F141414F4141010F010F000001FAA
:10059000101F0000001F14000000FC140000F010E9
:1005A000F01010FF10FF141414FF141010101F008F
:1005B000000000F010FFFFFFFFFFF0F0F0F0F0FF91
:1005C000FFFF0000000000FFFF0F0F0F0F0F384468
:1005D0004438447C2A2A3E147E02020606027E0229
:1005E0007E0263554941633844443C04407E201EEA
:1005F0002006027E020299A5E7A5991C2A492A1C19
:100600004C7201724C304A4D4D303048784830BC05
:10061000625A463D3E494949007E0101017E2A2A2F
:100620002A2A2A44445F444440514A444040444AB0
:1006300051400000FF0103E080FF000008086B6BE1
:10064000083612362436060F090F06000018180067
:1006500000001010003040FF0101001F01011E00CA
:10066000191D1712003C3C3C3C0000000000080B28
:10067000000202020000090400000102020000055D
:1006800024001001052401010104240206052406AA
:1006900000010705810310004009040100020A005F
:1006A0000000070502024000000705830240000029
:1006B0000403090412010002EF02014041233680C5
:1006C00000010102030141726475696E6F204C4C98
:1006D000430041726475626F7900F0F89C8E8783E5
:1006E000878E9CF8F00000FEFF0303030303070E50
:1006F000FCF80000FEFF0303030303070EFCF800F1
:1007000000FFFF00000000000000FFFF0000FEFFF0
:100710008383838383C7EE7C380000F8FC0E0703D5
:100720000303070EFCF800003F7FE0C08080C0E0BC
:100730007F3FFFFF01010101010101FFFF0000FFF9
:10074000FF0C0C0C0C1C3E77E3C100007FFFC0C007
:10075000C0C0C0E0703F1F00001F3F70E0C0C0C0BD
:10076000E0703F1F00007FFFC1C1C1C1C1E3773E00
:100770001C00001F3F70E0C0C0C0E0703F1F0000C1
:1007800000000001FFFF01000000D5F08D14A1C89A
:1007900081CFD9F1AF200000B41111241FBECFEFDB
:1007A000DAE0DEBFCDBF13E0A0E0B1E0E6E1F3E3C5
:1007B00002C005900D92AA3AB107D9F728E0AAEA3B
:1007C000B3E001C01D92A33BB207E1F713E0CDEC0B
:1007D000D3E004C02197FE010E946F19CC3CD107E1
:1007E000C9F70E9415120C9489190C940000EEEDC3
:1007F000F3E0A0E0B8E000800EBC8111012C11975D
:10080000A0FDFDCF0192B9F70DB40895FC019489C4
:1008100091110CC082E0858BDB018C91DF01A90F67
:10082000B11D8C939F5F948B81E008959431A1F763
:1008300080E008950F931F93CF93DF931F92CDB75E
:10084000DEB7082F162F10928708101760F08091DE
:100850008508909186081983BE016F5F7F4F0E94C3
:1008600006041150F2CF0F90DF91CF911F910F919D
:1008700008950F931F93CF93DF931F92CDB7DEB7E9
:10088000082F162F1092870880918508909186086E
:100890004983BE016F5F7F4F0E940604101760F00E
:1008A00080918508909186081983BE016F5F7F4F04
:1008B0000E9406041150F2CF0F90DF91CF911F914B
:1008C0000F910895FC018091DB03882311F13FB75C
:1008D000F89482E08093E9002091F200822F90E06A
:1008E0001816190614F481E090E0882339F028984E
:1008F00044E64093DA034091F1004083222339F02B
:100900002091F200211103C02BE62093E8003FBFA5
:1009100008958FEF9FEF08952FB7F89483E08093A9
:10092000E9009091E800892F807295FF04C09091B2
:10093000F20080E4891B2FBF08958091D2038111BA
:100940000DC082E08093CE0384E08093CF031092A9
:10095000D1031092D00381E08093D2038EEC93E018
:1009600008954091BB035091BC032091B90330918D
:10097000BA0342175307B4F49091E8009570E1F37D
:100980009091E80092FD19C08093F1008091BB0323
:100990009091BC0301968F739927892B19F48EEFE0
:1009A0008093E8008091BB039091BC0301969093E3
:1009B000BC038093BB0381E0089580E00895DF923B
:1009C000EF92FF920F931F93CF93DF93D82E8A015C
:1009D000EB017B01E40EF51ECE15DF0559F0D7FEC5
:1009E00012C0FE0184910E94B10421968111F4CFBE
:1009F0000FEF1FEFC801DF91CF911F910F91FF9073
:100A0000EF90DF9008958881EECF0F931F93CF93DF
:100A1000DF931F92CDB7DEB782E0898342E450E0D6
:100A20006EE676E080E80E94DF040E949D04DC010F
:100A300012960D911C910115110589F0D801ED91C7
:100A4000FC910280F381E02DBE016F5F7F4FC801F2
:100A5000099597FD04C0F80100851185ECCF8981C7
:100A60000F90DF91CF911F910F910895615030F059
:100A70002091F100FC0120830196F8CF289884E6AC
:100A80008093DA030895AF92BF92CF92DF92EF92F4
:100A9000FF920F931F93CF93DF936C017B018B0128
:100AA000040F151FEB015E01AE18BF08C017D10778
:100AB00059F06991D601ED91FC910190F081E02D02
:100AC000C6010995892B79F7C501DF91CF911F9157
:100AD0000F91FF90EF90DF90CF90BF90AF9008956F
:100AE000CF93DF931F92CDB7DEB76983DC01ED9121
:100AF000FC910280F381E02D41E050E0BE016F5F88
:100B00007F4F09950F90DF91CF91089583E08093F7
:100B1000E9008091F200882319F08AE38093E800CD
:100B200008950E948C0490E00895CF93DF931F9264
:100B3000CDB7DEB7FC018485958597FD08C02FEF02
:100B40003FEF358724870F90DF91CF910895CE0135
:100B500001960E946204019719F4898190E0F3CF15
:100B60008FEF9FEFF0CF0F931F93CF93DF931F92E1
:100B7000CDB7DEB78C01FC018485958597FF0BC04E
:100B8000CE0101960E946204019771F4898190E080
:100B9000F80195878487F801848595850F90DF910A
:100BA000CF911F910F9108958FEF9FEFF1CFFC012F
:100BB0008485958597FD0BC09FB7F89482E080935C
:100BC000E9008091F2009FBF90E0019608959FB7E1
:100BD000F89482E08093E9008091F2009FBF90E05A
:100BE00008950DB407FEFDCF8EB5599A08950E9461
:100BF000FD05982F0E94030608950DB407FEFDCF52
:100C00008EB51EBC08950C94F1050E94FD05982F29
:100C10000E94FD0508958EBD00000DB407FEFDCFB6
:100C20008EB50895CF92DF92EF926B01E82E00907F
:100C3000DC03D00C0090DD03E01C599883E00E9497
:100C40000B068E2D0E940B068D2D0E940B068C2DFF
:100C50000E940B061EBCEF90DF90CF9008952F925C
:100C60003F924F926F927F928F929F92AF92BF92DC
:100C7000CF92DF92EF92FF920F93CF93DF934C01CD
:100C80005B011901442E842FB9010E9412060E94B3
:100C90000506D82EC82FD92F0E94F705AE01480DA2
:100CA000591D141615060CF0DEC070E88716910465
:100CB0000CF0D9C07C019C012A0D3B1D12161306B5
:100CC0000CF0D1C090E4A916B1040CF0CCC097FE92
:100CD0000BC06624772468187908FD2DF619403872
:100CE000510554F0F0E808C0F0E8F8194138510512
:100CF0000CF4FD2D712C612CB7FEC6C0CC24DD2474
:100D0000CA18DB0828EFC22297012C193D09E82FE9
:100D1000EC19213431051CF0EA2DE770E05C73E03A
:100D2000D594C7947A95E1F79601DD0C440BBE018A
:100D30000D2E000C880B0E945119A82FCB01860D97
:100D4000971DA11D77FCAA95002329F0880F991FF4
:100D5000AA1FCC0FDD1F442D91012C5F3F4F4F4F39
:100D6000280F391F4A1FC50153E0959587955A955D
:100D7000E1F7582F5C0D61E0A1FC64E0A0FC660F78
:100D8000A2FC629570E85703D0011124A80DB91D8B
:100D9000A60DB71DA252BC4F599883E08EBD80911D
:100DA000DC039091DD03830F941F0DB407FEFDCF8C
:100DB0009EBD0DB407FEFDCF8EBD0DB407FEFDCF69
:100DC0002EBD2C0F3D1F411D0DB407FEFDCF1EBCD7
:100DD000000F573014F4089460FD8894079572E072
:100DE000E1FC78E0E2FC7295E0FE76957A9511F0F0
:100DF000E8300CF07FEF9F2F0EB41EBC03FD0726DA
:100E0000872F00FD802D02FD0024069E600104FB5B
:100E100036F4C895C89511240EB41EBC00FD082EEA
:100E2000069E503034F08C9101FFC826C020C826A1
:100E3000CC92A058BF4F07FF06C08C9101FFD82667
:100E4000D120D826DC921124AF57B0409A95A1F654
:100E5000A058BF4FAF1BB109E85053950DB4599A34
:100E60001E160CF499CFDF91CF910F91FF90EF9068
:100E7000DF90CF90BF90AF909F908F907F906F90BA
:100E80004F903F902F900895E0E4EA192134310506
:100E90000CF4E82FD12CC12C47CFFC010E94E407B1
:100EA000319728F068517C4F8F4F9F4FF9CFAB019E
:100EB000FC010E94E407641775078E079F07C8F3BB
:100EC00008958F929F92AF92BF92CF92DF92EF924E
:100ED000FF920F931F93CF93DF936C017B018A01E5
:100EE00080910B01882309F45AC08091DB03882389
:100EF00009F455C08091BF0380FF05C08091E000D8
:100F000082608093E000E801B12C8AEFA82E93E084
:100F1000892E2AE3922E209711F4BB20C9F10E945A
:100F20008C04811108C0AA94AA20C9F181E090E044
:100F30000E944D07F0CF8C171D0611F00CF08C2F7E
:100F40009FB7F8948092E9002091E80025FD02C047
:100F50009FBFE1CF282F30E0C21BD30BF701815098
:100F600020F041914093F100FACFE20EF31EBB2036
:100F700021F09092E800B12CEBCF8091E80085FD44
:100F8000E7CF9092E800BB24B394209709F3F3CF06
:100F90005D9884E68093BE03101611063CF081E054
:100FA00090E0F6019383828310E000E0C801DF91B6
:100FB000CF911F910F91FF90EF90DF90CF90BF9056
:100FC000AF909F908F900895A5EBB3E02FB7F89462
:100FD0007D918D919C9166B52FBFA89B05C06F3FF9
:100FE00018F47F5F8F4F9F4F22E0660F771F881F97
:100FF000991F2A95D1F708954F925F926F927F9231
:101000008F929F92AF92BF92CF92DF92EF92FF9218
:101010000F931F93CF93DF934C015901FC2DC02FE9
:10102000D0E0CE01880D991D181619060CF067C086
:101030009B012E0D311D121613060CF060C060349A
:1010400071050CF05CC04115510509F458C0262FFC
:101050002770F22EDB0177FD179633E0B595A79543
:101060003A95E1F73A2F77FF04C0FF2011F03FEFE8
:101070003A0F662777276819790997FC02C070E054
:1010800060E0803891050CF44BC090E89819961BED
:10109000A32F032E000CBB0B1A2F10953F3F0CF013
:1010A00010E021E08E2D877009F420E0E694E694AC
:1010B000E694E20EAE0DB11D19971CF028E0E22E69
:1010C000E31AE11A310F20E83203D0011124A80DF0
:1010D000B91DA60FB71F019F600D711D1124460F8A
:1010E000571F0F2D0F2C000C110BF33009F41CC1EE
:1010F000C8F4F13009F4D0C0F23009F47CC0DF91BB
:10110000CF911F910F91FF90EF90DF90CF90BF9004
:10111000AF909F908F907F906F905F904F900895C9
:10112000902FB5CFFA3FB1F1232F2E0DFB3F39F7AA
:10113000321729F3BD0162527C4FD12CC12CC91644
:1011400008F0A4C0FA01EC0DFD1DE491F0E04F01A0
:10115000002E02C0880C991C0A94E2F737FD06C0E5
:10116000FB018081E82CE0948E218083FF2061F0D8
:10117000373054F45B01F0E8AF0EB11CE92CE09479
:10118000F50180818E218083FFEFCF1ADF0A6F5F28
:101190007F4FD5CF232F2E0D321709F4B0CFBD01CD
:1011A00062527C4FD12CC12CC91608F069C0FA01DB
:1011B000EC0DFD1DE491F0E04F01002E02C0880C03
:1011C000991C0A94E2F737FD04C0FB01808188294D
:1011D0008083FF2051F0373044F45B01F0E8AF0E1C
:1011E000B11CF501808189298083FFEFCF1ADF0AC6
:1011F0006F5F7F4FD9CF6FEF70E00F2C02C0660F8B
:10120000771F0A94E2F760957095772E232F2E0DA5
:10121000321709F474CFFD01E252FC4F6F01B12C7B
:10122000A12CA91638F5FA01EA0DFB1DE491F0E0B6
:101230002F01002E02C0440C551C0A94E2F737FD22
:1012400005C0F6018081862384298083FF2059F020
:1012500037304CF44601F0E88F0E911CF401808188
:10126000872185298083FFEFAF1ABF0A8FEFC81A45
:10127000D80AD7CF3F5F4C0F5D1FA058BF4FC8CFD4
:101280003F5F4C0F5D1FA058BF4F86CF3F5F4C0F95
:101290005D1FA058BF4F4CCF6A0D7B1D232F2E0D15
:1012A000321709F42CCFFD01E252FC4F6F01B12C33
:1012B000A12CA91688F5FB01EA0DFB1D8490912C49
:1012C000002E02C0880C991C0A94E2F78094909436
:1012D000FA01EA0DFB1D6490712C002E02C0660C11
:1012E000771C0A94E2F737FD05C0F601808188215A
:1012F00086298083FF2049F037303CF4F601E0581E
:10130000FF4F8081892187298083FFEFAF1ABF0AB1
:101310008FEFC81AD80ACDCF3F5F4C0F5D1F6C0FFF
:101320007D1FA058BF4FBCCFC92ED12CFA01E60FAC
:10133000F71FA252BC4F00E810E00C191D09CC1990
:10134000DD09BE01660F771F41E050E06A010F2CF6
:1013500001C0CC0C0A94EAF7592F2E2D792ECF9389
:10136000DF93ED01EF96EF9622968590A590FF20F2
:1013700059F08C9C4001AC9C500137302CF4E88033
:10138000B094EB20E928E99233233AF0EC90A09452
:10139000EA20E828ED920C94CE0911965A9529F787
:1013A0002A9551F0572D33951124E60FF11DA00F0A
:1013B000B11DC00FD11DD9CFDF91CF9111249FCE88
:1013C00090E00C944D078FB18095807F669B88607C
:1013D0001C9B8460089590E1282F81E061FD84E0EA
:1013E00060FD880F62FD8295687F969FD001112471
:1013F000A20FA252BC4F0C90082A40FF08260C9264
:1014000008958F929F92AF92BF92CF92DF92EF9208
:10141000FF920F931F93CF93DF936D3089F0C090AD
:10142000C103D090C2036A30D1F41092C403109269
:10143000C30388E0C80ED11CD092C203C092C1037E
:1014400081E090E0DF91CF911F910F91FF90EF909D
:10145000DF90CF90BF90AF909F908F9008950091B4
:10146000C3031091C403E5E06E9FE0011124C2594B
:10147000DE4F5801F12CF5E0E12CFF1629F0CE01EA
:101480000196FE01E490EC01912C812CF0E8AF165E
:10149000B10458F4B601680D791D6034710528F463
:1014A0004E2D4170C5010E94EB09E6948FEF881A1A
:1014B000980AE8E08E16910449F7F394FFEFAF1A0B
:1014C000BF0A86E0F812D7CF0A5F1F4F1093C403FC
:1014D0000093C303B5CFCF93C82F0E94E309982F81
:1014E0009C2381E09C1380E0CF910895CF92EF92EE
:1014F0000F93CF93DF93EC018E816A3069F49D8165
:101500009C836985860F8E8381E090E0DF91CF9187
:101510000F91EF90CF9008956A3378F4603308F01C
:1015200051C0613209F450C09FE36E3291F098854A
:101530009D5F8C81890F8C83E7CF6134C0F36B355D
:1015400030F09FE9960F9A3190F799EB01C09FEB2D
:10155000960F61E0680F062E000C770BAC810A2E07
:10156000000CBB0BECEAF0E02DEA30E08F8181301B
:1015700069F50491F901E4904EEA50E09923D1F025
:1015800041E050E08E2D877011F450E040E02E2DA8
:10159000269526952695240F352F311D029FF001A3
:1015A000039FF00D11249E9FA0019F9F500D1124B9
:1015B00042555F4F9AEFC92E30E020E0CD010E94E6
:1015C000FC07B5CF94E0C4CF9EE3C3CF0491F901EB
:1015D000E4904EEA50E09923D1F041E050E08E2DA6
:1015E000877011F450E040E02E2D26952695269523
:1015F000240F352F311D029FF001039FF00D1124A0
:101600009E9FA0019F9F500D112442555F4F8BEF6D
:10161000C82ED2CF8C54863208F02CC0E82FF0E0D0
:10162000EC5EF44F0C946F193C0B3C0B3C0B3A0BEB
:101630003A0B3A0B3A0B3C0B3C0B3A0B3A0B3A0B7E
:101640003A0B3C0B3C0B3A0B3A0B3C0B3A0B3A0B6C
:101650003C0B3A0B3A0B3C0B3C0B3C0B3C0B3A0B58
:101660003C0B3A0B3A0B3A0B3A0B3C0B3A0B3A0B4E
:101670003C0B3C0B80E0089581E00895815082305E
:1016800038F4CB016FE170E00E945B19862F08955A
:101690008FEF08958150823038F4CB016CE070E018
:1016A0000E945B19862F08958FEF0895CF93DF93E3
:1016B000D82FC62F0E944A0BD13021F0D23051F0E2
:1016C0008FEF05C094EF899FC00D11248C2FDF91FF
:1016D000CF9108959CE0989F900D1124892F8C1B29
:1016E000F6CF089590E080E008950C940A19FB016C
:1016F00001900020E9F73197AF01461B570BDC0141
:10170000ED91FC910280F381E02D09948F929F92DC
:10171000AF92BF92EF92FF920F931F93CF93DF93FD
:10172000CDB7DEB7A1970FB6F894DEBF0FBECDBF21
:101730007C01FA01CB0119A2223008F42AE08E01C3
:101740000F5D1F4F822E912CB12CA12CBF01A50142
:1017500094010E942019F901CA016A300CF5605DFC
:10176000D8016E938D01232B242B252B79F790E044
:1017700080E0109721F0BD01C7010E94770BA19670
:101780000FB6F894DEBF0FBECDBFDF91CF911F9192
:101790000F91FF90EF90BF90AF909F908F90089522
:1017A000695CDECFCF92DF92EF92FF920F931F938F
:1017B000CF93DF936B01770FEE08FF08F7FE1FC092
:1017C000EC01E881F9810190F081E02D6DE209954D
:1017D0008C0144275527BA014C195D096E097F0910
:1017E0002AE0CE010E94860B800F911FDF91CF91DE
:1017F0001F910F91FF90EF90DF90CF9008952AE016
:10180000B701A601DF91CF911F910F91FF90EF904B
:10181000DF90CF900C94860BCF93DF93BC018EEDBD
:1018200097E00E94770BEC016AED72E08EED97E095
:101830000E94770B8C0F9D1FDF91CF910895CF935E
:10184000DF93BC018EED97E00E94D20BEC016AEDB4
:1018500072E08EED97E00E94770B8C0F9D1FDF9159
:10186000CF9108950C94770B6F927F928F929F92F5
:10187000AF92BF92CF92DF92EF92FF920F931F939E
:10188000CF93DF93CDB7DEB72A970FB6F894DEBFBC
:101890000FBECDBFF82E4F83588769877A87E090B7
:1018A0002F080F8118858CE0E89E000D111D112472
:1018B000D090300889849A84EFE1DE9E800C911CE0
:1018C0001124213031F0223009F446C189E293E03D
:1018D00026C2B80181E00E944A0BB82EBE18B4019E
:1018E00081E00E943E0BC82E6DED72E08EED97E018
:1018F0000E94320CB8018EED97E00E94D20B60EF8F
:1019000072E08EED97E00E94320C6B2C0B2C000CD9
:101910007708B3018EED97E00E94D20B64EF72E07E
:101920008EED97E00E94320CB4018EED97E00E949C
:10193000D20B60EF72E08EED97E00E94320CCD1872
:101940000C2C000CDD08C6010E941F0CB3016E5F59
:101950007F4F8EE08C9D90018D9D300D1124225D76
:10196000374F620F731FFB01C380AFEFAB0D0A2E21
:10197000000CBB0B1296A20FB31F1396EC9013979B
:10198000EEEFEB0D0E2E000CFF0B3296AF01420F67
:10199000531FFA01D3808DEF8B0D082E000C990B8D
:1019A0000296820F931FFC01B380FB01A5A49D96B4
:1019B0009C90FA0185A4FC0175A4B80181E00E9405
:1019C000560B182F69E073E08EED97E00E94320C01
:1019D000612F012E000C770B8EED97E00E94D20B49
:1019E0006FE073E08EED97E00E94320C6B2D0B2CB4
:1019F000000C770B8EED97E00E94D20B67E473E04A
:101A00008EED97E00E94320C6D2D0D2C000C770BA3
:101A10008EED97E00E94D20B67E473E08EED97E0C5
:101A20000E94320C6E2D0E2C000C770B8EED97E081
:101A30000E94D20B67E473E08EED97E00E94320CB7
:101A40006C2DCC0C770B8EED97E00E94D20B65E1EC
:101A500073E08EED97E00E94320C672D770C770BC8
:101A60008EED97E00E94D20B67E473E08EED97E075
:101A70000E94320C682D880C770B8EED97E00E9447
:101A8000D20B67E473E08EED97E00E94320C692D73
:101A9000990C770B8EED97E00E94D20B67E473E010
:101AA0008EED97E00E94320C6A2DAA0C770B8EED1A
:101AB00097E00E94D20B8CED92E00E940C0CF3E0B8
:101AC000FF1601F184E0F816A1F1E1E0FE1218C062
:101AD0001630C0F081E02A960FB6F894DEBF0FBE34
:101AE000CDBFDF91CF911F910F91FF90EF90DF90CD
:101AF000CF90BF90AF909F908F907F906F90089500
:101B00001A3040F78E2D2A960FB6F894DEBF0FBE1E
:101B1000CDBFDF91CF911F910F91FF90EF90DF909C
:101B2000CF90BF90AF909F908F907F906F900C94CC
:101B30000A0B8E2D0E940A0B12501B3048F488238A
:101B400051F28D2D0E940A0B882329F28B2DDBCFB9
:101B5000882309F28D2DD7CFB80182E00E944A0B6D
:101B60008E19E82EB40182E00E943E0BC82E6DED66
:101B700072E08EED97E00E94320CB8018EED97E096
:101B80000E94D20B60EF72E08EED97E00E94320C63
:101B9000AE2C0E2C000CBB08B5018EED97E00E9418
:101BA000D20B64EF72E08EED97E00E94320CB4012C
:101BB0008EED97E00E94D20B60EF72E08EED97E021
:101BC0000E94320CCD180C2C000CDD08C6010E94BE
:101BD0001F0CD50112968EE08C9D90018D9D300DCD
:101BE0001124225D374FA20FB31F1396CC90139789
:101BF000E1E0EE0D0E2E000CFF0B3296AF01420F0E
:101C0000531FFA01D38082E08E0D082E000C990B31
:101C10000296820F931FFC0193809D96AC90FA016F
:101C2000B5A4FC01E5A4B80182E00E94560B182F70
:101C300069E073E08EED97E00E94320C612F012E77
:101C4000000C770B8EED97E00E94D20B6FE073E0F3
:101C50008EED97E00E94320C6C2DCC0C770B8EED44
:101C600097E00E94D20B67E473E08EED97E00E944C
:101C7000320C6D2D0D2C000C770B8EED97E00E9431
:101C8000D20B67E473E08EED97E00E94320C692D71
:101C9000990C770B8EED97E00E94D20B65E173E013
:101CA0008EED97E00E94320C6A2DAA0C770B8EED18
:101CB00097E00E94D20B67E473E08EED97E00E94FC
:101CC000320C6B2DBB0C770B8EED97E00E94D20B84
:101CD00067E473E08EED97E00E94320C6E2DEE0CFF
:101CE000770B8EED97E00E94D20B8CED92E00E9474
:101CF0000C0CF1E0FF1651F0FF16A0F082E0F81690
:101D000089F0E3E0FE1609F425CFE0CD8BE193E006
:101D10000E940C0C163008F41DCF87E293E00E945D
:101D20000C0CD8CE1A3008F0D5CE14CF1F920F92DB
:101D30000FB60F9211248F939F938091E1009091A1
:101D4000E100937F9093E10083FF0FC01092E900C0
:101D500091E09093EB001092EC0092E39093ED00F1
:101D60001092DB0398E09093F00082FF22C093E092
:101D70009093E9009091F200992319F09AE39093DF
:101D8000E8009091BE03992341F09091BE039150D9
:101D90009093BE03911101C05D9A9091DA0399234B
:101DA00041F09091DA0391509093DA03911101C0C0
:101DB000289A84FF18C08091E2008E7E8160809313
:101DC000E2008091E1008F7E8093E1008091BF036B
:101DD0008E7E80618093BF039F918F910F900FBE85
:101DE0000F901F90189580FFF7CF8091E2008E7EB4
:101DF00080618093E2008091E1008E7E8093E1001B
:101E00008091BF038E7E8160E5CF1F920F920FB647
:101E10000F921124CF92DF92EF92FF920F931F93B4
:101E20002F933F934F935F936F937F938F939F93E2
:101E3000AF93BF93EF93FF93CF93DF93CDB7DEB70D
:101E40006C97DEBFCDBF1092E9008091E80083FF60
:101E500025C068E0CE0145960E94360582EF80934A
:101E6000E8008D8987FF39C09091E80090FFFCCF92
:101E7000982F907609F034C19E894F89588D2F890B
:101E8000F88C911131C0803861F58091C003809346
:101E9000F1001092F1008EEF8093E8006C960FB67F
:101EA000F894DEBF0FBECDBFDF91CF91FF91EF91D0
:101EB000BF91AF919F918F917F916F915F914F9162
:101EC0003F912F911F910F91FF90EF90DF90CF9056
:101ED0000F900FBE0F901F9018959EEF9093E80003
:101EE000C7CF1092F100D5CF913059F48111D3CFE3
:101EF0004130510581F68091C0038D7F8093C003EE
:101F0000CACF933049F48111C6CF4130510519F63B
:101F10008091C0038260F2CF953041F48091E80057
:101F200080FFFCCF20682093E300B5CF963009F006
:101F3000A9C00B8D1C8D22E01092E9001092BC0309
:101F40001092BB03F2122EC01092BA031092B90382
:101F50000E9405051F8299E09983FA8291E09E8391
:101F600090EA98879AEF99872091BB033091BC0340
:101F7000275F3F4F3C832B838D831092E9001092A3
:101F8000BC031092BB031093BA030093B90349E05A
:101F900050E0BE016F5F7F4F80E00E94DF040E942F
:101FA000050579CF1093BA030093B9030E949D04ED
:101FB000DC0112960D911C910115110509F451C116
:101FC000D801ED91FC910480F581E02DBE016B5E9E
:101FD0007F4FC8010995009709F03EC1F8010085BF
:101FE0001185EACFF3E0FF120EC08F89882309F430
:101FF00040C0823061F440E867E082ED96E00E94E4
:102000008111811148CF81E28093EB0047CF81306D
:1020100029F440E86BE086EC96E0F1CF833099F745
:102020000E949D04DC011296ED90FC908E010F5FE2
:102030001F4F6801E114F10479F0D701ED91FC9193
:102040000680F781E02DB801C7010995080F111D21
:10205000F701E084F184EECFD8011C92F6010190E3
:102060000020E9F73197BF016C197D0940E0C601F6
:10207000C6CF60EB76E0FB01449150E080E80E941F
:10208000DF0409CF973009F4BECF983021F481E006
:102090008093F10000CF993009F0FDCE837009F0F4
:1020A000B2CFEEE0F1E081E031E096E3219122232E
:1020B00071F08093E9003093EB00DF0111972C91D0
:1020C0002093EC009093ED008F5F873079F78EE7D7
:1020D0008093EA001092EA008F898093DB03DBCEC5
:1020E0008B8D9C8D1092E9001092BC031092BB0363
:1020F0009093BA038093B903898D811192C08E8920
:102100009D89913A49F4813209F07DCF47E050E052
:1021100064E071E080E0B3CF913209F074CF833294
:1021200069F48F89988DB0E0A0E0809300019093CE
:102130000101A0930201B0930301ADCE803269F496
:102140008091E80082FFFCCF67E084E091E00E948C
:1021500036058BEF8093E8009ECE823209F09BCE4D
:102160008F8980930B01EEEFFFE7859194918B3F70
:102170009C4D51F1E0E0F8E080910401909105015F
:10218000A0910601B0910701803B9440A105B105E3
:10219000F1F480910B0180FD1AC0EE3F8AE0F80750
:1021A00089F587E797E7918380838091600080932A
:1021B000BD0388E19BE00FB6F894A895809360007A
:1021C0000FBE9093600067CEEEEFFAE0D5CF80812E
:1021D00091818737974709F05ECEA895809160007E
:1021E0008861809360008091BD0380936000EE3F22
:1021F0002AE0F20789F08091FE0A9091FF0A91830C
:10220000808349CE808191818737980751F29093DE
:10221000FF0A8093FE0AC5CF1092FF0A1092FE0AB1
:102220003ACE0E949D04DC0112960D911C9101157D
:10223000110509F4E8CED801ED91FC910190F081EF
:10224000E02DBE016B5E7F4FC8010995811123CE41
:10225000F80100851185EBCF181619060CF41BCE7A
:10226000D2CEF1E0FF12BECE64EB76E004CF0F9247
:102270000FB68F939F93EF93FF938091B4038D5F7D
:102280008D3708F08D578093B403E9ECF3E080813B
:102290008E4F808391819F4F918382818F4F828364
:1022A00083818F4F8383E5EBF3E080818F5F8083B1
:1022B00081818F4F818382818F4F828383818F4F72
:1022C00083838FB18F6066991C9B88278F3681F43A
:1022D0008091B303981B963068F0E0E0F8E087E760
:1022E0008083818388E180936000F0936000FFCF5A
:1022F0009093B303FF91EF919F918F910FBE0F9039
:102300001895EF92FF920F931F93CF93DF93F82EC0
:10231000192FE62E042F81E0860F880F0E94B1044A
:1023200083E00E94B104CF2DD12FEC0EFD2EF11CC5
:10233000CE15DF05B9F007FF13C0FE0184910E949E
:10234000B104182F80E00E94B104812321968111ED
:10235000EFCFDF91CF911F910F91FF90EF900895F4
:102360008881EDCF81E0F5CF1092E1071092E00770
:1023700088EE93E0A0E0B0E08093E2079093E3075B
:10238000A093E407B093E50784EB92E09093DF0716
:102390008093DE078FEF9FEF9093EB078093EA0720
:1023A0001092B2081092B10882ED92E09093B008BA
:1023B0008093AF081092A8081092A70886EC92E0CC
:1023C0009093A6088093A50888E08093AE0881E0EA
:1023D0008093AD081092AA081092AB081092A90839
:1023E0008093AC08EFE8F8E0119288E0E33AF80750
:1023F000D9F71092A308109287088FE0809388087D
:1024000081E08093890810928A0810928C081092BB
:102410008B0810928E0810928D0810922E088CE373
:1024200080932F081092300808951F92CDB7DEB721
:10243000789483E084BD83E085BD81E080936E0065
:10244000E1E8F0E083E08083E0E881E08083E1E997
:1024500083E08083E0E981E08083E1EC87E08083B2
:10246000E3EC81E08083E0EC82E08083E2EC81E0D9
:102470008083EAE787E08083806880831092DB03B3
:102480001092C0031092BF038091D70081608093A7
:10249000D70080EA8093D80089B5806189BD89B56D
:1024A000826089BD09B400FEFDCF81E090E00E940A
:1024B0004D078091D8008F7C80618093D8008091F7
:1024C000E000807F8093E0008091E1008E7E809329
:1024D000E1008DE08093E200559A209A81EC809390
:1024E0007C0081EF85B987EE84B982E38BB982EFF6
:1024F0008AB9769A6E9880EF81BB10BA80E58CBD60
:1025000081E08DBD85E00E94E0095F9A85E00E9430
:10251000E0095C98EAE8F7E085918EBD00000DB413
:1025200007FEFDCFE739C1F75C9A81E8809364002C
:1025300081E08093650080E00E94F70380E80E94BC
:102540006B0A8823A9F05C9885EA8EBD00000DB463
:1025500007FEFDCF5C9A2E982F982D9880916400ED
:1025600080628093640081E083BF889513BEFCCFB6
:1025700084E00E946B0A882309F443C02D9884E804
:102580000E946B0A8823D1F02D9A88EC0E94E00902
:102590002F9882E090E00E940A198F3F29F06FEF98
:1025A00082E090E00E94121984EF91E00E944D07B2
:1025B0002F9A84E80E946B0A8111FBCF84E10E946C
:1025C0006B0A8823D1F02D9A88EC0E94E0092E989E
:1025D00082E090E00E940A19882329F060E082E0FE
:1025E00090E00E94121984EF91E00E944D072E9A0C
:1025F00084E10E946B0A8111FBCF88EC0E94E00904
:10260000B7CF2D9A82E090E00E94750B882309F4E1
:1026100090C03E9A3F9A81E090E00E94750B282F6F
:102620002470D22E81FF0CC021112E9801EF1FEFD4
:1026300080E40E946B0A882309F47EC02E9A2F9AA8
:1026400082E30E94E0090E94E309E82E8111F8CF9D
:1026500081E280930C015E9A5E9AE4E1F0E085915C
:1026600094918831954909F009C1E6E1F0E084913F
:10267000E7E1F0E0E491F82FF093DD03E093DC0371
:1026800059988BEA0E940B06599A81E080932E0894
:102690008CE380932F08109230085AE5D52E6EE017
:1026A000C62EF09030080E2D10E08F2D90E002968F
:1026B000801791070CF0E9C03AE5E32E4EE0D42EE6
:1026C0000F2D10E08091300890E00296801791075E
:1026D0000CF40AC160912F0870E080E06E5A794FC7
:1026E0008F4FFE9C90011124620F731F811D37FDD7
:1026F0008A950E941206B12CA12C0E94FD05909192
:1027000030089801291B3109D29EF001D39EF00DAB
:102710001124E25DF74FEA0DFB1D85A74FEFA41AC8
:10272000B40A8EE0A816B10441F70E94F105F394B3
:10273000C7CF3E983F986FCFDD2029F004301105B8
:1027400011F42E9A2F9881E00E94F703402F4770D2
:10275000C42E980173E0359527957A95E1F7C90164
:102760009695982F88279795879582529C4FF12CA4
:10277000E12C2E3FEFEF3E0771F1AC014C565F4F5D
:10278000DC0170E060E0F701E652F94F5F01F5010E
:10279000E60FF71FE491F0E03F010C2C02C0660C3D
:1027A000771C0A94E2F72F3F320739F054969C9039
:1027B0005497962854969C925497CC2021F0FA0175
:1027C0009080972890826F5F7F4F4F5F5F4F119689
:1027D00068357105E1F62F5F3F4F80589F4FF8E550
:1027E000EF0EF11C40EBE416F10409F0C2CF80E0DB
:1027F0000E94F7038FE00E94E0090F5F1F4F09312D
:10280000110509F015CFDD2011F02F9A2D9880E9E0
:1028100091E00E944D072D9A81E090E00E94750B97
:1028200080FF0ECF8AE090E00E94750B9FEF980F1B
:102830009E3F08F005CF22E330E03093C40320939D
:10284000C30328E330E03093C2032093C1030BE0BD
:1028500010E0682F8FEA98E00E94010AC8010E94E8
:10286000750B0F5F1F4F0131110599F780E00E9432
:10287000F70388EE93E00E944D07E2CE8EEE9DEFC7
:102880009093DD038093DC03FBCE60912F0870E012
:1028900080E06458764F8F4FED9C90011124620FB9
:1028A000731F811D37FD8A950E941206B12CA12C41
:1028B0000E94FD05909130089801291B3109C29EA4
:1028C000F001C39EF00D1124E25DF74FEA0DFB1DF0
:1028D0008383FFEFAF1ABF0A2EE0A216B10441F7BF
:1028E0000E94F105E394DDCE8EE293E00E940C0C91
:1028F00062E473E08EED97E00E94320C40912F0865
:1029000050E070E060E02AE08EED97E00E94860BD8
:1029100069E473E08EED97E00E94320C409130083C
:1029200050E070E060E02AE08EED97E00E94860BB8
:102930006AED72E08EED97E00E94770B82E593E0FE
:102940000E940C0C9EE2C92E98E0D92E23E0F22EB4
:1029500010E000E0F601E00FF11F6381062E000C8D
:10296000770B8EED97E00E94D20B67E473E08EED5B
:1029700097E00E94320C013011F00B3031F465E623
:1029800073E08EED97E00E94320C0F5F1F4F0E3008
:10299000110501F78CED92E00E940C0CFA949EE078
:1029A000C90ED11CF110D4CF88E693E00E940C0C24
:1029B0000EE2C02E08E0D02E83E0F82E10E000E0FA
:1029C000F601E00FF11F65A5062E000C770B8EEDCA
:1029D00097E00E94D20B67E473E08EED97E00E94CF
:1029E000320C013011F00B3031F465E673E08EEDFE
:1029F00097E00E94320C0F5F1F4F0E30110501F758
:102A00008CED92E00E940C0CFA94EEE0CE0ED11CFC
:102A1000F110D4CF8FE898E09093860880938508D2
:102A200082E190E090938C0880938B0889E390E09A
:102A300090938E0880938D08ACE05A2EBCE62B2E26
:102A40003324339410E0812E10E0912EFFE14F2EBD
:102A50008091C703882341F01092C7038114910429
:102A6000B9F30E940000F2CF9091C9038091C8038E
:102A7000F92FF81B8F2F20910C01F21740F48F5F74
:102A8000821760F721E023BF889513BEE7CF41E0AE
:102A90004093C7039093C803E5ECF3E080819181F4
:102AA0000196808391830E94E3098093CD03E09196
:102AB0008508F09186088589882309F4C3C181506F
:102AC000858B848981110DC0809188088E3009F42E
:102AD00020C308F0B9C1863009F41BC38A3009F459
:102AE00099C2A0918508B091860855968C9155970A
:102AF00081114FC05496EC915497EE2309F449C0CC
:102B0000E1505496EC935497EA0FFB2FF11D60812E
:102B1000609388086150770B660F771F072E000CB3
:102B2000880B605B774E8F4F0E9412060E94FD0556
:102B3000082E000C990B20918908213009F05DC303
:102B40002FEF3FEF829F8001839F100D929F100D0A
:102B500011240E94F10580918B0890918C08800FC0
:102B6000911D07FD9A9590938C0880938B08809116
:102B700088088E3F09F444C38F3F59F48FE0809357
:102B8000880880918908813009F03EC382E08093F3
:102B900089087EE2A72E78E0B72ED12CC12CF12C2B
:102BA000E12CF501EE0DFF1DE581E7FD1BC00E2EAA
:102BB000000CFF0BE35DFD4FE0818E2F90E0FC01E8
:102BC000EE0FFF1FE80FF91FE956FE4F20813181FC
:102BD000428100E0B6015E9CC0015F9C900D112413
:102BE0000E942F06EFEFEE1AFE0AFBE0EF16F1044B
:102BF000C1F62EE0A20EB11C4FE1C40ED11C8DE532
:102C0000C816D10461F680918808829D9001839D49
:102C1000300D11242C56314040E060918D087091A8
:102C20008E086F51710980918B0890918C084097A4
:102C300050918908513009F0E9C22C50364E4F4F5F
:102C400000E10E942F065EE2A52E58E0B52EF12C81
:102C5000E12CD12CC12C712C612CF501E60DF71D56
:102C600087A587FD1FC0082E000C990BFC01E35DB2
:102C7000FD4FE0812E2F30E0F901EE0FFF1FE20F34
:102C8000F31FE956FE4F2081318142818C5E9E4FB9
:102C9000FC01808100E1811101C000E0B701C601A3
:102CA0000E942F06FFEF6F1A7F0A2CE0C20ED11C84
:102CB00044E8C416D10489F68EE0A80EB11C9FE149
:102CC000E90EF11CEDE5EE16F10419F61092AC08D0
:102CD000F12CE12CD12CC12C41E0B601C7010E949E
:102CE000EB09FFEFCF1ADF0A27E0C216D104A1F7E4
:102CF0004FEFE41AF40A80E8E816F10459F710924D
:102D0000AA081092A9081092AB0867E973E085EA57
:102D100098E00E94320C4091880850E070E060E03A
:102D20002AE085EA98E00E94860B6AE973E085EA6A
:102D300098E00E94320C60918B0870918C0885EAB3
:102D400098E00E94D20B6EE973E085EA98E00E9459
:102D5000320C80912F0860918B0870918C08859DB2
:102D6000600D711D1124809189080E944A0B682F03
:102D7000880F770B85EA98E00E94D20B67E473E036
:102D800085EA98E00E94320C80912F0860918B08B0
:102D900070918C08859D600D711D112485EA98E065
:102DA0000E94D20B61EA73E085EA98E00E94320C3F
:102DB0008091300860918D0870918E08849D600D1F
:102DC000711D1124809189080E943E0B682F880F85
:102DD000770B85EA98E00E94D20B67E473E085EAFE
:102DE00098E00E94320C8091300860918D087091BB
:102DF0008E08849D600D711D112485EA98E00E9463
:102E0000D20B64EA73E085EA98E00E94320C80916C
:102E10002F0860918B0870918C08859D600D711D45
:102E20001124809189080E94560B682F880F770B18
:102E300085EA98E00E94D20B5E9881E00E94F70339
:102E40005E9A0CCE82E03CCE8F3059F18B3409F083
:102E500048CE80918908823009F0D5C080E40E9474
:102E60006B0A882309F4C4C0E0908508F0908608B6
:102E700000918708109188082091890830918A086C
:102E800040918B0850918C0860918D0870918E084C
:102E900082E00E94340C882309F4AFC066E082E02F
:102EA0003AC080918908823009F068C080E40E94AD
:102EB0006B0A882399F180E10E946B0A882371F1E3
:102EC000E0908508F09086080091870810918808A6
:102ED0002091890830918A0840918B0850918C0884
:102EE00060918D0870918E0881E00E94340C8823D7
:102EF00029F04FE06CE687E60E94390480E10E94E9
:102F00006B0A8111EECD80E80E946B0A882309F4D8
:102F1000E8CD6AE78DE60E941A04E3CD80E40E94C2
:102F20006B0A81113DC080E20E946B0A882321F068
:102F30004FEF6FE18BE1E0CF88E00E946B0A8823BE
:102F4000E9F2E0908508F0908608009187081091DA
:102F500088082091890830918A0840918B08509107
:102F60008C0860918D0870918E0884E00E94340C6A
:102F7000882321F24FE06EE38DE2BECF80E20E9413
:102F80006B0A811107C080E20E946B0A811108C0A0
:102F900080E4CACF80E10E946B0A8823A1F390CF1E
:102FA000E0908508F09086080091870810918808C5
:102FB0002091890830918A0840918B0850918C08A3
:102FC00060918D0870918E0880E00E94340C8823F7
:102FD00009F476CF10928708809185089091860831
:102FE0002BE42983BE016F5F7F4F0E94060486CFCA
:102FF00080E40E946B0A811174CD4FE062E58CE49D
:103000000E9439046ECD80E20E946B0A81112CCFA0
:1030100080E2EFCF809189088230E1F580E40E9460
:103020006B0A81110FC080E40E946B0A811113C0EA
:1030300080E20E946B0A882309F4ABC04EEF6CE279
:1030400080E2DECF88E00E946B0A882361F346E0CD
:103050006AE180E1D5CFE0908508F0908608009184
:103060008708109188082091890830918A0840913A
:103070008B0850918C0860918D0870918E0883E0C8
:103080000E94340C6BE773E0811136C04FE067E5B6
:1030900083E5B6CF80E20E946B0A81110CC080E20A
:1030A0000E946B0A81110DC080E40E946B0A81119D
:1030B000C5CF80E26FC088E00E946B0A882379F355
:1030C000C6CFE0908508F09086080091870810919F
:1030D00088082091890830918A0840918B08509186
:1030E0008C0860918D0870918E0883E00E94340CEA
:1030F000882361F262E873E08EED97E00E94320C63
:1031000080918B0890918C080E941F0C6EE08BE0E0
:1031100002CF80918908823009F041C080E40E948A
:103120006B0A81112FC080E40E946B0A882309F486
:103130007FCFE0908508F090860800918708109175
:1031400088082091890830918A0840918B08509115
:103150008C0860918D0870918E0883E00E94340C79
:1031600069E873E0882309F491CF8EED97E00E941F
:10317000320C80918B0890918C080E941F0C6AE0A1
:1031800087E0C9CE88E00E946B0A882361F24AE09A
:103190005FCF80E40E946B0A8111A3CC77CF80E2DD
:1031A0000E946B0A811123C080E20E946B0A88236F
:1031B00009F47ACFE0908508F0908608009187089E
:1031C000109188082091890830918A0840918B08D5
:1031D00050918C0860918D0870918E0883E00E9458
:1031E000340C882309F452CF60E973E0BECF88E045
:1031F0000E946B0A8823C1F2CACF21E030E0A2CC42
:103200009EE090938808BDCC81E0C1CC20563A4E18
:103210004E4F16CDF999FECF92BD81BDF89A9927F0
:1032200080B50895262FF999FECF1FBA92BD81BDB2
:1032300020BD0FB6F894FA9AF99A0FBE0196089538
:10324000A1E21A2EAA1BBB1BFD010DC0AA1FBB1FAA
:10325000EE1FFF1FA217B307E407F50720F0A21B1C
:10326000B30BE40BF50B661F771F881F991F1A9489
:1032700069F760957095809590959B01AC01BD01B3
:10328000CF010895A29FB001B39FC001A39F700D0D
:10329000811D1124911DB29F700D811D1124911D5E
:1032A0000895DB01582F0E944219529F800DA49F60
:1032B000800D1124089597FB072E16F4009407D073
:1032C00077FD09D00E94751907FC05D03EF4909552
:1032D00081959F4F0895709561957F4F0895EE0FEA
:1032E000FF1F0590F491E02D0994AA1BBB1B51E12F
:1032F00007C0AA1FBB1FA617B70710F0A61BB70B66
:10330000881F991F5A95A9F780959095BC01CD010A
:063310000895F894FFCFC0
:10331600FFFFFFFF00E10000000000001000C18079
:103326008100000000000000000000000000000016
:103336000000000000000000000000000000000087
:103346000000000000000000000000000000000077
:103356000000000000000000000000000000000067
:103366000000000000000000000000000000000057
:103376000000000000000000000000000000000047
:103386000000000000000000000000000001010134
:103396000100010000000000010100000000000122
:1033A60000000000000000A80C00DC0C00100D005E
:1033B600440D00780D00AC0D00E00D00140E004821
:1033C6000E007C0E00B00E00E40E00180F004C0F2D
:1033D60000800F00B40F00E80F001C100050100012
:1033E600841000B81000EC10002011005411008861
:1033F6001100BC1100F011002412005812008C12AA
:1034060000C01200F41200581300BC130020140070
:10341600841400B814001C1500501500841500B85B
:103426001500EC1500201600841600E816001C177F
:1034360000501700841700B81700EC1700000102AF
:10344600030405060708090A0B0C0D0E0F101112CE
:10345600131415161718191A1B1C1D1E1F202122BE
:10346600232425262728292A2B2C2D2E2F303132AE
:10347600333435363738393A3B3C3D3E3F4041429E
:103486004344454647484900010203040506070828
:10349600090A0B0C0D0E0F1011121314151617181E
:1034A600191A1B1C1D1E1F2021222324252627280E
:1034B600292A2B2C2D2E2F30317C7D7E7F808182F8
:1034C600000000007005610791058605D705950582
:1034D600B30500000000760A4305720B710B00006D
:1034E6000000010A4305720B710B0D0A00636F6F32
:1034F6007264546F54696C65496E6465785820002F
:10350600203D20002C20636F6F7264546F54696CE9
:1035160065496E6465785920006469737420002CCF
:1035260020626720002C2066672000536D616C6C5A
:1035360053746570205200330039393939004D61B2
:1035460070202D2D2D2D2D2D2D2D2D2D2D2D2D2D6F
:103556002D00784C6F633A20002C20794C6F633A2B
:1035660020004247202D2D2D2D2D2D2D2D2D2D2D9D
:103576002D2D2D2D007C20004647202D2D2D2D2D67
:103586002D2D2D2D2D2D2D2D2D2D003120702E780C
:1035960020003220702E7820003320702E782000F4
:1035A6003420702E78200053740020707800207824
:0A35B6000020790020647374000007
:00000001FF
