:100000000C946A000C9492000C9492000C94920050
:100010000C9492000C9492000C9492000C94920018
:100020000C9492000C9492000C9492000C94920008
:100030000C9492000C9492000C9492000C949200F8
:100040000C9492000C9492000C9492000C949200E8
:100050000C9492000C9492000C9492000C94392A07
:100060000C9492000C9492000C9492000C949200C8
:100070000C9492000C9492000C9492000C949200B8
:100080000C94832A0C9492000C9492000C9492008D
:100090000C9492000C9492000C9492000C94920098
:1000A0000C9492000C9492000C949200D5F08D1454
:1000B000A1C881CFD9F1AF200001010203040405DA
:1000C0000506060708090A0C0D0E0F10111214156B
:1000D0001600042F11241FBECFEFDAE0DEBFCDBF24
:1000E00011E0A0E0B1E0E4E4F2E702C005900D9277
:1000F000AA39B107D9F729E0AAE9B1E001C01D92F8
:10010000A236B207E1F710E0CAE6D0E004C02197BA
:10011000FE010E941A39C936D107C9F70E94AD2FD6
:100120000C9420390C940000782FEBE3F7E080E08A
:10013000042E000C550B022E000C330B90819717E8
:1001400050F0691740F091819417150621F49281BF
:100150009217130629F08F5F3896813379F78FEF66
:100160000895603609F4682FEBE3F7E030E020E013
:1001700090E05081581770F0651760F09F5F9413FE
:1001800009C0C90123E0880F991F2A95E1F7855C12
:10019000984F08952F5F3F4F38962133310549F727
:1001A0008BE397E00895282F82E0820F8F3078F557
:1001B00080E16802F0011124E557F94FE20FF11DCB
:1001C00027FDFA95838D4F3F29F190919006690F95
:1001D00090918F06290FEBE3F7E0022E000C330B12
:1001E000062E000C770B9081913009F496819111C5
:1001F00008C091819217130621F492819617170671
:1002000041F0389698E0E33CF90769F708958FEFDD
:100210000895842F08950F93CF9389351CF5863563
:10022000FCF48B33E9F0CCF48732D1F0803311F158
:10023000223009F049C081E008276F3709F444C033
:100240004F3709F441C020919006240F40918F064A
:10025000400F460F62E181E126C08055833040F7B0
:1002600081E02FC0833724F3863724F0895782300A
:10027000F8F6F6CF213041F56F3731F14F3721F1E4
:10028000C0919006C40F40918F06040F060F2C2FCB
:10029000402F62E181E10E9494008F3F41F42C2FB6
:1002A000402F6EE18EE10E9494008F3F69F098E04C
:1002B000899FF0011124E25CF84F8081883020F49E
:1002C00082E0CF910F91089580E0FBCF8C3399F0BD
:1002D00094F5873254F4853274F48F3F61F01CF04A
:1002E0008152823008F181E00895823321F0F4F4E4
:1002F00088528230C0F76F37B9F04F37A9F020919C
:100300009006240F40918F06460F61E080E00E9426
:1003100094008F3F49F098E0899FF0011124E05C40
:10032000F84F81E09081911180E00895843319F3B2
:100330008733C9F6E0CF833674F48136E4F68D3521
:100340003CF48B35C4F68B34B1F2853561F6D3CFEE
:100350008E3549F6D0CF8F3671F21CF4873619F6F8
:10036000CACF8657833008F0BECFC5CFCF9388233E
:1003700061F0C62F482F62E181E10E94B100FC01CB
:10038000CF3F29F0C4838FEF8683CF910895858175
:100390008483FACFEBE3F7E083E09081913021F49E
:1003A0009781911101C08783389698E0E33CF90763
:1003B000A1F708958091760881110CC0EDE4F7E073
:1003C00025EF37E080818F5F808338962E173F07B7
:1003D000C9F708958A3091F30895482F20910201BA
:1003E0003091030186B52827C9019695879520FF8E
:1003F00002C024EB92279093030180930201641BB7
:10040000770B0E94F238840F0895EBE7F6E0A7EE31
:10041000B2E060E070E080E00E9408039D01AF015F
:1004200060E00E9424028217930751F4D901FA0177
:1004300060E00E94290281931197D9F761E0F1CF22
:100440000E942F02862F08950E942902982F0C9453
:1004500029020DB407FEFDCF8EB51EBC08950DB464
:1004600007FEFDCF8EB5599A0895EBE7F6E097E0C9
:1004700090933507809336078091C8089091C908FA
:100480006CE070E00E9406398489680F609333073E
:100490008091CA089091CB086FE170E00E94063904
:1004A0008589680F6093340708951F93CF93DF9376
:1004B0008091D7089091D8086CE070E00E940639CE
:1004C000C62F8091D9089091DA086FE170E00E9400
:1004D0000639162F262F4C2F64E084E00E949400EA
:1004E000D82F8F3F59F088E0D89FF0011124EF5B9F
:1004F000F84F8081811102C080E28083212F4FEF6D
:100500004C0F64E084E00E9494008F3F59F098E023
:10051000899FF0011124EF5BF84F8081811102C0A7
:1005200080E2808341E04C0F212F64E084E00E9450
:1005300094008F3F59F098E0899FF0011124EF5B00
:10054000F84F8081811102C080E280838D2FDF917E
:10055000CF911F91089527EE32E0EBE7F6E0A0E09F
:10056000B0E0BD0180E00E9408030E94F702BD01D7
:100570001296A20FB31F8217930799F38F5F9F4FB5
:1005800021F4AF5FBF40DB0178F00E94B60540E088
:100590005091790660917A0680E20E94FC02599A95
:1005A0000E94CD04A0E0B0E07CEF0E94B6054A2F87
:1005B000509179065B0F60917A06611D82E00E947E
:1005C000FC02832F71FD822F70FD81910E94140324
:1005D000759510F42150304019F01196AA2389F72F
:1005E000599A0E94CD0421153105F9F608950E940B
:1005F0002902982F0C942F0259980E941403862FD9
:100600000E941403852F0E941403842F0C9414035A
:10061000462F50917906570F60917A06681F83E044
:100620000E94FC021EBC08958EBD00008EB50DB464
:1006300007FEFCCF08955E98E9E7F2E081E0A0E0D4
:10064000B8E000800EBC8111012C1197A0FDFDCFF8
:100650000192B9F70DB45E9A08956F927F928F92CE
:10066000EF920F933B01882E0E9464030E942402A4
:10067000FC010E942402DC010E945C03482F9B01C4
:100680000E942902082F0E942F02E82ECF01BD01EF
:100690000E947003B301882D675F7F4F8F4FE6FC88
:1006A00005C0E7FEDFCF6627772788270F91EF90F9
:1006B0008F907F906F9008950E942402782F0E945F
:1006C0002902682F892F0895462F50916F02570FE6
:1006D00060917002681F83E00E94FC021EBC0895B6
:1006E0003F924F925F926F927F928F929F92AF92C2
:1006F000BF92CF92DF92EF92FF920F931F93CF930F
:10070000DF935C016B013901842E302E9E2C842FE7
:10071000B9010E9464030E942402482EC82FD92FD9
:100720000E94F702FC019E012A0D3B1D12161306C2
:100730000CF0EBC040E8A416B1040CF0E6C08C0D40
:100740009D1D181619060CF0E0C040E4C416D10433
:100750000CF0DBC0B7FE0BC0EE24FF24EA18FB0848
:100760004E18203831055CF050E8452E08C021387D
:1007700031051CF020E8422E4A18F12CE12CD7FE5E
:10078000D6C0002711270C191D09087FCF01801B37
:10079000910B5E2E501A8134910534F08C2D819589
:1007A000877040E4542E580E1595079515950795BA
:1007B00015950795CF0107969695879596958795F8
:1007C00096958795389E9001399E300D1124200F03
:1007D000311F40E0BE010D2E000C880B0E94DC385A
:1007E000A82FCB018E0D9F1DA11DF7FCAA9594FE8D
:1007F00005C0880F991FAA1FCC0FDD1F24E0620ED1
:10080000711C811C680E791E8A1EC60123E0959515
:1008100087952A95E1F7080F31E0C1FC34E0C0FC70
:10082000330FC2FC329540E80403D0011124AA0D15
:10083000BB1DAE0DBF1DA758BD4F252D599883E098
:100840008EBD80916F0290917002870D981D0DB43E
:1008500007FEFDCF9EBD0DB407FEFDCF8EBD0DB4CE
:1008600007FEFDCF6EBC6C0E7D1E811C0DB407FE15
:10087000FDCF1EBC990C073014F4089430FD889409
:10088000979462E021FD68E022FD629520FF669565
:100890006A9511F028300CF06FEF942D0EB41EBC49
:1008A00093FC0626862F90FC802D92FC0024039E4C
:1008B000A00194FA36F4C895C89511240EB41EBC54
:1008C00090FC082E039E003034F08C9191FE482756
:1008D000402148274C93A058BF4F97FE06C08C91EB
:1008E00091FE5827512158275C931124AF57B040EF
:1008F0009A95A1F6A058BF4FA419B10928500395A5
:100900000DB4599A12160CF499CFDF91CF911F9123
:100910000F91FF90EF90DF90CF90BF90AF909F909E
:100920008F907F906F905F904F903F9008955E2ED4
:10093000813491051CF080E4582E5C1810E000E032
:1009400039CF6091740270917502809176020E9495
:100950002D039B01482FE1E7F2E00780802D822BD9
:10096000832B842B002019F00A9407820AC006808A
:100970000782882319F420813181428123833483C3
:1009800045830895E1E7F2E06083718382836383A6
:1009900074838583468347830895599885E00E9430
:1009A000140380E00E94140380FDFBCF599A089540
:1009B000FC010E942902819361507040D1F7089593
:1009C000409F09F4142E5527020E151E600D711D4F
:1009D000851F11240C9464030F9303E020E00E9410
:1009E000E0040E942402782F0E942F02682F892F92
:1009F0000F910895CF93C82F482F66ED72EF80E0D6
:100A00000E94EC040E94640368E871E08BE397E0C5
:100A10000E94D8040E942F0281E0C23008F480E0D6
:100A20008093E008CF910895EF92FF920F931F9368
:100A3000CF93DF93D0918F06D111D350E3E9F6E045
:100A40008FEF819396E0E33EF907D9F7C0919006C6
:100A5000C150809190068C5FC817B4F5C7FD32C0B5
:100A600000918D064091850666E172EF80E00E945C
:100A7000EC042D2F4C2F0E94E004F12CE12C0C2FC4
:100A80000C2E000C110B82E08E1510F0DD2389F086
:100A90000E94290290919006F801E91BF10924E0D7
:100AA000EE0FFF1F2A95E1F7E557F94FEE0DFF1DF9
:100AB000808F9FEFE91AF90A80E1E816F10419F72F
:100AC0000E942F02CF5FC5CFE3EEF6E080E5819371
:100AD00097E0E333F907D9F7C0919006C1508091B0
:100AE00090068C5FC817B4F5C7FD32C000918D0623
:100AF0004091850666EB71EF80E00E94EC042D2F9B
:100B00004C2F0E94E004F12CE12C0C2F0C2E000C39
:100B1000110B82E08E1510F0DD2389F00E9429026E
:100B200090919006F801E91BF10994E0EE0FFF1F88
:100B30009A95E1F7EE0DFF1DED50F94F80839FEF81
:100B4000E91AF90A80E1E816F10419F70E942F0268
:100B5000CF5FC5CFDF91CF911F910F91FF90EF90A5
:100B6000089559980E941403599A089586E00C94A8
:100B7000B105FC010E94CD05319728F068517C4FEA
:100B80008F4F9F4FF9CFAB01FC010E94CD05641739
:100B900075078E079F07C8F30895ABE6B2E02FB73D
:100BA000F8947D918D919C9166B52FBFA89B05C04F
:100BB0006F3F18F47F5F8F4F9F4F22E0660F771FC4
:100BC000881F991F2A95D1F7089590E00C94B905D4
:100BD0008FB18095807F669B88601C9B84600895A0
:100BE000809164020895E1E5F2E08285082E880F85
:100BF000A681A80FB781B11D8D919C910394A0850A
:100C00000A1608F0002402860895E1E7F0E08081EA
:100C10008D7F8083109291004698479808950F9396
:100C20001F93CF93DF930E94F305811520E892076D
:100C300031F4DF91CF911F910F910C94050697FD30
:100C400005C020916202222309F454C0209163025E
:100C5000211150C021E020936102EC01DF77209741
:100C600009F04BC081E08093600246980FE91FE0D5
:100C7000CAEFD0E0E0914F02F09150020995811146
:100C800003C081E08093600280916102882329F093
:100C900080916002882309F43FC047980E94F305C1
:100CA0002FEF3FEFA901009751F09C01DE010E9458
:100CB000CD3824EF31E040E050E00E94AB38109294
:100CC00090008AE08093910010939900009398001F
:100CD00020935C0230935D0240935E0250935F026A
:100CE00080917100826080937100DF91CF911F919C
:100CF0000F91089510926102B0CF9E0150E040E044
:100D000060E472E48FE090E00E948C388901015029
:100D1000110910926002AECF4699BFCF479ABECF5D
:100D2000E1E5F2E021853285231791F16381748139
:100D300085810E946403231749F10E9424028130B7
:100D400060E8960741F480819181A2818383948336
:100D5000A5831CD0EBCFA681B781A20FB11DA20F36
:100D6000B11D8D939C9323956085261709F420E08F
:100D7000218783819481A5810296A11D8383948319
:100D8000A5833F3FC1F630E03287D5CF0C942F02C8
:100D90000895E1E5F2E06383748385836083718362
:100DA000828311868FEF82870E949006E1E7F0E050
:100DB00080818D7F80830C940F068B35D4F4893528
:100DC00064F4833351F05CF48A3239F024F48F51A7
:100DD000823058F402C0813341F481E008958035B7
:100DE00034F48C34D4F78933C1F380E0089583550B
:100DF000EFCF883691F354F4803679F31CF48D35B7
:100E0000A1F7EBCF8356843080F7E7CF84372CF4FB
:100E100080371CF78D3649F7E0CF8C3731F7DDCFBF
:100E2000CF93DF938091D7089091D8086CE070E061
:100E30000E94063980918F06C62FC81B8091D90861
:100E40009091DA086FE170E00E9406398091900677
:100E5000D62FD81B4DE46D2F8C2F0E94D3000E94FB
:100E6000DD06811123C081E09091C708913009F41B
:100E700080E04DE46D2F8C0F0E94D300C82F0E949C
:100E8000DD06CE3539F044F4CC3321F0C53511F010
:100E9000C43341F483E00BC0C736E1F3CF36D1F35E
:100EA000C236C1F38111F6CF82E001C081E0DF914B
:100EB000CF910895382F262F972F862F6CE070E062
:100EC0000E940639313021F0323041F08FEF089521
:100ED000822F94EF699F800D112408958CE0869FE6
:100EE000800D1124821B0895AF92BF92CF92DF92A2
:100EF000EF92FF920F931F93CF93DF938C01C62F36
:100F000031E0413009F43FEFF801A488B58832039D
:100F100070011124EA0CFB1CC7016CE070E00E9418
:100F2000063980918F06D62FD81B868997896FE165
:100F300070E00E94063980919006D62ED81A413072
:100F400029F0423009F450C091E08CC03D0F82E09E
:100F5000830FCC24CA948F3070F48D2D90E18902D8
:100F6000F0011124E557F94FE30FF11D37FDFA9514
:100F7000E559FF4FC080B70181E00E945A07CB308E
:100F800010F52C2F30E0F901E853F84F0C941A3982
:100F9000F007E507F007E807D307E307E307E307F0
:100FA000D307E507F007E21AF30AF80183854685BF
:100FB00050E0FCE08F9F400D511D112491E0E4169C
:100FC000F5060CF04FC090E04DC0863008F0BCCF65
:100FD00000E021E04D2D6D2F8C2D0E940B0159C09A
:100FE0008A3008F0B1CFF4CF3D0F82E0830FCC24DC
:100FF000CA948F3070F48D2D90E18902F001112494
:10100000E557F94FE30FF11D37FDFA95E559FF4F0D
:10101000C080B50182E00E945A07B82ECB3098F606
:101020008C2F90E0FC01E95EF74F0C941A394D08C3
:101030003E084D0860082208E307E307E30722089B
:101040003E084D08E80EF91EF8018385278530E03B
:10105000FCE08F9F200D311D112491E02E153F05DE
:101060000CF4B1CF892FDF91CF911F910F91FF9099
:10107000EF90DF90CF90BF90AF90089500E022E016
:101080004D2D6D2F8C2D0E940B0196E09B1508F4C1
:101090005BCF91E0882331F396CF00E022E04D2D25
:1010A0006D2F8C2D0E940B01B7FC4ECFE9E0EB15A4
:1010B00084F7FAE0BF1248CF91E0823099F683CFEF
:1010C00000E022E087CF8C3722E0920729F08F30B2
:1010D000934011F080E0089581E008952091C308C5
:1010E0003091C4082A3792E0390768F02D3792E032
:1010F000390728F02E5033402230310520F494EF88
:10110000980F933040F0482F68E47BEF80E00E9416
:10111000EC040C94C9060895EF92FF921F93CF93AD
:10112000DF93FC018081282F30E08A3130F08A3251
:1011300050F08E54803108F446C0DF91CF911F915A
:10114000FF90EF900895418182ED840F8630A8F7DB
:10115000C9014A97EC0197FD2396D595C795D5957A
:10116000C79564E070E00E940639182F81E0413392
:101170000CF480E0CF3F09F3CC0F895EC80F88E004
:10118000C89FE0011124C25CD84F888190E0012EF5
:1011900002C0959587950A94E2F780FDCECF7F0136
:1011A00088E10E946E0821E030E001C0220F1A950C
:1011B000EAF78881822B88838CEFF701818385E0B1
:1011C00080934907BACF418182ED840F863008F0C1
:1011D000B4CFC9018E549109EC0197FD2396D595A2
:1011E000C795D595C795CC5FBCCFFF920F931F9342
:1011F000CF93DF93F82EEB018A01BA016150710998
:10120000660F771F072E000C880B625C724C834FB1
:101210000E9464030E942902082E000C990B21E011
:10122000F21639F121E030E0829FA001839F500D3A
:10123000929F500D112417FD1FC001E010E0409F48
:10124000C001419F900D509F900D11249983888378
:101250000E942902282F2003C001219F900D1124F4
:101260009B838A83DF91CF911F910F91FF900C9404
:101270002F022FEF3FEFD8CF0FEF1FEFE0CF0F93ED
:10128000880F41E0480F04E020E063E070E98EE061
:101290000E94E0040E942402BC010E94F702AC01FB
:1012A000BB27A72F962F852FBC018A2F0F910C9457
:1012B000C204AEE4B7E0E0E08C91893009F0EF5F62
:1012C000189687E0A63FB807B9F7F0E0E754FF4F5C
:1012D000849108950F931F93CF93DF93DC01211521
:1012E0003105B1F0CD91DC91119782E08EAF0CAD5C
:1012F0001DAD0E31110561F0C801880F991F8C0FCB
:101300009D1FFC0131832083F8013196FDAFECAFC6
:1013100082E06417750708F1ED91FC9184AD95ADFD
:101320008E31910571F0DC01AA0FBB1FAE0FBF1FFC
:1013300022273327241B350B2D933C93019695AF21
:1013400084AF4F5F5F4F6417750740F782E086AF49
:10135000DF91CF911F910F91089546175707C0F362
:10136000ED91FC91119786AF24AD35AD2E3131054D
:1013700059F0E901CC0FDD1FCE0FDF1F59834883E1
:101380002F5F3F4F35AF24AF41505109E6CFAB013E
:101390001092E20830E020E0BC018BED98E00C9464
:1013A0006A09CF93C82F80E00E946E08E091DB08A5
:1013B000F091DC0815AE14AE6CE772E08AE792E0BB
:1013C000CC2321F06FE073E08EE093E00E94C70928
:1013D0001092D3088091CA089091CB08209187067B
:1013E00021111CC020918606211118C021E02093F4
:1013F000370727E22093390724E120933807883301
:10140000910551F08735910539F0499719F480E33A
:1014100080933A07CF91089581E0FACF1092370771
:1014200028E1E8CF262F482F69E189E10E94940046
:101430008F3F69F098E0899FF0011124E25CF84F3A
:1014400080818B5F8B3018F481E00C94D109089572
:101450009A011092E208AB01BC018BED98E00C946C
:101460006A09DC01ED91FC9182E086AF84AD95AD17
:101470008E31910561F0DC01AA0FBB1FAE0FBF1FBB
:101480006D937C93019695AF84AF81E0089580E0E1
:101490000895FF920F931F93CF93DF938C01EB017D
:1014A000FC016081718180E0605E754C834F0E9419
:1014B00064030E942902F82E0E942F022F2D215032
:1014C000330BC901B901660F771F680F791F072E0B
:1014D000000C880B625F7B4B834FF801948111E015
:1014E000913009F41FEF0E9464030E942902819F3A
:1014F000802D112488830E942902189F802D112499
:1015000089830E942902189F802D11248A830E94BA
:101510002F028981813811F48FE78983898182388C
:1015200011F48EE78983DF91CF911F910F91FF9086
:1015300008957F928F929F92AF92BF92CF92DF9247
:10154000EF92FF920F931F93CF93DF9300D01F92E0
:10155000CDB7DEB7782EC090D708D090D80880904D
:10156000D9089090DA08BE016F5F7F4F83EC98E056
:101570000E94490A1A81E0908F06C601810F911DD1
:1015800017FD9A952CE0A22EB12CB5010E940639C8
:10159000F62EFE18C4016FE170E00E9406398091BA
:1015A0009006062F081B4DE4602F8F2D0E94D3005C
:1015B0001F3709F477C0402F6F2D0E946601182F46
:1015C0008130A1F18B819601280F311D87FD3A955D
:1015D000C901B5010E940639162F1E194DE4602F6E
:1015E000812F0E94D300402F612F0E946601182F87
:1015F0008130E1F07720D1F0E090C7086091D70802
:101600007091D8088E2D0E945A07823079F481E0BB
:1016100032E0E31280E04DE4602F8F0D0E94D30092
:1016200091E0E916A9F022E0E21679F1812F0F90FE
:101630000F900F90DF91CF911F910F91FF90EF903E
:10164000DF90CF90BF90AF909F908F907F90089544
:10165000853531F06CF4843319F024F4823331F49D
:1016600012E0E4CF8733E1F38C33D1F310E0DECF27
:101670008736B1F32CF48E3599F38236B9F7F0CF73
:101680008F3671F3863791F7EBCF8D3549F32CF414
:10169000893331F38C3451F7E3CF803609F3863642
:1016A00029F7DECF11E0C2CF2F923F924F925F9287
:1016B0006F927F928F929F92AF92BF92CF92DF9262
:1016C000EF92FF920F931F93CF93DF93CDB7DEB7C7
:1016D000A2970FB6F894DEBF0FBECDBFF090A70162
:1016E0008091A6018095482E4F208091C30890914B
:1016F000C40883509340512C089708F44CC0809143
:10170000CA089091CB0820919106AC01421B510967
:10171000473551050CF4FEC02091900630918506A6
:10172000363099F4263089F4E091DB08F091DC083A
:1017300015AE14AE67ED72E08BED98E00E94310AB1
:101740008CE080939006512C15C09093CD08809327
:10175000CC088D5591099093CB088093CA082D5FD2
:10176000209390060E941405109291061092920602
:10177000552453948091CA089091CB082091CC08AD
:101780003091CD08293331050CF069C1C9971CF09F
:1017900084E0809392068091AC01882319F08150F7
:1017A0008093AC018091AA01882319F08150809325
:1017B000AA018091AA01863451F446E060E682E0F5
:1017C0000E94B1006FEFFC0183810E94B60120915D
:1017D000900630918F068091DD08882319F08150A2
:1017E0008093DD088091DE08882319F08150809372
:1017F000DE08E091DB08F091DC0886AD882309F46F
:1018000033C1815086AF8091C8089091C908FCE02F
:101810003F9F800D911D11249093D8088093D70885
:101820008091CA089091CB083FE1239F800D911DC4
:1018300011249093DA088093D908E091E308F0919D
:10184000E40886AD882309F411C1815086AFEAEE21
:10185000F8E082E699E020813181308B2787228170
:101860003381328B218B78968E179F07A1F7809159
:101870009206833009F4FCC0843059F480919106BB
:101880008F3138F48F5F809391068F3111F410926D
:1018900092060BE716E01C8E26E0A22EB12C3CE04F
:1018A000232E312C40E6E42ED801A054BF4F4C919A
:1018B000403609F4F4C08091A8019091A9019C01DF
:1018C00023703327EFEFE40FEE3108F0E8C0F0E0CB
:1018D000E459F34F0C941A39860E530F530F670FC8
:1018E0004F0D4F0D530F530F530F4F0D530F4F0D00
:1018F0004F0D4F0D4F0D2B0E3B0E3B0E4F0D250F79
:10190000250F350F440F4F0D440D2B0E4F0D4F0D6E
:101910004F0D3B0E382F321B37FF15C09093CD086B
:101920008093CC08835A9F4F9093CB088093CA082A
:10193000809190068350809390060E9414058FE159
:101940008093910613CF8091C8089091C90897FFA2
:1019500049C088589F4F9093C9088093C8088091C8
:101960008F068A5080938F060E9414058091850609
:101970008D3009F0FDCE80918F068111F9CE8091D6
:1019800090068111F5CE83E0809381068FE08093ED
:1019900061098EE10E943F0990917D068091870642
:1019A000981740F098131AC020917E0690918606F1
:1019B0002917A0F491E090937C0680937D06809196
:1019C000860680937E068091880690E0909380063C
:1019D00080937F0610927B060E94AB0289E00E94F2
:1019E0006E08C6CE893791050CF4ADCE88579109A3
:1019F0009093C9088093C80880918F06865F809372
:101A00008F060E94140580918506883009F0B0CEBB
:101A100080918F06883209F0ABCE8091900683309A
:101A200009F0A6CE8091AA018111A2CE8091AB01CE
:101A30008F5F8093AB01833008F49ACE46E062E179
:101A400081E10E94B100DC0113968C91811190CE4E
:101A500060EF8AEA0E94ED018093AA0189CEC997BE
:101A60000CF099CE83E095CE82E0CCCE82E0EECE33
:101A700080919106882309F40CCF815080939106C0
:101A8000882309F404CF05CFF801ED53FF4F80817F
:101A90008F5F883211F0808302C04BEF4083085F74
:101AA0001F4F23E038E02017310709F0FDCE2091C9
:101AB00035078091A8019091A901222329F080FD8A
:101AC00003C021502093350783709927892B39F45F
:101AD00080913807823018F08150809338073C8D10
:101AE0003130D9F48091C3089091C4088C5A924047
:101AF0004E9798F080E00E9435028091D3088823A9
:101B000019F081508093D3088091D308811102C0CD
:101B10000E94D1098FE00E946E0880918106873073
:101B2000F1F08091A8019091A90120918206309155
:101B30008306821B930B6DE270E00E94F238892BC2
:101B400071F4809186068111E8C18091870688230F
:101B500031F08150809387068BE3809386068091D5
:101B60008A06882319F0815080938A06809187061F
:101B7000811113C08091860681110FC083E080938C
:101B8000810681E18093610983E10E943F0980E839
:101B9000809301018BE00E946E088091AE0181303C
:101BA00009F4BDC1823009F4C5C12091E308309128
:101BB000E408D901DC96CD90DC9060905E09E0915C
:101BC0005D09ED8FE0908F062E2C312CF9E02F0E61
:101BD000311C70909006872C912C42E0840E911C51
:101BE0008091D9089091DA086FE170E00E9406397F
:101BF000A62E660FBB08E5EFF8E040E01C8E0CE077
:101C000010E05D8D541709F4B7C140935E098281DD
:101C10008111ACC184819581B8010E940639868109
:101C200097816E1508F494C16215130411F00CF03D
:101C30008FC16FE170E00E940639671508F488C112
:101C40007727861697060CF483C16A157B0509F47D
:101C500090C181E07EC180FD22CFF801EA53FF4FA1
:101C60008081833009F01BCF319780818B3008F061
:101C700016CF8F5F10CF232B09F011CF680154ECE2
:101C8000C50ED11CD6018C91282F30E0285F3F4F24
:101C9000F801EA53FF4F90819217130609F0D4F42C
:101CA0004801B3EC8B0E911CF4018081893058F40B
:101CB000811105C064E079EF80E00E94C906D4017B
:101CC0008C918F5F8C93D6018C91882309F4E7CE99
:101CD000815017C081508930B0F74231A1F36801BB
:101CE000B3ECCB0ED11CF6018081893029F466EC6F
:101CF00078EF80E00E94C906D6018C91833018F0FD
:101D000083508C93CCCEF6011082C9CE232B41F4A4
:101D1000F801E953FF4F8081882311F081508083BF
:101D2000F801EA53FF4F8081823010F081508083A8
:101D30008081813009F0B3CEF801EB53FF4F9081E1
:101D40009E5F908332978081981708F4A8CE8E3FCB
:101D500011F4EC92A4CE3801E2EC6E0E711CF3018A
:101D600020812F5F6FE10E94E638280F2083F3E186
:101D7000FC93480121EC820E911C8091D708909130
:101D8000D808B1010E940639062E000C770BD40149
:101D90008C918617170691F48091D9089091DA08F2
:101DA0006FE170E00E940639062E000C770BF301FC
:101DB00080818617170611F4F1E0FC8F809185066B
:101DC0008B30B9F4EBE3F7E080818250823058F435
:101DD0009181D4018C91981306C09281D3018C918A
:101DE000981301C0E0823896B8E0E33CFB0761F746
:101DF00056CE863009F053CE9BE3C92E97E0D92EFC
:101E0000F60180818230C1F49181D4018C919813C4
:101E100013C08281F3019081891B990B029605976B
:101E200058F443E062E181E10E94B100DC011496C4
:101E30001C92149716961C92B8E0CB0ED11CE3ECC2
:101E4000CE16E8E0DE06E1F62ACEB5010E94F238B1
:101E5000892B09F024CEF801ED53FF4F81E09081EA
:101E6000992309F418CE80E016CEB5010E94F2380D
:101E7000892B09F014CEF801ED53FF4F80818F5F5D
:101E8000863009F008CE40CFB5010E94F238892B88
:101E900009F005CEF801ED53FF4F80818F5F873049
:101EA00009F0F9CD31CF232B09F0F9CDF801E95331
:101EB000FF4F8081823010F081508083808181309B
:101EC00009F0EDCDD801AA53BF4F1C921DCF232B93
:101ED00009F0E5CDF801EA53FF4F8081843070F4BA
:101EE000813008F4DCCD81508083F801EC53FF4F42
:101EF0008081882309F4D3CD8150CDCD92EE980F07
:101F000081508083933008F0CACDF801EC53FF4F25
:101F10008081833008F0C3CDACCE81501ECE80913D
:101F2000AF0184508093AF01863509F03ECE109208
:101F3000AE013BCE8091AF018C5F8093AF018238C0
:101F400009F033CE1092AE0185E0809381062DCE4C
:101F500080E09081911107C090915F09992319F059
:101F6000915090935F0981110C9448294F5F7896A6
:101F700048CE61E06C8F6DCE8C8D1C8E60925E09B8
:101F8000552009F47AC19C8D992309F47BC18C8F6B
:101F9000A0915E096A2F70E088E1A89FD00111240A
:101FA000AB51B74F50969C915097992309F441C07B
:101FB0004091D7085091D808869FF001879FF00D77
:101FC0001124ED51F74F6689778915960D911C9173
:101FD0001697178B068BF90115AE14AEE0915E09CA
:101FE000E89FF0011124EB51F74F22E130E03183FB
:101FF0002083461B570B90918F06E0915E09E89F66
:10200000F0011124EB51F74F57FF24C11C962C917E
:1020100030E04CE0949F200D311D11243683258340
:10202000E0915E09E89FF0011124EB51F74F81E048
:1020300084833324339442FE2EC0332061F17C8D9F
:10204000772349F18091E008882329F18091C30822
:102050009091C4084297F9F4E091DB08F091DC0814
:1020600084AD95AD892BB9F4E0915E0988E1E89FD4
:10207000F0011124EB51F74F8089882361F08389A7
:10208000843049F046EF52E06CEF72E087EF92E067
:102090000E94280A412CE091E308F091E40884AD05
:1020A00095AD892B21F5332011F19C8D91111FC025
:1020B000E0915E09A8E1EA9FF0011124EB51F74F8E
:1020C000808191818F3FB2E09B0739F08230E3E05D
:1020D0009E0719F0863F924051F422E130E04DE82E
:1020E00052E064E872E083EE98E00E946A09809111
:1020F0008106853009F05AC0E091E308F091E408C8
:1021000084AD95AD892B09F051C040915E09842FB3
:1021100090E068E1469FA00111244B51574FDA012E
:1021200052962C915297211141C014961C911497EC
:102130001123E1F153962C912230C1F12430B1F1F9
:10214000689F9001699F300D1124FA0178E1DE014A
:10215000119601900D927A95E1F7F901ED51F74F43
:10216000C090D708D090D8080688F789E02DCE1AFD
:10217000DF0A0196689FF001699FF00D1124ED516F
:10218000F74F6091D9087091DA0880819181681BBE
:10219000790BFA0180819181863FF2E09F0709F473
:1021A000E1C008F071C0429709F49DC08091AC0174
:1021B0004F2D4071942E811145C08091810685304C
:1021C00009F040C0E091DB08F091DC0884AD95ADEA
:1021D000892BC1F58091D7089091D8086CE070E008
:1021E0000E940639262F8091D9089091DA086FE174
:1021F00070E00E940639362F422F022E000C550B3C
:1022000080913C0790E0FC0131974E175F0709F081
:1022100045C270913D07E62F062E000CFF0B7E177E
:102220001F0611F00C94A02970914107733011F032
:102230000C949B298091C708813009F493C38230A4
:1022400009F4FEC1992009F436C3F8C68C8D71E0FB
:102250007C8F94CE1D962C9130E05CE0959F200DF4
:10226000311D112436832583E0915E09E89FF0013A
:102270001124EB51F74F82E0DBCE6C8D662311F019
:102280008C8FD7CE312CD7CE8F3F32E0930721F001
:102290008230934009F08ACF672B09F087CFD7FEB1
:1022A00003C0D194C194D108D7FC0AC0E5E1CE1691
:1022B000D1040CF450C0FFE1CF16D1040CF442C09D
:1022C00020E04D8164E0CE0101960E9474078823CE
:1022D00009F441C04FEF52E06DEF72E083EE98E0F9
:1022E0000E94BC2E63CF55E4C50ED11C8BE8C816E6
:1022F000D10408F05BCF672B09F058CF332009F4E5
:1023000055CF9C8D992309F451CF8091C3089091AA
:10231000C4088A37A2E09A0750F08D37B2E09B07D5
:1023200008F444CF8E509340029708F43FCF26EF35
:1023300032E04CEF52E067EF72E083EE98E00E94EB
:102340006A0934CF8091C3089091C408865F924097
:10235000489708F0B5CF66EF72E083EE98E00E94F0
:10236000310A24CF1C141D04D4F51130D9F582E0B4
:10237000DA0114968C938091E4088F938091E3089E
:102380008F93EDB7FEB778970FB6F894FEBF0FBEE8
:10239000EDBFADB7BEB7119688E1FE013196019051
:1023A0000D928A95E1F70E94C02E0FB6F894DEBF19
:1023B0000FBECDBF8091C3089091C408865F924044
:1023C000489710F00C9451298091C708823009F089
:1023D000EDCE81E08093C7080E94642EE7CEC11441
:1023E000D104E1F48091C3089091C408853033E0B2
:1023F000930708F049C08330A3E09A0708F07AC039
:102400009C012A5732402330310508F049C022E1AF
:1024100030E04DE852E064E872E08FCF123011F7FF
:1024200081E0FA0184838091E4088F938091E3082E
:102430008F932DB73EB7285131090FB6F8943EBFA0
:102440000FBE2DBFADB7BEB7119688E1FE01319624
:1024500001900D928A95E1F70E94C02E0FB6F89474
:10246000DEBF0FBECDBF8091C3089091C408865FC8
:102470009240489710F00C945C298091C7088130F5
:1024800009F094CE82E0A6CF8730B3E09B0708F432
:1024900073C09C012E5033402230310508F4B7CF71
:1024A000672B09F083CED7FE03C0D194C194D10825
:1024B000D7FC06CFA5E1CA16D1040CF464C0B1E381
:1024C000CB16D1040CF0FCCE60E180E00E94ED015F
:1024D000882309F4F5CEE0915E0928E1E29FF0013E
:1024E0001124EB51F74F808191818F3F924009F089
:1024F0005DCE31CF6CE080E00E94ED01811115C00E
:10250000E091DB08F091DC0815AE14AE46EF52E026
:102510006DE073E08BE093E00E94280A26EF32E042
:102520004DE053E06BE073E008CF6CE080E00E9488
:10253000ED0181113BCE8091E4088F938091E308F7
:102540008F936DB77EB7685171090FB6F8947EBF4F
:102550000FBE6DBFADB7BEB7119688E1FE013196D3
:1025600001900D928A95E1F70E94C02E0FB6F89463
:10257000DEBF0FBECDBF1ACE68E080E00E94ED0145
:10258000811114CEBDCF8330E3E09E07F0F4863F87
:10259000F2E09F0738F58A579240039708F406CE79
:1025A000DA0115962D913C9180918F06BCE08B9FAE
:1025B000C0011124281739070CF4F8CD80579F4F1C
:1025C000821793070CF4F2CD34C08B3023E09207CE
:1025D00038F38E3033E0930728F08031934008F4CD
:1025E000E5CDDECFDA0115962D913C9180918F06D5
:1025F000BCE08B9FC0011124281739070CF4D6CDFD
:1026000080579F4F821793070CF4D0CD60E180E094
:102610000E94ED01882369F0E0915E0928E1E29FC4
:10262000F0011124EB51F74F94818091C708981362
:10263000BDCD26EF32E04AE053E063E073E07DCEAB
:1026400067ED72E08AEC92E00E94C70980918F06E4
:102650006091C8087091C9085CE0859F600D711D8C
:1026600011248091C7080E945A07863091F08A3061
:1026700051F0823009F0E6CD61E072E08CEF91E03C
:102680000E94C709DFCD61E072E08CEF91E00E940B
:10269000C70967EE71E081EE91E0F2CF4817590764
:1026A00011F00C94A02970913D07862F062E000C86
:1026B000990B7817190611F00C94A0298091410705
:1026C000833011F00C94A02947EE54E063E370E0EE
:1026D0008FE290E00E94280A8091C708813011F1B2
:1026E000823009F0AFCD67ED72E08AEC92E00E9493
:1026F000C70980918F066091C8087091C908ACE045
:102700008A9F600D711D11248091C7080E945A078D
:10271000823009F1863009F095CD6CEF71E081E0EF
:1027200092E0AECF80918F066091C8087091C90881
:102730009CE0899F600D711D112481E00E945A0761
:10274000863009F499CF8A3009F07CCD67EE71E0CC
:1027500080EE91E095CF60EE71E087EE91E090CF52
:102760008131910511F40C94C729429709F06ACD83
:1027700070908F066CE0769E50011124C090C808BE
:10278000D090C908B5016C0D7D1D802F0E945A079D
:102790008C3008F04AC0E82F880FFF0BEE52FC4E39
:1027A0000C941A394A140E14151446144A140E14B3
:1027B000151446144A140E14151446148233B2E04C
:1027C0009B0709F4E8C3D0F48E32910509F41FC3C6
:1027D000803E914009F036CDFE2009F4B2C320E0DE
:1027E000402F62E083EC98E00E947407882309F48C
:1027F000A8C369E070E085E090E042CF863F32E018
:10280000930709F44DC48D3143E0940709F4FFC2E6
:102810008D37924009F016CD0C94C7297FEFC71A67
:10282000D70AD092C908C092C80860909006C0909C
:10283000C808D090C908CA0CDB1CD092D808C09236
:10284000D708A090CA08B090CB08AFE16A9EA00C50
:10285000B11C1124B092DA08A092D908EF2009F433
:102860007FC020E0402F9920C9F061E083EC98E020
:102870000E947407882309F48EC142E150E061E0B0
:1028800072E08CEF91E00E94280ADCCC81E0C81A4B
:10289000D108C7CF92E0C90ED11CC3CF60E083EC52
:1028A00098E00E947407882349F060EE71E08BED98
:1028B00098E00E94310A10928906C0C320E0402FA0
:1028C00061E083EC98E00E9474078111D6CFF7FE97
:1028D000F2CF802F0E94622CE82F813040F08330AD
:1028E00008F4C1C189EF8E0F833008F4BCC182E0C7
:1028F000013009F081E00E94622C282FC6016CE0B3
:1029000070E00E940639E62EC5016FE170E00E947A
:102910000639E5E0213009F4A6C1E7186094660E97
:102920004DE4662D81E08E0D0E94D300182F4DE4FA
:10293000662D8E2D0E94D300F82E4DE4662D8FEF6C
:102940008E0D0E94D300E82EB601802F0E945A07F8
:10295000013009F474C1023009F4C3C1E3E083C15A
:102960001F2139F047EE54E063E370E08FE290E01E
:102970008ACFF3FE0DC1C6016CE070E00E940639FB
:10298000E62EE718C5016FE170E00E940639F62EC9
:10299000F618B601802F0E945A07182FDD24DA940A
:1029A000013011F0DD24D394ED0C402F6F2D8E2DCE
:1029B0000E94BD2A89A36D2C6E0C402F6F2D862D91
:1029C0000E94BD2AC82E7D2C760C402F6F2D872D9E
:1029D0000E94BD2A8D8FD70C402F6F2D8D2D0E9408
:1029E000BD2A8F8FBB24B394BF0C402F6B2D8E2D2F
:1029F0000E94BD2AA82E402F6B2D862D0E94BD2A35
:102A0000282E402F6B2D872D0E94BD2A582E402F37
:102A10006B2D8D2D0E94BD2A88A36F2D8E2D0E94B7
:102A2000DA2A8AA36F2D862D0E94DA2A882E6F2D2E
:102A3000872D0E94DA2A082F6F2D8D2D0E94DA2A09
:102A4000F82E6B2D8E2D0E94DA2AD82E6B2D862D16
:102A50000E94DA2AE82E6B2D872D0E94DA2AB9A16E
:102A6000B11182C0C11013C0811011C0002379F0D0
:102A700068E0163011F40C94F22969E01A3011F470
:102A80000C94F229123019F465E00C94F2291230FA
:102A900019F0163009F03CC0C1101BC0ED8DE111DA
:102AA00018C0FF8DF11115C0A11013C0211011C065
:102AB00051100FC028A1222361F081100AC001111A
:102AC00008C06AE0123011F40C94F2296BE00C9407
:102AD000F229123011F01630D9F4C11040C03D8DEA
:102AE00031110C942F2A4F8D41110C94E029A11023
:102AF0000AC0211008C0511006C0811004C0011185
:102B000002C0F110DECF123029F4AA2029F0BCCF88
:102B1000C11025C0A1102BC0222061F01630A9F1F0
:102B200064E01A3011F40C94F229123001F562E0DD
:102B30000C94F22951101BC06AA1611118C08110B8
:102B400016C0D11014C0E11012C0882381F01630D5
:102B500019F01A3009F098CF66E00C94F2298FEF43
:102B60008C0D823008F090CF60E00C94F2297D8DBE
:102B7000772309F489CF1630D1F21A3031F01230B0
:102B800009F082CF61E00C94F22963E00C94F22901
:102B9000992009F49CCE82E0013009F081E00E9486
:102BA000412D182F8FEF810F8230B8F0802F0E94B7
:102BB000412D813089F0823029F111110EC08091B0
:102BC00089068F5F80938906843009F037C263E0FD
:102BD00070E081E090E054CD13E040E250E061E12C
:102BE00072E08FE192E00E94280A133069F01430FD
:102BF000B9F0123089F442E150E06CEF71E081E00D
:102C000092E008C014E0E9CF47EE54E063E370E0DF
:102C10008FE290E00E94280A86E98093DD0812CBBB
:102C200047EE54E063E370E08FE290E00E94280AF0
:102C300042E150E061E072E08CEF91E0EBCF8A304E
:102C400009F047C01C3509F489CEA4F5173329F0E3
:102C500044F5123311F0143359F5812F0E94DD062B
:102C6000E6E0811125C0C6016CE070E00E940639E3
:102C7000462FC5016FE170E00E9406392FEF260F45
:102C8000E250E83008F059C0F0E0E75BF94E0C94F0
:102C90001A39EA16C016A416F5160217AD16CE1686
:102CA000C3161B3409F45ACE1535B9F21C33A9F2F8
:102CB000E4E0D9CF15362CF412367CF61E35C1F778
:102CC000CCCF1F3651F2163709F4C7CF173681F72C
:102CD000C4CFBBE4FB1609F441CEECE5FE12E8CF0D
:102CE0003DCE8A3011F5FCE4FF1661F0FF1564F06B
:102CF00029E3F21639F03BE4F31609F42FCE43E34F
:102D0000F412D6CF8E2DAACF5DE5F516D9F35F1557
:102D10002CF06CE5F61609F421CECACF70E6F71652
:102D200089F386E6F812C4CFEDCF9BE4F91609F4D7
:102D300015CEACE5FA12BCCF11CE60E270E083E1B3
:102D400090E00E94C709B7CD42E150E065EF72E024
:102D500083EE92E00E94280AAECD61E0013009F4D2
:102D60006FEF460F61E080E00E9494008F3F41F0DA
:102D7000B8E08B9FF0011124EF5BF84F8CE6808365
:102D80000E94562E98CD61E080E00E9494008F3F13
:102D9000B9F328E0829FF0011124EECF61E0013009
:102DA00009F46FEF460F61E080E00E9494008F3FCE
:102DB00041F038E0839FF0011124EF5BF84F8CE67F
:102DC00080830E94562E42E150E061E072E08CEF79
:102DD00091E0C0CF60E270E083E190E00E94C7091B
:102DE00061E072E08CEF91E0ACCF60E270E083E1F3
:102DF00090E00E94C70947EE54E063E370E08FE281
:102E000090E0A8CF6EE270E081E290E09ACF992046
:102E100069F180918506873051F480918F068A3060
:102E200031F480919006811102C010928A060E94AE
:102E30001007823099F0833051F0813009F002CAD6
:102E400042E150E066E072E082E092E01CCD42E1B7
:102E500050E06BE072E087E092E015CD81E0809376
:102E6000DF0860E172E08CE092E00ACCF7FE59C026
:102E700080918F063091900690918506973029F4C5
:102E80008A3019F4332309F44CC0013029F00230A0
:102E9000A9F160E020E004C0281B932F9095690FF2
:102EA00090E0820F911D27FD9A95232F30E0260F89
:102EB000311D67FD3A95EBE3F7E050E040E06081BB
:102EC000613111F06E31E9F4618168171906C9F4B6
:102ED000628162171306A9F4B3E0440F551FBA9537
:102EE000E1F7FA01E25CF84F8081893089F442E130
:102EF00050E06FE172E081E192E02CCF281B2F5F60
:102F0000CCCF4F5F5F4F389641335105C1F6EFCFBD
:102F10008F3F69F342E150E06BE372E083E392E0BC
:102F200019CF8091DD088111C6CC0E941007823034
:102F300009F494CF833009F48ACF813009F0BBCCF7
:102F40007FCF42E150E067EE71E081EE91E09BCCF3
:102F5000EF20E1F0F3FE05C08C8D83210E94E12D6E
:102F600071C920E0402F63E083EC98E00E94740771
:102F7000882329F061E170E08EE090E081CB42E1AE
:102F800050E06CEE71E088EE91E07DCCF122B9F377
:102F90000E94A32E57C98091DE08811153C9911058
:102FA00007C042E150E06BE272E082E292E0D2CEF2
:102FB000013009F062C0F5FC65C0F3FE3FC0EBE3F1
:102FC000F7E0F12CE12C632F032E000C770B8081AE
:102FD0008451843050F491819417150631F4928114
:102FE0009617170611F40C9464298FEFE81AF80A63
:102FF000389691E3E916F10451F78BE796E0F12C4E
:10300000E12C232F330F330BFC01E054FF4F608181
:103010006B3161F4319660816417150639F431968D
:1030200060816217130611F40C947D29AFEFEA1A40
:10303000FA0A0896B1E3EB16F10431F780918106A4
:10304000873009F4CBC0883009F42FC1853009F0EE
:1030500049C142FE47C1E091DB08F091DC0884AD34
:1030600095AD892B09F03EC187E08093810681E010
:103070008093AE011092B00135C1023009F09DCFAE
:10308000F6FE9BCF20E0402F69E083EC98E00E94A1
:103090007407882399F262E372E08CE292E0F0CA4E
:1030A000F3FE3CC042E150E06DE872E084E892E05B
:1030B0000E94280A809185068C3009F0C3C8E091EF
:1030C0005E0928E1E29FF0011124EB51F74F83895B
:1030D000833009F0B7C880819181863F32E0930741
:1030E00008F4B0C8833043E0940728F08B50934035
:1030F000039708F0A7C884E0838BE091E308F09180
:10310000E40815AE14AE22E130E04DE852E064E888
:1031100072E083EE98E00E946A0994C846EF52E09C
:103120006AE073E083E093E0F2FCADCBF7FE25C0EC
:10313000E0915E0958E1E59FF0011124EB51F74F52
:103140008081918184509340039780F4E091E3085B
:10315000F091E40815AE14AE26EF32E04DE053E0F6
:103160006BE073E083EE98E00E946A0946EF52E05C
:103170006DE073E08BE093E086CB1E291F2109F4FC
:1031800061C8F6FE02C0023021F0F5FE13C0013026
:10319000A1F420E0402F61E083EC98E00E947407E6
:1031A000882309F44FC846EF52E06FEF72E08DEFCD
:1031B00092E069CB42E0013009F041E024E061E0B7
:1031C00083EC98E00E947407882309F43BC846EF1B
:1031D00052E062E073E080E093E055CB47FE07C029
:1031E0008091B001882319F081508093B00144FE92
:1031F00018C01091B00180917B06811106C0123079
:1032000080F41F5F1093B0010CC01330D0F3133063
:1032100041F48091C3089091C4080E9463088823F8
:1032200081F3842D8C7009F45DC08091C308909166
:10323000C4080E9463081091B001882321F0809196
:103240007B06811113C0123019F130F41123C1F043
:103250001130D1F0412C46C0133081F01430D1F739
:1032600088E0809381061092B001F4CF113061F0B4
:1032700038F0123019F0133099F3ECCF0E940502A8
:1032800082E08093AE01E6CF82E080938106E2CFB8
:1032900081E080937B06809188068F5F809388060B
:1032A0000E94AB021093AE01D5CF47FE07C08091BC
:1032B000B001882319F081508093B00144FE07C00B
:1032C0008091B001811103C081E08093B001842D11
:1032D0008C7041F08091B001882309F447C181309E
:1032E00009F448C1E091DB08F091DC0886AD81115A
:1032F00065C584AD95AD009709F401C7019795AFF9
:1033000084AF880F991FE80FF91FC080D180760124
:10331000D7FE04C0EE24FF24EC18FD08F092C40888
:10332000E092C30866E7E61662E0F60609F492C387
:103330000CF067C18CE0E81682E0F8060CF02AC1B8
:103340009AE0E91692E0F9060CF021C1A0EEEA1627
:10335000A1E0FA060CF012C1B1E4EB16F1040CF096
:10336000ACC4E4E0EE16F10454F0F2E1EF16F1041F
:103370000CF4A3C422E1E216F10409F46FC34091F6
:10338000C3085091C408BE016F5F7F4F8091C7088A
:103390000E94F50899818FEFD7FE81E0989F902DCC
:1033A00011242091C8083091C908290F311D97FDBB
:1033B0003A953093C9082093C8089B81899F802D36
:1033C00011242091CA083091CB083093CD08209366
:1033D000CC08280F311D87FD3A953093CB082093F8
:1033E000CA08BE01675E7F4F83EC98E00E94490ADD
:1033F0008A8D8E57823008F4E1C4BE01675E7F4F2C
:1034000083EC98E00E94490AC090D708D090D80871
:103410008A8DD601A80FB11D87FDBA95CD017CE03C
:10342000A72EB12CB5010E940639462FE62E8091B9
:10343000D9089091DA086FE170E00E940639F62E03
:10344000062F262F6BE080E00E949400182F8F3FFC
:1034500091F48B8DF601E80FF11D87FDFA95CF01F0
:10346000B5010E940639462FE62E2F2D6BE080E035
:103470000E949400182F809185068C3009F052C06C
:10348000E0915E092E2F30E068E1B62EEB9DF00151
:103490001124EB51F74F8389843009F043C08289AE
:1034A000811140C08091350781113CC0C90101964E
:1034B000B89ED001B99EB00D1124AD51B74F8D917A
:1034C0009C915FE1C52ED12CB6010E940639462F92
:1034D000B29ED001B39EB00D1124AD51B74F569698
:1034E0008D919C912CE030E0B9010E940639E612E2
:1034F00019C0041317C085E08093350782E08093DC
:10350000360785819681B9010E9406396093330799
:1035100087819085B6010E9406396093340786E062
:103520000E946E081F3F09F449C4212F30E0890131
:1035300043E0000F111F4A95E1F7F801E55CF84FF1
:1035400080818C3008F03AC4E82FF0E0E655F54E63
:103550000C941A392F1FB81E341F731F1920AD1F6A
:10356000AD1FDE1EDE1EDE1EFC1F731F10927B06CB
:103570000E94AB0287E0809381067CCD35E0E31AA0
:1035800032E0F30A42E0E416F10408F0F8CE0E94BB
:10359000CA01F5CE53E3E51652E0F50694F46CE269
:1035A000E61662E0F6060CF088C370E1E71672E0FA
:1035B000F70609F427C180E2E81682E0F80639F33D
:1035C000DECE98E5E91692E0F90609F42DC2A7E6E9
:1035D000EA16A2E0FA0609F42DC2B9E4EB16B2E04D
:1035E000FB0609F0CCCE8091D30890E02091D4085E
:1035F00030E00196281739070CF4C9018093D308ED
:10360000BECEECEBEE16E2E0FE0671F10CF078C0F7
:103610002EE9E21622E0F20639F1CCF442E9E41692
:1036200042E0F40609F158E9E51652E0F506E1F04A
:103630006DE7E61662E0F60609F0A1CE8091C708B4
:10364000813009F0DDC082E08093C70898CE7AEA25
:10365000E71672E0F70641F00CF045C094EAE9166F
:1036600092E0F90609F08BCE8091D7089091D808A6
:103670006CE070E00E94063980918F06162F181BAF
:103680008091D9089091DA086FE170E00E940639C4
:1036900080919006062F081B4DE4602F812F0E9419
:1036A000D300402F612F0E946601811123C18091B8
:1036B000DF088F5F8093DF08C701885D9240059720
:1036C00008F013C11092C6081092C5086CEB72E0A6
:1036D00088EB92E00E94C7096DEB72E08BED98E0F9
:1036E0000E94310A4CCEA0EBEA16A2E0FA0609F4D9
:1036F000BBCFB6EBEB16B2E0FB0609F4B5CF3FCE7D
:10370000EDEDEE16E2E0FE06C4F4F8EDEF16F2E0A1
:10371000FF060CF0A9CF28ECE21622E0F20609F42D
:10372000A3CF37EDE31632E0F306D1F042ECE41616
:1037300042E0F40609F023CE97CF57E0E51653E0B8
:10374000F50609F48EC167EEE61664E0F60609F4A4
:1037500044C075EFE71672E0F70609F010CE17CFF8
:1037600083E08093810687E00E946E08E091610902
:10377000EE30A1F487E08093610987E10E943F0960
:103780008091D30880938B068091D40880938C0617
:10379000809185068F5F80938506F1CD81E08E0F45
:1037A00080936109E650E73058F7F0E0E652F44EB6
:1037B0000C941A39BD1BE11BE31BE51BE71BE91B3E
:1037C000EB1B88E1DBCF89E1D9CF8AE1D7CF8BE151
:1037D000D5CF8CE1D3CF8DE1D1CF82E190E0909332
:1037E000C4088093C3088091C708813039F482E00F
:1037F0008093C708E2E1CE2ED12CC1CD81E0F8CF75
:1038000081E022CF81E00E94990A8130D1F068F0F6
:10381000823009F0B4CD6DE173E088E193E00E945D
:10382000C7098AE58093DD08AACD8091DF088F5F04
:103830008093DF0860E172E08CE092E00E94C709AB
:103840009ECD0E9455028F3F09F04DC08091DF0848
:10385000813049F0823081F08091E108811134C0DB
:103860000E94D1098CCD42E150E06BE272E080E22F
:1038700092E00E94280A83CD42E150E06BE272E0C0
:1038800080E292E00E94280A69E772E088E792E00D
:103890000E94C7098091E108811113C08FE00E9446
:1038A0006E0880E00E9435028091D308882319F0C9
:1038B00081508093D3088091D308811102C00E9467
:1038C000D1091092E1085BCD42E150E06BE272E079
:1038D00080E292E00E94280A69E772E088E792E0BD
:1038E0000E94C709EECF83E0BBCFF092C608E092FA
:1038F000C508ECCE0E9455028F3F09F068C0809148
:10390000DF08813049F0823059F18091E10881115E
:103910004FC00E94D10908C042E150E06BE272E062
:1039200080E292E00E94280A6091C3087091C40866
:103930006A3A82E0780769F008F05AC06839A2E074
:103940007A0739F008F045C06239E2E07E0709F0F5
:103950004AC06F5F7F4F8BED98E00E94310A43C0F1
:1039600042E150E06BE272E080E292E00E94280ABD
:1039700069E772E088E792E00E94C7098091E10858
:10398000811113C08FE00E946E0880E00E94350212
:103990008091D308882319F081508093D3088091B7
:1039A000D308811102C00E94D1091092E108BCCF56
:1039B00042E150E06BE272E080E292E00E94280A6D
:1039C00069E772E088E792E00E94C709EECF83E0E2
:1039D000A0CF6E39F2E07F0709F4BBCF643A22E052
:1039E000720709F4B6CF1092C6081092C508C7CC6A
:1039F0006C3B32E0730741F078F4603B52E07507AE
:103A000019F0663B724079F76091C5087091C6085D
:103A10006115710541F39DCF623C92E07907A1F3F6
:103A2000683C724001F7F0CF8091D4088F5F80939B
:103A3000D408E4CD8091D3082091D40830E081509F
:103A4000990B281739070CF4C9018093D308811109
:103A500096CC06CF81E08093E10891CC1092DF08EC
:103A60008ECCE0915E092E2F30E048E1429FD001DC
:103A7000439FB00D1124AD51B74F8091D70890915D
:103A8000D80856966D917C91861B970B4496899722
:103A900008F075CC2F5F3F4F429FD001439FB00D80
:103AA0001124AD51B74F2091D9083091DA088D918A
:103AB0009C912817390709F062CC332009F45FCCB8
:103AC000E49FF0011124EB51F74F8389833009F013
:103AD00051C081E00E94350280E10E946E08809111
:103AE000D308882319F081508093D3088091D3089C
:103AF00081111EC082E00E94D109E091E308F0919B
:103B0000E40815AE14AE22E130E04DE852E064E87E
:103B100072E083EE98E00E946A0922E130E04AE018
:103B200053E068E073E083EE98E00E946A0927CCD6
:103B300080915E09B8E18B9FC00111248B51974F92
:103B4000FC01248142E0213009F041E024E061E001
:103B50000E947407882309F412CCE091DB08F091ED
:103B6000DC0815AE14AE46EF52E062E073E080E090
:103B700093E07FCE85E08093350781E08093360720
:103B8000858196816CE070E00E940639609333076E
:103B9000878190856FE170E00E9406396093340759
:103BA00080E10E946E08E0915E0928E1E29FF00149
:103BB0001124EB51F74F8089882311F08150808BBD
:103BC000808981114BC0809185068C30A9F4E091E9
:103BD0005E0938E1E39FF0011124EB51F74F83892F
:103BE00081110AC08289811107C080914107833009
:103BF00019F083E08093410788E00E946E08E0910D
:103C0000E308F091E40815AE14AE4CE752E06AE721
:103C100072E083EE98E00E94BC2EE0915E0948E1DC
:103C2000E49FF0011124EB51F74F108A80E4809358
:103C30005F09E091DB08F091DC0815AE14AE42E1BB
:103C400050E06DE872E084E892E00E94280A42E1C8
:103C500050E06AE073E088E093E00BCEE0915E090B
:103C600088E18E9FF0011124EB51F74FDE01119690
:103C7000982F01900D929A95E1F79091E4089F9307
:103C80009091E3089F936DB77EB7685171090FB6A5
:103C9000F8947EBF0FBE6DBFADB7BEB71196FE01E3
:103CA000319601900D928A95E1F70E94C02E0FB6D1
:103CB000F894DEBF0FBECDBF62CB80918506843005
:103CC00009F05DCB0091C708013009F058CB809115
:103CD000D9089091DA086FE170E00E9406399B01E3
:103CE0008091D7089091D8086CE070E00E94063966
:103CF0006836710509F043CB232B09F040CBE091E6
:103D00005E0998E1E99FF0011124EB51F74F128908
:103D1000133009F034CB128A28EE34E041E150E050
:103D20006AE070E083EE98E00E946A0941E150E0A9
:103D30006AE070E083EE98E00E94BC2E41E150E022
:103D40006AE070E083EE98E00E94BC2E49E050E00B
:103D500064E070E083EE98E00E94BC2E0093D308EC
:103D600080914107833009F40ACB1093410707CBB8
:103D70000558194FF801EF53FF4F40818E2DEE0C7F
:103D8000990B48171906D1F4F90133E0EE0FFF1F24
:103D90003A95E1F7E55DF84F82892F2DFF0C330B43
:103DA0008217130659F4F801EA53FF4F80818111FD
:103DB00005C00C531F4FD8018C91808380918106E0
:103DC000853009F003C28091D308882309F4FEC12D
:103DD0008091C3089091C408863FE2E09E0709F4F1
:103DE000E3C108F08FC18D3E21E0920750F08C3F77
:103DF00031E0930708F4EAC1815192400F9708F42B
:103E0000E5C11091C70880918F066091C808709134
:103E1000C908BCE08B9F600D711D1124812F0E9489
:103E20005A07382F85300CF0D1C18091D708909176
:103E3000D8086CE070E00E940639462F123019F461
:103E400021E0323009F020E08091D9089091DA0821
:103E50006FE170E00E940639822F840FA2C1F80141
:103E6000E25CF84F81E0A9CF0558194F7801B3EC17
:103E7000EB0EF11C6FEFF70180810E94B601F80193
:103E8000EC53FF4F6FEF80810E94B601F801EB53B6
:103E9000FF4F6FEF80810E94B601F801EA53FF4F98
:103EA00081E08083319688E1808380918506863029
:103EB00009F084CFD7018C91843009F07FCF1C9218
:103EC00022E130E047EE51E060EE71E083EE98E0F1
:103ED0000E946A0947E153E060E173E083EE98E0F5
:103EE0000E94BC2E6BCF6AE0833009F064E1F801D8
:103EF000E558F94F7F01ED53FF4F80810E94B601D5
:103F0000F701E054FF4F80816AE0833009F064E1FB
:103F100098012558394F7901F901EC53FF4F808101
:103F20000E94B601F701E054FF4F80816AE08330C0
:103F300009F064E10558194FF801EB53FF4F8081F8
:103F40000E94B601F801EA53FF4F81E080830953D4
:103F50001F4F88E1D8018C9331CF80914107833086
:103F600009F42CCFF801EF5BF84F81E0808383E008
:103F700080934107EBE3F7E003ECC02E08E0D02E7E
:103F80008CE0A82EB12C9FE1892E912C20E6722E78
:103F900080818F3041F5E280018160905D0925EEDE
:103FA00038E040E010E0F12C6416E9F0D9015296B7
:103FB0008C9152978230E1F415968D919C91B501C8
:103FC0000E9406396017710799F4D90117968D91EF
:103FD0009C91B4010E9406396E157F0549F4D90100
:103FE00052961C9270823896CE16DF0689F6E6CE7F
:103FF0004F5F285E3F4FD8CF41E060E68DE10E94E1
:10400000B100FC018381882309F4D8CE1382109279
:104010005E0983E08093F70885E08093350781E0AF
:1040200080933607818180933307828180933407A0
:10403000C5CE8091D308882309F4C0CE0E945502D2
:1040400080918F066091C8087091C908BCE08B9F71
:10405000600D711D11248091C7080E945A0783309A
:104060000CF4ACCE8091C3089091C40883399105BB
:1040700030F589389105F8F48336910580F4893557
:104080009105C8F48530910508F498CE82319105E8
:1040900090F0875491090C9708F090CE0CC08936A7
:1040A000910508F48BCE8337910528F08957910943
:1040B0000A9708F083CE83E00E94D1097FCE853C29
:1040C000910568F4893B9105B0F78939910508F4A9
:1040D00075CE833A910578F3895A9109E9CF893EE3
:1040E000910530F48D3D910530F78B5C9109D3CF6C
:1040F0008F5E9109813F910508F060CEDCCF109270
:10410000E2085CCE8D3F42E0940708F47ACE811538
:1041100053E09507C0F08330934008F072CE809151
:10412000D9089091DA086FE170E00E940639262FD5
:104130008091D7089091D8086CE070E00E94063911
:10414000862F622F2EC01091C70880918F06609134
:10415000C8087091C9089CE0899F600D711D1124E9
:10416000812F0E945A0783308CF12091D70830911B
:10417000D80844E0113009F44CEF8091D9089091AF
:10418000DA086FE170E00E940639E62FC901840F5A
:10419000911D47FD9A956CE070E00E940639862FCC
:1041A0006E2F0E94120A12C080918F066091C8087B
:1041B0007091C908ACE08A9F600D711D1124809137
:1041C000C7080E945A0783300CF0A9CFE091E3089A
:1041D000F091E40886AD8111B8C0A0915E0928E194
:1041E000A29FD0011124AB51B74F52968C91529798
:1041F0008111ABC084AD95AD009709F4A6C00197BD
:1042000095AF84AF880F991FE80FF91F00811181C6
:10421000C80117FF04C088279927801B910B8D9335
:104220009C93E0915E092E2F30E0F8E1FF2EEF9D88
:10423000F0011124EB51F74F80819181873143E0E8
:10424000940709F45BC1883E54E09507E1F187309B
:104250009340D9F5F29EF001F39EF00D1124ED513B
:10426000F74F8091D7089091D80846895789841BC9
:10427000950B2F5F3F4FF29EF001F39EF00D11243E
:10428000ED51F74F4091D9085091DA0820813181E2
:10429000421B530B2091C3083091C4082B3073E0AC
:1042A000370708F0DBC0263FA2E03A0708F0DDC080
:1042B0002A5732402330310540F04396879728F43F
:1042C000452B19F4F8C084E0828BE0915E09B8E1D7
:1042D000EB9FF0011124EB51F74F40815181BE015A
:1042E0006F5F7F4F84810E94F50899818FEF17FFE0
:1042F00081E0A0915E09E8E1AE9FD0011124AB51AD
:10430000B74F989F902D112415962D913C9116979B
:10431000290F311D97FD3A9516963C932E931597CC
:104320009B81899F802D112490915E09E99FF00166
:104330001124ED51F74F2185328534872387280FCB
:10434000311D87FD3A953287218780E00E94990AC6
:10435000182F8091E208811114C2BE016F5F7F4F58
:1043600083EC98E00E94490A8A818E57823008F4D3
:10437000E0C01111DEC08091DF088111DAC0009128
:104380008F06F090C7086091C8087091C908ECE0EA
:104390000E9F600D711D11248F2D0E945A07182F3A
:1043A000E091DB08F091DC0815AE14AE81E080935B
:1043B000DF088091C3089091C4089093C608809349
:1043C000C508183008F050C18091D7089091D808DE
:1043D0006CE070E00E940639F1E08FEFFF1281E09F
:1043E000262F201B280F82E0820F8F3008F093C009
:1043F0008091D9089091DA086FE170E00E94063947
:1044000080919006A62FA81BAF5F30E1A302D001D8
:104410001124A557B94FA20FB11D27FDBA95A55973
:10442000BF4F8C9101E021E04FE76FE70E940B0145
:10443000882309F419C1EFEFE10FE73008F06DC0F0
:104440000E2E000CFF0BE95DFD4D0C941A39102364
:104450002B231923222310232B2319232E503340DF
:104460002230310508F029CF30CF4396879708F0E6
:104470002CCF452B09F029CF81E00E94350280E145
:104480000E946E0880915E098F9DC00111248B519E
:10449000974F4091C708FC0134812091D308431302
:1044A0000EC0322F231718F0231B2093D30820911E
:1044B000D308211106C082E00E94D10906CF31E065
:1044C000F1CFDC0114962C9142E0213009F041E05B
:1044D00024E061E00E947407882309F4F6CEE0919D
:1044E000DB08F091DC0815AE14AE46EF52E062E056
:1044F00073E080E093E00E94280AE7CE44E062E1A6
:1045000081E10E94B100FC018AE084838FEF868301
:104510008EE18083DACE8FEF85CF68EC72E084EC99
:1045200092E00E94C70988EC92E09093C6088093BD
:10453000C5088091E208811124C1BE016F5F7F4FE1
:1045400083EC98E00E94490A8A818F3709F019C1EB
:104550008091DF08811115C1BE016F5F7F4F83EC31
:1045600098E00E94490A29818091D7089091D80843
:10457000820F911D27FD9A956CE070E00E9406392C
:1045800080918F06262F281B82E0820F8F3008F043
:10459000B4C08091D9089091DA086FE170E00E9470
:1045A000063980919006E62FE81B40E1E402F00115
:1045B0001124E557F94FE20FF11D27FDFA95E55952
:1045C000FF4F808101E021E04FE76FE70E940B0180
:1045D000882309F4D6C0E091DB08F091DC0815AE21
:1045E00014AE81E08093DF088091C8089091C908DB
:1045F0006CE070E00E9406398B30910508F0B9C07C
:10460000FC01EB5FFC4D0C941A39BC237F23B623CD
:104610007F23BC237F23B623B923BC237F23B62368
:1046200062EC72E08EEB92E00E94C70982EC92E0AD
:104630007CCF66EB72E082EB92E00E94C70986EBCA
:1046400092E073CF60EB72E08CEA92E00E94C709BF
:1046500080EB92E06ACF6CEB72E088EB92E00E9414
:10466000C7098CEB92E061CF8091C8089091C9088E
:104670006CE070E00E9406398B30910508F034C080
:10468000FC01EB5BFC4D0C941A3950235923622337
:104690007423502359236B237423502359236223FB
:1046A00062E972E08EE892E00E94C70982E992E036
:1046B0003CCF68E972E084E992E00E94C70988E98A
:1046C00092E033CF6EE972E08AE992E00E94C70976
:1046D0008EE992E02ACF6AEA72E086EA92E00E94CE
:1046E000C7098AEA92E021CF64EA72E080EA92E0A8
:1046F0000E94C70984EA92E018CF8FEF63CF6BED79
:1047000072E08BED98E00E94310A8091CA08909186
:10471000CB0849976FE170E00E940639882389F140
:104720001FE1181B812F110F110F180F1550612F4A
:1047300070E080E068587C4B834F0E946403E12E58
:10474000F12C54E0E50EF11C1E151F0409F0BCF419
:104750000E942902882341F0682F70E064527D4F47
:104760008BED98E00E94310A1F5FEECF6AED72E098
:10477000C8CF69ED72E0C5CF68ED72E0C2CF0E948C
:104780002F0280913B07803169F5809140078111AC
:1047900029C08091D7089091D8086CE070E00E9401
:1047A0000639062E000C770B80913E0786171706F8
:1047B00009F0C4F480913F07861717069CF02091FA
:1047C0003D078091D9089091DA086FE170E00E946E
:1047D0000639062E000C770B2617170619F483E00E
:1047E000809341078091C3089091C4088C3762E0A0
:1047F000960719F08F309340C9F443FE17C080919B
:1048000087068111CCC0809186068111C8C083E0E3
:104810008093810681E1809361098BE00E946E089C
:1048200083E10E943F0980E88093010170EF872EA9
:1048300099249A94512C412C8BE090E0DC01AB57E9
:10484000B640BE8FAD8F15E0F401E558F94F3F013A
:104850006CE6C62ED12C2D8C3E8C28183908D3013D
:10486000D496EC91809191065201A81AB108BEE14C
:10487000AB1AB108EC3709F499C00CF094C0E7FF0B
:10488000ACC0F301EC57FF4F808130E1E32E00E034
:104890002BE337EC41E08D3141F08E3151F420E1D2
:1048A000E22E00E027EE37EC41E0B501C6010E94A0
:1048B0007003E1E06E1A7108FCE0CF1AD10824EF12
:1048C000C2162FEFD20659F63FE1430E511C40E1CC
:1048D000840E911C50E38516910409F0B5CF1BE3BB
:1048E000612E17E0712E53010FE1F02E8CE0282E7F
:1048F000312C9FE1492E512C18E1D501EC91E03685
:1049000009F4C2C011962C91119730E080918F0666
:10491000A901481B5109CA015CE0589F6001599FD9
:10492000D00C11244091900612968C911297841B02
:10493000990BF89EB001F99E700D1124809191069B
:10494000681B71094B018FEF881A980AE13208F051
:104950009BC0F0E0E255FB4D0C941A397126D52529
:104960004E265F2608254E2656264E264E265F26C4
:104970004E265F26442544254425A025AD25B62591
:10498000B625E125EA25F62500260A26CB251B2596
:10499000AD25FD24D0251426B625C1257A2686E02E
:1049A0008093810643CFEF3709F06BCF2091A801A8
:1049B0003091A901C101860D971D820F931F6FE0F1
:1049C00070E00E94F238612F0E94E63840E1E42E48
:1049D000082F2BE438EC41E00BC00E2E000CFF0B2F
:1049E000EC5FFE4F50E1E52E008127EB31EA41E01C
:1049F000B501C6010E94700344CF6B5E7F4FB0E1EA
:104A0000EB2E00E02FE632E841E0C6010196A2C09D
:104A100014960C911497615F7F4F13968C91A0E1CF
:104A2000EA2E29EC3AE941E0813019F025E53EE92A
:104A300041E0C6018FC0F501838186302CF5082E38
:104A4000000C990B97FF03C0919581959109F0E1B6
:104A5000EF2E082F23EA35E841E0B401C6010E9499
:104A60007003F1E0CF1AD1082FE7C216D10460F429
:104A700030E48316910440F4D50113968C91843070
:104A800019F48EE00E946E08F8E0AF0EB11C23EC22
:104A900038E02A153B0509F030CFA0915E0918E1F6
:104AA000A19FD0011124AB51B74F52968C915297D0
:104AB000811134C16D917C9180E0605E754C834FB3
:104AC0000E9464030E942902082F0E942F020023E3
:104AD00009F424C1E0915E09E19FF0011124EB513A
:104AE000F74F458156814F50510920918F0634EF81
:104AF0003203C0011124840F951F678170856F51A7
:104B000071092091900641EE420390011124620F39
:104B1000731F20919106621B71096F5F7F4F23897C
:104B2000213009F41EC208F4EDC0253008F020C27F
:104B30002481213009F028C22FE338EF45E0E9C095
:104B4000615F7F4FE0E1EE2E00E02FE832E841E0C8
:104B5000C60105960E94700397CF6D507109E12C34
:104B6000F501058127E039E841E04FCF60E1E62E0D
:104B700013960C912FEC32E841E0B401C601059781
:104B8000E9CF6D507109E12C01E027E039E841E0FF
:104B9000C6010796DFCF6D507109E12C0CE0E2CF22
:104BA0006D507109E12C01E0DDCFF5016581680DE3
:104BB000792D711D50E1E52E07812BED31E941E0A2
:104BC00038CF6D5E7F4F40E1E42E00E023E831E90D
:104BD00041E02FCF655F7F4F30E1E32E13960C91BC
:104BE00024E63FE841E0C6010696B4CF655F7F4FFB
:104BF00020E1E22EF501038128E93FE841E0F3CF0F
:104C0000655F7F4F90E1E92E13960C912CEC3FE805
:104C100041E0E9CF655F7F4F80E1E82EF501038138
:104C200020E630E941E0DFCF13968C9181112CCF43
:104C30008091D7089091D808B1010E940639062EBC
:104C4000000C770B2617370729F02F5F3F4F6217AD
:104C50007307E9F48091D9089091DA08B2010E94B3
:104C60000639262F660F330BC401B2010E940639A4
:104C7000460F4217130659F4E0915E09E19FF001D7
:104C80001124EB51F74F01E08289833009F000E0F5
:104C9000E12C27E238E941E0B401CBCE00E1E02E7F
:104CA000F50106812FE734E941E0F6CFB0E1EB2EC4
:104CB000D50116960C9123E237E941E0EDCFF501DD
:104CC0000681802F90E00E5FB401680F791FA0E18C
:104CD000EA2E2FE734E941E0D601A81BB90BCD013C
:104CE00039CFF5018381882309F4CECEF0E1EF2E90
:104CF00001E0D8CF64517109E12C00E02CE031E9EA
:104D000041E097CE2481213009F036C127E131E717
:104D100048E00150E0E1EE2E0E9470036091C3086C
:104D20007091C40880E0605E754C834F0E946403FC
:104D30000E942902082F0E942F02002301F1609196
:104D4000CA087091CB086F51710980919106681B58
:104D500071096F5F7F4F8091C70827E63FE743E007
:104D6000813019F42BEF32E442E001508091C80801
:104D70009091C90850E1E52E0F970E9470031CE046
:104D80004FE1F42ED3012C91203611F111964C9164
:104D9000119780918F06481B550B149FC001159FDA
:104DA000900D112412964C91129730919006431B4E
:104DB000550BF49EB001F59E700D112430919106B3
:104DC000631B7109243009F4E3C0293109F4F3C0ED
:104DD000B8E06B0E711CA614B704A1F6809185068D
:104DE000883009F580918F068832E9F48091900629
:104DF0008330C9F48091AA01813508F0F3C087346B
:104E000008F0FDC0813008F0F4C000E08CEE90E1C5
:104E1000E92E23EA36E641E06EE070E0082E000C51
:104E2000990B0E9470038BE6882E86E0982EB12C99
:104E3000A12C1CE0D12CC12CF601E558FF4FE80D48
:104E4000F91DE081E7FD1DC083EE8E0F8230C8F0B2
:104E50000E2E000CFF0BEC5FFE4F80919106B5010A
:104E6000681B71096E51710900E1E02E008127EB8A
:104E700031EA41E01C9DC0011D9D900D11240E944E
:104E80007003EFEFCE1ADE0AFAE0CF16D104A1F6D6
:104E900020E1820E911C3FE1A30EB11C4CE7A41649
:104EA000B10441F6009135070150043030F580918E
:104EB000340790919006891B990B2FE1289FB00130
:104EC000299F700D112480919106681B7109635F01
:104ED0007F4F2091330780918F06281B330B4CE0C6
:104EE000429FC001439F900D112410E1E12E23EA5F
:104EF0003FE941E003970E9470035C8DE12C55234C
:104F000061F0E0915E0968E1E69FF0011124EB5148
:104F1000F74F808901E0811101C000E02FEB30E7FD
:104F200041E070E060E088E790E00E94700310E0EC
:104F30008091D408181708F065C001E08091D3086B
:104F4000181708F400E084E0189FB0011124E12C48
:104F500027E132E841E08BE790E00E9470031F5F99
:104F6000E7CF2481213061F42FEE39EE4AE0D1CE33
:104F700020E030E040E0CDCE2BEA34E347E0C9CE7C
:104F800023E83DEA49E0C5CE23ED3BEB44E0C1CE4A
:104F9000F3010481615F7F4F238130E1E32E2130F3
:104FA00031F42BE838E941E00E94700311CF27E08B
:104FB0003DE941E0F9CF13962C9126300CF008CF53
:104FC000022E000C330B37FF03C0319521953109B8
:104FD00006E0020F6F5F7F4F20E1E22E23EA35E803
:104FE00041E0E2CF8E3808F010CF86958E5C01E06C
:104FF0000ECF869598E7981B892F00E008CF02E036
:1050000086E505CF9C8D992359F0E0915E09A8E1D2
:10501000EA9FF0011124EB51F74F8089811144C0C0
:10502000E12C0091870627E130E841E06FE270E073
:105030008BE790E00E9470030091860627E130E83C
:1050400041E069E370E08BE790E00E94700380919B
:10505000E00868E2882359F000E025E232E841E008
:1050600068E270E08BE790E00E94700361E280915B
:10507000E108882351F070E0E12C00E02EE232E8F4
:1050800041E08BE790E00E9470038091CA08909104
:10509000CB088833910571F18735910559F110E0FE
:1050A000499749F510E327C010E0A8E1FA2EBFE0C8
:1050B000CB2ED12CE0915E09EF9DF0011124EB5134
:1050C000F74F8189181708F701E08089181708F44D
:1050D00000E0B601611B7109660F771F660F771F2D
:1050E000E12C27E132E841E08BE790E00E94700379
:1050F0001F5FE0CF11E080918A0681508035C8F4AF
:10510000612F70E0E0E1EE2E00E02DEA36E241E0B2
:1051100087E190E00E9470031B5F612F70E0E12C3B
:105120000091870623E831E741E08DE190E00E949D
:105130007003809138078130A9F48091370725E00A
:105140003AE241E0813019F42DE339E241E0609127
:105150003A0770E08091390750E1E52E00E090E0D9
:105160000E9470038091810699EF980F923008F0A9
:1051700063C0C090AF01D12C883009F476C0809113
:10518000B0011CE002E0843028F400917B0681E04D
:10519000082716E18091C3089091C4080E94630813
:1051A000882331F080917B0603E0811101C001E08A
:1051B000E12C27E13AE641E070E060E0C6010E94A0
:1051C00070038091B001612F70E0BAE08B9F600D99
:1051D000711D11248091AF0190E000E02BEA30E7CF
:1051E00041E003960E9470038091AF01855EE12C3F
:1051F000009185062BE233E741E063E070E090E048
:105200000E9470038091AF01895F009187062BE2B5
:1052100033E741E06DE070E090E00E947003809120
:10522000AF01885E009186062BE233E741E06DE036
:1052300070E090E00E947003A2960FB6F894DEBF73
:105240000FBECDBFDF91CF911F910F91FF90EF90D7
:10525000DF90CF90BF90AF909F908F907F906F9096
:105260005F904F903F902F900895E12C04E027E14C
:105270003AE641E070E060E0C6010E947003609190
:10528000B001EAE06E9FB0011124685D7F4FA2CFAC
:10529000CD2811F00C94261151100C94C80F0C94C9
:1052A0001910F9E1CF16D10414F00C94D61082E055
:1052B0000E94D1090C94D61028EEC2162FEFD20608
:1052C00014F40C94D610F3CF3FE0839FC001112457
:1052D000BC01665B7D4F42E150E0845C9D4F0E94C3
:1052E000280AF70193E0EE0FFF1F9A95E1F7E55CBE
:1052F000F84F80E680830C94221186E00E946E08AD
:10530000F70183E0EE0FFF1F8A95E1F7E55CF84FA8
:1053100080E6808381E08093E008E091DB08F091F3
:10532000DC0815AE14AE42E150E06DE872E08EE7A5
:1053300092E00C9443144817590711F40C945E132F
:105340000091C70880E4E82E10E2023019F010E264
:10535000E12E10E48091C3089091C4088032910539
:1053600011F40C94071710F00C94DE138D30910596
:1053700011F40C94A81710F00C94B013833091051D
:1053800011F40C94CB17099711F00C942211EF2013
:1053900011F40C94C617F3FE02C00C94AC1720E075
:1053A000402F63E083EC98E00E947407882311F497
:1053B0000C94BF176DE070E08AE090E00C9440130D
:1053C000123011F00C94851551100C94851558A1CC
:1053D00051110C94851581100C94851567E001110D
:1053E0000C94851580E1689FB001112480E0655B15
:1053F0007D46814F0E9464030E9424027C010E942A
:1054000024026C010E942402E114F10429F0AC0191
:10541000B601C7010E94280A0E9424027C010E9452
:1054200024026C010E942402E114F10429F0AC0171
:10543000B601C7010E94280A0E9424027C010E9432
:105440002402EA94EF2819F421E02093E20800975F
:1054500011F08093DD080E942F020C94221112306B
:1054600011F00C948A15AA2011F40C948C150C944C
:10547000C2150F920FB68F939F93EF93FF93809176
:1054800066028D5F8D3708F08D5780936602E7E6E0
:10549000F2E080818E4F808391819F4F9183828142
:1054A0008F4F828383818F4F8383EBE6F2E080818D
:1054B0008F5F808381818F4F818382818F4F828331
:1054C00083818F4F83838FB18F6066991C9B882760
:1054D0008F3681F480916502981B963068F0E0E089
:1054E000F8E087E78083818388E180936000F09310
:1054F0006000FFCF90936502FF91EF919F918F9194
:105500000FBE0F9018951F920F920FB60F92112495
:105510002F933F934F935F936F937F938F939F93BB
:10552000AF93BF93EF93FF93ECE5F2E0808191811D
:10553000A281B3810197A109B10918F40E940F0655
:105540000BC080839183A283B3838481882321F459
:10555000369A85818111379AFF91EF91BF91AF9172
:105560009F918F917F916F915F914F913F912F917B
:105570000F900FBE0F901F9018950F93242F92E05D
:10558000980F9F30A8F490E16902F0011124E557CB
:10559000F94FE80FF11D87FDFA95E559FF4F90810E
:1055A00001E0462F682F892F0E940B010F9108956B
:1055B0009FEFF6CF4DE40E94D3000C94DD062F92AE
:1055C0003F924F925F926F927F928F929F92AF9293
:1055D000BF92CF92DF92EF92FF920F931F93CF93E0
:1055E000DF93CDB7DEB729970FB6F894DEBF0FBEB5
:1055F000CDBF89832091D7083091D808C9016CE0CC
:1056000070E00E94063980918F06F62EF81A80917C
:10561000D9089091DA086FE170E00E940639809114
:105620009006681B6E83B090C70881E01FEFB81228
:1056300011E0B9018B2D0E945A078F83F10E4B2D7B
:105640006E818F2D0E94BD2A282EC12ECF0C4B2D8E
:105650006E818C2D0E94BD2A382ED12EDC0C4B2D54
:105660006E818D2D0E94BD2A8A83E12EED0C4B2D7B
:105670006E818E2D0E94BD2A782E1E0D4B2D6E81BF
:10568000812F0E94BD2A482E0E810F5F4B2D602F67
:105690008F2D0E94BD2A982E4B2D602F8C2D0E949D
:1056A000BD2A682E4B2D602F8D2D0E94BD2AA82E5D
:1056B0004B2D602F8E2D0E94BD2A582E4B2D602F12
:1056C000812F0E94BD2A8B836E818F2D0E94DA2A42
:1056D0008C836E818C2D0E94DA2A8D836E818D2DB4
:1056E0000E94DA2AB82E6E818E2D0E94DA2A882E28
:1056F0006E81812F0E94DA2A8887602F8F2D0E9469
:10570000DA2A8E83602F8C2D0E94DA2AC82E602F11
:105710008D2D0E94DA2AF82E602F8E2D0E94DA2A13
:10572000E82E602F812F0E94DA2A2110A8C03110A4
:10573000A6C09A81911194C07110B0C0442019F094
:10574000E981E63091F5B11029C0811027C0F885B4
:10575000FF2321F19F81963009F48BC09A30E1F04C
:105760009230E1F483E029960FB6F894DEBF0FBEC5
:10577000CDBFDF91CF911F910F91FF90EF90DF9000
:10578000CF90BF90AF909F908F907F906F905F90E1
:105790004F903F902F90089585E0E5CFE981E53067
:1057A00009F082C0442009F46CC0A1106AC05110F5
:1057B00068C0FB81F11165C0B11063C0811063C086
:1057C0009885911135C0F11033C0E11031C08823A4
:1057D00079F1EF81E63031F087E0EA3009F4C3CFA8
:1057E000E23031F586E0BFCF61105EC0A1105CC031
:1057F00051105AC08C81811157C09D81911154C0A4
:10580000B11052C0EE81E11120C0C1101EC0F110D4
:105810001CC0EE2029F1FF81F63031F08CE0FA3027
:1058200009F4A1CFF23011F48BE09DCF711018C0B4
:105830008F81863001F18A30F1F08230A9F581E064
:1058400092CF61100DC0A1100BC0FF2049F08F81D5
:10585000863021F08A3089F0823011F48FE083CFD6
:105860009F819250993058F4E92FF0E0E957FE4FAC
:1058700027C084E078CF82E076CF80E174CF80E0EB
:1058800072CF8820A9F2FF8188E0F23009F46BCF53
:1058900089E0F63009F467CF8AE065CF89818530E9
:1058A00019F4992009F4A0CFBB2059F29F8192509E
:1058B0008EE0993008F057CFE92FF0E0E057FE4F27
:1058C000808151CFDF92EF92FF920F931F93CF937E
:1058D000DF93D82E81E0D1E0D81201C0DFEFE09055
:1058E000D708F090D808C7016CE070E00E94063934
:1058F00080918F06062F081B8091D9089091DA08B5
:105900006FE170E00E940639109190061095160F15
:105910004DE4612F802F0E94D300C82F4EEF612FDE
:105920008D2F800F0E94D300D82F4EEF612F802F34
:105930000E94D300182FB7018D2D0E945A0791E0C5
:10594000D91631F092E0D91609F461C083E02DC078
:1059500087309CF48330E4F487FDF8CFCE3549F0EE
:105960000CF047C0C73329F0E4F5C23311F0C4335B
:10597000E1F581E01E3FC9F409C08D303CF71B34CE
:1059800029F31C3519F384E01E3F79F489E00DC03A
:10599000CE3541F0D4F4C73329F07CF4C23311F092
:1059A000C43379F482E01E3F89F3DF91CF911F91D8
:1059B0000F91FF90EF90DF900895CC3399F3C535A8
:1059C00089F3DE3FE1F688E0F0CFC73659F324F4DF
:1059D000C256C230B0F7E6CFCF3621F3C63789F7CB
:1059E000E1CFCC3331F2C53521F2DE3F41F687E01D
:1059F000DCCFC73609F4BDCF24F4C256C230A8F7B5
:105A0000B8CFCF3609F4B5CFC63779F7B2CF8730E4
:105A10008CF48330B4F487FD99CFDC3409F4A9CF3A
:105A20003CF5D33309F4A5CFD93309F4A2CFDE3F37
:105A3000F1F203C08D300CF089CF1E3F09F086CF04
:105A4000A5CFDC3409F4AECF54F4D33309F4AACF94
:105A5000D93309F4A7CFDE3F09F4B5CFEECFD03666
:105A600009F4A0CFD63609F49DCFDD3531F79ACFB2
:105A7000D03609F47ECFD63609F47BCFDD35E9F692
:105A800078CF0F931F93CF93DF93D82F0091D70830
:105A90001091D8088091D9089091DA086FE170E0F0
:105AA0000E94063980919006262F281BC8016CE0C1
:105AB00070E00E94063980918F06681B862F91E066
:105AC000D23009F090E04DE4622F890F0E94D3009C
:105AD000C82FB8018D2F0E945A07D13041F0D23023
