:100000000C946A000C9492000C9492000C94920050
:100010000C9492000C9492000C9492000C94920018
:100020000C9492000C9492000C9492000C94920008
:100030000C9492000C9492000C9492000C949200F8
:100040000C9492000C9492000C9492000C949200E8
:100050000C9492000C9492000C9492000C94E12861
:100060000C9492000C9492000C9492000C949200C8
:100070000C9492000C9492000C9492000C949200B8
:100080000C942B290C9492000C9492000C949200E6
:100090000C9492000C9492000C9492000C94920098
:1000A0000C9492000C9492000C949200D5F08D1454
:1000B000A1C881CFD9F1AF200001010203040405DA
:1000C0000506060708090A0C0D0E0F10111214156B
:1000D0001600DF2F11241FBECFEFDAE0DEBFCDBF49
:1000E00011E0A0E0B1E0EAE4F3E702C005900D9270
:1000F000A430B107D9F729E0A4E0B1E001C01D9216
:10010000A730B207E1F710E0CAE6D0E004C02197BB
:10011000FE010E949D39C936D107C9F70E94883077
:100120000C94A3390C940000782FE0EEF6E080E008
:10013000042E000C550B022E000C330B90819717E8
:1001400050F0691740F091819417150621F49281BF
:100150009217130629F08F5F3896813379F78FEF66
:100160000895603609F4682FE0EEF6E030E020E014
:1001700090E05081581770F0651760F09F5F9413FE
:1001800009C0C90123E0880F991F2A95E1F7805221
:10019000994F08952F5F3F4F38962133310549F726
:1001A00080EE96E00895CF93DF93C62FD42F482F8B
:1001B00062E181E10E94B100FC018781CF3F71F0D3
:1001C000C483D683882329F0843080F483E0878336
:1001D0000DC083818930D1F381E0F9CF958194837B
:1001E00096838230C8F383508230B0F3DF91CF9191
:1001F0000895282F85E0820F8531B0F5862F062ED1
:10020000000C990B019636E1389FF001399FF00DF3
:100210001124EA51FA4FE20FF11D27FDFA95868D60
:100220004F3F29F19091FB05690F9091FA05290F35
:10023000E0EEF6E0022E000C330B062E000C770BDE
:100240009081913009F49681911108C091819217A3
:10025000130621F492819617170641F0389698E01C
:10026000E836F90769F708958FEF0895842F089508
:100270000F93CF93DF93413011F0C1E02C278F37DC
:1002800081F16F3771F1D091FB05D60FC091FA055E
:10029000C80FC20F2D2F4C2F62E181E10E94940004
:1002A0008F3F41F42D2F4C2F6EE18EE10E94940080
:1002B0008F3FB9F028E0829FC00111248A519A4FE4
:1002C000FC01EF5FFE4F2081233030F483509F4FBD
:1002D000FC018081801728F482E0DF91CF910F919B
:1002E000089580E0FACFEF920F93982F862F642F16
:1002F000422F202F0E2D9133ACF49F323CF49F30CF
:100300003CF49C301CF49650933028F481E007C0F4
:100310009952933010F04230A1F40E9438010F91AD
:10032000EF9008959D332CF49B3344F49A3399F75E
:10033000EDCF933491F39E3471F7E8CF81E04230F2
:1003400071F380E0ECCF8633C4F584331CF584313F
:1003500041F034F58B3029F0FCF48F3F11F08130FF
:1003600051F56F37B9F04F37A9F02091FB05240FF5
:100370004091FA05460F61E080E00E9494008F3FB3
:1003800049F098E0899FF0011124EB51F94F81E089
:100390009081911180E008958151823060F4E1CF25
:1003A0008D31F9F214F48751F8CF8532D1F21CF077
:1003B0008C528330B0F281E00895853491F24CF490
:1003C0008D3324F48B336CF68853E7CF8E3399F753
:1003D000C8CF8C342CF48A3424F6873461F7C1CF2B
:1003E0008F3409F4BECF813531F7BBCF882319F0A4
:1003F0004FEF0C94D3000895E0EEF6E083E0908197
:10040000913021F49781911101C08783389698E04B
:10041000E836F907A1F7089580911B0881110CC0F7
:10042000E2EFF6E02AE937E080818F5F808338963B
:100430002E173F07C9F708958A3091F30895482F82
:10044000209102013091030186B52827C9019695B4
:10045000879520FF02C024EB92279093030180939D
:100460000201641B770B0E947539840F0895E6EE34
:10047000F5E0A1E2B3E060E070E080E00E943A03C2
:100480009D01AF0160E00E9456028217930751F46C
:10049000D901FA0160E00E945B0281931197D9F7BC
:1004A00061E0F1CF0E946102862F08950E945B02F5
:1004B000982F0C945B020DB407FEFDCF8EB51EBCC9
:1004C00008950DB407FEFDCF8EB5599A0895E6EE56
:1004D000F5E097E09093DC068093DD0680916D084F
:1004E00090916E086CE070E00E9489398489680FF1
:1004F0006093DA0680916F08909170086FE170E068
:100500000E9489398589680F6093DB0608951F93DF
:10051000CF93DF9380917C0890917D086CE070E030
:100520000E948939C62F80917E0890917F086FE1E3
:1005300070E00E948939162F262F4C2F64E084E04A
:100540000E949400D82F8F3F59F088E0D89FF00187
:100550001124EA51F94F8081811102C080E2808329
:10056000212F4FEF4C0F64E084E00E9494008F3FF6
:1005700059F098E0899FF0011124EA51F94F8081E8
:10058000811102C080E2808341E04C0F212F64E0A2
:1005900084E00E9494008F3F59F098E0899FF00119
:1005A0001124EA51F94F8081811102C080E28083D9
:1005B0008D2FDF91CF911F91089521E233E0E6EE78
:1005C000F5E0A0E0B0E0BD0180E00E943A030E94A7
:1005D0002903BD011296A20FB31F8217930799F347
:1005E0008F5F9F4F21F4AF5FBF40DB0178F00E9427
:1005F0000F0640E05091E4056091E50580E20E941D
:100600002E03599A0E942C05A0E0B0E07CEF0E94D6
:100610000F064A2F5091E4055B0F6091E505611DBF
:1006200082E00E942E03832F71FD822F70FD819145
:100630000E944603759518F42150304019F0119628
:10064000AA2389F7599A0E942C0521153105F9F63C
:1006500008950E945B02982F0C94610259980E94A1
:100660004603862F0E944603852F0E944603842F4F
:100670000C944603462F5091E405570F6091E50511
:10068000681F83E00E942E031EBC08958EBD0000EB
:100690008EB50DB407FEFCCF08955E98E4EEF1E050
:1006A00081E0A0E0B8E000800EBC8111012C119720
:1006B000A0FDFDCF0192B9F70DB45E9A0895E5E073
:1006C000F0E00E947403319728F068517C4F8F4FFF
:1006D0009F4FF9CFAB01FC010E94740364177507AB
:1006E0008E079F07C8F30895A6EDB1E02FB7F894E1
:1006F0007D918D919C9166B52FBFA89B05C06F3FE2
:1007000018F47F5F8F4F9F4F22E0660F771F881F7F
:10071000991F2A95D1F708956F927F928F92EF9249
:100720000F933B01882E0E94C3030E945602FC01D6
:100730000E945602DC010E94BB03482F9B010E94CD
:100740005B02082F0E946102E82ECF01BD010E94CA
:10075000CF03B301882D675F7F4F8F4FE6FC05C045
:10076000E7FEDFCF6627772788270F91EF908F90DE
:100770007F906F9008950E945602782F0E945B022E
:10078000682F892F0895462F5091DA01570F6091F5
:10079000DB01681F83E00E942E031EBC08953F9278
:1007A0004F925F926F927F928F929F92AF92BF9281
:1007B000CF92DF92EF92FF920F931F93CF93DF932D
:1007C0005C016B013901842E302E9E2C842FB901DF
:1007D0000E94C3030E945602482EC82FD92F0E94A0
:1007E0002903FC019E012A0D3B1D121613060CF075
:1007F000EBC040E8A416B1040CF0E6C08C0D9D1DC2
:10080000181619060CF0E0C040E4C416D1040CF030
:10081000DBC0B7FE0BC0EE24FF24EA18FB084E181D
:10082000203831055CF050E8452E08C021383105EC
:100830001CF020E8422E4A18F12CE12CD7FED6C03D
:10084000002711270C191D09087FCF01801B910B70
:100850005E2E501A8134910534F08C2D819587706D
:1008600040E4542E580E1595079515950795159546
:100870000795CF01079696958795969587959695B6
:100880008795389E9001399E300D1124200F311F1D
:1008900040E0BE010D2E000C880B0E945F39A82F8E
:1008A000CB018E0D9F1DA11DF7FCAA9594FE05C0DE
:1008B000880F991FAA1FCC0FDD1F24E0620E711C48
:1008C000811C680E791E8A1EC60123E095958795C6
:1008D0002A95E1F7080F31E0C1FC34E0C0FC330F8A
:1008E000C2FC329540E80403D0011124AA0DBB1DBF
:1008F000AE0DBF1DAC51BE4F252D599883E08EBD66
:100900008091DA019091DB01870D981D0DB407FEEF
:10091000FDCF9EBD0DB407FEFDCF8EBD0DB407FE0D
:10092000FDCF6EBC6C0E7D1E811C0DB407FEFDCF8D
:100930001EBC990C073014F4089430FD88949794E9
:1009400062E021FD68E022FD629520FF66956A95D0
:1009500011F028300CF06FEF942D0EB41EBC93FCF8
:100960000626862F90FC802D92FC0024039EA00179
:1009700094FA36F4C895C89511240EB41EBC90FCA8
:10098000082E039E003034F08C9191FE48274021C0
:1009900048274C93A058BF4F97FE06C08C9191FEFC
:1009A0005827512158275C931124AF57B0409A958E
:1009B000A1F6A058BF4FA419B109285003950DB452
:1009C000599A12160CF499CFDF91CF911F910F9184
:1009D000FF90EF90DF90CF90BF90AF909F908F905F
:1009E0007F906F905F904F903F9008955E2E81347E
:1009F00091051CF080E4582E5C1810E000E039CF1F
:100A00006091DF017091E0018091E1010E948C030F
:100A10009B01482FECEDF1E00780802D822B832B8A
:100A2000842B002019F00A9407820AC006800782EE
:100A3000882319F4208131814281238334834583C3
:100A40000895ECEDF1E060837183828363837483A6
:100A50008583468347830895599885E00E9446031D
:100A600080E00E94460380FDFBCF599A0895FC0167
:100A70000E945B02819361507040D1F70895409FBE
:100A800009F4142E5527020E151E600D711D851FC9
:100A900011240C94C3030F9303E020E00E943F0550
:100AA0000E945602782F0E946102682F892F0F91B1
:100AB0000895482F6EEA74E880E00E944B050E947A
:100AC000C30368E871E080EE96E00E9437050C945D
:100AD0006102DF92EF92FF920F931F93CF93DF9308
:100AE000D091FA05D111D650EEEFF5E08FEF81935A
:100AF00096E0EC36F907D9F7C091FB05C15096E1B5
:100B0000D92E8091FB058C5FC817ACF5C7FD31C0AD
:100B10000091F8054091F0056AE574E880E00E94D4
:100B20004B052D2F4C2F0E943F0510E000E0EC2ECE
:100B30000C2E000CFF08063010F4DD2399F00E9403
:100B40005B029091FB059701291B31092F5F3F4FF5
:100B5000D29EF001D39EF00D1124EA51FA4FE00F1E
:100B6000F11F808F0F5F1F4F0631110521F70E9483
:100B70006102CF5FC6CFECE6F6E086E0819396E0B7
:100B8000EA3DF907D9F7C091FB05C15086E1D82E9F
:100B90008091FB058C5FC817ACF5C7FD31C0009193
:100BA000F8054091F00560E374E880E00E944B0591
:100BB0002D2F4C2F0E943F0510E000E0EC2E0C2E54
:100BC000000CFF08063010F4DD2399F00E945B0250
:100BD0009091FB059701291B31092F5F3F4FD29E52
:100BE000F001D39EF00D1124E00FF11FE459F94FED
:100BF00080830F5F1F4F0631110521F70E946102AC
:100C0000CF5FC6CFDF91CF911F910F91FF90EF90F3
:100C1000DF90089559980E944603599A089586E0F6
:100C20000C940A068091CF0108951092CF013E984E
:100C30003F9808953E9A3F9A81E08093CF010895AE
:100C4000ECEBF1E08285082E880FA681A80FB78112
:100C5000B11D8D919C910394A0850A1608F0002483
:100C600002860895E1E7F0E080818D7F8083109215
:100C700091004698479808950F931F93CF93DF9361
:100C80000E942006811520E8920731F4DF91CF9170
:100C90001F910F910C94320697FD05C02091CD0154
:100CA000222309F454C02091CE01211150C021E02B
:100CB0002093CC01EC01DF77209709F04BC081E055
:100CC0008093CB0146980FE91FE0CAEFD0E0E09196
:100CD000BA01F091BB010995811103C081E08093B5
:100CE000CB018091CC01882329F08091CB0188230E
:100CF00009F43FC047980E9420062FEF3FEFA9015B
:100D0000009751F09C01DE010E94503924EF31E040
:100D100040E050E00E942E39109290008AE08093CB
:100D2000910010939900009398002093C70130938D
:100D3000C8014093C9015093CA018091710082603B
:100D400080937100DF91CF911F910F9108951092C0
:100D5000CC01B0CF9E0150E040E060E472E48FE04F
:100D600090E00E940F398901015011091092CB01C6
:100D7000AECF4699BFCF479ABECFECEBF1E02185CD
:100D80003285231791F16381748185810E94C303A9
:100D9000231749F10E945602813060E8960741F41A
:100DA00080819181A28183839483A5831CD0EBCF22
:100DB000A681B781A20FB11DA20FB11D8D939C9387
:100DC00023956085261709F420E02187838194818B
:100DD000A5810296A11D83839483A5833F3FC1F61D
:100DE00030E03287D5CF0C9461020895ECEBF1E04E
:100DF00063837483858360837183828311868FEF1D
:100E000082870E94BD06E1E7F0E080818D7F8083CC
:100E10000C943C06382F262F972F862F6CE070E01D
:100E20000E948939313021F0323041F08FEF08953E
:100E3000822F94EF699F800D112408958CE0869F86
:100E4000800D1124821B08959CEE980F963020F49B
:100E50002091910021111BC02091680830916908F0
:100E60002A3A42E0340758F02D3A42E0340728F09D
:100E70002E5333402230310510F4963040F0482F85
:100E800064EC7EE880E00E944B050C94F606089521
:100E9000EF92FF921F93CF93DF93FC018081282F65
:100EA00030E08A3130F08A3250F08E54803108F4CC
:100EB00046C0DF91CF911F91FF90EF90089541813F
:100EC00082ED840F8630A8F7C9014A97EC0197FD9F
:100ED0002396D595C795D595C79564E070E00E9497
:100EE0008939182F81E041330CF480E0CF3F09F3BA
:100EF000CC0F895EC80F88E0C89FE0011124CD5156
:100F0000D94F888190E0012E02C0959587950A946B
:100F1000E2F780FDCECF7F0183E10E94240721E02C
:100F200030E001C0220F1A95EAF78881822B88836E
:100F30008CEFF701818385E08093EE06BACF418183
:100F400082ED840F863008F0B4CFC9018E54910928
:100F5000EC0197FD2396D595C795D595C795CC5FA0
:100F6000BCCFFF920F931F93CF93DF93F82EEB012B
:100F70008A01BA0161507109660F771F072E000CB4
:100F8000880B655A7E41884F0E94C3030E945B0212
:100F9000082E000C990B21E0F21631F121E030E02F
:100FA000829FA001839F500D929F500D112417FD29
:100FB0001EC001E010E0409FC001419F900D509F76
:100FC000900D1124998388830E946102282F2003A9
:100FD000C001219F900D11249B838A83DF91CF91C3
:100FE0001F910F91FF9008952FEF3FEFD9CF0FEF93
:100FF0001FEFE1CF0F93880F41E0480F04E020E09E
:101000006BE879E38AE00E943F050E945602BC012A
:101010000E942903AC01BB27A72F962F852FBC0167
:101020008A2F0F910C942105A3EFB6E0E0E08C919C
:10103000893009F0EF5F189687E0AB39B807B9F748
:10104000F0E0E754FF4F84910895CF92DF92EF9242
:101050000F936B01E82E80916808909169088C3A93
:1010600022E0920721F040E08F33934009F441E001
:101070008091E60581114E5F20911B01220F04E152
:101080008E2DB6010E943F050E9429030F91EF901B
:10109000DF90CF9008950F931F93CF93DF93DC01E0
:1010A00021153105B1F0CD91DC91119782E08EAF21
:1010B0000CAD1DAD0E31110561F0C801880F991FEF
:1010C0008C0F9D1FFC0131832083F8013196FDAF09
:1010D000ECAF82E06417750708F1ED91FC9184ADE7
:1010E00095AD8E31910571F0DC01AA0FBB1FAE0FDB
:1010F000BF1F22273327241B350B2D933C930196CA
:1011000095AF84AF4F5F5F4F6417750740F782E07C
:1011100086AFDF91CF911F910F9108954617570722
:10112000C0F3ED91FC91119786AF24AD35AD2E3112
:10113000310559F0E901CC0FDD1FCE0FDF1F5983B8
:1011400048832F5F3F4F35AF24AF41505109E6CF61
:10115000AB011092870830E020E0BC0180E898E005
:101160000C944B08CF93C82F80E00E942407E09195
:101170008008F091810815AE14AE6CEA72E08AEA3C
:1011800092E0CC2321F06FE373E08EE393E00E94C2
:10119000A8081092780884E18093DE0680916F0899
:1011A000909170088833910551F08735910539F099
:1011B000499719F480E38093DF06CF91089581E089
:1011C000FACF1F93CF93DF93C82F142FD22F262F40
:1011D000482F69E189E10E9494008F3F11F19091BD
:1011E000FA05C91B4CE0C49F402D11244D5F042E0D
:1011F000000C550B14171506A4F4D417150689F026
:1012000084F098E0899FF0011124ED51F94F80811D
:101210008B5F8B3030F481E0DF91CF911F910C9484
:10122000B208DF91CF911F9108959A01109287081B
:10123000AB01BC0180E898E00C944B08DC01ED9117
:10124000FC9182E086AF84AD95AD8E31910561F061
:10125000DC01AA0FBB1FAE0FBF1F6D937C930196DD
:1012600095AF84AF81E0089580E008950F931F93B8
:10127000CF93DF938C01EB01FC016081718180E0F1
:1012800061507242884F0E94C3030E9461028150E4
:10129000990BBC01660F771F680F791F072E000C92
:1012A000880B69557741884FF801948111E091309E
:1012B00009F41FEF0E94C3030E945602199F902D4C
:1012C00011249883189F802D112489830E94610224
:1012D000189F802D11248A838981813811F48FE72A
:1012E00089838981823811F48EE78983DF91CF91D8
:1012F0001F910F9108957F928F929F92AF92BF920C
:10130000CF92DF92EF92FF920F931F93CF93DF93D1
:1013100000D01F92CDB7DEB7782EC0907C08D09059
:101320007D0880907E0890907F08BE016F5F7F4FA0
:1013300088E698E00E9436091A81E090FA05C60115
:10134000810F911D17FD9A952CE0A22EB12CB501AD
:101350000E948939F62EFE18C4016FE170E00E94E8
:1013600089398091FB05062F081B43E0602F8F2DE4
:101370000E94F9001F3709F477C0402F6F2D0E949B
:10138000A301182F8130A1F18B819601280F311D07
:1013900087FD3A95C901B5010E948939162F1E199A
:1013A00043E0602F812F0E94F900402F612F0E949F
:1013B000A301182F8130E1F07720D1F0E0906C0884
:1013C00060917C0870917D088E2D0E940A07823002
:1013D00079F481E032E0E31280E043E0602F8F0D8A
:1013E0000E94F90091E0E916A9F022E0E21679F1F5
:1013F000812F0F900F900F90DF91CF911F910F9140
:10140000FF90EF90DF90CF90BF90AF909F908F9024
:101410007F900895853231F06CF4843119F024F412
:101420008B3031F412E0E4CF8831E1F38D31D1F328
:1014300010E0DECF8734B1F32CF48C3299F385348D
:10144000B9F7F0CF8A3471F38F3491F7EBCF86314F
:1014500049F32CF4823031F3833151F7E3CF8C31EF
:1014600009F38C3429F7DECF11E0C2CF6091CF01B0
:1014700082E090E00C94FD382F923F924F925F9261
:101480006F927F928F929F92AF92BF92CF92DF9294
:10149000EF92FF920F931F93CF93DF93CDB7DEB7F9
:1014A000A5970FB6F894DEBF0FBECDBF70901101A7
:1014B000809110018095682E672080916808909136
:1014C00069088353934010E0089708F44BC080915B
:1014D0006F08909170082091FC05AC01421B5109E6
:1014E000473551050CF4FDC02091FB053091F00506
:1014F000363099F4263089F4E0918008F091810823
:1015000015AE14AE67E073E080E898E00E941E0913
:101510008CE08093FB0510E014C0909372088093D8
:1015200071088D5591099093700880936F082D5F15
:101530002093FB050E9469051092FC051092FD05A1
:1015400011E080916F08909170082091710830919E
:101550007208293331050CF069C1C9971CF084E089
:101560008093FD0580911701882319F081508093A5
:10157000170180911501882379F08150809315011E
:10158000863451F445E060E682E00E94B1006FEFDE
:10159000FC0183810E94F6012091FB053091FA0540
:1015A0008091820881118150809382088091830804
:1015B0008111815080938308E0918008F091810827
:1015C00086AD882309F437C1815086AF80916D08BC
:1015D00090916E08FCE03F9F800D911D1124909327
:1015E0007D0880937C0880916F08909170083FE19E
:1015F000239F800D911D112490937F0880937E0876
:10160000E0918808F091890886AD882309F415C116
:10161000815086AFEFE8F8E087E099E020813181E2
:10162000308B278722813381328B218B78968E17DE
:101630009F07A1F78091FD05833009F400C1843034
:1016400059F48091FC058F3138F48F5F8093FC054D
:101650008F3111F41092FD0540EE56E058A34F8FE4
:1016600098E6A92E98E0B92E1A0100E026E0822E15
:10167000912C3FE1C32E40E6D42E5FE1452E512C44
:10168000D1012C918091120190911301AC01437012
:101690005527EFEFE20FEE3108F0E4C0F0E0ED5A2D
:1016A000F44F0C949D393A0DEF0DEF0D020E320CF4
:1016B000320CEF0DEF0DEF0D320CEF0D320C320C42
:1016C000320C320CBB0CCD0CCD0C320CCF0DCF0D2F
:1016D000CF0DCF0D320C2B0CBB0C320C320C320C5C
:1016E000CD0C182F121B17FF15C090937208809312
:1016F0007108835A9F4F9093700880936F08809170
:10170000FB0583508093FB050E9469058FE1809360
:10171000FC0514CF80916D0890916E0897FF49C029
:1017200088589F4F90936E0880936D088091FA05BA
:101730008A508093FA050E9469058091F0058D30EA
:1017400009F0FECE8091FA058111FACE8091FB0559
:101750008111F6CE83E08093EC0580E18093060949
:101760008FE10E94FA079091E8058091F2059817A1
:1017700040F098131AC02091E9059091F1052917BE
:10178000A0F491E09093E7058093E8058091F1053E
:101790008093E9058091F30590E09093EB058093A9
:1017A000EA051092E6050E94DD0289E00E94240706
:1017B000C7CE893791050CF4AECE88579109909326
:1017C0006E0880936D088091FA05865F8093FA0514
:1017D0000E9469058091F005883009F0B1CE8091B2
:1017E000FA05883209F0ACCE8091FB05833009F010
:1017F000A7CE809115018111A3CE809116018F5F34
:1018000080931601833008F49BCE46E062E181E1CB
:101810000E94B100DC0113968C91811191CE60EF92
:101820008AEA0E941F02809315018ACEC9970CF0A4
:1018300099CE83E095CE82E0C8CE82E0EACE809158
:10184000FC05882309F408CF81508093FC05882388
:1018500009F400CF01CFF10183818F5F873309F451
:1018600086C08383F8E02F0E311CA214B30409F064
:1018700007CF2091DC068091120190911301222361
:1018800029F080FD03C021502093DC068370992746
:10189000892B39F48091DE06823018F081508093D4
:1018A000DE060130D9F480916808909169088E5B5A
:1018B0009240CC9798F080E00E946702809178086F
:1018C000882319F0815080937808809178088111DD
:1018D00002C00E94B20887E10E9424078091EC05B3
:1018E0008730F1F080911201909113012091ED0564
:1018F0003091EE05821B930B6DE270E00E9475390A
:10190000892B71F48091F105815087FF07C0809188
:10191000F205815087FF8093F2058BE38093F105F8
:101920008091F505811181508093F5058091F20534
:101930009091F105892B79F483E08093EC0582E1A5
:101940008093060983E10E94FA0780E880930101F1
:101950008BE00E94240780911A0190911901913027
:1019600009F46FC1923009F473C190E078C1EBEFD4
:101970001396EC9377CF80FD75CF16968C911697C2
:10198000833009F06FCF15968C9115978B3008F046
:1019900069CF8F5F15968C9365CF452B09F062CF89
:1019A000F101848197819230C1F1933009F44AC0EA
:1019B000913001F590E0089626812817190609F064
:1019C000CCF483818930B0F4811105C06AE77CE8EA
:1019D00080E00E94F606D10113968C9113978F5FD9
:1019E00013968C931397893029F48C91813169F087
:1019F000823179F0D10114968C911497882309F4DF
:101A000031CF815014968C932DCF22E0F1012783A2
:101A1000F1CFE5E01796EC93EDCF8150893050F788
:101A2000223141F313968C91893029F46CE37CE8E0
:101A300080E00E94F606F10183818350838383E076
:101A40008783D8CF81508930A8F6223199F2139636
:101A50008C911397833020F0835013968C93CACFC8
:101A60001382213121F02E3129F626E0CFCF1796AF
:101A70001C92C0CF452B31F4F1018781882311F0EE
:101A800081508783D10116968C911697823018F079
:101A9000815016968C93F1018681813009F0E2CE57
:101AA00095819E5F95838381981708F4DBCE8E3FE6
:101AB00011F4D082D7CED10122812F5F6C2D0E94EC
:101AC0006939280F2283E3E1EC9380917C0890919F
:101AD0007D086CE070E00E948939062E000C770BBF
:101AE000D10111968C918617170671F480917E08AA
:101AF00090917F08B2010E948939062E000C770B65
:101B00002617170609F401E08091F0058B30E1F407
:101B1000E0EEF6E080819EEF980F923010F0873073
:101B200069F49181D10111968C911197981306C097
:101B3000928112968C91981301C0D0823896B8E0A9
:101B4000E836FB0739F78ECE863009F08BCE80EE73
:101B5000E82E86E0F82EF7018081823011F0873080
:101B6000A9F4D70111969C911197F10181819813E5
:101B70000DC012968C919281891B990B0296059744
:101B800028F440E060E083E00E94D300F8E0EF0E2C
:101B9000F11C28E6E21628E0F206E9F663CEB4016D
:101BA0000E947539892B09F05DCED10113968C9175
:101BB000263141F0273169F091E0811190E0F10187
:101BC000938350CE8F5F863039F0D10113968C937A
:101BD00049CE8F5F8730C9F7F101138243CE452B81
:101BE00009F040CE17968C911797823018F08150EB
:101BF00017968C93F1018781813009F033CE1682DC
:101C0000178230CE452B09F02DCE16968C91169763
:101C1000843040F4813008F425CE815016968C93A0
:101C20001697E9CE92EE980F8150F101868393309A
:101C300008F018CE8481833008F014CE8F5F84833F
:101C400011CE8450863509F090CE109219018DCEB8
:101C50008C5F823809F089CE1092190191E080934F
:101C60001A01992371F083E884BD8FEF87BD81EF5E
:101C7000809380001092880010928A0085E0809303
:101C8000EC05E0908808F0908908D701DC96AD90CB
:101C9000BC90C0900309909002090091FA05802F32
:101CA00090E0FC013996FD8FEC8FD090FB054D2C18
:101CB000512CF2E04F0E511C80917E0890917F08CC
:101CC0006FE170E00E948939262F660F330B3AA32B
:101CD00029A3EAE9F8E040E01E8E2FE130E09416F7
:101CE00011F40C94A22540930309828181112FC025
:101CF000848195816CE070E00E94893986819781AA
:101D00006017B8F0AC8DBD8D6A171B0609F08CF416
:101D1000B9010E9489396D1560F07727461657067C
:101D200044F089A19AA168177907A1F088248394C7
:101D300001C0812C8081811107C080910409882312
:101D400019F081508093040981100C9462254F5F33
:101D50007896C5CF91E09E8FE9CF858590E0FCE035
:101D60002F9F800D911D112416969C938E9315978D
:101D7000E0910309E69FF0011124E657F74F82E056
:101D80000C9405262F32F3E03F0729F0223333402D
:101D900011F00C94CA26452B11F00C94CA2617FF9B
:101DA00003C011950195110917FD07C005311105F3
:101DB0000CF44AC00F311105F4F120E04D8164E0CC
:101DC000CE0101960E941E2C8823F1F14FE253E0D0
:101DD0006DE273E088E898E00E94972F0C94CA2681
:101DE0000B5B1F4F0B38110510F00C94CA26452BC6
:101DF00011F00C94CA261E8D112311F40C94CA26DE
:101E000080916808909169088C3A22E0920711F459
:101E10000C94CA268F33934011F40C94CA2626E200
:101E200033E04CE253E067E273E088E898E00E9418
:101E30004B080C94CA2680916808909169088652D4
:101E40009340489708F0B9CF66E273E088E898E0DD
:101E50000E941E090C94CA2610161106E4F5613082
:101E6000E9F522E0DC0114962C93809189088F9388
:101E7000809188088F93EDB7FEB778970FB6F894E6
:101E8000FEBF0FBEEDBFADB7BEB7119688E1FE0134
:101E9000319601900D928A95E1F70E949B2F0FB623
:101EA000F894DEBF0FBECDBF80916808909169089D
:101EB00086529340489710F00C946A2580916C08E4
:101EC000823011F00C94CA2681E080936C080E9445
:101ED000BB2E0C94CA2601151105E1F42091680867
:101EE00030916908253363E0360708F04AC0233390
:101EF00073E0370708F07BC0B9016A5A724063305B
:101F0000710508F04AC022E130E04DEB52E064EB8D
:101F100072E08BCF623011F721E0FC0124838091C5
:101F200089088F93809188088F932DB73EB72851E9
:101F300031090FB6F8943EBF0FBE2DBFADB7BEB787
:101F4000119688E1FE01319601900D928A95E1F794
:101F50000E949B2F0FB6F894DEBF0FBECDBF8091BD
:101F600068089091690886529340489710F00C9445
:101F7000722580916C08813011F00C94CA2682E0A1
:101F8000A4CF2733A3E03A0708F475C0B9016E5314
:101F900073406230710508F4B6CF452B11F00C94F4
:101FA000CA2617FF03C011950195110917FD05CF2A
:101FB000053111050CF467C0013311050CF0FDCE9D
:101FC00060E180E00E941F02882309F4F6CEE091D0
:101FD000030918E1E19FF0011124E657F74F8081D2
:101FE00091818F32934011F00C94CA262DCF6CE072
:101FF00080E00E941F02811115C0E0918008F091DD
:10200000810815AE14AE46E253E06DE373E08BE356
:1020100093E00E94150926E233E04DE353E06BE3C1
:1020200073E003CF6CE080E00E941F0281110C94EA
:10203000CA26809189088F93809188088F936DB705
:102040007EB7685171090FB6F8947EBF0FBE6DBFA1
:10205000ADB7BEB7119688E1FE01319601900D92A1
:102060008A95E1F70E949B2F0FB6F894DEBF0FBE52
:10207000CDBF0C94CA2668E080E00E941F02811147
:102080000C94CA26BACF2333A3E03A0710F52632C0
:10209000B3E03B0718F52A5A32402330310510F4DB
:1020A0000C94CA26DC0115962D913C918091FA057D
:1020B000BCE08B9FC00111242817390714F40C943D
:1020C000CA2680579F4F8217930714F40C94CA2690
:1020D0002EC02B5333402330310520F7FC012581DE
:1020E00036818091FA05FCE08F9FC00111242817EA
:1020F000390714F40C94CA2680579F4F8217930710
:1021000014F40C94CA2660E180E00E941F02882328
:1021100071F0E091030918E1E19FF0011124E65705
:10212000F74F948180916C0898130C94CA2626E28C
:1021300033E04AE353E063E373E077CE67E073E0B4
:102140008AEF92E00E94A8088091FA0560916D08DC
:1021500070916E089CE0899F600D711D1124809123
:102160006C080E940A07863089F08A3049F0823074
:1021700011F00C94252761E372E08CE292E00AC032
:1021800061E372E08CE292E00E94A80867E172E0ED
:1021900081E192E00E94A8080C9425278E179F07E2
:1021A00011F00C9470287091E206E62F062E000CB8
:1021B000FF0B7E171F0611F00C9470287091E60635
:1021C000733011F00C94702847EE54E063E370E034
:1021D0008FE290E00E94150980916C08813021F116
:1021E000823011F00C94252767E073E08AEF92E0CB
:1021F0000E94A8088091FA0560916D0870916E08A0
:10220000BCE08B9F600D711D112480916C080E94B1
:102210000A07823019F1863011F00C9425276CE200
:1022200072E081E392E0B6CF8091FA0560916D088B
:1022300070916E08ACE08A9F600D711D112481E0E1
:102240000E940A07863009F496CF8A3011F00C9468
:10225000252767E172E080E192E09CCF60E172E0C7
:1022600087E192E097CF2131310511F40C94922847
:102270002231310511F00C942527B090FA05ACE01D
:10228000BA9E60011124E0906D08F0906E08B601CE
:102290006E0D7F1D852D0E940A078C3008F04CC002
:1022A000E82F880FFF0BE95AFE4E0C949D39CF1191
:1022B00095119C11CB11CF1195119C11CB11CF1100
:1022C00095119C11CB112236F2E03F0709F4ABC304
:1022D000D8F42E32310509F4E4C22031324011F035
:1022E0000C942527072109F46FC320E0452D62E0F7
:1022F00088E698E00E941E2C882309F465C369E0F3
:1023000070E085E090E046CF263273E0370709F4AD
:102310001BC42D3483E0380709F4C3C22D3A324080
:1023200011F00C9425270C949228BFEFEB1AFB0AAE
:10233000F0926E08E0926D08A090FB05E0906D08A9
:10234000F0906E08EC0CFD1CF0927D08E0927C0889
:10235000C0906F08D09070082FE1A29EC00CD11CD5
:102360001124D0927F08C0927E08072109F45AC038
:1023700020E0452D72FE17C061E088E698E00E94DB
:102380001E2C882309F447C142E150E061E372E06A
:102390008CE292E036C2E1E0EE1AF108C9CFF2E039
:1023A000EF0EF11CC5CF60E088E698E00E941E2C7D
:1023B000882341F060E172E080E898E00E941E0905
:1023C0000C94252720E0452D61E088E698E00E94E6
:1023D0001E2C8111D9CF74FE54C1E1E082E05E125F
:1023E00081E00E94E52D182F8FEF810F823008F4D5
:1023F00015C1852D0E94E52D813009F40EC1823072
:1024000009F421C111110AC18091F4058F5F8093F5
:10241000F405843011F00C94252763E070E081E02E
:1024200090E0B8CE172139F047EE54E063E370E056
:102430008FE290E0E6C173FECECFC7016CE070E0A2
:102440000E948939962E9B18C6016FE170E00E94A8
:102450008939062F0A19B701852D0E940A07182FFE
:1024600031E0FF24FA94531611F0FF24F3949F0CEB
:1024700028E0452D602F892D0E9465298BA3EF2C24
:10248000E90C26E0452D602F8E2D0E94652989A339
:10249000DF2CDE0C24E0452D602F8D2D0E94652958
:1024A000A82EFD0C22E0452D602F8F2D0E9465295E
:1024B0008CA3CC24C394C00E28E0452D6C2D892D0F
:1024C0000E9465298C8F26E0452D6C2D8E2D0E9453
:1024D0006529B82E24E0452D6C2D8D2D0E9465298F
:1024E000482E22E0452D6C2D8F2D0E946529582EF7
:1024F000602F892D0E94BD298DA3602F8E2D0E94F3
:10250000BD29E82E602F8D2D0E94BD29982E602FA9
:102510008F2D0E94BD29082F6C2D8D2D0E94BD2965
:102520004BA1411174C059A151116CC0E1100EC0F2
:10253000992061F068E0163009F458C069E01A305B
:1025400009F454C0123011F465E050C0173014F093
:102550000C94BB28A1100C94BB286CA161110C94A5
:10256000AE287C8D71110C94D228B1100C94BE2829
:10257000411011C0552049F0E1100DC091100BC061
:102580006AE0123099F16BE031C0E11004C09110A3
:1025900002C00111F5CF41101CC0ADA1A11119C09D
:1025A000E11017C08823A9F066E020C0AA2011F42A
:1025B0000C94DB28EE2041F0163059F11A3049F125
:1025C000123011F40C94CF28FC8DF11105C0BB2002
:1025D00011F3AA2009F4B8CF163011F40C94CF28C7
:1025E0001A30B9F061E0123009F0AECFB0E16B9F64
:1025F000B001112480E0655E734C854F0E942F2F3F
:102600000C94252789A18150823008F09DCF60E08D
:10261000EDCF63E0EBCF712CDECE13E040E250E073
:1026200061E472E08FE492E00E941509133069F0D2
:102630001430C1F0123089F442E150E06CE272E0F3
:1026400081E392E008C014E0E9CF47EE54E063E391
:1026500070E08FE290E00E94150986E9809382087D
:102660000C94252747EE54E063E370E08FE290E09E
:102670000E94150942E150E061E372E08CE292E0D1
:10268000EACF77FC02C00C942527852D0E94052DEA
:10269000E82F813040F0833008F452C089EF8E0F6C
:1026A000833008F44DC0F1E082E05F1281E00E94C7
:1026B000052D382FC7016CE070E00E948939262F64
:1026C000C6016FE170E00E948939E5E03130C1F167
:1026D0002B19B22EA094A60E43E06A2D81E0820F42
:1026E0000E94F900182F43E06A2D8B2D0E94F900FB
:1026F000082F43E06A2D8FEF8B0D0E94F900B82E52
:10270000B701852D0E940A0721E0521631F032E010
:10271000531609F44CC0E3E013C08A3009F060C0DE
:102720001D3141F0A4F51231B1F344F5113099F3A4
:102730001B3059F5812F0E948C29E6E0811125C0BC
:10274000C7016CE070E00E948939462FC6016FE135
:1027500070E00E9489392FEF260FE250E83008F030
:1027600045C0F0E0EA54FC4E0C949D393E14191417
:10277000FB1345144C14051428141D141431D1F204
:1027800024F088EE810F8330A8F2E4E0D9CF15342D
:1027900089F22CF4153271F21C32B9F7CBCF1A340E
:1027A00049F21F3409F4C6CF173479F7C3CF8A3002
:1027B000B9F4033171F044F4023059F0023109F4F4
:1027C000AACF013011F7A7CF0C3119F024F406314C
:1027D000E1F68B2DB0CF0634E1F30C34B1F6F9CF2E
:1027E000013009F498CF023181F695CF60E270E0B4
:1027F00083E190E0CFCC42E150E065E273E083E119
:1028000093E00E9415090C94252751E081E05512B0
:1028100001C08FEF480F61E080E00E9494008F3F7D
:1028200041F068E0869FF0011124EA51F94F8CE6EF
:1028300080830E94AD2E0C94252761E080E00E94E9
:1028400094008F3FB1F378E0879FF0011124EDCF22
:1028500081E0581201C08FEF480F61E080E00E94D4
:1028600094008F3F41F098E0899FF0011124EA51D4
:10287000F94F8CE680830E94AD2E86CD60E270E039
:1028800083E190E00E94A80876CC60E270E083E1EA
:1028900090E00E94A808C8CD6EE270E081E290E06E
:1028A00079CC74FE21C08091F005873051F480917D
:1028B000FA058A3031F48091FB05811102C0109233
:1028C000F5050E94C229823009F476C0833009F4EC
:1028D0006CC0813011F00C94252742E150E066E392
:1028E00072E082E392E08DCF77FE59C02091FA0525
:1028F0009091FB058091F005873029F42A3019F476
:10290000992309F44CC0A1E05A1631F0B2E05B16ED
:10291000A1F160E040E004C0421B892F8095680F60
:10292000042E000C550B420F511D062E000C770B88
:10293000690F711DE0EEF6E090E080E0208121312A
:1029400011F02E31E9F4218124171506C9F42281F2
:1029500026171706A9F413E0880F991F1A95E1F7B7
:10296000FC01ED51F94F8081893081F442E150E062
:102970006FE472E081E492E044CF421B4F5FCDCF21
:102980000196389681339105C9F6F0CF8F3F71F3E8
:1029900042E150E06BE672E083E692E032CF809154
:1029A000820881110C9425278CCF42E150E06BE323
:1029B00072E087E392E025CF81E08093840860E4B1
:1029C00072E08CE392E0E6CB42E150E067E172E036
:1029D00081E192E016CFFF2011F40C942527072106
:1029E000A9F073FE05C08E8D0E94432F0C942527FD
:1029F00020E0452D63E088E698E00E941E2C8823A5
:102A000059F061E170E08EE090E0C4CB172121F035
:102A10000E94FA2E0C94252742E150E06CE172E00E
:102A200088E192E0EECE272D20713091830831119C
:102A30000C942527211107C042E150E06BE572E0BC
:102A400082E592E0DECEE1E05E1249C075FC4CC04A
:102A500073FC02C00C94252726EE35E010E000E060
:102A6000652F052E000C770BF901E650FF4F4081D2
:102A7000ECEEE40FE43080F4F901E550FF4FE08123
:102A8000E817190649F4F901E450FF4FE081E61711
:102A9000170611F40C9477250F5F1F4F285F3F4FE7
:102AA0000133110509F7E0EEF6E010E000E0252F14
:102AB000550F330B40814B3151F4418148171906B2
:102AC00031F442814217130611F40C9484250F5FF0
:102AD0001F4F38960133110569F70C942527F2E052
:102AE0005F12B6CF76FEB4CF20E0452D69E088E6D0
:102AF00098E00E941E2C882311F40C94252762E68E
:102B000072E08CE592E046CB86E00E942407B3E0B9
:102B1000000F111FBA95E1F70253194FD8015296D1
:102B20008C918451BFE08B9FC0011124BC01665879
:102B30007D4F42E150E084599D4F0E94150980E687
:102B4000F801828B0C94252773FE41C042E150E0CE
:102B50006DEB72E084EB92E00E9415098091F00524
:102B60008C3011F00C942527E091030918E1E19FC6
:102B7000F0011124E657F74F8389833011F00C944C
:102B8000252780819181863223E0920710F40C94EE
:102B90002527833333E0930730F08B53934003971B
:102BA00010F00C94252784E0838BE0918808F09145
:102BB000890815AE14AE22E130E04DEB52E064EB33
:102BC00072E088E898E00E944B080C94252746E2C2
:102BD00053E06AE373E083E393E072FC12CE77FE86
:102BE00025C0E091030948E1E49FF0011124E65774
:102BF000F74F8081918184539340039780F4E09153
:102C00008808F091890815AE14AE26E233E04DE352
:102C100053E06BE373E088E898E00E944B0846E2DB
:102C200053E06DE373E08BE393E0EBCD102B1721C2
:102C300011F40C94252776FE03C052E0551629F0B6
:102C400075FE15C061E0561215C020E0452D61E00B
:102C500088E698E00E941E2C882311F40C94252706
:102C600046E253E06FE273E08DE293E0CACD71E09B
:102C700042E0571241E024E061E088E698E00E94DB
:102C80001E2C882311F40C94252746E253E062E3BE
:102C900073E080E393E0B5CD72FE2BC0E091800835
:102CA000F091810884AD95AD892B19F51E8D112306
:102CB00079F0E091030928E1E29FF0011124E65741
:102CC000F74F8089882321F080917808811111C005
:102CD00080911401853028F48F5F809314010C9447
:102CE000322787E08093EC0581E0809319011092F0
:102CF0001B01109214010C94322764E27DEE87E0F0
:102D00000E94250867FC90931B0164FC80931B01C3
:102D1000862D8C7011F40C943227E0911B01EA305F
:102D200088F5F0E0EA56F94E0C949D39BB16B916B9
:102D3000A716A016BF16C516C716CC16CF16D216E4
:102D40009091CF0187E0891B80931B011BC081E01C
:102D50008093E6058091F3058F5F8093F30580E211
:102D600080938A000E94DD0210928A008FED87BD59
:102D700002C00E94370282E08093190103C082E002
:102D80008093EC05612C0C94322788E0DDCF0E9403
:102D90001A060E94360AEFCF0E941506FACF10924B
:102DA000E605DDCF85E0D0CF0C521240063011058C
:102DB00010F00C9481278091F005843009F04FC009
:102DC00000916C08013009F04AC080917E08909112
:102DD0007F086FE170E00E9489399B0180917C0837
:102DE00090917D086CE070E00E9489396756710906
:102DF00063307105A0F5232B91F510920309109112
:102E00009C08133061F510929C0828EE34E041E1F3
:102E100050E06AE070E088E898E00E944B0841E1E9
:102E200050E06AE070E088E898E00E94972F41E166
:102E300050E06AE070E088E898E00E94972F49E04F
:102E400050E064E070E088E898E00E94972F0093DB
:102E500078088091E606833011F01093E6068091A1
:102E60006808909169088C30910521F0409711F025
:102E70000C9481278091910081110C94812789E124
:102E80000E9424070C948127003582E0180709F47A
:102E900004C13CF50A33A2E01A0714F40C9481270C
:102EA0000C33B2E01B070CF4F8C00034124011F0F0
:102EB0000C94812781E00E947B09813009F43FC195
:102EC00008F430C1823011F00C9481276DE473E076
:102ED00088E493E00E94A8088AE5809382080C9415
:102EE00081270937F2E01F0709F420C244F40C558A
:102EF00012400730110508F45ECF0C948127083882
:102F0000124011F00C948127809179088F5F809393
:102F1000790817C2063E42E0140731F10CF070C088
:102F2000083C62E0160701F19CF40D3A82E01807B4
:102F300009F4EDC0023C92E01907B1F0063A1240E4
:102F400011F00C94812781E0809386080C948127EE
:102F5000043DB2E01B0741F00CF046C00E3CF2E02D
:102F60001F0711F00C94812780917C0890917D08B7
:102F70006CE070E00E9489398091FA05D62ED81A4B
:102F800080917E0890917F086FE170E00E948939FE
:102F90008091FB05C62EC81A43E06C2D8D2D0E9432
:102FA000F9004C2D6D2D0E94A301811124C1809147
:102FB00084088F5F80938408C801885093400597E8
:102FC00008F014C110926B0810926A086CEE72E05F
:102FD00088EE92E00E94A8086DEE72E080E898E02A
:102FE0000E941E090C9481270A3D22E0120709F471
:102FF000BBCF003E32E0130709F4B6CF0C94812713
:103000000D3043E01407DCF5083053E015070CF0F1
:10301000ABCF023F62E0160709F4A6CF3CF40C3EAA
:1030200082E0180709F4A0CF0C948127083F92E0B2
:10303000190709F499CF0730134011F00C94812738
:1030400083E08093EC0587E00E942407E091060965
:10305000EF3039F587E08093060987E10E94FA078F
:10306000809178088093F605809179088093F70520
:103070008091F0058F5F8093F0050C9481270733D2
:10308000B3E01B0709F476C1073EE4E01E0759F1DF
:103090000532134011F00C9481270E94FC010C941E
:1030A000812781E08E0F80930609E650E830C0F654
:1030B000F0E0E35AF74E0C949D392D186518671807
:1030C00069186B1871186D186F1888E1C7CF89E1FE
:1030D000C5CF8AE1C3CF8BE1C1CF8CE1BFCF8DE1FA
:1030E000BDCF8EE1BBCF82E190E0909369088093E1
:1030F000680880916C08813041F482E080936C080C
:1031000072E1E72EF12C0C94812781E0F7CF8091BA
:103110006C08813029F482E080936C080C9481273C
:1031200081E0FACF809184088F5F8093840860E407
:1031300072E08CE392E00E94A8080C9481270E9420
:1031400087028F3F09F050C080918408813051F090
:10315000823091F080918608811137C00E94B208B8
:103160000C94812742E150E06BE572E080E592E04B
:103170000E9415090C94812742E150E06BE572E052
:1031800080E592E00E94150969EA72E088EA92E01F
:103190000E94A80880918608811113C087E10E94CF
:1031A000240780E00E94670280917808882319F044
:1031B00081508093780880917808811102C00E9424
:1031C000B208109286080C94812742E150E06BE52A
:1031D00072E080E592E00E94150969EA72E088EAEF
:1031E00092E00E94A808EDCF83E0B8CF10936B085F
:1031F00000936A08EBCE0E9487028F3F09F068C0F7
:1032000080918408813049F0823059F1809186089C
:1032100081114FC00E94B20808C042E150E06BE546
:1032200072E080E592E00E94150960916808709153
:1032300069086A3D12E0710769F008F05BC0683CFC
:1032400032E0730739F008F045C0623C52E0750780
:1032500009F04AC06F5F7F4F80E898E00E941E0926
:1032600043C042E150E06BE572E080E592E00E94ED
:10327000150969EA72E088EA92E00E94A808809144
:103280008608811113C087E10E94240780E00E9414
:10329000670280917808882319F08150809378081C
:1032A00080917808811102C00E94B20810928608AD
:1032B000BCCF42E150E06BE572E080E592E00E9415
:1032C000150969EA72E088EA92E00E94A808EECF48
:1032D00083E0A0CF6E3C82E0780709F4BBCF643D69
:1032E00092E0790709F4B6CF10926B0810926A0841
:1032F0000C9481276C3EA2E07A0741F078F4603E9E
:10330000E2E07E0719F0663E724071F760916A084C
:1033100070916B086115710539F39CCF623F12E023
:103320007107A1F3683F7240F9F6F0CF80917808F9
:1033300090E02091790830E00196281739070CF4C5
:10334000C901809378080C94812780917808209196
:10335000790830E08150990B281739070CF4C9011E
:103360008093780881110C948127F8CE10928408FC
:103370000C948127E09103092E2F30E078E1729FB1
:10338000D001739FB00D1124A857B74F56964D9199
:103390005C916091FA0514EF1603C0011124840FAB
:1033A000951F8038910510F00C94812780917C083E
:1033B00090917D08841B950B4496899710F00C948E
:1033C00081272F5F3F4F729FD001739FB00D112453
:1033D000A857B74F20917E0830917F088D919C911E
:1033E0002817390711F00C948127882011F40C94C8
:1033F000812718E1E19FF0011124E657F74F8389F7
:10340000833009F054C081E00E94670288E10E9485
:10341000240780917808882319F0815080937808D8
:103420008091780881111FC082E00E94B208E0916B
:103430008808F091890815AE14AE22E130E04DEB1A
:1034400052E064EB72E088E898E00E944B0822E1C9
:1034500030E04AE353E068E373E088E898E00E94D4
:103460004B080C9481278091030928E1829FC001B9
:1034700011248657974FDC0114962C9142E021309D
:1034800009F041E024E061E00E941E2C882311F441
:103490000C948127E0918008F091810815AE14AE5C
:1034A00046E253E062E373E080E393E061CE85E0BF
:1034B0008093DC0681E08093DD06858196816CE057
:1034C00070E00E9489396093DA06878190856FE108
:1034D00070E00E9489396093DB0688E10E9424072E
:1034E000E0910309E19FF0011124E657F74F80892D
:1034F000882311F08150808B808981114BC080918D
:10350000F0058C30A9F4E0910309B8E1EB9FF001DC
:103510001124E657F74F838981110AC082898111EE
:1035200007C08091E606833019F083E08093E606B9
:1035300088E00E942407E0918808F091890815AE80
:1035400014AE4CEA52E06AEA72E088E898E00E9421
:10355000972FE091030918E1E19FF0011124E6574C
:10356000F74F108A80E480930409E0918008F0917D
:10357000810815AE14AE42E150E06DEB72E084EBD1
:1035800092E00E94150942E150E06AE373E088E3AB
:1035900093E0EECDE091030988E18E9FF0011124C4
:1035A000E657F74FDE011196982F01900D929A95EC
:1035B000E1F7909189089F93909188089F932DB788
:1035C0003EB7285131090FB6F8943EBF0FBE2DBF4C
:1035D000ADB7BEB71196FE01319601900D928A9556
:1035E000E1F70E949B2F0FB6F894DEBF0FBECDBF50
:1035F0000C94812743E0880F991F4A95E1F78A517F
:103600009A4FFC01E550FF4F40812C2DCC0C330B21
:103610004217130689F4319640812D2DDD0C330BB2
:103620004217130649F434962081211105C08250B7
:103630009F4FDC018C9180838091EC05853009F0EF
:1036400040C0809178088823E1F180917C089091B6
:103650007D086CE070E00E948939F62E80917E082A
:1036600090917F086FE170E00E948939E62E809189
:103670006C08823009F4F394BE016F5F7F4F88E6D7
:1036800098E00E94360910916D080981010F8B8125
:10369000180F002309F40CC2112309F40BC21017F0
:1036A00018F0812F102F082F202F412F6E2D8F2DD6
:1036B0000E94E108202F412F6E2D8FEF8F0D0E9469
:1036C000E108A0918808B0918908DE968C91DE9778
:1036D000811134C2E091030918E1E19FF001112446
:1036E000E657F74F8289811129C2DC968D919C9112
:1036F000DD97009709F422C20197DD969C938E9383
:10370000DC97880F991FA80FB91F0D911C91C80154
:1037100017FF04C088279927801B910B9183808312
:10372000E09103098E2F90E038E1F32EEF9DF00138
:103730001124E657F74F20813181273443E03407C5
:1037400009F4DCC2283E54E0350709F4B5C127333B
:10375000334009F0B3C1F89EF001F99EF00D112439
:10376000E857F74F668977892091FA0544EF4203BD
:1037700090011124260F371F2038310508F09EC113
:1037800040917C0850917D08461B570B0196F89E8E
:10379000F001F99EF00D1124E857F74F60917E0873
:1037A00070917F0880819181681B790B2091680856
:1037B000309169082B3383E0380708F04FC2263276
:1037C00093E0390708F051C22A5A324023303105BC
:1037D00008F474C14D5E5F4F4732510508F06EC169
:1037E000672B09F06BC168C233E0880F991F3A95C7
:1037F000E1F7FC01ED51F94F81E01DCF23E0880F87
:10380000991F2A95E1F78C010A511A4F7801BDEFF3
:10381000EB0EF11C6FEFF70180810E94F601F801B9
:10382000E250FF4F6FEF80810E94F601F801E150F6
:10383000FF4F6FEF80810E94F601F801F39581E060
:103840008083319688E180838091F005863009F08D
:10385000F3CED7018C91843009F0EECE1C9222E198
:1038600030E047E152E060E172E088E898E00E94D1
:103870004B0847E453E060E473E088E898E00E9476
:10388000972FDACE6AE0233009F064E17C0183E00F
:10389000EE0CFF1C8A95E1F7F701ED51F94F80819D
:1038A0000E94F601F80193E0EE0FFF1F9A95E1F7F1
:1038B000EA51FA4F82896AE0833009F064E1F70146
:1038C000EC51F94F80810E94F601B3E0000F111F07
:1038D000BA95E1F7F801EA51FA4F82896AE083303C
:1038E00009F064E1F701EA51FA4F7F01E150FF4F1F
:1038F00080810E94F601F701F39581E08083319683
:1039000088E199CE2091E606233009F495CE53E064
:10391000880F991F5A95E1F7FC01EA51F94F81E0B0
:10392000808383E08093E606E0EEF6E06CE0C62E4E
:10393000D12C7FE1A72EB12CA0E69A2E80818F306A
:1039400041F5E2800181809002092AE838E040E0F8
:1039500010E0F12C8416E9F0D90152968C9152971F
:103960008230E1F415968D919C91B6010E948939BF
:103970006017710799F4D90117968D919C91B50143
:103980000E9489396E157F0549F4D90152961C921F
:10399000908238962E163F0689F64ECE4F5F285EEF
:1039A0003F4FD8CF41E060E68DE10E94B100FC01BD
:1039B0008381882309F440CE13821092030983E0A7
:1039C00080939C0885E08093DC0681E08093DD068F
:1039D00081818093DA0682818093DB062DCE8091EF
:1039E0007808882309F428CE0E9487028091FA057E
:1039F00060916D0870916E08BCE08B9F600D711D29
:103A0000112480916C080E940A0783300CF414CEB4
:103A100080916808909169088339910530F589385B
:103A20009105F8F48336910580F489359105C8F441
:103A30008530910508F400CE8231910590F08754CD
:103A400091090C9708F0F8CD0CC08936910508F45F
:103A5000F3CD8337910528F0895791090A9708F02B
:103A6000EBCD83E00E94B208E7CD853C910568F478
:103A7000893B9105B0F78939910508F4DDCD833A8A
:103A8000910578F3895A9109E9CF893E910530F47F
:103A90008D3D910530F78B5C9109D3CF8F5E9109F5
:103AA0008132914008F0C8CDDCCF10928708C4CD98
:103AB000012FFACD102FF8CD84E0828BE09103091D
:103AC000A8E1EA9FF0011124E657F74F40815181A8
:103AD000BE016F5F7F4F84810E94B10799818FEF94
:103AE00017FF81E0A0910309E8E1AE9FD001112406
:103AF000A657B74F989F902D112415962D913C9164
:103B00001697290F311D97FD3A9516963C932E93E3
:103B100015979B81899F802D112490910309E99F1E
:103B2000F0011124E857F74F218532853487238728
:103B3000280F311D87FD3A953287218780E00E944A
:103B40007B09182F80918708811125C2BE016F5F04
:103B50007F4F88E698E00E9436098A818E5782302E
:103B600008F4E9C01111E7C0809184088111E3C015
:103B70000091FA05F0906C0860916D0870916E08E4
:103B8000BCE00B9F600D711D11248F2D0E940A0750
:103B9000182FE0918008F091810815AE14AE81E0F5
:103BA00080938408809168089091690890936B08CD
:103BB00080936A08183008F061C180917C08909168
:103BC0007D086CE070E00E948939E1E02FEFFE1281
:103BD00021E0601B260F85E0820F853108F09DC033
:103BE00080917E0890917F086FE170E00E94893992
:103BF0009091FB05862F891B8F5F082E000C990B77
:103C0000019636E1389FF001399FF00D1124EA51F9
:103C1000FA4FE20FF11D27FDFA95E457FF4F80811F
:103C200027E0E22E01E021E04FE76FE70E947301F9
:103C3000882309F423C1EFEFE10FE73008F06FC0EC
:103C40000E2E000CFF0BE95DF14E0C949D391A1FEE
:103C5000351F231F2C1F1A1F351F231F2E533340C0
:103C60002230310508F0B6CD29CF4D5E5F4F473287
:103C7000510508F023CF672B09F020CF81E00E9487
:103C8000670288E10E942407809103098F9DF0015B
:103C90001124E657F74F20916C08848190917808A1
:103CA00028130EC0292F921718F0921B90937808B2
:103CB00080917808811106C082E00E94B208FECE91
:103CC00021E0F1CF848142E0813009F041E024E03D
:103CD00061E0CF010E941E2C882309F4EFCEE09111
:103CE0008008F091810815AE14AE46E253E062E31D
:103CF00073E080E393E00E941509E0CE44E062E1C6
:103D000081E10E94B100FC018AE084838FEF868309
:103D100083E087838EE18083D1CE8FEF81CF68EF00
:103D200072E084EF92E00E94A80888EF92E09093FE
:103D30006B0880936A088091870881112CC1BE01AD
:103D40006F5F7F4F88E698E00E9436098A818F373F
:103D500009F021C18091840881111DC1BE016F5FEE
:103D60007F4F88E698E00E943609298180917C087F
:103D700090917D08820F911D27FD9A956CE070E06F
:103D80000E9489398091FA05262F281B85E0820F31
:103D9000853108F0BCC080917E0890917F086FE16A
:103DA00070E00E9489399091FB05862F891B082EAF
:103DB000000C990B019636E1389FF001399FF00D08
:103DC0001124EA51FA4FE20FF11D27FDFA95E4574D
:103DD000FF4F808197E0E92E01E021E04FE76FE798
:103DE0000E947301882309F4D6C0E0918008F09105
:103DF000810815AE14AE81E08093840880916D082F
:103E000090916E086CE070E00E9489398B309105CA
:103E100008F0B9C0FC01E15FF04E0C949D39C61F5B
:103E2000891FC01F891FC61F891FC01FC31FC61F30
:103E3000891FC01F62EF72E08EEE92E00E94A80818
:103E400082EF92E074CF66EE72E082EE92E00E9422
:103E5000A80886EE92E06BCF60EE72E08CED92E007
:103E60000E94A80880EE92E062CF6CEE72E088EECD
:103E700092E00E94A8088CEE92E059CF80916D08E4
:103E800090916E086CE070E00E9489398B3091054A
:103E900008F034C0FC01E15BF04E0C949D395A1FD0
:103EA000631F6C1F7E1F5A1F631F751F7E1F5A1FC3
:103EB000631F6C1F62EC72E08EEB92E00E94A80818
:103EC00082EC92E034CF68EC72E084EC92E00E94E5
:103ED000A80888EC92E02BCF6EEC72E08AEC92E0BE
:103EE0000E94A8088EEC92E022CF6AED72E086ED87
:103EF00092E00E94A8088AED92E019CF64ED72E08A
:103F000080ED92E00E94A80884ED92E010CF8FEF40
:103F100061CF6BE073E080E898E00E941E09809119
:103F20006F089091700849976FE170E00E9489399D
:103F3000882389F11FE1181B812F110F110F180F12
:103F40001550612F70E080E06F5E7741884F0E94CE
:103F5000C303E12EF12CF4E0EF0EF11C1E151F043B
:103F600009F0BCF40E945B02882341F0682F70E0E6
:103F7000645F7C4F80E898E00E941E091F5FEECFCF
:103F80006AE073E0C8CF69E073E0C5CF68E073E032
:103F9000C2CF0E9461028091E006803169F5809174
:103FA000E506811129C080917C0890917D086CE024
:103FB00070E00E948939062E000C770B8091E30691
:103FC0008617170609F0C4F48091E40686171706D1
:103FD0009CF02091E20680917E0890917F086FE12D
:103FE00070E00E948939062E000C770B2617170601
:103FF00019F483E08093E60680916808909169083F
:104000008C3A12E0910719F08F339340C9F463FEA4
:1040100017C08091F2058111CDC08091F105811109
:10402000C9C083E08093EC0582E1809306098BE0B0
:104030000E94240783E10E94FA0780E8809301012F
:104040008AEE882E99249A94512C412C8BE090E092
:10405000AC01465E55405D8F4C8F15E0B4016A514E
:104060007A4F3B010CE6C02ED12C8C8D9D8D88198A
:1040700099099AA389A3D301DD960C918091FC053F
:104080005201A81AB108BEE1AB1AB1080C3709F405
:1040900098C00CF093C0B0E1EB2E22E13EE341E08A
:1040A00007FFA5C0F301E555FF4F8081A0E1EA2E8F
:1040B00000E026E933E641E0833341F0843351F4F4
:1040C000F0E1EF2E00E022E434E641E0B501C60164
:1040D0000E94CF03E1E06E1A7108FCE0CF1AD1080C
:1040E00024EFC2162FEFD20631F63FE1430E511CEA
:1040F00046E1840E911C52E48516910409F0AECF7E
:1041000050EEC52E56E0D52E1CE06FE1F62E7CE079
:10411000472E512CEFE16E2E712CD60111962C9169
:10412000119730E08091FA05F901E81BF1091E9F13
:1041300050011F9FB00C11244091FB0512968C91E9
:104140001297841B990BF89EB001F99E700D1124F3
:104150008091FC05681B71094B01FFEF8F1A9F0AC4
:10416000EC91E13208F08FC0F0E0E754FF4D0C9481
:104170009D397622D92154226422072154225C22BF
:104180005422542264225422642243214321432195
:10419000A421B121BA21BA21E521EE21FB2105227A
:1041A0000F22CF211A21B121FC20D4211922BA21BA
:1041B000C5217F2286E08093EC0542CF0F3709F0BE
:1041C00071CF209112013091130189A19AA1860D1E
:1041D000971D820F931F6FE070E00E947539612F69
:1041E0000E946939E12C082F2AE035E641E0B5014B
:1041F000C6010E94CF0356CF6B5E7F4F40E1E42E95
:1042000000E02EEB38E141E0C5010196A7C014960D
:104210000C911497615F7F4F13968C9130E1E32EE0
:1042200024E237E341E0813019F020EB3AE341E04A
:10423000C50194C0F601838186302CF5082E000C50
:10424000990B97FF03C091958195910920E1E22E8A
:10425000082F22EF3BE141E0B401C5010E94CF03EA
:10426000F1E0AF1AB1082FE7A216B10460F43FE302
:104270008316910440F4D60113968C91843019F47E
:1042800086E10E942407F8E0CF0ED11C2C143D04D7
:1042900009F043CFE091030918E1E19FF0011124F7
:1042A000E657F74F8289811143C16081718180E0B7
:1042B00061507242884F0E94C3030E9461028823AA
:1042C00009F436C1A0910309A19FD0011124A6577A
:1042D000B74F1596ED91FC9116973F972091FA05EF
:1042E00014EF120390011124E20FF31F17966D9142
:1042F0007C9118976F5171092091FB0541EE4203A3
:1043000090011124620F731F9091FC05691B7109C4
:104310006F5F7F4F53969C915397913009F400C281
:1043200008F4F5C020E030E040E0953008F0F9C036
:1043300014969C912EE736E844E0913009F4F1C0E0
:1043400022E63AEE43E0EDC0615F7F4F90E1E92E57
:1043500000E02EED38E141E0C50105960E94CF0353
:1043600092CF6D507109E12CF601058126E53FE100
:1043700041E04ACF80E1E82E13960C912EE139E11D
:1043800041E0B401C5010597E9CF6D507109E12CF9
:1043900001E026E53FE141E0C5010796DFCF6D5022
:1043A0007109E12C0CE0E2CF6D507109E12C01E0C4
:1043B000DDCFF6016581680D792D711D00E1E02EDC
:1043C00007812AE238E241E033CF6D5E7F4FB0E1F2
:1043D000EB2E00E022ED37E241E02ACF655F7F4F10
:1043E000A0E1EA2ED60113960C9123EB35E241E0D1
:1043F000C5010696B3CF655F7F4FF0E1EF2EF60162
:10440000038127EE35E241E0F3CF655F7F4FE0E1C6
:10441000EE2E13960C912BE136E241E0E9CF655F79
:104420007F4F50E1E52EF60103812FEA36E241E0AD
:10443000DFCF13968C91811126CF80917C089091CB
:104440007D08B2010E948939062E000C770B2617D1
:10445000370729F02F5F3F4F62177307F1F4809100
:104460007E0890917F08B3010E948939262F660F3C
:10447000330BC401B3010E948939460F421713065A
:1044800061F4E0910309B8E1EB9FF0011124E657D4
:10449000F74F01E08289833009F000E0E12C22E847
:1044A00034E341E0B401C4CE40E1E42EF6010681DC
:1044B0002EEC3AE241E0F6CF30E1E32E16960C9175
:1044C00022E73DE241E0EECFF6010681802F90E049
:1044D0000E5FB401680F791F20E1E22E2EEC3AE264
:1044E00041E0D501A81BB90BCD0138CFF60183817E
:1044F000882309F4C8CE90E1E92E01E0D9CF6451B8
:104500007109E12C00E02BE537E241E091CE1496F1
:104510009C912EE038E545E0913019F02AE932E22D
:1045200045E00FEF080F80E1E82ECF010E94CF0396
:10453000609168087091690880E061507242884F0C
:104540000E94C3030E946102882309F160916F08F1
:10455000709170086F5171099091FC05691B710988
:104560006F5F7F4F90916C0826E832ED42E091300A
:1045700019F42AEA3AEB41E00FEF080F80916D0839
:1045800090916E0810E1E12E0F970E94CF03F0EE9C
:10459000AF2EF6E0BF2EACE0FA2EBFE19B2ED50188
:1045A00011962C9111978091FA05281B330BF29EDE
:1045B000C001F39E900D112412962C911297309108
:1045C000FB05231B330B929EB001939E700D1124AB
:1045D0002091FC05621B71092C91243009F4ACC0B8
:1045E000293109F4BCC0B8E0AB0EB11CCA14DB041D
:1045F000B1F68091F005883009F58091FA0588328E
:10460000E9F48091FB058330C9F48091150181356F
:1046100008F0BBC0873408F0C5C0813008F0BCC0CA
:1046200000E08CEE40E1E42E2AEE37EF40E06EE051
:1046300070E0082E000C990B0E94CF0330ED632E22
:1046400035E0732E912C812C1CE029E0A22EB12C98
:10465000F501EE55FF4FE60DF71D008107FD1BC06C
:104660008091FC05B401681B71096E517109033317
:1046700091F090E1E92E22E13EE341E0043321F4A0
:1046800000E026EA34E641E01A9DC0011B9D900D32
:1046900011240E94CF03E1E0AE1AB108C8F626E16A
:1046A000620E711C3FE1830E911C4CE7841691044D
:1046B00061F61CE08FE1F82EAF8DB8A111962C9118
:1046C00011978091FA05281B330B129FC001139F8D
:1046D000900D112412962C9112973091FB05231BFB
:1046E000330BF29EB001F39E700D11242091FC0556
:1046F000621B71096F5F7F4FEC91E250EA3008F066
:104700005EC0F0E0EA57FC4D0C949D39D52351244E
:10471000DF23D5234724DF23D5235124D523512458
:1047200014969C9126EF32EC45E0913009F4F9CED5
:1047300022E83DE845E0F5CEF5010481615F7F4F59
:104740002381E0E1EE2E213031F426EE34E341E026
:104750000E94CF0348CF22E639E341E0F9CF139618
:104760000C9106300CF03FCF002E000C110B17FF00
:1047700003C01195019511090A5F6F5F7F4F50E1EA
:10478000E52E22EF3BE141E0E3CF8E3808F048CF41
:1047900086958E5C01E046CF869598E7981B892F19
:1047A00000E040CF02E086E53DCF00E1E02EEF8D56
:1047B000F8A106812AED30E341E00E94CF032F8D5E
:1047C00038A1285F3F4F38A32F8FC216D30609F0B8
:1047D00073CF0091DC060150043030F58091DB0688
:1047E0009091FB05891B990B2FE1289FB001299F10
:1047F000700D11248091FC05681B7109635F7F4F68
:104800002091DA068091FA05281B330B4CE0429F79
:10481000C001439F900D1124E0E1EE2E2EEF3BE30B
:1048200041E003970E94CF03E091030938E1E39F41
:10483000F0011124E657F74FF0881E8DE12C11236B
:1048400019F001E0F11001C000E026EF35E041E091
:1048500070E060E088E790E00E94CF0310E0809174
:104860007908181770F501E080917808181708F496
:1048700000E024E0129FB0011124E12C26E638E18B
:1048800041E08BE790E00E94CF031F5FE8CFB0E1EB
:10489000EB2EAF8DB8A116960C912EE733E341E0D5
:1048A0008CCFEF8DF8A10681E02FF0E00E5F6E0F48
:1048B0007F1FA0E1EA2E2AED30E341E08E1B9F0B23
:1048C0007CCF1E8D112311F0F11044C0E12C00911A
:1048D000F20526E636E141E06FE270E08BE790E01A
:1048E0000E94CF030091F10526E636E141E069E33D
:1048F00070E08BE790E00E94CF038091850868E22A
:10490000882359F000E024E738E141E068E270E0F4
:104910008BE790E00E94CF0361E2809186088823B4
:1049200051F070E0E12C00E02DE738E141E08BE749
:1049300090E00E94CF0380916F08909170088833B7
:10494000910569F18735910551F110E0499741F5DD
:1049500010E326C010E048E1B42E5FE0C52ED12C54
:10496000E0910309EB9DF0011124E657F74F81898F
:10497000181708F701E01F1508F400E0B601611BE5
:104980007109660F771F660F771FE12C26E638E165
:1049900041E08BE790E00E94CF031F5FE1CF11E081
:1049A0008091F50581508035C8F4612F70E020E1D9
:1049B000E22E00E02CEB38EB40E087E190E00E9433
:1049C000CF031B5F612F70E0E12C0091F2052AEB11
:1049D00036E041E08DE190E00E94CF038091DE0659
:1049E000813069F46091DF0670E090E1E92E00E02B
:1049F0002CE43BEB40E088E190E00E94CF03809103
:104A0000EC05873009F045C064E77DEE87E00E9441
:104A100025086C0180911A01E12C0D2D2EE53BEF4C
:104A200040E070E060E090E00E94CF03B60177279D
:104A300080911A0190E000E022EE35E041E003961B
:104A40000E94CF0380911A01855E0091F0052AE74C
:104A500039E041E063E070E090E00E94CF03809194
:104A60001A01895F0091F2052AE739E041E06DE023
:104A700070E090E00E94CF0380911A01885E00915F
:104A8000F1052AE739E041E06DE070E090E00E9436
:104A9000CF03A5960FB6F894DEBF0FBECDBFDF9152
:104AA000CF911F910F91FF90EF90DF90CF90BF902B
:104AB000AF909F908F907F906F905F904F903F90BE
:104AC0002F900895AB2809F0FCC2111149C0882429
:104AD00083949CC0093111050CF05CC182E00E94F6
:104AE000B20858C1083E1F4F0CF454C1F7CF4431EF
:104AF00040F0463110F40C948415473111F40C94B5
:104B0000841580E00C94851586E00E94240783E0DC
:104B1000000F111F8A95E1F7F801E253F94F80E683
:104B2000828B81E080938508E0918008F091810874
:104B300015AE14AE42E150E06DEB72E08EEA92E009
:104B40000C940114812C112309F4BFC2D701DD9606
:104B50001C921E92DC97812CBCC2F70115AE14AEDC
:104B6000E09103092E2F30E068E1E69FF001112467
:104B7000E657F74F8089882309F448C080917C0864
:104B800090917D08629FD001639FB00D1124A857BA
:104B9000B74F56962D913C91579745815681579620
:104BA0005C934E935697D701DD961C921E92DC972C
:104BB000A0910309A69FD0011124A657B74F42E147
:104BC00050E04D935C93821B930B2091FA05A091CA
:104BD0000309A69FD0011124A657B74F97FD02C025
:104BE0000C94AD0E848590E0ECE02E9F800D911D1D
:104BF000112416969C938E931597E0910309E69FD6
:104C0000F0011124E657F74F81E0848362FE34C03F
:104C10001E8D112389F180918508882369F1809187
:104C2000680890916908429739F5E0918008F09101
:104C3000810884AD95AD892BF9F4E091030928E151
:104C4000E29FF0011124E657F74F80898823A1F0F5
:104C50008389843089F08091F005843021F480913B
:104C6000FA05843648F446E253E06CE273E087E2EA
:104C700093E00E941509612CE0918808F091890861
:104C800084AD95AD892B11F51E8D11111FC0E091DA
:104C9000030928E1E29FF0011124E657F74F8081D4
:104CA00091818F3233E0930739F0823343E09407E8
:104CB00019F08632934051F422E130E04DEB52E09E
:104CC00064EB72E088E898E00E944B088091EC0564
:104CD000853009F05FC0E0918808F091890884ADC3
:104CE00095AD892B09F056C080910309282F30E03B
:104CF00078E1879FC00111248657974FDC015296B7
:104D00004C915297411146C014966C9114976623AA
:104D100009F440C053964C914230E1F14430D1F156
:104D2000729FA001739F500D1124FC0118E1DE0158
:104D3000119601900D921A95E1F74857574F00913F
:104D40007C0810917D08FA0146895789041B150BD0
:104D50002F5F3F4F729FF001739FF00D1124E857B2
:104D6000F74F40917E0850917F0820813181421B8E
:104D7000530BDC012D913C912632B3E03B0711F43B
:104D80000C942C0F10F00C94C20E2231310511F44A
:104D90000C94F00E80911701811157C08091EC05A1
:104DA000853009F052C0E0918008F091810884AD0F
:104DB00095AD892B09F049C081E00E947B09F82E4E
:104DC00020916808309169082C3A42E03407E9F1F3
:104DD0002F3353E03507C9F180917C0890917D080D
:104DE0006CE070E00E948939462F80917E08909196
:104DF0007F086FE170E00E948939562F842F042EBE
:104E0000000C990BE091E106F0E0DF0111978A17A1
:104E10009B0711F00C94CE107091E206A62F062E7F
:104E2000000CBB0B7A171B0609F05AC17091E606FD
:104E3000733009F050C180916C08813011F40C94EA
:104E40001412823011F40C949E1074FE1092F4052A
:104E50008091EC05853011F40C944C16873011F4D8
:104E60000C947D16E0918008F091810886AD811147
:104E70000C941C1B84AD95AD009711F40C94551D3A
:104E8000019795AF84AF880F991FE80FF91FE08055
:104E9000F1808701F7FE04C0002711270E191F09B2
:104EA0001093690800936808073932E0130711F47A
:104EB0000C94A51914F00C948A17073352E01507C7
:104EC00014F00C944417053362E0160714F00C94A8
:104ED0004D18083172E0170714F00C94D416013401
:104EE000110514F00C94DB160430110554F0023156
:104EF000110514F40C94DB160231110511F40C9415
:104F0000B6194091680850916908BE016F5F7F4FE4
:104F100080916C080E94B10799818FEFF7FE81E0C4
:104F2000989F902D112420916D0830916E08290FC3
:104F3000311D97FD3A9530936E0820936D089B8143
:104F4000899F802D112420916F0830917008309333
:104F5000720820937108280F311D87FD3A95309310
:104F6000700820936F08BE01675E7F4F88E698E067
:104F70000E9436098A8D8E57823010F40C941C1BC7
:104F8000BE01675E7F4F88E698E00E9436092A8D51
:104F900080917C0890917D08820F911D27FD9A9544
:104FA0006CE0E62EF12CB7010E948939C62E809163
:104FB0007E0890917F080FE110E0B8010E948939C6
:104FC000D62E262F4C2D6BE080E00E949400B82E48
:104FD0008091F0058C3009F04BC0E09103092E2F31
:104FE00030E048E1E49FF0011124E657F74F838950
:104FF0008430F1F5828981113BC08091DC068111FA
:1050000037C0C9010196489FD001499FB00D1124B6
:10501000A857B74F8D919C91B8010E948939862E6F
:10502000429FD001439FB00D1124A857B74F569609
:105030008D919C91B7010E948939C61219C0D81070
:1050400017C085E08093DC0682E08093DD068581D1
:105050009681B7010E9489396093DA06878190852D
:10506000B8010E9489396093DB0686E00E9424071C
:105070005FEFB51611F40C941C1B8B2D90E08C0186
:10508000035E1F4FF80153E0EE0FFF1F5A95E1F743
:10509000EA51FA4F22892C3010F00C941C1BE22F9D
:1050A000F0E0EB5AF74D0C949D39F41BFA1AFE1BF5
:1050B000421CEF1C821C821CFE1B1C1B1C1BD21CD6
:1050C000421C11114ACD88248394C0920309811097
:1050D000FECC1E8E9BCD8E179F0711F40C94DE1014
:1050E00050906C08E2E000E210E45E1202C000E4BE
:1050F00010E22032310511F40C94511410F00C948C
:1051000063112D30310511F40C94EB1410F00C9454
:1051100033112330310511F40C9413152930310566
:1051200009F093CEFF2009F490CE072111F40C94DE
:10513000061573FE02C00C94F31420E0452D63E0C5
:1051400088E698E00E941E2C882311F40C940C151C
:105150006DE070E08AE090E00C94CA10123059F4CF
:10516000411009C0511007C0E11005C067E0992047
:1051700011F40C94F6129C8D911118C0BB2011F4FF
:105180000C94D612163011F40C94091364E01A3002
:1051900011F40C94F612123011F00C94D61262E055
:1051A0000C94F612123039F70C94A412A1100C943E
:1051B000DA120C94A412BB2011F40C94CB120C94B0
:1051C000A4120F920FB68F939F93EF93FF9380914A
:1051D000D1018D5F8D3708F08D578093D101E2EDBD
:1051E000F1E080818E4F808391819F4F91838281F6
:1051F0008F4F828383818F4F8383E6EDF1E080813F
:105200008F5F808381818F4F818382818F4F8283E3
:1052100083818F4F83838FB18F6066991C9B882712
:105220008F3681F48091D001981B963068F0E0E0D1
:10523000F8E087E78083818388E180936000F093C2
:105240006000FFCF9093D001FF91EF919F918F91DC
:105250000FBE0F9018951F920F920FB60F92112448
:105260002F933F934F935F936F937F938F939F936E
:10527000AF93BF93EF93FF93E7ECF1E080819181CF
:10528000A281B3810197A109B10918F40E943C06DB
:105290000BC080839183A283B3838481882321F40C
:1052A000369A85818111379AFF91EF91BF91AF9125
:1052B0009F918F917F916F915F914F913F912F912E
:1052C0000F900FBE0F901F901895EF920F9395E0DF
:1052D000980F9531F8F4A62F062E000CBB0B1196F3
:1052E00096E19A9FF0019B9FF00D1124EA51FA4F2D
:1052F000E80FF11D87FDFA95E457FF4F9081E22EEC
:1053000001E0242F462F682F892F0E9473010F91EF
:10531000EF9008959FEFF3CF8E3161F0C4F48131A7
:105320005CF48F303CF4823064F086301CF089509D
:10533000823038F481E008958631E1F324F483313A
:10534000C9F380E0089589518430D8F7F3CF8433CE
:105350003CF482337CF7833269F39CF38652F4CFBA
:10536000863441F32CF48D3329F3843451F7E2CFA2
:105370008C3401F38C3729F7DDCF43E00E94F9002C
:105380000C948C29CF93DF9380917C0890917D08B9
:105390006CE070E00E9489398091FA05C62FC81B25
:1053A00080917E0890917F086FE170E00E948939BA
:1053B0008091FB05D62FD81B43E06D2F8C2F0E94C8
:1053C000F9000E948C29811123C081E090916C0822
:1053D000913009F480E043E06D2F8C0F0E94F900BA
:1053E000C82F0E948C29CD3139F044F4C43121F00A
:1053F000C83111F0CB3041F483E00BC0C734E1F386
:10540000CF34D1F3C532C1F38111F6CF82E001C0B0
:1054100081E0DF91CF9108952F923F924F925F925A
:105420006F927F928F929F92AF92BF92CF92DF92B4
:10543000EF92FF920F931F93CF93DF93CDB7DEB719
:1054400028970FB6F894DEBF0FBECDBF8983209199
:105450007C0830917D08C9016CE070E00E948939B8
:105460008091FA05C62EC81A80917E0890917F0817
:105470006FE170E00E9489398091FB05681B6E83A3
:1054800010916C080FEF113009F001E0B901812F84
:105490000E940A078F83C00E28E0412F6E818C2D59
:1054A0000E9465298A83502E5C0C26E0412F6E8174
:1054B000852D0E9465298B83602E650C24E0412F89
:1054C0006E81862D0E9465298C83702E760C22E0D9
:1054D000412F6E81872D0E9465298D83070D20E065
:1054E000412F6E81802F0E946529B82EEE80E394B3
:1054F00028E0412F6E2D8C2D0E946529F82E26E084
:10550000412F6E2D852D0E946529382E24E0412FD4
:105510006E2D862D0E946529A82E22E0412F6E2D2A
:10552000872D0E946529882E20E0412F6E2D802F27
:105530000E946529282E6E818C2D0E94BD29482E3F
:105540006E81852D0E94BD29982E6E81862D0E9428
:10555000BD29182F6E81872D0E94BD29D82E6E81FE
:10556000802F0E94BD2988876E2D8C2D0E94BD2919
:105570008E836E2D852D0E94BD29582E6E2D862D71
:105580000E94BD29C82E6E2D872D0E94BD29782E20
:105590006E2D802F0E94BD299A819111B5C09B81EB
:1055A0009111B2C09C819111F7C09D81911102C1EE
:1055B000BB2019F09981963099F591102BC01111EB
:1055C00029C0D11027C09885992321F18F8187FDAB
:1055D00005C084302CF088300CF498C085E001C000
:1055E00083E028960FB6F894DEBF0FBECDBFDF91E3
:1055F000CF911F910F91FF90EF90DF90CF90BF90D0
:10560000AF909F908F907F906F905F904F903F9062
:105610002F9008959981953009F053C0BB20D1F0A7
:10562000A11083C081107CC021107FC011117DC0EA
:10563000D1107BC09885911178C0C11076C07110CF
:1056400074C0882309F471C08F81883008F060C06D
:1056500086E0C7CFFF2009F46DC0A11069C0882083
:1056600009F466C0442089F011110FC0DD2069F0F3
:105670009F8197FD08C085E194300CF4B2CF86E19C
:1056800098300CF4AECF87E1ACCFBB2009F450C00A
:105690003110D0C0A110CEC0882009F45AC02220F9
:1056A00009F457C0911055C0111156C0DD2009F4FE
:1056B00053C08F81823009F04FC089E092CF88E0DB
:1056C00090CF112359F08F8187FD04C0843024F0DE
:1056D000883014F181E185CF8DE083CF31105CC03B
:1056E000A1105AC0CC2009F457C09F8197FD08C073
:1056F00088E195300CF475CF8FE098300CF471CFC1
:1057000080E16FCF82E16DCF80E06BCF84E069CF25
:1057100087E067CF8CE065CF8EE063CF83E161CF18
:10572000F110A0CFB110B4CF05C0FF20D9F3B0CF96
:10573000F11061C0DD2009F476C01123F1F08F81F2
:1057400087FD6DC084300CF4BACF88300CF4B5CF2F
:1057500066C0FF2029F053C0F11054C0BB2051F3A4
:105760004110E8CF9110E6CF11115BC0DD2009F4A4
:105770005AC08F81823009F4A0CF9F8197FD4FC01E
:1057800094300CF49CCF98300CF497CF48C0BB20D9
:1057900089F2E8CF111197CF8F8187FD06C0843041
:1057A0000CF4B0CF88300CF4B9CF84E11ACF1111CA
:1057B0008ACF98CF9981953009F083CFF11081CFAE
:1057C0003110E8CFA110E6CF8110F1CF4110EFCF1B
:1057D0009110EDCF111177CF9E81911183CF511090
:1057E00081CFC11082CF7720B9F28F81883008F045
:1057F00091CF8BE0F6CE31109DCFA1109BCF8820AA
:1058000009F4ACCF442009F4C2CF911093CF111109
:1058100008C0DD2041F09F81923009F0AECF8AE0D0
:10582000E0CED1108CCF9F8181E0943008F4D9CEA6
:1058300082E0D7CEFF2009F493CF90CFAF92BF92F2
:10584000CF92DF92EF92FF920F931F93CF93DF934C
:105850008C01C62F31E0413009F43FEFF801A488F4
:10586000B588320370011124EA0CFB1CC7016CE0FF
:1058700070E00E9489398091FA05D62FD81B86895D
:1058800097896FE170E00E9489398091FB05D62EDF
:10589000D81A413029F0423009F45CC091E09DC033
:1058A0003D0F85E0830FCC24CA948531A0F48D2D63
:1058B0000D2C000C990B019626E1289FF001299FE1
:1058C000F00D1124EA51FA4FE30FF11D37FDFA955F
:1058D000E457FF4FC080B70181E00E940A07CB3038
:1058E00010F54C2F50E0FA01E858F34D0C949D3917
:1058F000A62C952CA62C982C832C932C932C932C93
:10590000832C952CA62CE41AF50AF801838566856C
:1059100070E0FCE08F9F600D711D112491E0E61690
:10592000F7060CF05AC090E058C0863008F0B6CFA9
:1059300097E0E92E00E021E04D2D6D2F8C2D0E9487
:10594000730191E0882309F448C0EDCF8A3008F054
:10595000A5CFEECF3D0F85E0830FCC24CA948531CF
:10596000A0F48D2D0D2C000C990B019626E1289F9B
:10597000F001299FF00D1124EA51FA4FE30FF11DB8
:1059800037FDFA95E457FF4FC080B50182E00E94D1
:105990000A07CB3040F64C2F50E0FA01EE52F34D9F
:1059A0000C949D39012DF92C012DFC2CDD2C932C10
:1059B000932C932CDD2CF92C012D4E0D5F1DF8013D
:1059C0008385278530E0FCE08F9F200D311D112459
:1059D00091E0241735070CF4A6CF892FDF91CF91E2
:1059E0001F910F91FF90EF90DF90CF90BF90AF90FD
:1059F0000895863008F052CF87E0E82E00E022E0DC
:105A00009BCF8A3008F04ACFF7CFDF92EF92FF9218
:105A10000F931F93CF93DF93D82E81E0D1E0D8125C
:105A200001C0DFEFE0907C08F0907D08C7016CE0DA
:105A300070E00E9489398091FA05062F081B809139
:105A40007E0890917F086FE170E00E948939109183
:105A5000FB051095160F43E0612F802F0E94F9007F
:105A6000C82F4EEF612F8D2F800F0E94F900D82F85
:105A70004EEF612F802F0E94F900182FB7018D2D56
:105A80000E940A0791E0D91631F092E0D91609F484
:105A900062C083E02FC08730A4F48330ECF487FD2C
:105AA000F8CFC53251F00CF046C0CA31F4F5C83118
:105AB00024F4CB3011F0C431D1F581E01E3FD1F494
:105AC00009C08D3034F7113021F3123111F384E025
:105AD0001E3F81F489E00EC0C53249F0CCF4CA31D2
